:1000000000240020F519000069610000251A000095
:10001000251A0000251A0000251A00000000000023
:100020000000000000000000000000004116000079
:10003000251A000000000000D1150000E760000054
:10004000791800007918000079180000791800006C
:10005000791800007918000079180000791800005C
:10006000791800007918000079180000791800004C
:10007000791800007918000079180000791800003C
:10008000791800007918000079180000791800002C
:10009000791800007918000079180000791800001C
:1000A000791800007918000079180000791800000C
:1000B00079180000791800007918000079180000FC
:1000C00079180000791800007918000079180000EC
:0C00D00079180000791800007918000071
:1000DC000A4BC0F30722C1B29A5C5B5C13443C2B05
:1000EC0009DC0C2206495A438B188A5890420CBFE3
:1000FC001846002070470020704700BF727800003F
:10010C009C2E0020F8B5074C06460F4600252368A8
:10011C0013B139462046B04701353D2D04F10C048E
:10012C00F5D1F8BD9C2E002000000000000000005E
:10013C0000000000000000000000000000000000B3
:10014C0000000000000000000000000000000000A3
:10015C000000000000000000000000000000000093
:10016C000000000000000000000000000000000083
:10017C000000000000000000000000000000000073
:10018C000000000000000000000000000000000063
:10019C000000000000000000000000000000000053
:1001AC000000000000000000000000000000000043
:1001BC000000000000000000000000000000000033
:1001CC000000000000000000000000000000000023
:1001DC0053B94AB9002908BF00281CBF4FF0FF31A2
:1001EC004FF0FF3000F06EB9ADF1080C6DE904CEA4
:1001FC0000F006F8DDF804E0DDE9022304B07047F6
:10020C002DE9F047089D0E4604468C46002B40F025
:10021C0081808A42174645D9B2FA82F24AB1C2F1BC
:10022C00200106FA02F320FA01F1974041EA030C8F
:10023C0094404FEA174E230CBCFBFEF6B9B20EFBF2
:10024C0016CC43EA0C4306FB01F0984209D9FB1883
:10025C0006F1FF3C80F01581984240F21281023E7B
:10026C003B441B1AA4B2B3FBFEF00EFB103344EA62
:10027C00034400FB01F1A14209D93C1900F1FF3301
:10028C0080F00181A14240F2FE8002383C44641AA5
:10029C0040EA064000211DB1D4400023C5E90043CB
:1002AC00BDE8F08702B9FFDEB2FA82F2002A4FD124
:1002BC00CB1B4FEA174E1FFA87F80121B3FBFEFC4C
:1002CC00260C0EFB1C3346EA034608FB0CF3B34228
:1002DC0007D9BE190CF1FF3002D2B34200F2EB8009
:1002EC008446F61AA3B2B6FBFEF00EFB106643EA88
:1002FC00064408FB00F8A04507D93C1900F1FF3370
:10030C0002D2A04500F2D2801846A4EB080440EAC1
:10031C000C40C0E78B4208D9002D00F0AF800021C3
:10032C00C5E900060846BDE8F087B3FA83F1002959
:10033C0049D1B34202D3824200F2BB80841A66EBED
:10034C00030301209C46002DAAD0C5E9004CA7E769
:10035C00C2F120039740D8409140DE404FEA174E3F
:10036C0008434FEA104CB6FBFEF11FFA87F80EFB60
:10037C0011664CEA064601FB08F3B34204FA02F498
:10038C0009D9BE1901F1FF3C80F08E80B34240F2D6
:10039C008B8002393E44F31A86B2B3FBFEF00EFB9F
:1003AC00103346EA034600FB08F3B34207D9BE19E3
:1003BC0000F1FF3C74D2B34272D902383E44F31AB6
:1003CC0040EA01417AE7C1F1200703FA01F422FA6D
:1003DC0007F31C4320FA07F906FA01F34FEA144C11
:1003EC00FE4049EA03094FEA1943B6FBFCFE1FFA2B
:1003FC0084F80CFB1E6643EA06460EFB08FAB2456F
:10040C0002FA01F200FA01F308D9A6190EF1FF3035
:10041C0048D2B24546D9AEF1020E2644A6EB0A06E6
:10042C001FFA89F9B6FBFCF00CFB106649EA06468C
:10043C0000FB08F8B04507D9A61900F1FF3C2DD2F6
:10044C00B0452BD90238264440EA0E40A6EB0806EC
:10045C00A0FB02894E45C446CE4618D315D075B3C1
:10046C00B3EB0C0266EB0E0606FA07F722FA01F361
:10047C00CE401F43C5E90076002111E729462846E6
:10048C000EE76646EDE6184601E74345E7D2B8EBC2
:10049C00020C69EB04040138A646E0E76046D3E79A
:1004AC0060468CE78646B9E7614674E702383C44FF
:1004BC002BE7084647E7ACF1020C3E4411E729460E
:1004CC00EEE600BF704700BF2DE9504101461C46C7
:1004DC0005F0DAF828B1064823468A2603DFBDE882
:1004EC00508103482346BDE8504104F091B900BF48
:1004FC00D80400200949BFF35B8F51E8003F43F05B
:10050C00010241E800200028F7D1BFF35B8FDB0725
:10051C0003D40348083906F0B4B87047200500200E
:10052C00B802002013B50022002301A8FFF7CCFF6E
:10053C00054C019B2046196805F0A2F900214FF4E7
:10054C00804005F0ABF8F4E70477000037B50023E2
:10055C000446002201A8FFF7B7FF064D019B214678
:10056C0028461A6805F08CF900214FF4804005F0FC
:10057C0095F8F3E71F7700002DE9484105F084F862
:10058C0020B10548272603DFBDE848810248BDE8B5
:10059C00484102F031BD00BF3D7700002DE94841D4
:1005AC00014605F071F820B104488B2603DFBDE845
:1005BC0048810248BDE8484106F008BAD80400203A
:1005CC002DE9504105F060F8B8B110489E2603DFC4
:1005DC004FF47A73A0FB03010D4CC30B43EA414368
:1005EC00236005F051F860B10848A22603DF2168AA
:1005FC000848BDE8504105F043B9044806F067FAD5
:10060C00E6E7024806F0E1FAF1E700BF80020020BD
:10061C0024050020447700002DE9484105F034F80A
:10062C0020B105485D2603DFBDE848810248BDE8DE
:10063C00484106F00ABA00BF400D03002DE9F34112
:10064C00114D124F0A2405F01FF898B14FF0FF32EC
:10065C0028460DF107011346642603DF9DF80710A9
:10066C003846013C05F00CF9FFF7D6FF14F0FF04F7
:10067C00E9D1E7E74FF0FF324FF0FF330DF10701FF
:10068C00284602F0CBFEE9E7B004002067770000B3
:10069C002DE9F341134C144F01258DF8075004F04C
:1006AC00F3FFA8B14FF0FF3220460DF107011346BE
:1006BC006A2603DF384605F0E3F8FFF7ADFF9DF837
:1006CC0007300133DBB20A2B8DF80730E5D8E6E7AB
:1006DC004FF0FF324FF0FF330DF10701204602F0CF
:1006EC00F1FDE7E7B00400207E7700002DE9F04330
:1006FC008BB001238DF8133004220523CDE905239B
:10070C004FF000084FF0000907260DF11303CDE957
:10071C0002897C4A7C4900937C487D4B019604F00D
:10072C00F1FF00247B49054605F019F8CDE9028953
:10073C00794A7A497A4801962346009404F0E2FFFC
:10074C00784940F6CD484FF00009074605F007F808
:10075C006FF00303744A75497548CDE90043CDE940
:10076C000289234604F0CEFF724904F0F8FF6FF0C3
:10077C000203714A71497248CDE90043CDE90289FF
:10078C00234604F0BFFF6F4904F0E9FF6E496F4840
:10079C0033464FF4007204F0B5FA6D4B6D4A6E4956
:1007AC006E481C60C3E90124224606F001FA04F0ED
:1007BC006BFF002800F09180684840F6CD4122463E
:1007CC004FF480439F2603DF654966480A2206F0F2
:1007DC00E1F805A8FFF7E2FE06A8FFF7DFFE624886
:1007EC000923012207A905F026FE4FF0A0435F4A1A
:1007FC00C3F83827C3F83C27C3F84027C3F834277D
:10080C000322C3F818270022C3F81C27584B594A57
:10081C000124C3F80443C3F8282502F58072C3F8F9
:10082C002C2502F5881202F20232C3F81C2502F5BF
:10083C008072C3F8202503F5C8334F4AC3F820252E
:10084C00A2F58672C3F8242502F58872C3F8282510
:10085C00A2F58672C3F82C250F22C3F800281C6061
:10086C00FFF78AFE0646002848D0122104F026FF26
:10087C00002843DBFFF780FE804600283ED0112184
:10088C0004F01CFF002839DB384604F09AFF284698
:10089C0004F097FFF3681B68254613F4802F84F04F
:1008AC0001040CBF2B4623464FF480213046FBB18C
:1008BC0004F065FFD8F80C301B6813F4003F08BF38
:1008CC0025464FF400314046ADB104F058FF0021ED
:1008DC004FF4004004F0E2FEDCE74FF480420023CA
:1008EC00CDE900231D4842464B4604F007FC6BE75C
:1008FC0004F056FFDEE704F053FFE8E70BB0BDE869
:10090C00F08300BF590500000024002000000020E7
:10091C008D7700009777000031050000002600203D
:10092C00A0000020A07700009D06000000280020F9
:10093C00E0010020A977000049060000002A0020F1
:10094C0040010020B5770000002C0020B8020020E8
:10095C0018050020CD0500000105000080020020D4
:10096C00F0040020D8040020B00400200C00030088
:10097C0000600040010F0200186100402DE9F04FAB
:10098C0087B00F461946109B9DF844B09DF848A0BF
:10099C001F4C06461425104698464FEAE37950EA58
:1009AC00010319D1142D139C14BF013530232C4491
:1009BC0008BF8DF81430152C1BD0153C002C1ADCFC
:1009CC001DF8050039460135B047152DF8D1002C1E
:1009DC0019DC07B0BDE8F08F42464B46FFF7F8FB39
:1009EC00A25C0DF8052084460B4660461946013D75
:1009FC00D5E70024E4E7BBF1000FE1D039465046BF
:100A0C00B047013CDAE739465046B047013CDEE7D7
:100A1C00C47700000B6801330B60014B1B6818474F
:100A2C00002E0020014B1860704700BF002E0020E4
:100A3C002DE9F04F002687B005468B461C4602F187
:100A4C00FF394FF0FF383746002307E06BB92528F4
:100A5C0000F0FC8059460493A847049B19F8010F39
:100A6C000028F3D107B0BDE8F08F7A280AD86228A5
:100A7C0010D8302852D045D8252800F0E5802D28F4
:100A8C0000F0EA8059462520A84799F800005946FD
:100A9C00A847D9E7A0F16302172AF3D801A151F8AE
:100AAC0022F000BF4D0C0000710B0000910A0000F9
:100ABC00910A0000910A0000530B0000710B00001A
:100ACC00910A0000910A0000530B0000910A0000EB
:100ADC00910A0000910A0000D50B0000910A000059
:100AEC00910A0000170C0000910A0000710B000025
:100AFC00910A0000910A0000190B0000910A0000F5
:100B0C00530B0000392815D95828BBD199F800305F
:100B1C00702B63D154F8042B00236AE0B8F1000F5A
:100B2C000BDA002F00F09A80A0F13008002F08BFDC
:100B3C00022793E7B8F1000FF6DB0A2202FB080844
:100B4C00A8F13008F2E7682803D1682E06D14826B0
:100B5C0084E76C2802D16C2E00F08280002E91D19B
:100B6C0006467BE77A2E03D154F8042BD31708E002
:100B7C006C2EF9D04C2EF7D1073424F00704F4E88E
:100B8C00022375280FD0002A73F100010BDA5946A5
:100B9C002D20CDE90423A847DDE90423524263EB61
:100BAC00430308F1FF38F91E18BF0121012F0CBFB8
:100BBC0030202020CDE9020801910A21009128461D
:100BCC005946FFF7DBFE3FE759463020A847594608
:100BDC007820A8474FF00808012797E76C2E99D08A
:100BEC004C2E97D1E31D23F007031C465B6854F889
:100BFC00082BF91E18BF0121012F0CBF302020201B
:100C0C000191CDE902081021D8E7A2465AF8043B1D
:100C1C001C46214614F8010B40B9032F22D1CC1AE3
:100C2C00A8EB0404002C06DC54460DE7594604934B
:100C3C00A847049BEDE759462020A847013CF1E763
:100C4C0054F8040B594623E7594621E71E461F4624
:100C5C004FF0FF38012301E70327FFE60127FDE6EC
:100C6C004C26FBE654460346F8E600BF70B5054E2D
:100C7C0004464518AC4200D170BD336814F8010B22
:100C8C009847F7E7002E002030B58BB004460D4690
:100C9C0004F0C5FD88B128220021684605F0CBFA86
:100CAC002B460A4822466946FFF7C2FE019B13B148
:100CBC00684604F0C0FD0BB030BD00900B460448F4
:100CCC0022466946FFF7B4FEF5E700BF6B580000FB
:100CDC00210A0000F8B50E4D089AAB68C3F88420C1
:100CEC00002206460F4605F059FA044630B104F0CE
:100CFC0096FDAB68D3F8840005F022FA30463946ED
:100D0C00FFF7B4FFAB682046C3F88440F8BD00BFC2
:100D1C00640600202DE9F84FB0F8189019F0080877
:100D2C0004460DD001290CBF49F0100949F02009E7
:100D3C00A0F8189082F31188BFF36F8FBDE8F88F7D
:100D4C0009F00709022907D1204604F0A6FD002866
:100D5C00F0D00128238B50D16769218B002F15DA35
:100D6C00256821F00701C4E9008841F001012183C5
:100D7C000026218B01F0070ACA4502D0A368002B7C
:100D8C005CD10DB9002E74D0002358E001F007039C
:100D9C00581F012820D821F00701062B256889B29D
:100DAC00C4E900880CD1002D2B4638BF00232BB191
:100DBC00608B1B6801306083002BF8D141F002017D
:100DCC002183204604F069FD06460028D1D0238BF0
:100DDC0043F020032383CBE7042B0CD121F0070134
:100DEC0089B22183204604F058FD05460028BFD067
:100DFC0041F0200121830025BAE7032809D121699C
:100E0C0023F007030E6843F00603238300252F46C7
:100E1C00AFE7042806D1216923F007034E6843F09D
:100E2C000403F2E7052806D1216923F007038E6835
:100E3C0043F00503E9E700252E46E8E7012341F0DE
:100E4C000801218382F31188BFF36F8F03BB002D40
:100E5C0040D116B125492046B0474FF02003EFF39F
:100E6C00118283F31188BFF36F8F238B23F0080358
:100E7C002383238BD90631D523F01003238301213F
:100E8C00B4F8189009F0070900297FF45BAF51E71B
:100E9C00A1680029DBD00B68D1F804B0002B38BF57
:100EAC000023994652463B462046D847B9F1000FDD
:100EBC00CDD0D9F800304946EEE739460BF10400A5
:100ECC002D6804F09FFC814620B13B4652465946A2
:100EDC002046C847AB46002DEFD1BAE713F02001EE
:100EEC001EBF23F0200323830221C9E7FD58000015
:100EFC00F8B50E4CA3681646089AC3F884200F4622
:100F0C0001220421054605F049F940B104F0ECFF3B
:100F1C006FF00C00A3680022C3F88420F8BD3A4699
:100F2C003346284604F0EAFFF4E700BF64060020CD
:100F3C002DE95041FFF7CCF8C0B183790E2B15D1B8
:100F4C0082689AB1D3688BB10B4B91689B689942BC
:100F5C000FD104F0C9FF28B110466D2603DF002025
:100F6C00BDE85081104602F037FCF8E76FF0150031
:100F7C00F6E74FF0FF30F3E76406002038B50C4C71
:100F8C00069AA3680421C3F884200122054605F0C3
:100F9C0005F940B104F0A8FF6FF00C00A368002223
:100FAC00C3F8842038BD2846FFF7C2FFF6E700BF20
:100FBC00640600200A2838B5064D044603D128687B
:100FCC000D2104F0BCFF2868E1B204F0B8FF204604
:100FDC0038BD00BF280500202DE94841EFF30583FB
:100FEC008BB9EFF31483DB070DD50948272603DFF4
:100FFC00084B1860084801F055F80748FFF712FD38
:10100C000020BDE84881024801F0F6FFF0E700BF80
:10101C00D577000028050020C10F00002DE9F04114
:10102C000E4FFA68841AA3100D4C5C430546E4B2CB
:10103C000C2000FB04200E464021084404F0ACFFB9
:10104C00011E05DB7B6803EBC40463689847002131
:10105C0028463346BDE8F041184700BF202E00203B
:10106C00B76DDBB62DE9F047DFF85080D8F80C608F
:10107C00841BA3100F4C5C43E4B20C2565438146E2
:10108C0005F140000F463044402104F09EFF011E44
:10109C000ADB094A7319C3E90E27D8F8043053F850
:1010AC003430BDE8F047184748463B46BDE8F047AA
:1010BC00184700BFB76DDBB639600000202E00204A
:1010CC00002270B501210446104600F0FBFA002006
:1010DC0000F0E8FA4FF08043E6680C490322012542
:1010EC00C3F818553046C3F8042304F00FFC00284D
:1010FC000ADB3564E468054904F11C0004F006FCC5
:10110C000028A4BFE564002070BD00BF4C72000035
:10111C002DE9F0410B4E01460C23F0684B43C418EB
:10112C00D4E90E5700224033A263184404F06BFF3D
:10113C002DB13A4630462B46BDE8F0411847BDE884
:10114C00F08100BF202E002008B54FF02003EFF3F4
:10115C00118183F31188BFF36F8F134A136843F027
:10116C00020013F0010310600ED04FF08042D2F851
:10117C000C34D2F80C2413F0010305D00B4BD868B7
:10118C00403004F040FF012381F31188BFF36F8FCF
:10119C0023B1BDE808400020FFF7BABF4FF08043F1
:1011AC0001221A6008BD00BF8C050020202E0020F3
:1011BC00054B00221A6082B01B680193019B034B04
:1011CC0001221A6002B07047040100400C0000407C
:1011DC000D4ABFF35B8F82B052E8003F23F002014F
:1011EC0042E800100028F7D1BFF35B8F13F0010326
:1011FC0007D1064A136013680193019B044B01222B
:10120C001A6002B0704700BF8C050020000100403E
:10121C00040000402DE950410A4C227842B904F0F8
:10122C00A8FE50B14FF4A5705D2603DF0123237097
:10123C00054B01221A60BDE850814FF4A57005F0F2
:10124C0004FCF3E7E00F0020080000402DE970419A
:10125C00012389B00025CDE906530F4B019504AC51
:10126C0001AACDE90444CDE9023404F018FF0028AA
:10127C0008DB04F07EFE40B120464FF480412A4644
:10128C00872603DF09B0BDE870814FF4804200234C
:10129C00204603F0EDF9F5E74B600000184B07B55D
:1012AC001A68B2B14FF08042D2F80423D00710D59F
:1012BC0000221A601B680093009B124BDB68186CB1
:1012CC0010F0070005D1104B1B68990701D5FFF7EB
:1012DC001FFF0E4B1A6882B14FF08042D2F80423E4
:1012EC0092070AD500221A601B680193019B01200A
:1012FC0003B05DF804EBFFF70BBF03B05DF804FB24
:10130C0000010040202E00208C050020040100402C
:10131C0010B51149BFF35B8F0446012251E8003F21
:10132C0041E800200028F9D1BFF35B8F43B90B498A
:10133C00C8680B491C304B60CB608A6004F0F9FA2A
:10134C00012C06D0022C06D10120BDE8104004F07F
:10135C0085BE0020F9E710BD90050020202E00204E
:10136C002C050020821C084B22F07F42C3F840253C
:10137C00D3F80425904200D17047D3F80405821CA1
:10138C0022F07F42F2E700BF00100140044B002224
:10139C0082B01A601B680193019B02B0704700BFBA
:1013AC004011014008B5FFF7F1FF074B074AD3F88E
:1013BC0040051368C01A20F07F4003441360BDE859
:1013CC00084003F0C9BD00BF001001409405002087
:1013DC0038B5104D0024C5F80845FFF7D7FF0E4B64
:1013EC004FF40032C3F880214FF48033C5F8043336
:1013FC0022460121112000F065F9112000F052F96C
:10140C00064A0123136020462B60FFF781FF20461C
:10141C0038BD00BF0010014000E100E008100140A1
:10142C002DE97841304B314C1968D4F80425304DF6
:10143C00521AB0F1FF3F08BF2846160222F07F4334
:10144C003BD4013820EAE070A842A8BF28460133FB
:10145C004FF480361844C4F80863A84294BF0D18A2
:10146C004D19D4F80405D4F84015FFF78FFF091A6D
:10147C0021F07F4120F07F430129C4F84035C4F8A6
:10148C0044630BD1EFF30583CBB9EFF31483DA0785
:10149C0015D50F205D2603DFFFF778FF154B4FF4B2
:1014AC000032C3F88021D4F804052B1A23F07F43B3
:1014BC00012B08D1FFF756FF0FE00020C7E70F20E4
:1014CC0005F0C3FAE8E725F07F43C4F84035D4F8BB
:1014DC0004052D1A023D2B02ECD44FF48033C4F8D2
:1014EC000433BDE8788100BF940500200010014052
:1014FC00FFFF7F0000E100E04FF02002EFF31183CB
:10150C0082F31188BFF36F8F064AD2F80405064A9E
:10151C001268801A20F07F4083F31188BFF36F8F1D
:10152C00704700BF001001409405002010B5114C0D
:10153C00114AA2610323C4E90433104BE361226610
:10154C004FF480630E4A0F49236262660023102217
:10155C00E01DA3626362E3622367E3666367A266CE
:10156C0004F028FE0849204604F024FE2023A37131
:10157C0010BD00BF98050020EC770000F10F002093
:10158C00E10F0020F5770000F97700000A4A0B49BB
:10159C0093680968C3F890100949C3F88C004B682C
:1015AC0043F080534B60002383F31188BFF36F8F9C
:1015BC009368D3F89000704764060020D072000046
:1015CC0000ED00E019498A684FF038001044EFF341
:1015DC00098C80E8F01F202080F31188BFF36F8FF7
:1015EC00134F4FF000664A6A8A603E60D2F88C0056
:1015FC000023C2F88C3080F3118804B5104600F03B
:10160C00D5FBBDE80440D2F89400EFF3148323F02B
:10161C00010343EA000383F31488BFF36F8F02F1D5
:10162C00380090E8F01F8CF309887047640600209E
:10163C0004ED00E01EF0040F0CBFEFF30880EFF395
:10164C000980816911F8021CEFF31482032908D078
:10165C0012F0010F01D10229FFD001B504F064FD95
:10166C0001BDD0F818800D4981614FF4867C664528
:10167C0002D3066040F20B1609488068D0F894102B
:10168C0021F00101C0F89410BFF34F8F22F001023A
:10169C0082F31488BFF36F8F704700003D19000070
:1016AC006406002043B2002B08DB012200F01F006F
:1016BC0002FA00F05B09024A42F82300704700BFAF
:1016CC0000E100E043B2002BA8BF03F1604301F13D
:1016DC000101B8BF064B4FEA4111ACBF03F56143A2
:1016EC0000F00F00C9B2B4BF195483F8001370474F
:1016FC0014ED00E00C4C9846A36883B50546D3F86E
:10170C00800017460E4605F075FBA468D4E91B3221
:10171C009B1AC4F898000193A36E00933A46434673
:10172C003146284600F0C2F86406002030B5017B33
:10173C0042F8203C039B42F81C3C0E4D049B42F8A3
:10174C00183C11F0040F059B0B4942F8143C18BFD0
:10175C0029464FF0807342F8043CA2F12004002388
:10176C0021F0010142F8081CC0E925338465C0F85A
:10177C008C3030BD01170000DF590000104B9B6806
:10178C0010B50446BBB1D3F8980068B1EFF31482DE
:10179C0012F0010205D116340FD1884298BF0020F7
:1017AC0010BDD3F88000F8E71634F9D19B6E8B424C
:1017BC0088BF1846F4E71846F2E71046F0E700BF7A
:1017CC006406002008B504460E46154600F0D2FA11
:1017DC00084B20469C6000F0E9FA284686F30988FD
:1017EC00002163B681F31188BFF36F8F00220023B1
:1017FC0004F0EFF864060020014910220A607047DB
:10180C0010ED00E072B6404080F31188BFF36F8F8B
:10181C00BFF34F8F30BF62B6BFF36F8F704700BFFF
:10182C0030BFFFF7FDBF00BF0E4A08B50E4B22F0CC
:10183C007F029A60BFF34F8FBFF36F8FD3F888206E
:10184C0022F47002C3F88820EFF3148323F004030E
:10185C0083F3148801F032FC01F03AFC00F058FAE2
:10186C0001F080FC0000000000ED00E001B572B654
:10187C000B4A106A00281EBF0021116204F0CFFD34
:10188C0062B6EFF30580A0F110004FEAC0000549E5
:10189C00014409C99847BDE80140034908470000C5
:1018AC0064060020E4700000011D000086461E48FE
:1018BC008068D0F898004FF4806C6044EC4680F35C
:1018CC0009880EB52DE901101748806800F06EFAF2
:1018DC00BDE80110DCF80000DCF804C02DE90110B3
:1018EC006246494004F0A7FCBDE801106044BDE825
:1018FC000E4080F30988704603B40B488068D0F81A
:10190C00941051F00101EFF3148C5CF0010CC0F851
:10191C009410BFF34F8F8CF31488BFF36F8F03BCFD
:10192C00DFF808C06047000064060020DF590000A3
:10193C00DFF888C0DCF808C0DCF898C00CF5806CC7
:10194C00BCF1080CCCF800D0CCF804E08CF309887E
:10195C0040F20B1C664503D1EC462DE9305000E0FB
:10196C0030B4DFF85CC04FEA8606B444DCF800C043
:10197C00E047DDF80CE0DDF808C08CF3098803B40F
:10198C000E488068D0F8941051F00101C0F8941002
:10199C00BFF34F8FEFF3148C5CF0010C8CF31488B5
:1019AC00BFF36F8F03BC4FF000014FF000024FF0FC
:1019BC000003C4465CF0010C604700006406002084
:1019CC00D472000037B54FF0FF3301930023C55C90
:1019DC001DB18B4201D00133F9E71846002101916A
:1019EC000199116003B030BD04F055FC202080F348
:1019FC00118808484FF40061401880F30988EFF310
:101A0C0014800221084380F31488BFF36F8FFFF713
:101A1C000BFF000040150020EFF30880EFF3098165
:101A2C00724601B500F0DCF801BD00BF70B52A4C60
:101A3C000546164604F099FBA36AD80601D504F0B6
:101A4C0094FBA36A1A0701D504F08FFBA36A9B07CA
:101A5C0030D504F08AFB626BA36A180606D504F035
:101A6C0084FB19B1A36A23F08003A3621A498B6A21
:101A7C00DB0701D504F079FB8B6A9C0601D504F0D9
:101A8C0074FB8B6AD80618D40020134A936A43F06F
:101A9C00FF039362114BAA6923F00103934219D8F7
:101AAC000F4B23F00103934214D90E4BAB6101236E
:101ABC00337070BD6FF01502D8E74B681B05E3D58A
:101ACC0029461046FFF75AFE0028DDD080F309881E
:101ADC000220DAE70023EBE700ED00E0DB19000061
:101AEC00DD190000ED19000008B504F03EFB144AA6
:101AFC00936A980101D504F038FB936AD90101D59A
:101B0C0004F033FB936A1B0301D504F02EFB0C4A43
:101B1C00936A580301D504F028FB936A990301D505
:101B2C0004F023FB936ADB0301D504F01EFB044A8B
:101B3C00936A6FEA03436FEA13439362002008BD74
:101B4C0000ED00E038B5224C054604F00EFBA36A0C
:101B5C00D80401D504F009FBA36A1B0501D504F0D8
:101B6C0004FBA36A98050CD504F0FFFAA36BA36AD7
:101B7C001B0406D504F0F9FA19B1A36A23F4004347
:101B8C00A36213498B6A5C0501D504F0EEFA8B6AEB
:101B9C00D80516D504F0E9FA8B6A43F47F438B62BF
:101BAC000C4BA96923F001038B420ED80A4B23F08E
:101BBC0001038B4209D9094BAB610123137000203F
:101BCC0038BD8B6A9B04E5D4E6E70023F6E700BF3B
:101BDC0000ED00E0DB190000DD190000ED1900003C
:101BEC0070B53C4B5C688AB00D46C4F30804002603
:101BFC0086F31188BFF36F8F02F07F43B3F17F4FF1
:101C0C0005D102F00C03082B03D104F0AEFA3546D3
:101C1C0003E0120701D4054601260022E31E8DF8CD
:101C2C000720032B0CD8DFE803F002484C4504F0E6
:101C3C009CFA284B8DF80720DC6A14F0020403D0C0
:101C4C0004F093FA00240EE0DB6A5B000BD504F081
:101C5C008CFA214B1B78F3B10DF1070201212846B8
:101C6C00FFF7E4FE04469DF8073093B9202229467D
:101C7C0002A804F0B5FA099B3EB3C3F3080222B9DB
:101C8C006FEA53236FEA4323099302A9204604F019
:101C9C003BFA0AB070BD114B1B7833B10DF1070242
:101CAC0001212846FFF74EFFDCE70D4B1B889BB24A
:101CBC00002BD8D0FFF718FFD4E70DF10702002155
:101CCC00CDE70DF107020021EBE723F4FF7323F0BE
:101CDC000103D9E700ED00E028ED00E029ED00E07C
:101CEC002AED00E0024A536943F010035361704738
:101CFC0000ED00E0044B9968586A884203D0034910
:101D0C004FF080520A6070476406002004ED00E03A
:101D1C00044800232021C2180133272B82F800131A
:101D2C00F9D1704700E100E038B504464FF02003CC
:101D3C00EFF3118583F31188BFF36F8F02F0FEF878
:101D4C000A4B9B68A3420BD1094B5A68C2F3080299
:101D5C0012B92846FFF71AFC5A6842F080525A60B2
:101D6C002846BDE8384004F0E6BC00BF64060020FD
:101D7C0000ED00E01FB5084B0193084B0293084B94
:101D8C00039301AB0093074A074B0121684600F00F
:101D9C003DF905B05DF804FB0000002000000000D8
:101DAC0000000B06000000200000012070B5044666
:101DBC0094B004F0E4F9E16FD1B104F0E0F991F8DA
:101DCC00C85004F0DCF90A4601F1C0060021536842
:101DDC005BB104F0D4F914AB03EB8103013D01F1C9
:101DEC00010143F8442CC9B202D00C329642EED118
:101DFC0004F0C5F9D4F8983083B1D4E91A03D4F8B7
:101E0C00802003449B1ACDE90023074B029314ABAB
:101E1C0003EB8103013143F844DCC9B203A800F0A1
:101E2C001BF914B070BD00BF00000B13034B9B6873
:101E3C00834201D1FFF7BABF704700BF6406002090
:101E4C004FF02003EFF3118283F31188BFF36F8FF0
:101E5C00044B9860186982F31188BFF36F8F00F000
:101E6C000100704790ED00E038B5044604F098F995
:101E7C00D1E90053202B896812D9B3F1004F11D846
:101E8C00013BB3FA83F3C3F11F035B00072C41EA58
:101E9C00030109D904F084F96FF01504204638BD0C
:101EAC000823F3E73E23F1E704F07AF925F01F0548
:101EBC000548254345F0100541F001018460C560DB
:101ECC00016104F06DF9E9E790ED00E0034B0522A8
:101EDC005A60BFF34F8FBFF36F8F704790ED00E0E8
:101EEC00BFF35F8F014B00225A60704790ED00E00A
:101EFC001549F8B50C68082C22D8144D04F050F98B
:101F0C000C26FFF7EDFF0022944205D1104B1C70FC
:101F1C00FFF7DCFF0020F8BD06FB02F34868AA605F
:101F2C00C718C35823F01F03134343F01003EB608F
:101F3C00BB6843F001032B6104F032F90132E3E793
:101F4C004FF0FF30E7E700BF5872000090ED00E063
:101F5C00F1130020024B1878C0F10800704700BF45
:101F6C00F11300202DE9F0410029274E01F1FF3536
:101F7C000446174608BF002507214FF00108084604
:101F8C00FFF75EFF002837D04FF02003EFF31180EE
:101F9C0083F31188BFF36F8FB160F268336980F3FC
:101FAC001188BFF36F8F601926D222F01F02944262
:101FBC0022D3C3F34403013308FA03F3013A134465
:101FCC00834219D34FF02003EFF3118283F311886E
:101FDC00BFF36F8FB160336982F31188BFF36F8FDA
:101FEC00190EC3F3026367B1033B59425941B1FA6D
:101FFC0081F14909494201E00139C0D20846BDE8E6
:10200C00F08101F00201F2E790ED00E0F8B5114C1F
:10201C00074620780E460025B54211DA57F82510F0
:10202C004B68ABB15A1E13420CD11F2B0AD90B684B
:10203C001A4207D1C0B2FFF717FF10F1160F06D1E5
:10204C002070F8BD04F0ACF86FF01500F8E7013023
:10205C000135E1E7F113002038B5104B054618782F
:10206C000C460022A24207DB10F1160F03D00C4ADB
:10207C00002107280DDD38BD55F822104B6833B10F
:10208C00C0B2FFF7F1FE10F1160FF4D0013001329F
:10209C00E8E7906011610130EBE700BFF11300201D
:1020AC0090ED00E0014B1860704700BF042E00203B
:1020BC00022902D1024B1B6818474FF0FF307047C2
:1020CC00042E002010B5064C049AA368C3F8842093
:1020DC00FFF7EEFFA3680022C3F8842010BD00BFF9
:1020EC0064060020022B2DE9F84306460C461546E3
:1020FC0015D1B2B181B1DFF830901746B046264405
:10210C00D9F8003018F8010B9847013003D0464538
:10211C00F6D1013FF2D1EC1B2046BDE8F883002438
:10212C00FAE71446F8E700BF042E00202DE9F0472B
:10213C00124F9A46BB6816460A9AC3F88420A6FB2F
:10214C00013480460D46B9462CB92246194604F096
:10215C0025F8044638B104F091F8D9F80830D3F8D2
:10216C00840003F0EDFF5346324629464046FFF704
:10217C00B9FFBB68C3F88440BDE8F0876406002053
:10218C004FF02003EFF3118283F31188BFF36F8FAD
:10219C0006490123C1F840354FF08041C1F878352C
:1021AC0082F31188BFF36F8F0020704700E001406D
:1021BC0020B1034B800143F001031847704700BF67
:1021CC002072000008B5094B1A786AB90121197000
:1021DC0006200521FFF776FA0620FFF763FA044B79
:1021EC004FF00042C3F80423002008BDF213002076
:1021FC00006000402B4BF0B546682B4813408342DF
:10220C0040D00DD8062B15D005D89BB1022B3BD056
:10221C006FF0150035E0B3F5801FF9D1012309E00B
:10222C002248834232D0B3F5A00F31D0B3F5800FE2
:10223C00EED10223D00654BFC2F34015032582F41D
:10224C0080749705C2F34020C4F3002407D512F420
:10225C00006F77681ED001228A40C7F80825327AB1
:10226C0001F01F0141EA421140EA440242EA032311
:10227C0001F5E0714FF0A04243EA850342F82130AA
:10228C000020F0BD0723D5E70423D3E70523D1E7CE
:10229C000323CFE7520542BF01228A40C7F80C2521
:1022AC00DDE700BF0600F000060010000200400051
:1022BC00F7B5C4684068007A01F01F05B2F5A03F7D
:1022CC0045EA40150AD105F5E0704FF0A04656F8E6
:1022DC002000C70707D56FF02200B4E0B2F5005F0D
:1022EC00E06800F0B280E6680120884030436669FF
:1022FC00E06001208840B2F5A03FA2690CBF064304
:10230C008643B3F5C02F0CBF02438243A2612269FE
:10231C006661B3F5802F0CBF104322EA00005B4AC4
:10232C002061D2F804030023C0B203F5A27652F860
:10233C002660C6F30426B54240F08C8020FA03F6E2
:10234C00F60740F1878001209840514EBFF35B8F18
:10235C00C74356E800CF0CEA070C46E800CEBEF1A6
:10236C00000FF6D1BFF35B8F9B0003F1804303F5A5
:10237C00C043D3F8106526F00106C3F81065C2F807
:10238C000803AA0002F1A042E068D2F80037C84066
:10239C0023F4403310F00100C2F8003753D06069C9
:1023AC00C84010F0010060D0A369394ACB40DB076C
:1023BC005FBF236923FA01F101F00101C1F10201B0
:1023CC0054BFC9B203210023012606FA03F4BFF35C
:1023DC005B8F52E8000F40EA040742E8007CBCF136
:1023EC00000FF6D1BFF35B8FD84010F0010036D14F
:1023FC009A0002F1804202F5C0424033D2F81065D7
:10240C0026F4473626F440769B00C2F810652D0260
:10241C009BB2D2F8106505F4F85503F1804303F52F
:10242C00C04345EA01453543C2F8105518601B6896
:10243C000193019BD2F8103543F00103C2F810351B
:10244C00124BC3F8044303B0F0BD01268E4020EAC2
:10245C0006004CE70133082B7FF467AF91E701339B
:10246C00082BB2D16FF01200EDE72369D2F80057B8
:10247C0023FA01F101F00101C1F1030125F440330C
:10248C0043EA0141C2F80017DDE700BF00600040DD
:10249C005C060020F7B54E490D68002D61D04D4B00
:1024AC00DA68D3F804C0D368D2E90504204323EAE0
:1024BC000003DCF804001269D0F81045544023EAFC
:1024CC00040401200026002B35D10B600B6800930F
:1024DC00009B4148002301261F46D0F8042306FA2E
:1024EC0003F1114213D09A0002F1804202F5C2426C
:1024FC00116861B103F5A27150F8211017601268D0
:10250C000192C1F3042106FA01F1019A0C43013343
:10251C00082BE2D13CBB65B12E4BD8685E68C16814
:10252C00D0E90532134321EA0301012400250029D7
:10253C0031D103B0F0BD034210D09CF8087006F006
:10254C001F0242EA4712920002F1A04223EA000362
:10255C00D2F8007727F44037C2F8007701364000F4
:10256C00B1E72C46B5E71B4FFB6859680029D2D060
:10257C000E68002E38BF00268A68224002D04B68B5
:10258C0038469847002EC6D03368002B38BF00233E
:10259C0031461E46F0E70C4217D0327A05F01F0385
:1025AC0043EA42139B00026903F1A043EA40D3F8CB
:1025BC00007702F00102C2F1030227F4403747EA28
:1025CC000242C3F8002721EA040101356400AEE79A
:1025DC007C610040502E0020006000402DE9F0414D
:1025EC00DFF84C80D8F808301746089AC3F88420D6
:1025FC00CEB20446FDF76CFD00221B2102F096FFC3
:10260C004246054630B103F09AFE9368D3F8840035
:10261C0003F096FDA3681B68002BF4D03A463146B4
:10262C0020469847D8F80830C3F88450BDE8F081AC
:10263C0064060020F8B5174E089AB368C3F88420D6
:10264C000D460446FDF744FD00221B2102F06EFFEF
:10265C00324678B103F073FE9368D3F8840003F02C
:10266C006FFDA36829465B6820469847B368C3F89A
:10267C008470F8BDA3685B68002BEBD001220421A9
:10268C00284603F08BFD07460028EAD003F057FEDE
:10269C00B368E2E7640600202DE9F041DFF84C80D6
:1026AC00D8F808301746089AC3F884200E4604461A
:1026BC00FDF70EFD00221B2102F038FF42460546B5
:1026CC0030B103F03CFE9368D3F8840003F038FD7E
:1026DC00A3689B68002BF4D03A46314620469847B5
:1026EC00D8F80830C3F88450BDE8F08164060020A7
:1026FC00F8B5114F089ABB68C3F884200E460446FF
:10270C00FDF7E6FC00221B2102F010FF3A460546BD
:10271C0030B103F014FE9368D3F8840003F010FD7D
:10272C00A368DB68002BF4D0314620469847BB6881
:10273C00C3F88450F8BD00BF64060020F8B5114FF3
:10274C00089ABB68C3F884200E460446FDF7C0FC0B
:10275C0000221B2102F0EAFE3A46054630B103F096
:10276C00EEFD9368D3F8840003F0EAFCA3681B69C0
:10277C00002BF4D0314620469847BB68C3F88450F0
:10278C00F8BD00BF64060020F8B5114F089ABB686D
:10279C00C3F884200E460446FDF79AFC00221B2148
:1027AC0002F0C4FE3A46054630B103F0C8FD93680A
:1027BC00D3F8840003F0C4FCA3685B69002BF4D04D
:1027CC00314620469847BB68C3F88450F8BD00BF1B
:1027DC00640600202DE9F041194DAB681446089AA7
:1027EC00C3F884205FFA81F80746FDF771FC0022DC
:1027FC001B2102F09BFE30B103F0A1FDAB68D3F8B6
:10280C00840003F09DFCBB689E69002EF4D0230469
:10281C0008D5FA680123126803FA08F3134218BFAB
:10282C0084F4C02404F4C02304F4B0324146384686
:10283C00B047AB680022C3F88420BDE8F08100BF2C
:10284C006406002070B5104E069AB368C3F8842055
:10285C000446FDF73DFC00221B2102F067FE3246C8
:10286C00054630B103F06BFD9368D3F8840003F098
:10287C0067FCA3681B6A002BF4D020469847B3680A
:10288C00C3F8845070BD00BF64060020024BD3F81F
:10289C008004C3F8800470470020004030B54B79A9
:1028AC00012B1ED18B79032B1BD1CA790AB1012ABA
:1028BC0017D10C7914B1022C13D10E240B68B3F57B
:1028CC00164F5FD02BD8B3F5165F5DD014D8B3F587
:1028DC00966F5BD008D8B3F5967F5AD0B3F5167FB8
:1028EC005AD06FF022004CE0B3F5166F57D0B3F509
:1028FC00965FF6D1344B39E0B3F5E14F52D007D89F
:10290C00B3F5615F50D0B3F5964FEAD12F4B2DE064
:10291C0047F61225AB42E4D14FF4000326E0B3F5A1
:10292C00613F44D011D8B3F5963F42D008D84DF64C
:10293C00C025AB423FD0B3F5614FD2D1244B15E04B
:10294C00B3F5E13FCDD1234B10E0B3F5612F35D07A
:10295C0007D8214DAB4233D0B3F5E12FC1D11F4B7A
:10296C0004E01F4DAB42BCD14FF080531D4D2243B0
:10297C00C5F82435C5F86C25C36803C983E8030082
:10298C00002030BD184BF1E7184BEFE74FF49E23B6
:10299C00ECE74FF4A033E9E74FF41C33E6E74FF4D0
:1029AC001D23E3E7124BE1E74FF46C13DEE7114B09
:1029BC00DCE7114BDAE74FF46503D7E70F4BD5E7AC
:1029CC004FF08063D2E700BF00B0130000A04E00B0
:1029DC0000F0EB0000E0D70190D0030000705F071F
:1029EC0040420F000020004000509D000050270086
:1029FC0000F0750000B0AF0300903A0100D0BE0E9D
:102A0C00084B1A6882B052B1002018601B68019301
:102A1C00019B054BD3F818350B7002B070474FF083
:102A2C00FF30FAE70821004000200040F7B50E46C1
:102A3C0004F005F81B4D88BB64240127BFF35B8FA2
:102A4C0055E8003F002B03D145E80072002AF7D16E
:102A5C00BFF35B8F07D021200021013C01F066FC05
:102A6C0014F0FF04EAD1104C00222260226801927B
:102A7C00019A0E4A01211160C2F814654FF47A765E
:102A8C00236823B9012003F076FC013EF8D1084BF2
:102A9C0001221A6000232B6003B0F0BD01232B60D0
:102AAC00E1E700BF600600201C2100400820004028
:102ABC000C20004037B54FF0A043174C00224021AA
:102ACC00C4F800250825C3F808150321C3F8181706
:102ADC00C3F82027C4F814550625C4F80C55202536
:102AEC00C3F80855C3F81417C3F81C270523C4F8FA
:102AFC0008350723C168C4F81035FFF7CFFE48B975
:102B0C000423C4F80035054B18601B680193019B26
:102B1C000123236003B030BD002000400821004099
:102B2C0070B5104E069AB368C3F884200446FDF7BE
:102B3C00CFFA0022262102F0F9FC3246054630B1CC
:102B4C0003F00FFC9368D3F8840003F0F9FAA36840
:102B5C009B68002BF4D020469847B368C3F8845088
:102B6C0070BD00BF64060020F8B5174E089AB36814
:102B7C00C3F884200D460446FDF7AAFA002226214C
:102B8C0002F0D4FC324678B103F0EBFB9368D3F837
:102B9C00840003F0D5FAA36829461B6820469847A1
:102BAC00B368C3F88470F8BDA3681B68002BEBD026
:102BBC0001221146284603F0F1FA07460028EAD014
:102BCC0003F0CFFBB368E2E764060020F8B5114FC1
:102BDC00089ABB68C3F88420CEB20546FDF778FA94
:102BEC000022262102F0A2FC3A46044630B103F042
:102BFC00B8FB9368D3F8840003F0A2FAAB685B6867
:102C0C00002BF4D0284631469847BB682046C3F8C1
:102C1C008440F8BD64060020F8B51A4E089AB368D3
:102C2C00C3F884200D460446FDF752FA00222621F3
:102C3C0002F07CFC3746A8B103F093FBBB68D3F8D9
:102C4C00840003F07DFA294620469847BB68002291
:102C5C00C3F88420F8BDA3681B69002BF3D16FF077
:102C6C002200F3E7A3681B69002BE5D001220821A1
:102C7C00284603F093FA0028EDD003F072FBB368FA
:102C8C00DDE700BF64060020F8B51A4E089AB36859
:102C9C00C3F884200D460446FDF71AFA00222621BB
:102CAC0002F044FC37460246A8B103F05AFBBB685D
:102CBC00D3F8840003F044FA294620469847BB68B1
:102CCC000022C3F88420F8BDA368DB68002BF3D185
:102CDC006FF02200F3E7A3681B69002BE5D00821F5
:102CEC00284603F05BFA0028EED003F03AFBB368F9
:102CFC00DEE700BF640600200B4B1B685A1C05BFA7
:102D0C000A4B0B4A0B4A10680ABF1B781068C0F3B9
:102D1C000310062B05D1033803288CBF002001209B
:102D2C0070470020704700BF30010010E00F00F02A
:102D3C00E80F00F034010010074B1B78062B09D16B
:102D4C00064B1B68C3F30313033B032B02D8044A43
:102D5C00D05C704700207047E00F00F0E80F00F0E7
:102D6C001778000008B5FFF7C7FF28B17E4B7F4AE4
:102D7C001B68C3F304231360FFF7DEFF10B17C4B19
:102D8C007C4A1A60FFF7B8FF28B17B4B7B4A1B6863
:102D9C00C3F342331360FFF7CFFF20B1784AD368F7
:102DAC0023F08073D360FFF7A7FF40B14FF080434F
:102DBC000022C3F80C21C3F81021C3F83825FFF703
:102DCC00BBFF10B16F4B03221A60FFF7B5FF40B188
:102DDC006D4B05221A6001229A6700229A603F22ED
:102DEC005A606A4B1A68511C0BBF694B694B1A78B5
:102DFC001B6802BF08331B68C3F30313062A4DD1AB
:102E0C00033B032B4AD8644AD35C002B46D04FF0CB
:102E1C008052624BD2F80414C3F82015D2F808146F
:102E2C00C3F82415D2F80C14C3F82815D2F81014D2
:102E3C00C3F82C15D2F81414C3F83015D2F81814A2
:102E4C00C3F83415D2F81C14C3F84015D2F820146A
:102E5C00C3F84415D2F82414C3F84815D2F8281432
:102E6C00C3F84C15D2F82C14C3F85015D2F8301402
:102E7C00C3F85415D2F83414C3F86015D2F83814CA
:102E8C00C3F86415D2F83C14C3F86815D2F8401492
:102E9C00C3F86C15D2F84424C3F87025FFF72CFF47
:102EAC0028B13F4B3F4A1B6803F04F031360FFF7F9
:102EBC0023FF48B14FF08043D3F80024D20744BF1E
:102ECC006FF00102C3F80024304B1B68062B0CD1A9
:102EDC00304B1B68033B032B07D8334AD35C23B11D
:102EEC00324A136843F4806313604FF01023D3F815
:102EFC000022002A03DBD3F80432002B2FDA2C4BF0
:102F0C000122C3F80425D3F80024002AFBD04FF08B
:102F1C0010221521C2F80012D3F80024002AFBD08D
:102F2C004FF010231522C3F80422214B1A46D3F874
:102F3C0000140029FBD00021C3F80415D2F800348A
:102F4C00002BFBD0BFF34F8F1A491B4BCA6802F4FE
:102F5C00E0621343CB60BFF34F8F00BFFDE7174B0D
:102F6C00174A1A6008BD00BF240300104035014009
:102F7C0074C007400DF0ADBA440200103C0500408F
:102F8C00F0ED00E0A00500401056004030010010AC
:102F9C00E00F00F0340100100F78000000C000407A
:102FAC0058020010E40E0040137800003C1700405B
:102FBC0000E0014000ED00E00400FA05102E0020B6
:102FCC000090D003F8B50B4B53F82040013000278C
:102FDC0053F82060A64200D8F8BD656815B12846A4
:102FEC0003F047FF23682846984708B105B1AF6046
:102FFC000834EFE7BC7200000F4B70B50F4C054660
:10300C001E469C4204D10D4CB44208D1002410E061
:10301C00A26812B12268AA420BD01034F1E7A3685F
:10302C000BB91034F0E72168284603F0CDF80028DE
:10303C00F7D1204670BD00BF602E0020202E00204E
:10304C0010B50B4C8CB0A368109AC3F884200146C1
:10305C003022684603F035FF40B96846FFF7CCFFD5
:10306C00A3680022C3F884200CB010BD0020F7E741
:10307C0064060020034B9B680022586EC3F8842022
:10308C00704700BF6406002008B50B4D4FF02002BE
:10309C00EFF3118382F31188BFF36F8F03F027FDD9
:1030AC00012102280446D8BF084603F030FD2C62EB
:1030BC00FEF7A8FBEAE700BF640600200248034ABB
:1030CC000021121A03F0B7B800000020F8130020FA
:1030DC0009480A4A0A4908B5121A03F081F8094A44
:1030EC0009490A4803F07CF809480A4A0A49BDE82C
:1030FC000840121A03F074B8002E0020A8490020D2
:10310C0074790000000000007479000000000020B9
:10311C0000000020000000207479000008B50C4B62
:10312C00012202201A70FFF74DFF0A4A0A490B4888
:10313C0002F0A6FB0320FFF745FF01F01FFDFDF792
:10314C00D5FA074A137B23F00103137308BD00BFA4
:10315C00F3130020627800001B7800003C7800001C
:10316C00080400202DE98048DFF8F490AFB089F313
:10317C000888334D334E6B69DFF8E8A0324F43F4C7
:10318C00007300246B61E02385F82230EC772C76F9
:10319C006C76AC766B6A43F4E0236B62FEF7A2FDAF
:1031AC00FEF72AFB4FF0FF33AB62EB62274D259401
:1031BC0040F20113ADF8243006ABAB602046CDE9EC
:1031CC002044FFF7FFFE0120FFF7FCFE4FF0010B40
:1031DC0000F0F2FF1E4B6E621E4905934FF48062A5
:1031EC005346CDE9034BCDE901440094304601F040
:1031FC00C7FB737B804623F004033046737303F0E4
:10320C00D7FA0F23CDE902431349144B4FF4A072A4
:10321C00CDE904B4CDE90044384601F0B1FB7B7B29
:10322C00EF6023F004037B7305F11803C5E9063343
:10323C002C75C5F80490524641463046FEF7C2FA4A
:10324C0000ED00E008040020680300206406002064
:10325C00637800000020002000140020953000004E
:10326C00401D00202931000070B50D46164604465D
:10327C00FCF72EFF4FF0FF32022102F057F938B164
:10328C0003F0CFF8064B9B68D3F8840002F058FF8C
:10329C00324629462046BDE8704003F0DEB800BF38
:1032AC006406002038B5064C069DA368C3F884500C
:1032BC00FFF7DAFFA3680022C3F8842038BD00BFF3
:1032CC00640600202DE9F34704468A4616461F463D
:1032DC0000F108094FF02003EFF3118883F31188F4
:1032EC00BFF36F8F026AC3689A422BD203F0D6FAEF
:1032FC00A2680546514680B10024406902F070FF77
:10330C002846C5F8904003F053FA4846414603F06E
:10331C0007FA204602B0BDE8F087E06902F060FFD2
:10332C00E369A26813446269E361934204BF2369B1
:10333C00E361236A01332362002088F31188BFF311
:10334C006F8FE7E756EA07030AD0074B9B680246E4
:10335C0059614846CDE90067414600F0C5FED9E702
:10336C006FF04F00E9E700BF640600202DE9F84339
:10337C00144C9946A36890460A9AC3F884200E46CA
:10338C000746FCF7A5FE0022022102F0CFF8024608
:10339C0030B103F046F8A368D3F8840002F0D0FEF5
:1033AC00B968304602F0FAFE05460028F1D14B46CA
:1033BC00424631463846FFF785FFA368C3F8845070
:1033CC00BDE8F8836406002070B5134E069AB36806
:1033DC00C3F884200C460546FCF77AFE0022022135
:1033EC0002F0A4F830B103F01CF8B368D3F88400F1
:1033FC0002F0A6FE01220C21204602F0CFFE03466D
:10340C000028F0D1AA682260EA6862602A6AA26089
:10341C00B268C2F8843070BD640600202DE9F74311
:10342C000446164608461F4604F108094FF02003CF
:10343C00EFF3118883F31188BFF36F8F236A002B8E
:10344C0034D0A268A16902F0CBFEA369A268134430
:10345C006269A361934204BF2369A361236A013BA0
:10346C002362204603F01AFA054600282ED0416943
:10347C00A268E06902F0B4FEE369A26813446269D1
:10348C00E361934204BF2369E361236A013323623E
:10349C0000242846C5F8904003F08AF94846414676
:1034AC0003F03EF9204603B0BDE8F08356EA07036B
:1034BC000AD0094B9B68224659614846CDE9006702
:1034CC00414600F011FEEEE76FF04F0088F31188D3
:1034DC00BFF36F8FE7E700BF640600202DE9F843C8
:1034EC00144C9946A36890460A9AC3F884200E4659
:1034FC000746FCF7EDFD0022022102F017F830B16F
:10350C0002F08FFFA368D3F8840002F019FEB968AB
:10351C000122304602F042FE05460028F0D14B460F
:10352C00424631463846FFF779FFA368C3F884500A
:10353C00BDE8F88364060020F8B5124C089AA3681D
:10354C00C3F884200E460746FCF7C2FD0022022178
:10355C0001F0ECFF30B102F064FFA368D3F88400F3
:10356C0002F0EEFDB9680122304602F017FE054666
:10357C000028F0D13146384602F08DFFA368C3F81D
:10358C008450F8BD6406002070B50E4D069AAB68E9
:10359C00C3F884200646FCF79BFD0022022101F0B3
:1035AC00C5FF044630B102F03CFFAB68D3F8840091
:1035BC0002F0C6FD304602F088FFAB682046C3F827
:1035CC00844070BD6406002038B50D4D069AAB687A
:1035DC00C3F884200446FCF77BFD0022022101F095
:1035EC00A5FF30B102F01DFFAB68D3F8840002F0E8
:1035FC00A7FDE268236AA968C1F88400D01A38BD17
:10360C006406002038B50D4C069AA368C3F88420D4
:10361C000546FCF75DFD0022022101F087FF034601
:10362C0030B102F0FEFEA368D3F8840002F088FDEE
:10363C00A268286AC2F8843038BD00BF6406002036
:10364C0070B50E4D069AAB68C3F884200646FCF79D
:10365C003FFD0122032101F069FF044630B102F065
:10366C0055FFAB68D3F8840002F06AFD304602F0D7
:10367C0067FFAB68C3F8844070BD00BF64060020D0
:10368C002DE9F341044616461F464FF02003EFF395
:10369C00118883F31188BFF36F8FC368394A6BB1FC
:1036AC008068916888421CD056EA07031BD188F3C6
:1036BC001188BFF36F8F6FF00F020EE0916891F9D4
:1036CC000E1021610133E3609368A36002F01EFFCA
:1036DC0088F31188BFF36F8F0022104602B0BDE84B
:1036EC00F0812169EDE791F90E1090F90E309942B5
:1036FC00A8BF194621EAE17102F008FFA36893F90B
:10370C000E30994237DA04F1080002F009FF054641
:10371C0022464146CDE900671B4800F0E5FC024615
:10372C0002F0F4FE02F0F2FE002AD6D002F0EEFE19
:10373C004FF02003EFF3118683F31188BFF36F8FE3
:10374C0023682169A34207D033B193F90E30994213
:10375C00A8BF194621EAE17102F0D8FE04F1080075
:10376C0002F0DEFE00B945B10748314602F0D8FF41
:10377C006FF00A02B1E70025CAE786F31188BFF3A0
:10378C006F8FF5E764060020F41300202DE9F0415B
:10379C00104DAB681746089AC3F884208846064635
:1037AC00FCF796FC0022032101F0C0FE044630B168
:1037BC0002F0ACFEAB68D3F8840002F0C1FC3B46CF
:1037CC0042463046FFF75CFFAB68C3F88440BDE867
:1037DC00F08100BF6406002038B583680446002BD6
:1037EC003AD0204A9268934239D1DA7B013ADA73A3
:1037FC0002F08CFEE368012B05D0013BE36000F086
:10380C0025FA002038BD4FF02003EFF3118583F328
:10381C001188BFF36F8F216904F1080002F080FE5C
:10382C00204603F03BF8A060024602F06FFE6AB13E
:10383C0092F90E30236100231046C2F8903002F04A
:10384C00B7FF0948294602F06BFFD8E7E26085F321
:10385C001188BFF36F8FD2E76FF01500D2E74FF0EE
:10386C00FF30CFE764060020F413002070B50E4D36
:10387C00069AAB68C3F884200646FCF729FC0022A4
:10388C00032101F053FE044630B102F03FFEAB6859
:10389C00D3F8840002F054FC3046FFF79DFFAB6870
:1038AC00C3F8844070BD00BF6406002070B50F4D96
:1038BC00069AAB68C3F884200646FCF709FC4FF067
:1038CC00FF32052101F032FE044630B102F042FE17
:1038DC00AB68D3F8840002F033FC304602F0ADFE46
:1038EC00AB682046C3F8844070BD00BF640600205E
:1038FC0070B50E4D069AAB68C3F884200646FCF7EB
:10390C00E7FB0022052101F011FE044630B102F064
:10391C0021FEAB68D3F8840002F012FC304602F0B2
:10392C0095FEAB682046C3F8844070BD6406002049
:10393C00F8B50F4D089AAB68C3F884200F460646BD
:10394C00FCF7C6FB0022052101F0F0FD044630B166
:10395C0002F000FEAB68D3F8840002F0F1FB3946AC
:10396C00304602F093FEAB68C3F88440F8BD00BF4C
:10397C0064060020F8B50F4D089AAB68C3F8842094
:10398C000F460646FCF7A4FB0022052101F0CEFDF4
:10399C00044630B102F0DEFDAB68D3F8840002F0CF
:1039AC00CFFB3946304602F076FEAB68C3F8844054
:1039BC00F8BD00BF64060020F7B516461F464FF051
:1039CC002003EFF3118583F31188BFF36F8F046825
:1039DC009CB12368426823F003039442036008BF40
:1039EC0043600121204602F01CFE044685F3118839
:1039FC00BFF36F8F204603B0F0BD56EA0703F5D036
:103A0C0000F10802CDE900672946104600F06CFB76
:103A1C000028EFD1014B9B685C69EBE76406002042
:103A2C002DE9F041104DAB681746089AC3F8842075
:103A3C0088460646FCF74CFB0022052101F076FD7A
:103A4C00044630B102F086FDAB68D3F8840002F076
:103A5C0077FB3B4642463046FFF7AEFFAB68C3F8F8
:103A6C008440BDE8F08100BF6406002038B50E4CE0
:103A7C00069AA368C3F884200546FCF729FB0022AC
:103A8C00052101F053FD30B102F064FDA368D3F8B9
:103A9C00840002F055FB2B68A268C2F88400B3FACC
:103AAC0083F0400938BD00BF6406002070B50E4D90
:103ABC00069AAB68C3F884200646FCF709FB002283
:103ACC00052101F033FD044630B102F043FDAB6833
:103ADC00D3F8840002F034FB0146306802F0A1FDFB
:103AEC00AB68C3F8844070BD6406002070B50E4D01
:103AFC00069AAB68C3F884200646FCF7E9FA002264
:103B0C00052101F013FD044630B102F023FDAB6832
:103B1C00D3F8840002F014FB0146706802F081FDBA
:103B2C00AB68C3F8844070BD6406002010B5084C27
:103B3C0023685BB1FDF7E0FC03462068054A0344AB
:103B4C00BDE810401361002102F0E1BF10BD00BFC1
:103B5C009C06002064060020F8B505460C464FF084
:103B6C002003EFF3118683F31188BFF36F8F0D4B96
:103B7C0000224FF4004740F2E73000211A61E7FBC6
:103B8C0005014FF47A720023FCF722FB064B1860F8
:103B9C00064B1C60FFF7CAFF86F31188BFF36F8FCB
:103BAC00F8BD00BF640600209C060020980600208B
:103BBC004FF02003EFF3118183F31188BFF36F8F64
:103BCC00044B9A68D37B013BD37381F31188BFF309
:103BDC006F8F704764060020094B03F12802824264
:103BEC0005D19B688B4202D14B7BDB0606D1D1E918
:103BFC00003213605A600023C1E90033704700BFE4
:103C0C006406002070B5104C064604F1280002F042
:103C1C00C5FDA368597B0546880644BF41F00801E1
:103C2C00597305B9E5684EB95A7BD20606D1AA6913
:103C3C0022B9DA897F2A01D9636270BDAB4201D007
:103C4C00FFF774FF6562F8E76406002010B54FF0CB
:103C5C002003EFF3118483F31188BFF36F8F094BAB
:103C6C009A68D37B0133D3730020FFF7CBFF84F327
:103C7C001188BFF36F8F02F013FDBDE8104002F006
:103C8C0066BD00BF6406002070B4437BDB062AD1FE
:103C9C00836943BB154A114651F8284F8C4218BF13
:103CAC002346002BD46A38BF0023B3B190F90E60C1
:103CBC0093F90E50AE4203DBA3420ED01B68F4E71F
:103CCC005A68C0E9003210605860437B63F07F0390
:103CDC00437370BC0020FFF795BFC0E90014D36A92
:103CEC001860D062F1E770BC704700BF640600201A
:103CFC0010B54FF02002EFF3118482F31188BFF35B
:103D0C006F8F427B510704D484F31188BFF36F8FFC
:103D1C0010BD22F004024273FFF7B6FF21460248A1
:103D2C00BDE8104002F0FCBCF413002010B54FF0BD
:103D3C002002EFF3118482F31188BFF36F8F427B63
:103D4C0022F010024273FFF79FFF21460248BDE8A4
:103D5C00104002F0E5BC00BFF413002070B50E4D0E
:103D6C00069AAB68C3F884200646FCF7B1F900222A
:103D7C00092101F0DBFB044630B102F091FCAB6889
:103D8C00D3F8840002F0DCF93046FFF7CFFFAB68C4
:103D9C002046C3F8844070BD64060020F8B5014687
:103DAC004FF02003EFF3118483F31188BFF36F8F6F
:103DBC0090F90D30002B02DA1948FFF70DFF194A64
:103DCC001046D56A50F8283F834208BF0023002BC9
:103DDC0038BF0023EBB191F90E7093F90E60B74226
:103DEC0003DB9D4215D01B68F4E75868C1E900302D
:103DFC00016059604B7B906863F07F034B73431AEF
:103E0C0058425841FFF7FEFE84F31188BFF36F8FC1
:103E1C00F8BDC1E90005D36A1960D162EAE700BFB9
:103E2C008C0600206406002038B5154A154B146822
:103E3C0001469868A0421C4603D1BDE83840FFF704
:103E4C0075BE00251560104A1268B2B1C2897F2A6E
:103E5C0013D80E4A90F90E50126895420DDB0C4A9D
:103E6C0090420AD0826942B91A698A4202DCFFF791
:103E7C0095FFE2E7521A1A6138BD00232361FBE774
:103E8C0094060020640600209C0600209806002062
:103E9C006803002070B50446183002F002FE4FF0A3
:103EAC002003EFF3118683F31188BFF36F8F94F91E
:103EBC000D30002B07DA0F482146FFF78DFE637B90
:103ECC0003F07F0363730C4D637BA86843F010030E
:103EDC006373031B58425841FFF794FE86F3118815
:103EEC00BFF36F8FAB68A34203D1BDE8704002F003
:103EFC002EBC70BD8C0600206406002070B50E4DE3
:103F0C00069AAB68C3F884200646FCF7E1F8002259
:103F1C00092101F00BFB044630B102F0C1FBAB6888
:103F2C00D3F8840002F00CF93046FFF7B3FFAB680E
:103F3C002046C3F8844070BD64060020036E2DE952
:103F4C00F041044603B1984704F1180002F0A9FDB2
:103F5C004FF02003EFF3118683F31188BFF36F8FBB
:103F6C00637BD8062DD1A2695ABB190607D5254803
:103F7C002146FFF731FE637B03F07F036373224B13
:103F8C009868021B50425041FFF73CFE637BD4F80B
:103F9C00800043F00803637302F074FF204602F0C4
:103FAC0071FF204601F0B4FA04F130080027256BAC
:103FBC00454500D095B986F31188BFF36F8FBDE8E6
:103FCC00F0819B07E2D5A0682146FFF705FE637BD5
:103FDC0023F0020363730023A360D7E705F11800F5
:103FEC0002F05FFDA8682946FFF7F6FD6B7BAF601A
:103FFC0023F002036B73C5F890702846FFF744FE5C
:10400C00D5E700BF8C0600206406002008B590F9A7
:10401C000D30002B014606DA0748FFF7DDFD4B7B20
:10402C0003F07F034B73054B9868431A5842584171
:10403C00BDE80840FFF7E6BD8C06002064060020B2
:10404C00F8B5054602F07DFD2C184FF02003EFF378
:10405C00118783F31188BFF36F8F0D4E0D4BB06832
:10406C00186002F0E0FBB0680B492A46EB171830D9
:10407C0000F0D2FEB268537B43F010035373384602
:10408C00FDF784FA02F05DFD201A20EAE070F8BD1D
:10409C006406002094060020DD6700002DE9F04145
:1040AC00064614461D464FF02003EFF3118783F3A9
:1040BC001188BFF36F8F02F0C6FB87F31188BFF333
:1040CC006F8F6B1C08BFB4F1FF3F08D022462B4604
:1040DC0006F118000349BDE8F04100F09DBEBDE8B3
:1040EC00F08100BFDD67000010B5074B9868074BE7
:1040FC000C4618601146DDE90223FFF7CFFF20467E
:10410C00BDE81040FDF742BA64060020940600207A
:10411C002DE9F04104464FF02003EFF3118883F3AF
:10412C001188BFF36F8F437BDB064EB22ED18569AE
:10413C0065BB184F214607F12800FFF74DFDBB6A00
:10414C00FA6AA673834218BF1D46002D38BF00259E
:10415C00B5B195F90E10B14203DCAA4210D02D680E
:10416C00F6E76A68C4E9005214606C600120FFF73E
:10417C0049FD012088F31188BFF36F8FBDE8F081F2
:10418C00C4E90002FB6A1C60FC62EFE7A673002026
:10419C00F0E700BF6406002008B5FFF7B9FF38B19F
:1041AC00044B9B68DB7B1BB9BDE8084002F0CFBA1F
:1041BC0008BD00BF64060020044B002103F1280257
:1041CC00C3E90A220846FFF7C7BC00BF64060020FB
:1041DC0038B50D4C069AA368C3F884200546FBF746
:1041EC0077FF0022092101F0A1F9034630B102F05A
:1041FC0057FAA368D3F8840001F0A2FFA26895F9DE
:10420C000E00C2F8843038BD64060020F8B5174E95
:10421C00089AB368C3F884200C460746FBF758FF8E
:10422C000022092101F082F93246054688B102F0DC
:10423C0037FAB36815E097F90E2063B29A42F6DCB0
:10424C0038462146FFF7A8FFB3682846C3F88450C8
:10425C00F8BD0E2C02DC14F1100FECDA02F020FA8F
:10426C009368D3F8840001F06BFF00BF6406002054
:10427C00F8B5244C244BA2689A4230D04FF020035E
:10428C00EFF3118583F31188BFF36F8FA16804F1ED
:10429C002800FFF7A1FCA36AA268E16A834208BF69
:1042AC000023002B38BF00232BB392F90E7093F927
:1042BC000E60B74203DB8B421DD01B68F4E75968D4
:1042CC00C2E900310A605A60537B63F07F03537379
:1042DC000120FFF797FC85F31188BFF36F8F4FF028
:1042EC002003EFF3118083F31188BFF36F8FBDE8C8
:1042FC00F840FDF74BB9C2E90001E36A1A60E262CB
:10430C00E2E700BF640600206803002010B5064CED
:10431C00049AA368C3F88420FFF7AAFFA3680020BF
:10432C00C3F8840010BD00BF64060020D0B50F4652
:10433C00013708BFB0F1FF3F064606D10C4B986819
:10434C00FFF7A8FD4FF0FF30D0BD044602F0A8F9EE
:10435C004EB9FFF78DFF4FF47A7084FB0034D80B05
:10436C0040EA4440F0E73046FFF76AFE0446F2E7C5
:10437C006406002010B5064C049AA368C3F8842088
:10438C00FFF7D4FFA3680022C3F8842010BD00BF40
:10439C006406002038B50F4C0F4A4FF4004100253D
:1043AC00C1FB0045204600232946FBF711FF0446BC
:1043BC0002F076F944B9FFF75BFF074884FB003441
:1043CC00D80B40EA444038BD2046FFF739FE04467E
:1043DC00F3E700BF3F420F0040420F0010B5064C00
:1043EC00049AA368C3F88420FFF7D4FFA3680022C3
:1043FC00C3F8842010BD00BF6406002070B50E4DBC
:10440C00069AAB68C3F884200646FBF761FE0022CF
:10441C00092101F08BF8044630B102F041F9AB6888
:10442C00D3F8840001F08CFE304602F074FAAB68CD
:10443C002046C3F8844070BD64060020014B986888
:10444C00704700BF64060020024B98680023C0F838
:10445C008430704764060020EFF305833BB9054BAD
:10446C009B68D8897F288CBF0020012070470020D2
:10447C00704700BF64060020064A08B5936804998B
:10448C00C3F88410FFF7E8FF93680022C3F8842078
:10449C0008BD00BF64060020F8B5014614461D4651
:1044AC004FF02003EFF3118683F31188BFF36F8F66
:1044BC00184F8A68B86800F130039A421DD08842C0
:1044CC001BD04B7B1A071FD454EA05031ED0124B8A
:1044DC003031186002F0B7F96B1C08BFB4F1FF3F24
:1044EC0006D0B8680D4922462B46183000F094FCD3
:1044FC003046BDE8F840FDF749B86FF0200086F370
:10450C001188BFF36F8FF8BD0020F8E76FF00F0034
:10451C00F5E700BF6406002094060020DD6700006C
:10452C00F8B50B4CA3681646089AC3F884200546C8
:10453C000F4602F0BFF848B93A4633462846FFF713
:10454C00ABFFA3680022C3F88420F8BD0020F8E775
:10455C006406002070B50E4D069AAB68C3F8842033
:10456C00044602F0A7F82E4660B9237BDB0706D57C
:10457C0002F096F8AB68D3F8840001F0E1FD204618
:10458C00FDF7D2FBB3680020C3F8840070BD00BFF8
:10459C006406002070B50D4616460446FBF798FDE0
:1045AC000122072100F0C2FF38B102F0D0F9064B0E
:1045BC009B68D3F8840001F0C3FD3246294620469F
:1045CC00BDE8704002F0CDB96406002038B5064C49
:1045DC00069DA368C3F88450FFF7DCFFA368002294
:1045EC00C3F8842038BD00BF6406002038B50446EB
:1045FC004FF02003EFF3118583F31188BFF36F8F16
:10460C0002F04CF950B10022C0F8902002F0D0F822
:10461C0029460648BDE8384002F082B8D4E9023297
:10462C009A4218BF0133A360F2E700BFF4130020D5
:10463C0070B50E4D069AAB68C3F884200646FBF79E
:10464C0047FD0022072100F071FF044630B102F053
:10465C007EF9AB68D3F8840001F072FD3046FFF7A9
:10466C00C5FFAB682046C3F8844070BD64060020CB
:10467C0037B514461D464FF02003EFF3118183F339
:10468C001188BFF36F8F836843B1013B836081F363
:10469C001188BFF36F8F002003B030BD54EA0503BF
:1046AC0006D181F31188BFF36F8F6FF00F00F3E722
:1046BC000246CDE900450248FFF716FDECE700BFC6
:1046CC00F41300202DE9F041104DAB681746089A01
:1046DC00C3F8842088460646FBF7FAFC0022072123
:1046EC0000F024FF044630B102F031F9AB68D3F886
:1046FC00840001F025FD3B4642463046FFF7B8FFEB
:10470C00AB68C3F88440BDE8F08100BF64060020AC
:10471C0038B50C4C069AA368C3F884200546FBF701
:10472C00D7FC0022072100F001FF30B102F00FF995
:10473C00A368D3F8840001F003FDA268A860C2F856
:10474C00840038BD6406002038B50D4C069AA36869
:10475C00C3F884200546FBF7BBFC0022072100F0C0
:10476C00E5FE034630B102F0F2F8A368D3F88400FA
:10477C0001F0E6FCA268A868C2F8843038BD00BF1E
:10478C0064060020F8B5104C089AA368C3F884207E
:10479C000D460746FBF79CFC4FF0FF32082100F05A
:1047AC00C5FE064630B102F0EBF8A368D3F88400DE
:1047BC0001F0C6FC002DF6D02946384602F0F3F87D
:1047CC00A368C3F88460F8BD64060020F8B50F4DEB
:1047DC00089AAB68C3F884200F460646FBF778FCB2
:1047EC000022082100F0A2FE044630B102F0C8F805
:1047FC00AB68D3F8840001F0A3FC3946304602F0D4
:10480C00E5F8AB68C3F88440F8BD00BF640600202F
:10481C00D3B50C4616461F464FF02003EFF311811B
:10482C0083F31188BFF36F8FD0E9022393420AD927
:10483C001A1F53F8043CC260236081F31188BFF344
:10484C006F8F002008E056EA070307D181F3118827
:10485C00BFF36F8F6FF00F0002B0D0BD0246CDE9F1
:10486C0000670830FFF740FC10F10B0FF4D0024B3F
:10487C009B685B692360E4E7640600202DE9F8433C
:10488C00144C9946A36890460A9AC3F884200E46A5
:10489C000746FBF71DFC0022082100F047FE30B153
:1048AC0002F06EF8A368D3F8840001F049FC0122F1
:1048BC000421304601F072FC05460028F0D14B462D
:1048CC00424631463846FFF7A3FFA368C3F884502D
:1048DC00BDE8F88364060020D0B416461F4656EA9D
:1048EC00070102D1D0BCFFF703BAD0BC0149183084
:1048FC0000F092BADD67000010B5064C049AA3686C
:10490C00C3F88420FDF754FCA3680020C3F884008E
:10491C0010BD00BF64060020034B9B680022C3F847
:10492C0084206FF04600704764060020034B9B68A0
:10493C000022C3F884206FF0460070476406002004
:10494C0070B50E4D069AAB68C3F884200646FBF78B
:10495C00BFFB0022092100F0E9FD044630B102F052
:10496C0064F8AB68D3F8840001F0EAFB3046FFF73B
:10497C00BFF9AB682046C3F8844070BD64060020C4
:10498C002DE9F04385B004460E461746994600259E
:10499C00DDF8408002F06DFA304602F06AFAC4F895
:1049AC008060E567C4F884502046214602F056FA30
:1049BC0004F13003C4E90C33042363730F9B84F8B4
:1049CC000C80C4E90655A373E573304602F042F837
:1049DC0060B3B7FA87F34FF00045DD40AF4203D91F
:1049EC00C3F1200301259D40771902F01EF83B1FEF
:1049FC00C4E91936082323670E9B02930D9B019380
:104A0C00083F0C9BE5660093124D4B463A463146E7
:104A1C002046FCF78BFE0023C4E91733AB684BB977
:104A2C003846C4F8883005B0BDE8F083FD1D25F08C
:104A3C000705D9E7D86F10B1214602F063F918F0D9
:104A4C00080F03D0A868214600F048FDAB68D3F8E6
:104A5C008830E5E7640600202DE9F04F87B00E465C
:104A6C0017469946DDE913A80546FBF731FB4FF0D5
:104A7C00FF32092100F05AFD234C30B101F0D5FF73
:104A8C00A368D3F8840001F05BFB3046FBF720FBF6
:104A9C004FF0FF320B21834600F048FD0028EDD18A
:104AAC00DBF808301B68BB42E8D318F0040FE5D0E4
:104ABC0018F00103E2D10AF110021E2ADED8A26816
:104ACC0092F90E209245D9DBCDE90483129B029317
:104ADC00119B0193109B0093CDF80CA04B463A46CA
:104AEC0031462846FFF74CFFDDE91634013408BF88
:104AFC00B3F1FF3F04D0DDE916232846FFF7ECFEA7
:104B0C00284607B0BDE8F08F640600202DE9F04779
:104B1C00194E88B09A46119CB3689146129AC3F804
:104B2C0084200746884600221421204601F036FBDB
:104B3C00054630B101F079FFB368D3F8840001F079
:104B4C00FFFAD4E90423CDE90623E3680493A368B0
:104B5C0003936368029323680193109B00934A4666
:104B6C00534641463846FFF777FFB368C3F8845085
:104B7C0008B0BDE8F08700BF640600202DE9F04BBB
:104B8C002E4F2F4E86B03D46BE4206F1300412D356
:104B9C002C4C2D4FBC4235D3FFF70AF8284C4FF460
:104BAC00004840F2E7360027AC422DD306B0BDE8F2
:104BBC00F04BFFF74BB854F8043C059354F8103CF9
:104BCC00049354F8143C039354F8183C029354F88F
:104BDC001C3C019354F8203C009354E90A2354E9FB
:104BEC000C01FFF7CDFE54F8303CDE652646CBE7D2
:104BFC00216802F033F96368985904360028F7D11C
:104C0C000834C7E70026F6E7616A4B1C13D021EA8B
:104C1C00E171B346BC46C8FB01BC4FF47A72002369
:104C2C0058466146FBF7D4FAD4F8009002460B467E
:104C3C004846FFF751FE3034B6E700BF602E002027
:104C4C00602E00201C7200001C72000010B50C4C71
:104C5C00049AA368C3F88420FBF73AFA00220921CE
:104C6C0000F064FC30B101F0E0FEA368D3F88400DE
:104C7C0001F066FAA368C3F884006FF0460010BD1B
:104C8C006406002070B50E4D069AAB68C3F88420FC
:104C9C000646FBF71DFA0022092100F047FC0446EA
:104CAC0030B101F0C2FEAB68D3F8840001F048FAD1
:104CBC0006F1180001F00BFFAB68C3F8844070BD1F
:104CCC006406002070B50E4D069AAB68C3F88420BC
:104CDC000646FBF7FDF90022092100F027FC0446EB
:104CEC0030B101F0A2FEAB68D3F8840001F028FAD1
:104CFC0006F1180000F018F9AB68C3F8844070BDD9
:104D0C00640600202DE9F041044688B00D46164695
:104D1C001F4601F092FC04F1100800220023CDE99B
:104D2C000623CDE90372CDE90122074B00943246EC
:104D3C002946404601F095FE0449404608B0BDE8BE
:104D4C00F04101F084BE00BF2F5A000068780000CB
:104D5C00034B1B680BB9FCF7CFBB0020704700BF9F
:104D6C00A006002030B5036868B10A4A5268904228
:104D7C0009D043B1D3E90421D0E90445121945EB1C
:104D8C000101C3E90421426813605A600023C0E9A1
:104D9C00003330BD142E00200A4B10B51C689C4209
:104DAC0008BF0024FFF7D4FF44B12369181A064B3F
:104DBC001B6913B19842A8BF184610BD6FF0004094
:104DCC00F5E700BF142E002064060020036870B5C0
:104DDC00EBB1104A1368934216D051680024002599
:104DEC003BB9FFF7B5FF241A65EBE0752046294661
:104DFC0070BDD3E90426A41846EB05058342F0D018
:104E0C008B42EED01B68EBE700240025E9E7002479
:104E1C000025EBE7142E00202DE9F74F01911946E0
:104E2C004B1C08BFB2F1FF3F82466CD0541C6FF094
:104E3C00010341F100054FF0FF3BB3EB04086BEBB2
:104E4C000509B8F1000F79F100030FDBFFF780FFC4
:104E5C00334AD2E9001C6FF001035B1A6BEB0C02B6
:104E6C001E1B62EB0507341A67EBE075019BCAF851
:104E7C0008304FF02003EFF3118683F31188BFF352
:104E8C006F8FFFF765FF012C75F10003254BB8BF41
:104E9C0001241A68B8BF0025241845EBE0759A4226
:104EAC00CAE9044501D05F6852B95A68CAF80420AF
:104EBC005A68CAF80030C2F800A0C3F804A014E085
:104ECC00D2E90489DAE904454D4508BF44451DD2B1
:104EDC00B8EB040069EB0501C2E904015168CAE9A9
:104EEC000021C1F800A0C2F804A01A689A4206D0AA
:104EFC00924504D1FFF750FF0021FCF791FA86F39D
:104F0C001188BFF36F8F03B0BDE8F08FB4EB0800CE
:104F1C0065EB0901BA42CAE90401C6D01268C3E7BD
:104F2C00A8040020142E002010B54FF02003EFF33E
:104F3C00118483F31188BFF36F8FFFF747FF054A86
:104F4C00D2E90032C01842EB010184F31188BFF39F
:104F5C006F8F10BDA80400202DE9F74F0646FEF711
:104F6C0063FF4FF02003EFF3118483F31188BFF339
:104F7C006F8F2D4DDFF8B4A0DFF8B4B02E60514622
:104F8C00D5F800C0DBF800006246D3175845CDE9D0
:104F9C000023DAE900890ED068B1D0E90467BB427E
:104FAC0008BFB4451ED2009BB6EB030C019B67EB0C
:104FBC000306C0E904C6009B13EB0802019B4FF0EB
:104FCC00000643EB0903C1E900232E60FFF7E4FE62
:104FDC003146FCF725FA84F31188BFF36F8F03B0C9
:104FEC00BDE8F08F18EB06084FF000024FF00003FD
:104FFC0049EBE679C0E90423ACEB0606CAE9008963
:10500C002E60FFF7AFFE84F31188BFF36F8F8368B8
:10501C0098474FF02003EFF3118483F31188BFF30B
:10502C006F8F0249ACE700BFA0060020A804002047
:10503C00142E002010B54FF02003EFF3118483F3EE
:10504C001188BFF36F8FFCF757FA064BD3E9002397
:10505C00121843F1000384F31188BFF36F8F1046CD
:10506C00194610BDA8040020F8B5104D089AAB687D
:10507C00C3F884200446FFF7DDFF012207460E46E5
:10508C002046082101F08AF82A4648B1EFF305833F
:10509C000BB9EFF314839368D3F8840001F050F844
:1050AC00AA68C4E90076C2F88400F8BD6406002042
:1050BC00F8B5D0E90A23561C43F10007002F08BFAE
:1050CC00022E044602D30C49FFF7A6FE236B0133D4
:1050DC002363236A0BB12046984754F8185FA54206
:1050EC0009D045B1284601F002FB284601F060FBCF
:1050FC000023C5F89030F8BDBD5000002DE9734F6A
:10510C00194606464C1C104608BFB0F1FF3FDDE9BE
:10511C000A238046894647D014461D4654EA0503A7
:10512C0016D06FF00103B3EB020A4FF0FF3363EBC1
:10513C00050BBAF1000F7BF1000309DA12F1FF3411
:10514C0045F1FF35012C75F10003BCBF012400258E
:10515C006FF001031B1A00934FF0FF3363EB010355
:10516C000193DDE90023002A73F100030CDA10F13E
:10517C00FF3841F1FF39B8F1000F79F10003BCBFE2
:10518C004FF000084FF00009304601F08AFC002374
:10519C000749336342464B463046C6E90A4502B0DE
:1051AC00BDE8704FFFF738BE02B0BDE8708F00BF8E
:1051BC00BD5000002DE9F743134D9946AB681746D7
:1051CC000C9AC3F8842088460646FAF781FF002221
:1051DC000A2100F0ABF9044630B101F0DFFCAB68FA
:1051EC00D3F8840000F0ACFF0A9B019330463B4699
:1051FC00CDF800904246FFF781FFAB682046C3F81C
:10520C00844003B0BDE8F0836406002070B50E4DF9
:10521C00069AAB68C3F884200646FAF759FF0022B9
:10522C000A2100F083F9044630B101F0B7FCAB68F9
:10523C00D3F8840000F084FF304601F0C6FCAB6864
:10524C002046C3F8844070BD6406002070B50E4D36
:10525C00069AAB68C3F884200646FAF739FF002299
:10526C000A2100F063F9044630B101F097FCAB68F9
:10527C00D3F8840000F064FF304601F0C8FCAB6842
:10528C00C3F8844070BD00BF6406002013B504460B
:10529C004FF02003EFF3118183F31188BFF36F8F6D
:1052AC00006BA8B923689BB14FF0FF334FF0FF326E
:1052BC00CDE900230A4804F11802FEF715FF4FF060
:1052CC002003EFF3118183F31188BFF36F8F206BF1
:1052DC000023236381F31188BFF36F8F02B010BDDD
:1052EC00F413002070B50E4D069AAB68C3F88420F9
:1052FC000646FAF7EDFE00220A2100F017F90446E3
:10530C0030B101F04BFCAB68D3F8840000F018FF0F
:10531C003046FFF7BBFFAB68C3F8844070BD00BFDD
:10532C006406002070B50E4D069AAB68C3F8842055
:10533C000646FAF7CDFE00220A2100F0F7F80446E3
:10534C0030B101F02BFCAB68D3F8840000F0F8FE10
:10535C00304601F0BCFBAB68C3F8844070BD00BFA5
:10536C006406002070B50E4D069AAB68C3F8842015
:10537C000646FAF7ADFE00220A2100F0D7F80446E3
:10538C0030B101F00BFCAB68D3F8840000F0D8FE10
:10539C003046FFF7C9FDAB68C3F8844070BD00BF51
:1053AC006406002038B50D4C069AA368C3F8842017
:1053BC000546FAF78DFE00220A2100F0B7F80346E5
:1053CC0030B101F0EBFBA368D3F8840000F0B8FE19
:1053DC00A268686BC2F8843038BD00BF6406002038
:1053EC0070B50D4C069AA368C3F884200E4605468A
:1053FC00FAF76EFE00220A2100F098F830B101F0A5
:10540C00CDFBA368D3F8840000F09AFEA2686E630B
:10541C00C2F8840070BD00BF6406002073B50E4C4A
:10542C00089AA3680191C3F88420CEB2012204210A
:10543C00054600F0B3FE48B101F0FAFB6FF00C002A
:10544C00A3680022C3F8842002B070BD3146284600
:10545C0001F0F8FBF4E700BF640600202DE9F041F1
:10546C000F4C1F46A3689046089AC3F884200E463A
:10547C0001220421054600F091FE48B101F0D8FB51
:10548C006FF00C00A3680022C3F88420BDE8F08103
:10549C0042463B463146284601F001FCF2E700BF8C
:1054AC006406002008B500F074FE024B1870002052
:1054BC0008BD00BFF413002038B5064C064DAC42B5
:1054CC0001D3002038BD626854F8080B002100F0AD
:1054DC00B2FEF4E71C7200001C72000030B585B0FF
:1054EC000D46044601F071FC0190284601F06DFC5C
:1054FC00019B0133CDE9020405D0013003D00348F0
:10550C0001A9FAF7FFFD05B030BD00BF9B6D00008F
:10551C0008B501F05AFC431C014604D0BDE8084014
:10552C000148FAF7EFBD08BDD36D000038B515463C
:10553C00044668B311B183798B4229D1E3799A0778
:10554C000AD5002D1CD026DAE37913F0010F0CBF1D
:10555C0000206FF02F001AE0104B986801F035FC1A
:10556C00431C14D04209231D00F01F0053F82220C5
:10557C00012303FA00F01042E3D14FF0FF3006E0B4
:10558C00E37913F0010F14BF00206FF0150038BD44
:10559C006FF00800FBE70020F9E700BF640600206D
:1055AC0010B5044601F04BFA50B9074B9B68D3F881
:1055BC0088303BB121461846BDE8104001F0A1BC33
:1055CC00024BF7E710BD00BF640600201C2E002024
:1055DC00F8B5124D089AAB680746C3F88420084604
:1055EC000E46FAF775FD01220921FFF79FFF0446CD
:1055FC0030B101F0A3FCAB68D3F8840000F0A0FD3F
:10560C00384601F0A5FC0028F3D0314601F0F8FB38
:10561C00AB682046C3F88440F8BD00BF6406002088
:10562C0010B50B4C049AA368C3F8842001F090FCCD
:10563C0030B901F083FCA368D3F8840000F080FD3E
:10564C00A16801F0F1FBA3680020C3F8840010BD31
:10565C0064060020024B9B680020C3F8840070474E
:10566C006406002038B5064C064DAC4201D3002030
:10567C0038BDD4E90112204601F077FC1434F4E76C
:10568C00602E0020742E0020EFF3058323B9EFF376
:10569C00148000F001007047002070472DE948414C
:1056AC000246FFF7F1FF20B11046882603DFBDE864
:1056BC004881BDE848411046FEF738BE2DE9F3415C
:1056CC00C7688DF8071004460D46FFF7DDFF80B163
:1056DC002046DDF8071040F20162442603DF28B9AA
:1056EC00012303FA05F53B682B433B6002B0BDE890
:1056FC00F081A3689DF807101B6840F201622046F8
:10570C009847ECE72DE9F0438FB01646DDE9189881
:10571C00DDE9162705461C46FFF7B6FF88B10023C6
:10572C00CDE90937CDE90B39089228463346CDF837
:10573C0034804FF4007208AD8E2603DF0FB0BDE845
:10574C00F083CDE90120CDE90370CDE906980094F2
:10575C0033464FF40072284601F083F9EEE72DE949
:10576C0048410246FFF790FF20B11046942603DF14
:10577C00BDE84881BDE84841104601F068B92DE903
:10578C0050410246FFF780FF20B11046492603DF47
:10579C00BDE850819368BDE85041DB68104618475E
:1057AC002DE950410246FFF76FFF20B11046472606
:1057BC0003DFBDE850819368BDE850411B6910467A
:1057CC0018472DE948410246FFF75EFF20B110460D
:1057DC009A2603DFBDE84881BDE848411046FEF734
:1057EC0059BB034658B1426802F00302012A03D0A8
:1057FC00032A04D1026812B10020986070476FF040
:10580C00150070474268816002F00302032A4FF0D2
:10581C00000203460CBF006810465A607047EFF355
:10582C00058323B9EFF3148000F0010070470020CA
:10583C007047002070472DE950414168044600F143
:10584C000802FFF7ECFF30B110468C2603DF002373
:10585C006360BDE850811046FBF708FAF7E70B6868
:10586C0001330B604B685A1C0B4410B5202A0446BC
:10587C004A6008461C7201D1FFF7DDFF204610BDBF
:10588C000FB407B504A951F8040B0191FBF7FCF90F
:10589C0003B05DF804EB04B07047038B13F00703FF
:1058AC0005D10368002B0CBF002003207047022B8E
:1058BC0005D1438B002B14BF002004207047012B13
:1058CC0005D10368002B0CBF002005207047002079
:1058DC00704710B50C4640B139B1081DFFF781FF78
:1058EC0028B9A36833F0030301D06FF0150010BD85
:1058FC0010B44FF02004EFF3118284F31188BFF33E
:10590C006F8F416110BC0121FBF704BA38B50C460E
:10591C00054658B151B10B6843B14B6833B11C22E9
:10592C00002100F088FC2C61002038BD6FF01500C0
:10593C00FBE72DE9F04104460D46FFF7CAFF061EB2
:10594C0036DB4FF02003EFF3118283F31188BFF3A2
:10595C006F8F638B218B4FF6FF70834201F007072B
:10596C0034D0022F14D1013363833E46012382F3DA
:10597C001188BFF36F8FDBB10021281DFFF742FFA9
:10598C008046A8B100233A4629462046C0470FE07E
:10599C008B0701D0062F0ED100232B60636893B9BF
:1059AC00C4E900553E4667B902212046FBF7B2F91F
:1059BC003046BDE8F081052F0CBF6FF022066FF06A
:1059CC0004060023D3E71D606560EBE76FF00A0661
:1059DC00F7E7044608B5084611461A46A047EFF308
:1059EC00058373B9EFF31483DA070AD55E2603DF58
:1059FC00EFF3058343B9EFF31483DB0704D58D264E
:105A0C0003DFFEF71BFDF3E7FCF78EF9F9E7EFF385
:105A1C00058323B9EFF3148000F0010070470020D8
:105A2C0070472DE950410446FFF7F1FF00B34FF0EA
:105A3C00FF3120460A467E2603DF0028F4D000F111
:105A4C0008034268BFF35B8F53E8001F21F0010687
:105A5C0043E8006CBCF1000FF6D1BFF35B8FCB07B2
:105A6C0000D59047FFF7D3FF50B1A82603DFDBE743
:105A7C004FF0FF324FF0FF332046FDF79DFFDCE780
:105A8C00FEF7F6FBD0E7836800EBC101B3F5004FDE
:105A9C002CBF51F8220031F81200704700EBC10105
:105AAC008068B0F5004F2CBF41F8223021F812303D
:105ABC00704708B50122FFF7E6FF400808BD836870
:105ACC00B3F5004F00EBC10108D34B681AB143F09A
