:100000000024002071180000575A0000A1180000B9
:10001000A1180000A1180000A118000000000000B5
:10002000000000000000000000000000BD140000FF
:10003000A1180000000000004D140000D559000078
:10004000F5160000F5160000F5160000F516000084
:10005000F5160000F5160000F5160000F516000074
:10006000F5160000F5160000F5160000F516000064
:10007000F5160000F5160000F5160000F516000054
:10008000F5160000F5160000F5160000F516000044
:10009000F5160000F5160000F5160000F516000034
:1000A000F5160000F5160000F5160000F516000024
:1000B000F5160000F5160000F5160000F516000014
:1000C000F5160000F5160000F5160000F516000004
:0C00D000F5160000F5160000F516000003
:1000DC000A4BC0F30722C1B29A5C5B5C1344372B0A
:1000EC0009DC0C2206495A438B188A5890420CBFE3
:1000FC001846002070470020704700BF6771000051
:10010C00DC2C0020F8B5074C06460F46002523686A
:10011C0013B139462046B0470135382D04F10C0493
:10012C00F5D1F8BDDC2C0020000000000000000020
:10013C0000000000000000000000000000000000B3
:10014C0000000000000000000000000000000000A3
:10015C000000000000000000000000000000000093
:10016C000000000000000000000000000000000083
:10017C000000000000000000000000000000000073
:10018C000000000000000000000000000000000063
:10019C000000000000000000000000000000000053
:1001AC000000000000000000000000000000000043
:1001BC000000000000000000000000000000000033
:1001CC000000000000000000000000000000000023
:1001DC0053B94AB9002908BF00281CBF4FF0FF31A2
:1001EC004FF0FF3000F06EB9ADF1080C6DE904CEA4
:1001FC0000F006F8DDF804E0DDE9022304B07047F6
:10020C002DE9F047089D0E4604468C46002B40F025
:10021C0081808A42174645D9B2FA82F24AB1C2F1BC
:10022C00200106FA02F320FA01F1974041EA030C8F
:10023C0094404FEA174E230CBCFBFEF6B9B20EFBF2
:10024C0016CC43EA0C4306FB01F0984209D9FB1883
:10025C0006F1FF3C80F01581984240F21281023E7B
:10026C003B441B1AA4B2B3FBFEF00EFB103344EA62
:10027C00034400FB01F1A14209D93C1900F1FF3301
:10028C0080F00181A14240F2FE8002383C44641AA5
:10029C0040EA064000211DB1D4400023C5E90043CB
:1002AC00BDE8F08702B9FFDEB2FA82F2002A4FD124
:1002BC00CB1B4FEA174E1FFA87F80121B3FBFEFC4C
:1002CC00260C0EFB1C3346EA034608FB0CF3B34228
:1002DC0007D9BE190CF1FF3002D2B34200F2EB8009
:1002EC008446F61AA3B2B6FBFEF00EFB106643EA88
:1002FC00064408FB00F8A04507D93C1900F1FF3370
:10030C0002D2A04500F2D2801846A4EB080440EAC1
:10031C000C40C0E78B4208D9002D00F0AF800021C3
:10032C00C5E900060846BDE8F087B3FA83F1002959
:10033C0049D1B34202D3824200F2BB80841A66EBED
:10034C00030301209C46002DAAD0C5E9004CA7E769
:10035C00C2F120039740D8409140DE404FEA174E3F
:10036C0008434FEA104CB6FBFEF11FFA87F80EFB60
:10037C0011664CEA064601FB08F3B34204FA02F498
:10038C0009D9BE1901F1FF3C80F08E80B34240F2D6
:10039C008B8002393E44F31A86B2B3FBFEF00EFB9F
:1003AC00103346EA034600FB08F3B34207D9BE19E3
:1003BC0000F1FF3C74D2B34272D902383E44F31AB6
:1003CC0040EA01417AE7C1F1200703FA01F422FA6D
:1003DC0007F31C4320FA07F906FA01F34FEA144C11
:1003EC00FE4049EA03094FEA1943B6FBFCFE1FFA2B
:1003FC0084F80CFB1E6643EA06460EFB08FAB2456F
:10040C0002FA01F200FA01F308D9A6190EF1FF3035
:10041C0048D2B24546D9AEF1020E2644A6EB0A06E6
:10042C001FFA89F9B6FBFCF00CFB106649EA06468C
:10043C0000FB08F8B04507D9A61900F1FF3C2DD2F6
:10044C00B0452BD90238264440EA0E40A6EB0806EC
:10045C00A0FB02894E45C446CE4618D315D075B3C1
:10046C00B3EB0C0266EB0E0606FA07F722FA01F361
:10047C00CE401F43C5E90076002111E729462846E6
:10048C000EE76646EDE6184601E74345E7D2B8EBC2
:10049C00020C69EB04040138A646E0E76046D3E79A
:1004AC0060468CE78646B9E7614674E702383C44FF
:1004BC002BE7084647E7ACF1020C3E4411E729460E
:1004CC00EEE600BF704700BF80B5114C114F124DC6
:1004DC00384604F088FE04F06FFD78B1204684267F
:1004EC0003DF04F069FD68B128462621792603DF75
:1004FC00002141F69A1004F06BFDE9E7204603F069
:10050C00C7FDEEE72621284604F0BAFBF0E700BF52
:10051C00C42C002004700000C80300202DE9F8430F
:10052C00244DDFF8A090002704F046FD40B30022D4
:10053C00284602211346762603DF10F0FF0410D163
:10054C00EB6803F4F833B3F5005F26D11A4804F0D6
:10055C004AFE04F031FDD0B11848214622468726C8
:10056C0003DF174804F03FFEEB686FF31033EB60CA
:10057C006B6ADF6004F020FDC8B1A82603DFD3E767
:10058C00002200230221284604F018FAD5E70022A5
:10059C0000230A4803F0C2FDE3E76B6ADB68262BF5
:1005AC00DFD1484604F01FFE6B6ADC60D9E703F02C
:1005BC00B1FBB9E7002C002033700000C42C0020E4
:1005CC00697000004F7000002DE9484104F0F4FC04
:1005DC0020B10548272603DFBDE848810248BDE865
:1005EC00484102F047BC00BF7E7000002DE9F3418A
:1005FC0000260027624A63496348644D644CCDE988
:10060C00006704F019FD634B6349186004F03FFD6B
:10061C00624A63496348CDE9006704F00DFD624905
:10062C00286004F034FD614A61496248CDE90067F5
:10063C0004F002FD604B6149186004F028FD604A2B
:10064C0060496148CDE9006704F0F6FC5F49206021
:10065C0004F01DFD04F0B0FC002800F084805C4820
:10066C00782603DF5B4B5C480022022105F03CFF3F
:10067C00574B5A480022012105F036FF286804F038
:10068C0038FD206804F035FD4FF0A043544AC3F800
:10069C003827C3F83C27C3F84027C3F83427032274
:1006AC00C3F818270022C3F81C274E4B4E4A0124CE
:1006BC00C3F80443C3F8282502F58072C3F82C252F
:1006CC0002F5881202F20232C3F81C2502F5807280
:1006DC00C3F8202503F5C833444AC3F82025A2F5F6
:1006EC008672C3F8242502F58872C3F82825A2F572
:1006FC008672C3F82C250F22C3F800281C60FFF764
:10070C0063FF0646C8B3122104F072FC002834DBE8
:10071C00FFF75AFF074680B3112104F069FC00284B
:10072C002BDBF3681B68254613F4802F84F001043F
:10073C000CBF2B4623464FF480213046BBB104F04E
:10074C00C7FCFB681B6813F4003F08BF25464FF439
:10075C000031384675B104F0BBFC00214FF4004069
:10076C0004F036FCDDE71A4805F0DBFE7AE704F00E
:10077C009EFCE6E704F09BFCEFE702B0BDE8F081DD
:10078C00290500000024002040010020E403002083
:10079C00DC030020E003002085700000D94F00002E
:1007AC0000260020E001002093700000D50400001A
:1007BC000028002000000020D8030020A1700000B9
:1007CC00DB4F0000002A0020A0000020B2700000C7
:1007DC00C8030020C42C0020002C0020142C002066
:1007EC000C00030000600040010F02001861004083
:1007FC002DE9F04F87B00F461946109B9DF844B079
:10080C009DF848A01F4C06461425104698464FEA02
:10081C00E37950EA010319D1142D139C14BF01354F
:10082C0030232C4408BF8DF81430152C1BD0153CEC
:10083C00002C1ADC1DF8050039460135B047152D82
:10084C00F8D1002C19DC07B0BDE8F08F42464B46BE
:10085C00FFF7BEFCA25C0DF8052084460B466046F3
:10086C001946013DD5E70024E4E7BBF1000FE1D0C8
:10087C0039465046B047013CDAE739465046B04756
:10088C00013CDEE7C37000000B6801330B60014BC9
:10089C001B681847282C0020014B1860704700BFBC
:1008AC00282C00202DE9F04F002687B005468B46FA
:1008BC001C4602F1FF394FF0FF383746002307E0A2
:1008CC006BB9252800F0FC8059460493A847049B7B
:1008DC0019F8010F0028F3D107B0BDE8F08F7A2882
:1008EC000AD8622810D8302852D045D8252800F0D4
:1008FC00E5802D2800F0EA8059462520A84799F874
:10090C0000005946A847D9E7A0F16302172AF3D88B
:10091C0001A151F822F000BFC10A0000E509000056
:10092C00050900000509000005090000C7090000C1
:10093C00E50900000509000005090000C7090000D1
:10094C00050900000509000005090000490A00001E
:10095C0005090000050900008B0A000005090000CC
:10096C00E509000005090000050900008D090000DB
:10097C0005090000C7090000392815D95828BBD132
:10098C0099F80030702B63D154F8042B00236AE0E3
:10099C00B8F1000F0BDA002F00F09A80A0F13008AC
:1009AC00002F08BF022793E7B8F1000FF6DB0A22ED
:1009BC0002FB0808A8F13008F2E7682803D1682E7A
:1009CC0006D1482684E76C2802D16C2E00F0828078
:1009DC00002E91D106467BE77A2E03D154F8042BD6
:1009EC00D31708E06C2EF9D04C2EF7D1073424F035
:1009FC000704F4E8022375280FD0002A73F10001D4
:100A0C000BDA59462D20CDE90423A847DDE9042350
:100A1C00524263EB430308F1FF38F91E18BF012162
:100A2C00012F0CBF30202020CDE9020801910A21B2
:100A3C00009128465946FFF7DBFE3FE75946302028
:100A4C00A84759467820A8474FF00808012797E790
:100A5C006C2E99D04C2E97D1E31D23F007031C4626
:100A6C005B6854F8082BF91E18BF0121012F0CBF2D
:100A7C00302020200191CDE902081021D8E7A246B0
:100A8C005AF8043B1C46214614F8010B40B9032FBD
:100A9C0022D1CC1AA8EB0404002C06DC54460DE73A
:100AAC0059460493A847049BEDE759462020A847D4
:100ABC00013CF1E754F8040B594623E7594621E76A
:100ACC001E461F464FF0FF38012301E70327FFE6C0
:100ADC000127FDE64C26FBE654460346F8E600BF2C
:100AEC0070B5054E04464518AC4200D170BD336854
:100AFC0014F8010B9847F7E7282C002030B58BB081
:100B0C0004460D4604F03EFB88B1282200216846BD
:100B1C0005F008F82B460A4822466946FFF7C2FE44
:100B2C00019B13B1684604F039FB0BB030BD00904B
:100B3C000B46044822466946FFF7B4FEF5E700BFB2
:100B4C00D151000095080000F8B50E4D089AAB681D
:100B5C00C3F88420002206460F4604F096FF044694
:100B6C0030B104F00FFBAB68D3F8840004F05FFFE6
:100B7C0030463946FFF7B4FFAB682046C3F88440D3
:100B8C00F8BD00BF240500202DE9F84FB0F81890EF
:100B9C0019F0080804460DD001290CBF49F01009C2
:100BAC0049F02009A0F8189082F31188BFF36F8FD9
:100BBC00BDE8F88F09F00709022907D1204604F097
:100BCC001FFB0028F0D00128238B50D16769218BA3
:100BDC00002F15DA256821F00701C4E9008841F0DF
:100BEC00010121830026218B01F0070ACA4502D09E
:100BFC00A368002B5CD10DB9002E74D0002358E0F3
:100C0C0001F00703581F012820D821F00701062BFB
:100C1C00256889B2C4E900880CD1002D2B4638BF59
:100C2C0000232BB1608B1B6801306083002BF8D143
:100C3C0041F002012183204604F0E2FA0646002826
:100C4C00D1D0238B43F020032383CBE7042B0CD18F
:100C5C0021F0070189B22183204604F0D1FA054620
:100C6C000028BFD041F0200121830025BAE70328DA
:100C7C0009D1216923F007030E6843F0060323838F
:100C8C0000252F46AFE7042806D1216923F007037E
:100C9C004E6843F00403F2E7052806D1216923F0DE
:100CAC0007038E6843F00503E9E700252E46E8E7C5
:100CBC00012341F00801218382F31188BFF36F8F68
:100CCC0003BB002D40D116B125492046B0474FF04B
:100CDC002003EFF3118283F31188BFF36F8F238B03
:100CEC0023F008032383238BD90631D523F010037B
:100CFC0023830121B4F8189009F0070900297FF427
:100D0C005BAF51E7A1680029DBD00B68D1F804B0C8
:100D1C00002B38BF0023994652463B462046D84705
:100D2C00B9F1000FCDD0D9F800304946EEE739467D
:100D3C000BF104002D6804F000FA814620B13B460B
:100D4C00524659462046C847AB46002DEFD1BAE76C
:100D5C0013F020011EBF23F0200323830221C9E7D7
:100D6C0063520000F8B50E4CA3681646089AC3F8F7
:100D7C0084200F4601220421054604F086FE40B172
:100D8C0004F029FD6FF00C00A3680022C3F8842046
:100D9C00F8BD3A463346284604F027FDF4E700BF79
:100DAC00240500202DE95041FFF792F9C0B1837959
:100DBC000E2B15D182689AB1D3688BB10B4B91680D
:100DCC009B6899420FD104F006FD28B110466D26A0
:100DDC0003DF0020BDE85081104602F04FFAF8E71F
:100DEC006FF01500F6E74FF0FF30F3E72405002015
:100DFC0038B50C4C069AA3680421C3F88420012250
:100E0C00054604F042FE40B104F0E5FC6FF00C0026
:100E1C00A3680022C3F8842038BD2846FFF7C2FF20
:100E2C00F6E700BF240500200A2838B5064D044615
:100E3C0003D128680D2104F0F9FC2868E1B204F014
:100E4C00F5FC204638BD00BFE80300202DE94841E1
:100E5C00EFF305838BB9EFF31483DB070DD509484A
:100E6C00272603DF084B1860084801F059F807489B
:100E7C00FFF712FD0020BDE84881024801F0FAFF9F
:100E8C00F0E700BFD4700000E8030020350E00002E
:100E9C002DE9F0410E4FFA68841AA3100D4C5C43F7
:100EAC000546E4B20C2000FB04200E464021084409
:100EBC0004F0E9FC011E05DB7B6803EBC4046368EA
:100ECC009847002128463346BDE8F041184700BF3B
:100EDC00482C0020B76DDBB62DE9F047DFF85080C9
:100EEC00D8F80C60841BA3100F4C5C43E4B20C25A7
:100EFC006543814605F140000F463044402104F023
:100F0C00DBFC011E0ADB094A7319C3E90E27D8F86A
:100F1C00043053F83430BDE8F047184748463B4698
:100F2C00BDE8F047184700BFB76DDBB62759000086
:100F3C00482C0020002270B501210446104600F018
:100F4C00FFFA002000F0ECFA4FF08043E6680C4901
:100F5C0003220125C3F818553046C3F8042304F0C6
:100F6C0088F900280ADB3564E468054904F11C00A3
:100F7C0004F07FF90028A4BFE564002070BD00BF19
:100F8C004C6B00002DE9F0410B4E01460C23F06830
:100F9C004B43C418D4E90E5700224033A2631844C3
:100FAC0004F0A8FC2DB13A4630462B46BDE8F04182
:100FBC001847BDE8F08100BF482C002008B54FF061
:100FCC002003EFF3118183F31188BFF36F8F134A62
:100FDC00136843F0020013F0010310600ED04FF0C1
:100FEC008042D2F80C34D2F80C2413F0010305D053
:100FFC000B4BD868403004F07DFC012381F3118841
:10100C00BFF36F8F23B1BDE808400020FFF7BABFD4
:10101C004FF0804301221A6008BD00BF4C04002031
:10102C00482C0020054B00221A6082B01B680193EB
:10103C00019B034B01221A6002B07047040100406F
:10104C000C0000400D4ABFF35B8F82B052E8003FAA
:10105C0023F0020142E800100028F7D1BFF35B8FA8
:10106C0013F0010307D1064A136013680193019B27
:10107C00044B01221A6002B0704700BF4C040020E0
:10108C0000010040040000402DE950410A4C227838
:10109C0042B904F0E5FB50B14FF4A5705D2603DFB7
:1010AC0001232370054B01221A60BDE850814FF4D7
:1010BC00A57005F064F8F3E7A00E002008000040CE
:1010CC002DE9704101238BB00025CDE9065308AB07
:1010DC00CDE908330F4B019504AC01AACDE90444CA
:1010EC00CDE9023404F052FC002808DB04F0B8FB14
:1010FC0040B120464FF480412A46872603DF0BB0CF
:10110C00BDE870814FF480420023204603F006F8BE
:10111C00F5E700BF39590000184B07B51A68B2B192
:10112C004FF08042D2F80423D00710D500221A6069
:10113C001B680093009B124BDB68186C10F00700C7
:10114C0005D1104B1B68990701D5FFF71BFF0E4B00
:10115C001A6882B14FF08042D2F8042392070AD564
:10116C0000221A601B680193019B012003B05DF8FB
:10117C0004EBFFF707BF03B05DF804FB0001004070
:10118C00482C00204C0400200401004010B51149EB
:10119C00BFF35B8F0446012251E8003F41E8002079
:1011AC000028F9D1BFF35B8F43B90B49C8680B49D1
:1011BC001C304B60CB608A6004F06EF8012C06D0BA
:1011CC00022C06D10120BDE8104004F0BEBB00206B
:1011DC00F9E710BD50040020482C0020EC0300203F
:1011EC00821C084B22F07F42C3F84025D3F804251B
:1011FC00904200D17047D3F80405821C22F07F4244
:10120C00F2E700BF00100140044B002282B01A60CC
:10121C001B680193019B02B0704700BF4011014055
:10122C0008B5FFF7F1FF074B074AD3F840051368E1
:10123C00C01A20F07F4003441360BDE8084003F05F
:10124C0011BB00BF001001405404002038B5104DF4
:10125C000024C5F80845FFF7D7FF0E4B4FF40032BA
:10126C00C3F880214FF48033C5F8043322460121A2
:10127C00112000F065F9112000F052F9064A012303
:10128C00136020462B60FFF781FF204638BD00BF5E
:10129C000010014000E100E0081001402DE9784108
:1012AC00304B314C1968D4F80425304D521AB0F13A
:1012BC00FF3F08BF2846160222F07F433BD401387B
:1012CC0020EAE070A842A8BF284601334FF48036CC
:1012DC001844C4F80863A84294BF0D184D19D4F8EB
:1012EC000405D4F84015FFF78FFF091A21F07F4150
:1012FC0020F07F430129C4F84035C4F844630BD176
:10130C00EFF30583CBB9EFF31483DA0715D50F2070
:10131C005D2603DFFFF778FF154B4FF40032C3F85F
:10132C008021D4F804052B1A23F07F43012B08D11C
:10133C00FFF756FF0FE00020C7E70F2004F01FFF58
:10134C00E8E725F07F43C4F84035D4F804052D1A9E
:10135C00023D2B02ECD44FF48033C4F80433BDE8C7
:10136C00788100BF5404002000100140FFFF7F0073
:10137C0000E100E04FF02002EFF3118382F31188BB
:10138C00BFF36F8F064AD2F80405064A1268801A1A
:10139C0020F07F4083F31188BFF36F8F704700BF3D
:1013AC00001001405404002010B5114C114AA261E8
:1013BC000323C4E90433104BE36122664FF48063CA
:1013CC000E4A0F492362626600231022E01DA362BD
:1013DC006362E3622367E3666367A26604F061FB02
:1013EC000849204604F05DFB2023A37110BD00BF0B
:1013FC0058040020EB700000B10E0020A10E00205C
:10140C00F4700000F87000000A4A0B4993680968F0
:10141C00C3F890100949C3F88C004B6843F0805313
:10142C004B60002383F31188BFF36F8F9368D3F85D
:10143C009000704724050020D06B000000ED00E008
:10144C0019498A684FF038001044EFF3098C80E892
:10145C00F01F202080F31188BFF36F8F134F4FF0D4
:10146C0000664A6A8A603E60D2F88C000023C2F89B
:10147C008C3080F3118804B5104600F0D5FBBDE824
:10148C000440D2F89400EFF3148323F0010343EAF1
:10149C00000383F31488BFF36F8F02F1380090E8D8
:1014AC00F01F8CF3098870472405002004ED00E040
:1014BC001EF0040F0CBFEFF30880EFF30980816975
:1014CC0011F8021CEFF31482032908D012F0010F5B
:1014DC0001D10229FFD001B504F09DFA01BDD0F86D
:1014EC0018800D4981614FF4867C664502D30660F5
:1014FC0040F20B1609488068D0F8941021F00101D5
:10150C00C0F89410BFF34F8F22F0010282F31488BD
:10151C00BFF36F8F70470000B9170000240500203F
:10152C0043B2002B08DB012200F01F0002FA00F08E
:10153C005B09024A42F82300704700BF00E100E05B
:10154C0043B2002BA8BF03F1604301F10101B8BF06
:10155C00064B4FEA4111ACBF03F5614300F00F009D
:10156C00C9B2B4BF195483F80013704714ED00E0EE
:10157C000C4C9846A36883B50546D3F880001746F3
:10158C000E4605F0B6F8A468D4E91B329B1AC4F8D1
:10159C0098000193A36E00933A4643463146284681
:1015AC0000F0C2F82405002030B5017B42F8203C45
:1015BC00039B42F81C3C0E4D049B42F8183C11F066
:1015CC00040F059B0B4942F8143C18BF29464FF0F9
:1015DC00807342F8043CA2F12004002321F00101A5
:1015EC0042F8081CC0E925338465C0F88C3030BD46
:1015FC007D15000045530000104B9B6810B5044648
:10160C00BBB1D3F8980068B1EFF3148212F0010269
:10161C0005D116340FD1884298BF002010BDD3F8E5
:10162C008000F8E71634F9D19B6E8B4288BF1846C0
:10163C00F4E71846F2E71046F0E700BF2405002057
:10164C0008B504460E46154600F0D2FA084B204663
:10165C009C6000F0E9FA284686F30988002163B6FD
:10166C0081F31188BFF36F8F0022002303F064FE17
:10167C0024050020014910220A60704710ED00E09B
:10168C0072B6404080F31188BFF36F8FBFF34F8F5A
:10169C0030BF62B6BFF36F8F704700BF30BFFFF72C
:1016AC00FDBF00BF0E4A08B50E4B22F07F029A60B8
:1016BC00BFF34F8FBFF36F8FD3F8882022F47002E3
:1016CC00C3F88820EFF3148323F0040383F3148806
:1016DC0001F032FC01F03AFC00F058FA01F080FC09
:1016EC000000000000ED00E001B572B60B4A106A74
:1016FC0000281EBF0021116204F008FB62B6EFF354
:10170C000580A0F110004FEAC0000549014409C949
:10171C009847BDE801400349084700002405002014
:10172C00E06900007D1B000086461E488068D0F8EA
:10173C0098004FF4806C6044EC4680F309880EB539
:10174C002DE901101748806800F06EFABDE8011011
:10175C00DCF80000DCF804C02DE9011062464940B9
:10176C0004F0E0F9BDE801106044BDE80E4080F3E0
:10177C000988704603B40B488068D0F8941051F077
:10178C000101EFF3148C5CF0010CC0F89410BFF362
:10179C004F8F8CF31488BFF36F8F03BCDFF808C036
:1017AC00604700002405002045530000DFF888C086
:1017BC00DCF808C0DCF898C00CF5806CBCF1080CA7
:1017CC00CCF800D0CCF804E08CF3098840F20B1C68
:1017DC00664503D1EC462DE9305000E030B4DFF81B
:1017EC005CC04FEA8606B444DCF800C0E047DDF884
:1017FC000CE0DDF808C08CF3098803B40E4880684F
:10180C00D0F8941051F00101C0F89410BFF34F8F31
:10181C00EFF3148C5CF0010C8CF31488BFF36F8F16
:10182C0003BC4FF000014FF000024FF00003C44620
:10183C005CF0010C6047000024050020D46B000014
:10184C0037B54FF0FF3301930023C55C1DB18B42BC
:10185C0001D00133F9E7184600210191019911607B
:10186C0003B030BD04F08EF9202080F311880848B5
:10187C004FF40061401880F30988EFF314800221C3
:10188C00084380F31488BFF36F8FFFF70BFF000042
:10189C0040150020EFF30880EFF30981724601B583
:1018AC0000F0DCF801BD00BF70B52A4C05461646A9
:1018BC0004F0D2F8A36AD80601D504F0CDF8A36AD7
:1018CC001A0701D504F0C8F8A36A9B0730D504F0B9
:1018DC00C3F8626BA36A180606D504F0BDF819B1FB
:1018EC00A36A23F08003A3621A498B6ADB0701D534
:1018FC0004F0B2F88B6A9C0601D504F0ADF88B6A43
:10190C00D80618D40020134A936A43F0FF0393625D
:10191C00114BAA6923F00103934219D80F4B23F002
:10192C000103934214D90E4BAB610123337070BD8C
:10193C006FF01502D8E74B681B05E3D52946104616
:10194C00FFF75AFE0028DDD080F309880220DAE781
:10195C000023EBE700ED00E05718000059180000D9
:10196C006918000008B504F077F8144A936A9801D6
:10197C0001D504F071F8936AD90101D504F06CF823
:10198C00936A1B0301D504F067F80C4A936A580359
:10199C0001D504F061F8936A990301D504F05CF861
:1019AC00936ADB0301D504F057F8044A936A6FEA93
:1019BC0003436FEA13439362002008BD00ED00E07F
:1019CC0038B5224C054604F047F8A36AD80401D573
:1019DC0004F042F8A36A1B0501D504F03DF8A36A94
:1019EC0098050CD504F038F8A36BA36A1B0406D534
:1019FC0004F032F819B1A36A23F40043A36213492B
:101A0C008B6A5C0501D504F027F88B6AD80516D5CE
:101A1C0004F022F88B6A43F47F438B620C4BA96968
:101A2C0023F001038B420ED80A4B23F001038B42A7
:101A3C0009D9094BAB6101231370002038BD8B6AA7
:101A4C009B04E5D4E6E70023F6E700BF00ED00E0D9
:101A5C0057180000591800006918000070B53C4B6D
:101A6C005C688AB00D46C4F30804002686F311881E
:101A7C00BFF36F8F02F07F43B3F17F4F05D102F0BC
:101A8C000C03082B03D103F0E7FF354603E01207E4
:101A9C0001D4054601260022E31E8DF80720032BF6
:101AAC000CD8DFE803F002484C4503F0D5FF284B77
:101ABC008DF80720DC6A14F0020403D003F0CCFF8D
:101ACC0000240EE0DB6A5B000BD503F0C5FF214B55
:101ADC001B78F3B10DF1070201212846FFF7E4FE54
:101AEC0004469DF8073093B92022294602A803F03A
:101AFC00EEFF099B3EB3C3F3080222B96FEA5323EE
:101B0C006FEA4323099302A9204603F074FF0AB03D
:101B1C0070BD114B1B7833B10DF107020121284622
:101B2C00FFF74EFFDCE70D4B1B889BB2002BD8D088
:101B3C00FFF718FFD4E70DF107020021CDE70DF1F7
:101B4C0007020021EBE723F4FF7323F00103D9E72D
:101B5C0000ED00E028ED00E029ED00E02AED00E0CA
:101B6C00024A536943F010035361704700ED00E0E3
:101B7C00044B9968586A884203D003494FF080524D
:101B8C000A6070472405002004ED00E0044800239F
:101B9C002021C2180133272B82F80013F9D170478A
:101BAC0000E100E038B504464FF02003EFF3118557
:101BBC0083F31188BFF36F8F01F012FF0A4B9B6800
:101BCC00A3420BD1094B5A68C2F3080212B928463A
:101BDC00FFF71AFC5A6842F080525A602846BDE85A
:101BEC00384004F093B900BF2405002000ED00E05C
:101BFC001FB5084B0193084B0293084B039301ABA1
:101C0C000093074A074B0121684600F03DF905B0E7
:101C1C005DF804FB000000200000000000000B0633
:101C2C00000000200000012070B5044694B003F0C1
:101C3C001DFFE16FD1B103F019FF91F8C85003F00B
:101C4C0015FF0A4601F1C006002153685BB103F091
:101C5C000DFF14AB03EB8103013D01F1010143F8CE
:101C6C00442CC9B202D00C329642EED103F0FEFEE7
:101C7C00D4F8983083B1D4E91A03D4F88020034403
:101C8C009B1ACDE90023074B029314AB03EB8103A2
:101C9C00013143F844DCC9B203A800F01BF914B0BD
:101CAC0070BD00BF00000B13034B9B68834201D136
:101CBC00FFF7BABF704700BF240500204FF0200388
:101CCC00EFF3118283F31188BFF36F8F044B98608D
:101CDC00186982F31188BFF36F8F00F00100704711
:101CEC0090ED00E038B5044603F0D1FED1E9005385
:101CFC00202B896812D9B3F1004F11D8013BB3FAEC
:101D0C0083F3C3F11F035B00072C41EA030109D9DC
:101D1C0003F0BDFE6FF01504204638BD0823F3E731
:101D2C003E23F1E703F0B3FE25F01F0505482543DC
:101D3C0045F0100541F001018460C560016103F0BC
:101D4C00A6FEE9E790ED00E0034B05225A60BFF3D5
:101D5C004F8FBFF36F8F704790ED00E0BFF35F8F35
:101D6C00014B00225A60704790ED00E01549F8B520
:101D7C000C68082C22D8144D03F089FE0C26FFF7B2
:101D8C00EDFF0022944205D1104B1C70FFF7DCFFD5
:101D9C000020F8BD06FB02F34868AA60C718C358B8
:101DAC0023F01F03134343F01003EB60BB6843F0B5
:101DBC0001032B6103F06BFE0132E3E74FF0FF30C0
:101DCC00E7E700BF586B000090ED00E0B112002077
:101DDC00024B1878C0F10800704700BFB112002008
:101DEC002DE9F0410029274E01F1FF350446174635
:101DFC0008BF002507214FF001080846FFF75EFFDA
:101E0C00002837D04FF02003EFF3118083F31188B3
:101E1C00BFF36F8FB160F268336980F31188BFF341
:101E2C006F8F601926D222F01F02944222D3C3F383
:101E3C004403013308FA03F3013A1344834219D3E0
:101E4C004FF02003EFF3118283F31188BFF36F8FF0
:101E5C00B160336982F31188BFF36F8F190EC3F32E
:101E6C00026367B1033B59425941B1FA81F1490907
:101E7C00494201E00139C0D20846BDE8F08101F0C9
:101E8C000201F2E790ED00E0F8B5114C074620781E
:101E9C000E460025B54211DA57F825104B68ABB148
:101EAC005A1E13420CD11F2B0AD90B681A4207D1A8
:101EBC00C0B2FFF717FF10F1160F06D12070F8BD56
:101ECC0003F0E5FD6FF01500F8E701300135E1E7AF
:101EDC00B112002038B5104B054618780C4600227C
:101EEC00A24207DB10F1160F03D00C4A0021072881
:101EFC000DDD38BD55F822104B6833B1C0B2FFF779
:101F0C00F1FE10F1160FF4D001300132E8E79060C9
:101F1C0011610130EBE700BFB112002090ED00E041
:101F2C00014B1860704700BF2C2C0020022902D1F5
:101F3C00024B1B6818474FF0FF3070472C2C0020C9
:101F4C0010B5064C049AA368C3F88420FFF7EEFF83
:101F5C00A3680022C3F8842010BD00BF2405002014
:101F6C00022B2DE9F84306460C46154615D1B2B1A5
:101F7C0081B1DFF830901746B0462644D9F80030CE
:101F8C0018F8010B9847013003D04645F6D1013FB4
:101F9C00F2D1EC1B2046BDE8F8830024FAE7144686
:101FAC00F8E700BF2C2C00202DE9F047124F9A4681
:101FBC00BB6816460A9AC3F88420A6FB01348046F7
:101FCC000D46B9462CB92246194603F05EFD04466F
:101FDC0038B103F0CAFDD9F80830D3F8840003F007
:101FEC0026FD5346324629464046FFF7B9FFBB68EB
:101FFC00C3F88440BDE8F087240500204FF020038F
:10200C00EFF3118283F31188BFF36F8F064901231D
:10201C00C1F840354FF08041C1F8783582F3118812
:10202C00BFF36F8F0020704700E0014020B1034BDD
:10203C00800143F001031847704700BF206B00007C
:10204C0008B5094B1A786AB90121197006200521C7
:10205C00FFF776FA0620FFF763FA044B4FF00042C5
:10206C00C3F80423002008BDB21200200060004019
:10207C002B4BF0B546682B481340834240D00DD80B
:10208C00062B15D005D89BB1022B3BD06FF0150059
:10209C0035E0B3F5801FF9D1012309E022488342D2
:1020AC0032D0B3F5A00F31D0B3F5800FEED10223AF
:1020BC00D00654BFC2F34015032582F480749705F3
:1020CC00C2F34020C4F3002407D512F4006F7768E4
:1020DC001ED001228A40C7F80825327A01F01F0170
:1020EC0041EA421140EA440242EA032301F5E0715D
:1020FC004FF0A04243EA850342F821300020F0BDA6
:10210C000723D5E70423D3E70523D1E70323CFE740
:10211C00520542BF01228A40C7F80C25DDE700BFFB
:10212C000600F0000600100002004000F7B5C4687D
:10213C004068007A01F01F05B2F5A03F45EA401552
:10214C000AD105F5E0704FF0A04656F82000C707FD
:10215C0007D56FF02200B4E0B2F5005FE06800F044
:10216C00B280E6680120884030436669E060012057
:10217C008840B2F5A03FA2690CBF06438643B3F575
:10218C00C02F0CBF02438243A26122696661B3F582
:10219C00802F0CBF104322EA00005B4A2061D2F86A
:1021AC0004030023C0B203F5A27652F82660C6F3EE
:1021BC000426B54240F08C8020FA03F6F60740F175
:1021CC00878001209840514EBFF35B8FC74356E880
:1021DC0000CF0CEA070C46E800CEBEF1000FF6D19A
:1021EC00BFF35B8F9B0003F1804303F5C043D3F82F
:1021FC00106526F00106C3F81065C2F80803AA00A2
:10220C0002F1A042E068D2F80037C84023F4403312
:10221C0010F00100C2F8003753D06069C84010F0CC
:10222C00010060D0A369394ACB40DB075FBF23694B
:10223C0023FA01F101F00101C1F1020154BFC9B24D
:10224C0003210023012606FA03F4BFF35B8F52E847
:10225C00000F40EA040742E8007CBCF1000FF6D105
:10226C00BFF35B8FD84010F0010036D19A0002F119
:10227C00804202F5C0424033D2F8106526F447364E
:10228C0026F440769B00C2F810652D029BB2D2F862
:10229C00106505F4F85503F1804303F5C04345EA96
:1022AC0001453543C2F8105518601B680193019B1A
:1022BC00D2F8103543F00103C2F81035124BC3F8B5
:1022CC00044303B0F0BD01268E4020EA06004CE723
:1022DC000133082B7FF467AF91E70133082BB2D1A0
:1022EC006FF01200EDE72369D2F8005723FA01F1E1
:1022FC0001F00101C1F1030125F4403343EA01412E
:10230C00C2F80017DDE700BF006000401C0500208C
:10231C00F7B54E490D68002D61D04D4BDA68D3F8F6
:10232C0004C0D368D2E90504204323EA0003DCF897
:10233C0004001269D0F81045544023EA040401202B
:10234C000026002B35D10B600B680093009B414895
:10235C00002301261F46D0F8042306FA03F111428C
:10236C0013D09A0002F1804202F5C242116861B1A9
:10237C0003F5A27150F82110176012680192C1F395
:10238C00042106FA01F1019A0C430133082BE2D126
:10239C003CBB65B12E4BD8685E68C168D0E905328C
:1023AC00134321EA030101240025002931D103B094
:1023BC00F0BD034210D09CF8087006F01F0242EAF0
:1023CC004712920002F1A04223EA0003D2F80077F0
:1023DC0027F44037C2F8007701364000B1E72C46AD
:1023EC00B5E71B4FFB6859680029D2D00E68002E48
:1023FC0038BF00268A68224002D04B68384698477E
:10240C00002EC6D03368002B38BF002331461E4641
:10241C00F0E70C4217D0327A05F01F0343EA42135F
:10242C009B00026903F1A043EA40D3F8007702F065
:10243C000102C2F1030227F4403747EA0242C3F813
:10244C00002721EA040101356400AEE77C610040FD
:10245C00782C0020006000402DE9F041DFF84C8022
:10246C00D8F808301746089AC3F88420CEB2044630
:10247C00FDF72EFE00221B2102F0F0FC4246054621
:10248C0030B103F0D3FB9368D3F8840003F0CFFA98
:10249C00A3681B68002BF4D03A4631462046984777
:1024AC00D8F80830C3F88450BDE8F081240500202A
:1024BC00F8B5174E089AB368C3F884200D46044645
:1024CC00FDF706FE00221B2102F0C8FC324678B153
:1024DC0003F0ACFB9368D3F8840003F0A8FAA3686C
:1024EC0029465B6820469847B368C3F88470F8BDEA
:1024FC00A3685B68002BEBD001220421284603F073
:10250C00C4FA07460028EAD003F090FBB368E2E770
:10251C00240500202DE9F041DFF84C80D8F8083074
:10252C001746089AC3F884200E460446FDF7D0FDE2
:10253C0000221B2102F092FC4246054630B103F00A
:10254C0075FB9368D3F8840003F071FAA3689B6859
:10255C00002BF4D03A46314620469847D8F808303C
:10256C00C3F88450BDE8F08124050020F8B5114F64
:10257C00089ABB68C3F884200E460446FDF7A8FDF4
:10258C0000221B2102F06AFC3A46054630B103F0EA
:10259C004DFB9368D3F8840003F049FAA368DB6819
:1025AC00002BF4D0314620469847BB68C3F88450C2
:1025BC00F8BD00BF24050020F8B5114F089ABB6880
:1025CC00C3F884200E460446FDF782FD00221B2131
:1025DC0002F044FC3A46054630B103F027FB936801
:1025EC00D3F8840003F023FAA3681B69002BF4D002
:1025FC00314620469847BB68C3F88450F8BD00BFED
:10260C0024050020F8B5114F089ABB68C3F8842044
:10261C000E460446FDF75CFD00221B2102F01EFC59
:10262C003A46054630B103F001FB9368D3F88400B9
:10263C0003F0FDF9A3685B69002BF4D0314620460A
:10264C009847BB68C3F88450F8BD00BF2405002030
:10265C002DE9F041194DAB681446089AC3F8842053
:10266C005FFA81F80746FDF733FD00221B2102F0CB
:10267C00F5FB30B103F0DAFAAB68D3F8840003F061
:10268C00D6F9BB689E69002EF4D0230408D5FA68ED
:10269C000123126803FA08F3134218BF84F4C02410
:1026AC0004F4C02304F4B03241463846B047AB685A
:1026BC000022C3F88420BDE8F08100BF240500206F
:1026CC0070B5104E069AB368C3F884200446FDF723
:1026DC00FFFC00221B2102F0C1FB3246054630B143
:1026EC0003F0A4FA9368D3F8840003F0A0F9A3686C
:1026FC001B6A002BF4D020469847B368C3F884506B
:10270C0070BD00BF24050020024BD3F88004C3F831
:10271C00800470470020004030B54B79012B1ED14E
:10272C008B79032B1BD1CA790AB1012A17D10C79E9
:10273C0014B1022C13D10E240B68B3F5164F5FD0D5
:10274C002BD8B3F5165F5DD014D8B3F5966F5BD06C
:10275C0008D8B3F5967F5AD0B3F5167F5AD06FF0E0
:10276C0022004CE0B3F5166F57D0B3F5965FF6D157
:10277C00344B39E0B3F5E14F52D007D8B3F5615F74
:10278C0050D0B3F5964FEAD12F4B2DE047F61225DA
:10279C00AB42E4D14FF4000326E0B3F5613F44D0E3
:1027AC0011D8B3F5963F42D008D84DF6C025AB42B0
:1027BC003FD0B3F5614FD2D1244B15E0B3F5E13FD7
:1027CC00CDD1234B10E0B3F5612F35D007D8214D77
:1027DC00AB4233D0B3F5E12FC1D11F4B04E01F4DF9
:1027EC00AB42BCD14FF080531D4D2243C5F824356C
:1027FC00C5F86C25C36803C983E80300002030BD0D
:10280C00184BF1E7184BEFE74FF49E23ECE74FF42E
:10281C00A033E9E74FF41C33E6E74FF41D23E3E75D
:10282C00124BE1E74FF46C13DEE7114BDCE7114B75
:10283C00DAE74FF46503D7E70F4BD5E74FF080632A
:10284C00D2E700BF00B0130000A04E0000F0EB0078
:10285C0000E0D70190D0030000705F0740420F00EA
:10286C000020004000509D000050270000F0750033
:10287C0000B0AF0300903A0100D0BE0E084B1A68AE
:10288C0082B052B1002018601B680193019B054B6C
:10289C00D3F818350B7002B070474FF0FF30FAE7E1
:1028AC000821004000200040F7B50E4603F061FC03
:1028BC001B4D88BB64240127BFF35B8F55E8003F99
:1028CC00002B03D145E80072002AF7D1BFF35B8FD0
:1028DC0007D021200021013C01F07AFA14F0FF040A
:1028EC00EAD1104C0022226022680192019A0E4A11
:1028FC0001211160C2F814654FF47A76236823B96C
:10290C00012003F0AFF9013EF8D1084B01221A6007
:10291C0000232B6003B0F0BD01232B60E1E700BF67
:10292C00200500201C210040082000400C20004005
:10293C0037B54FF0A043174C00224021C4F80025B6
:10294C000825C3F808150321C3F81817C3F8202766
:10295C00C4F814550625C4F80C552025C3F80855A1
:10296C00C3F81417C3F81C270523C4F8083507232C
:10297C00C168C4F81035FFF7CFFE48B90423C4F87A
:10298C000035054B18601B680193019B01232360E4
:10299C0003B030BD002000400821004070B5104E3F
:1029AC00069AB368C3F884200446FDF791FB002215
:1029BC00262102F053FA3246054630B103F048F9AD
:1029CC009368D3F8840003F032F8A3689B68002B5B
:1029DC00F4D020469847B368C3F8845070BD00BF4C
:1029EC0024050020F8B5174E089AB368C3F8842064
:1029FC000D460446FDF76CFB0022262102F02EFA50
:102A0C00324678B103F024F99368D3F8840003F0CC
:102A1C000EF8A36829461B6820469847B368C3F88C
:102A2C008470F8BDA3681B68002BEBD00122114603
:102A3C00284603F02AF807460028EAD003F008F9E4
:102A4C00B368E2E724050020F8B5114F089ABB687B
:102A5C00C3F88420CEB20546FDF73AFB00222621AE
:102A6C0002F0FCF93A46044630B103F0F1F89368F1
:102A7C00D3F8840002F0DBFFAB685B68002BF4D06A
:102A8C00284631469847BB682046C3F88440F8BDB9
:102A9C0024050020F8B51A4E089AB368C3F88420B0
:102AAC000D460446FDF714FB0022262102F0D6F950
:102ABC003746A8B103F0CCF8BB68D3F8840002F019
:102ACC00B6FF294620469847BB680022C3F88420ED
:102ADC00F8BDA3681B69002BF3D16FF02200F3E75C
:102AEC00A3681B69002BE5D001220821284602F0BF
:102AFC00CCFF0028EDD003F0ABF8B368DDE700BFE6
:102B0C0024050020F8B51A4E089AB368C3F884203F
:102B1C000D460446FDF7DCFA0022262102F09EF950
:102B2C0037460246A8B103F093F8BB68D3F884008B
:102B3C0002F07DFF294620469847BB680022C3F867
:102B4C008420F8BDA368DB68002BF3D16FF0220062
:102B5C00F3E7A3681B69002BE5D00821284602F097
:102B6C0094FF0028EED003F073F8B368DEE700BFE3
:102B7C00240500200B4B1B685A1C05BF0A4B0B4A43
:102B8C000B4A10680ABF1B781068C0F30310062BA1
:102B9C0005D1033803288CBF00200120704700208A
:102BAC00704700BF30010010E00F00F0E80F00F09C
:102BBC0034010010074B1B78062B09D1064B1B6800
:102BCC00C3F30313033B032B02D8044AD05C7047B6
:102BDC0000207047E00F00F0E80F00F016710000C5
:102BEC0008B5FFF7C7FF28B17E4B7F4A1B68C3F3BC
:102BFC0004231360FFF7DEFF10B17C4B7C4A1A6094
:102C0C00FFF7B8FF28B17B4B7B4A1B68C3F34233F9
:102C1C001360FFF7CFFF20B1784AD36823F080739D
:102C2C00D360FFF7A7FF40B14FF080430022C3F8F9
:102C3C000C21C3F81021C3F83825FFF7BBFF10B1E6
:102C4C006F4B03221A60FFF7B5FF40B16D4B0522A5
:102C5C001A6001229A6700229A603F225A606A4BDE
:102C6C001A68511C0BBF694B694B1A781B6802BF61
:102C7C0008331B68C3F30313062A4DD1033B032B04
:102C8C004AD8644AD35C002B46D04FF08052624B3A
:102C9C00D2F80414C3F82015D2F80814C3F824157C
:102CAC00D2F80C14C3F82815D2F81014C3F82C154C
:102CBC00D2F81414C3F83015D2F81814C3F834151C
:102CCC00D2F81C14C3F84015D2F82014C3F84415DC
:102CDC00D2F82414C3F84815D2F82814C3F84C15AC
:102CEC00D2F82C14C3F85015D2F83014C3F854157C
:102CFC00D2F83414C3F86015D2F83814C3F864153C
:102D0C00D2F83C14C3F86815D2F84014C3F86C150B
:102D1C00D2F84424C3F87025FFF72CFF28B13F4BA1
:102D2C003F4A1B6803F04F031360FFF723FF48B1C2
:102D3C004FF08043D3F80024D20744BF6FF0010258
:102D4C00C3F80024304B1B68062B0CD1304B1B688E
:102D5C00033B032B07D8334AD35C23B1324A1368A5
:102D6C0043F4806313604FF01023D3F80022002A41
:102D7C0003DBD3F80432002B2FDA2C4B0122C3F8DF
:102D8C000425D3F80024002AFBD04FF01022152183
:102D9C00C2F80012D3F80024002AFBD04FF0102305
:102DAC001522C3F80422214B1A46D3F8001400292B
:102DBC00FBD00021C3F80415D2F80034002BFBD053
:102DCC00BFF34F8F1A491B4BCA6802F4E0621343DE
:102DDC00CB60BFF34F8F00BFFDE7174B174A1A604C
:102DEC0008BD00BF240300104035014074C00740EB
:102DFC000DF0ADBA440200103C050040F0ED00E0CF
:102E0C00A00500401056004030010010E00F00F00B
:102E1C00340100100E71000000C000405802001078
:102E2C00E40E0040127100003C17004000E001402D
:102E3C0000ED00E00400FA05382C00200090D003CF
:102E4C00F8B50B4B53F820400130002753F82060A5
:102E5C00A64200D8F8BD656815B1284603F088FC79
:102E6C0023682846984708B105B1AF600834EFE7EE
:102E7C00BC6B00000F4B70B50F4C05461E469C42B8
:102E8C0004D10D4CB44208D1002410E0A26812B158
:102E9C002268AA420BD01034F1E7A3680BB91034A6
:102EAC00F0E72168284602F006FE0028F7D12046FC
:102EBC0070BD00BF882C0020482C002010B50B4C96
:102ECC008CB0A368109AC3F884200146302268465F
:102EDC0003F076FC40B96846FFF7CCFFA3680022EC
:102EEC00C3F884200CB010BD0020F7E724050020A7
:102EFC00034B9B680022586EC3F88420704700BFB8
:102F0C002405002008B50B4D4FF02002EFF3118380
:102F1C0082F31188BFF36F8F03F083F9012102282C
:102F2C000446D8BF084603F08CF92C62FEF7A8FBC8
:102F3C00EAE700BF240500200248034A0021121AC8
:102F4C0002F0F0BD00000020B812002009480A4A27
:102F5C000A4908B5121A02F0BAFD094A09490A4889
:102F6C0002F0B5FD09480A4A0A49BDE80840121AA0
:102F7C0002F0ADBD002C0020A843002068720000B8
:102F8C00000000006872000000000020000000201B
:102F9C00000000206872000008B50C4B01220220D2
:102FAC001A70FFF74DFF0A4A0A490B4802F01BF949
:102FBC000320FFF745FF01F08DFAFDF717FB074AD9
:102FCC00137B23F00103137308BD00BFB312002061
:102FDC00617100001A7100003B7100002003002099
:102FEC002DE98048DFF8F490AFB089F30888334DB1
:102FFC00334E6B69DFF8E8A0324F43F400730024C2
:10300C006B61E02385F82230EC772C766C76AC760D
:10301C006B6A43F4E0236B62FEF7A2FDFEF72AFB1A
:10302C004FF0FF33AB62EB62274D259440F2011356
:10303C00ADF8243006ABAB602046CDE92044FFF759
:10304C00FFFE0120FFF7FCFE4FF0010B00F006FE27
:10305C001E4B6E621E4905934FF480625346CDE9B8
:10306C00034BCDE901440094304601F035F9737BF4
:10307C00804623F004033046737302F084FF0F2361
:10308C00CDE902431349144B4FF4A072CDE904B4BB
:10309C00CDE90044384601F01FF97B7BEF6023F04B
:1030AC0004037B7305F11803C5E906332C75C5F8C9
:1030BC000490524641463046FEF7C2FA00ED00E05D
:1030CC0020030020800200202405002062710000F3
:1030DC000020002000140020112F0000401D0020B3
:1030EC00A52F000070B50E4D069AAB68C3F884206E
:1030FC000646FCF7EDFF0122032101F0AFFE04466A
:10310C0030B102F005FEAB68D3F8840002F08FFCFE
:10311C00304602F017FEAB68C3F8844070BD00BFA8
:10312C00240500202DE9F341044616461F464FF0B6
:10313C002003EFF3118883F31188BFF36F8FC368FB
:10314C00394A6BB18068916888421CD056EA0703F3
:10315C001BD188F31188BFF36F8F6FF00F020EE055
:10316C00916891F90E1021610133E3609368A360BB
:10317C0002F0CEFD88F31188BFF36F8F002210464A
:10318C0002B0BDE8F0812169EDE791F90E1090F9DC
:10319C000E309942A8BF194621EAE17102F0B8FD40
:1031AC00A36893F90E30994237DA04F1080002F063
:1031BC00B9FD054622464146CDE900671B4800F0A3
:1031CC00E5FC024602F0A4FD02F0A2FD002AD6D0D6
:1031DC0002F09EFD4FF02003EFF3118683F311886C
:1031EC00BFF36F8F23682169A34207D033B193F9E2
:1031FC000E309942A8BF194621EAE17102F088FD10
:10320C0004F1080002F08EFD00B945B107483146C3
:10321C0002F071FE6FF00A02B1E70025CAE786F3EF
:10322C001188BFF36F8FF5E724050020B41200203E
:10323C002DE9F041104DAB681746089AC3F884206D
:10324C0088460646FCF744FF0022032101F006FEE7
:10325C00044630B102F05CFDAB68D3F8840002F098
:10326C00E6FB3B4642463046FFF75CFFAB68C3F8D3
:10327C008440BDE8F08100BF2405002038B5836888
:10328C000446002B3AD0204A9268934239D1DA7B1B
:10329C00013ADA7302F03CFDE368012B05D0013BE7
:1032AC00E36000F025FA002038BD4FF02003EFF367
:1032BC00118583F31188BFF36F8F216904F1080026
:1032CC0002F030FD204602F0D4FEA060024602F06F
:1032DC001FFD6AB192F90E30236100231046C2F82B
:1032EC00903002F050FE0948294602F004FED8E75F
:1032FC00E26085F31188BFF36F8FD2E76FF0150092
:10330C00D2E74FF0FF30CFE724050020B4120020A5
:10331C0070B50E4D069AAB68C3F884200646FCF7D0
:10332C00D7FE0022032101F099FD044630B102F0D2
:10333C00EFFCAB68D3F8840002F079FB3046FFF762
:10334C009DFFAB68C3F8844070BD00BF240500200E
:10335C0070B50F4D069AAB68C3F884200646FCF78F
:10336C00B7FE4FF0FF32052101F078FD044630B175
:10337C0002F0F2FCAB68D3F8840002F058FB304644
:10338C0002F061FDAB682046C3F8844070BD00BFFD
:10339C002405002070B50E4D069AAB68C3F8842046
:1033AC000646FCF795FE0022052101F057FD044668
:1033BC0030B102F0D1FCAB68D3F8840002F037FBDB
:1033CC00304602F04DFDAB682046C3F8844070BD1A
:1033DC0024050020F8B50F4D089AAB68C3F884207B
:1033EC000F460646FCF774FE0022052101F036FD5F
:1033FC00044630B102F0B0FCAB68D3F8840002F0A4
:10340C0016FB3946304602F04CFDAB68C3F88440DD
:10341C00F8BD00BF24050020F8B50F4D089AAB6825
:10342C00C3F884200F460646FCF752FE0022052105
:10343C0001F014FD044630B102F08EFCAB68D3F8F9
:10344C00840002F0F4FA3946304602F02FFDAB68E6
:10345C00C3F88440F8BD00BF24050020F7B516461C
:10346C001F464FF02003EFF3118583F31188BFF350
:10347C006F8F04689CB12368426823F00303944265
:10348C00036008BF43600121204602F0D0FC0446D3
:10349C0085F31188BFF36F8F204603B0F0BD56EA59
:1034AC000703F5D000F10802CDE900672946104664
:1034BC0000F06CFB0028EFD1014B9B685C69EBE7DB
:1034CC00240500202DE9F041104DAB681746089AF1
:1034DC00C3F8842088460646FCF7FAFD0022052135
:1034EC0001F0BCFC044630B102F036FCAB68D3F8FA
:1034FC00840002F09CFA3B4642463046FFF7AEFF92
:10350C00AB68C3F88440BDE8F08100BF24050020FF
:10351C0038B50E4C069AA368C3F884200546FCF710
:10352C00D7FD0022052101F099FC30B102F014FC0A
:10353C00A368D3F8840002F07AFA2B68A268C2F868
:10354C008400B3FA83F0400938BD00BF2405002085
:10355C0070B50E4D069AAB68C3F884200646FCF78E
:10356C00B7FD0022052101F079FC044630B102F0D0
:10357C00F3FBAB68D3F8840002F059FA01463068CB
:10358C0002F055FCAB68C3F8844070BD24050020E4
:10359C0070B50E4D069AAB68C3F884200646FCF74E
:1035AC0097FD0022052101F059FC044630B102F0D0
:1035BC00D3FBAB68D3F8840002F039FA014670688B
:1035CC0002F035FCAB68C3F8844070BD24050020C4
:1035DC0010B5084C23685BB1FDF7CCFE03462068A0
:1035EC00054A0344BDE810401361002102F029BED6
:1035FC0010BD00BF5C05002024050020F8B5054671
:10360C000C464FF02003EFF3118683F31188BFF3C0
:10361C006F8F0D4B00224FF4004740F2E730002132
:10362C001A61E7FB05014FF47A720023FCF7D0FD19
:10363C00064B1860064B1C60FFF7CAFF86F3118817
:10364C00BFF36F8FF8BD00BF240500205C05002080
:10365C00580500204FF02003EFF3118183F31188FC
:10366C00BFF36F8F044B9A68D37B013BD37381F309
:10367C001188BFF36F8F704724050020094B03F1AD
:10368C002802824205D19B688B4202D14B7BDB0620
:10369C0006D1D1E9003213605A600023C1E900332E
:1036AC00704700BF2405002070B5104C064604F18D
:1036BC00280002F05EFCA368597B0546880644BFCF
:1036CC0041F00801597305B9E5684EB95A7BD20629
:1036DC0006D1AA6922B9DA897F2A01D9636270BD41
:1036EC00AB4201D0FFF774FF6562F8E724050020B8
:1036FC0010B54FF02003EFF3118483F31188BFF35F
:10370C006F8F094B9A68D37B0133D3730020FFF77B
:10371C00CBFF84F31188BFF36F8F02F0CCFBBDE8B5
:10372C00104002F0FFBB00BF2405002070B4437BA7
:10373C00DB062AD1836943BB154A114651F8284F41
:10374C008C4218BF2346002BD46A38BF0023B3B178
:10375C0090F90E6093F90E50AE4203DBA3420ED0EB
:10376C001B68F4E75A68C0E9003210605860437B6C
:10377C0063F07F03437370BC0020FFF795BFC0E973
:10378C000014D36A1860D062F1E770BC704700BFB8
:10379C002405002010B54FF02002EFF3118482F3C2
:1037AC001188BFF36F8F427B510704D484F31188C7
:1037BC00BFF36F8F10BD22F004024273FFF7B6FF08
:1037CC0021460248BDE8104002F095BBB41200201F
:1037DC0010B54FF02002EFF3118482F31188BFF380
:1037EC006F8F427B22F010024273FFF79FFF21463E
:1037FC000248BDE8104002F07EBB00BFB4120020AE
:10380C0070B50E4D069AAB68C3F884200646FCF7DB
:10381C005FFC0022092101F021FB044630B102F0CB
:10382C004AFBAB68D3F8840002F001F93046FFF78D
:10383C00CFFFAB682046C3F8844070BD2405002040
:10384C00F8B501464FF02003EFF3118483F3118890
:10385C00BFF36F8F90F90D30002B02DA1948FFF788
:10386C000DFF194A1046D56A50F8283F834208BF0D
:10387C000023002B38BF0023EBB191F90E7093F9A4
:10388C000E60B74203DB9D4215D01B68F4E7586805
:10389C00C1E90030016059604B7B906863F07F0395
:1038AC004B73431A58425841FFF7FEFE84F31188BC
:1038BC00BFF36F8FF8BDC1E90005D36A1960D162FF
:1038CC00EAE700BF4C0500202405002038B5154A56
:1038DC00154B146801469868A0421C4603D1BDE8FC
:1038EC003840FFF775BE00251560104A1268B2B15A
:1038FC00C2897F2A13D80E4A90F90E50126895424D
:10390C000DDB0C4A90420AD0826942B91A698A428C
:10391C0002DCFFF795FFE2E7521A1A6138BD00236B
:10392C002361FBE754050020240500205C050020E2
:10393C00580500208002002070B50446183002F0B3
:10394C004AFC4FF02003EFF3118683F31188BFF389
:10395C006F8F94F90D30002B07DA0F482146FFF7D3
:10396C008DFE637B03F07F0363730C4D637BA86850
:10397C0043F010036373031B58425841FFF794FE46
:10398C0086F31188BFF36F8FAB68A34203D1BDE8F8
:10399C00704002F0C7BA70BD4C0500202405002011
:1039AC0070B50E4D069AAB68C3F884200646FCF73A
:1039BC008FFB0022092101F051FA044630B102F0CC
:1039CC007AFAAB68D3F8840002F031F83046FFF78E
:1039DC00B3FFAB682046C3F8844070BD24050020BB
:1039EC00036E2DE9F041044603B1984704F1180029
:1039FC0002F0F1FB4FF02003EFF3118683F31188F3
:103A0C00BFF36F8F637BD8062DD1A2695ABB190601
:103A1C0007D525482146FFF731FE637B03F07F0372
:103A2C006373224B9868021B50425041FFF73CFED7
:103A3C00637BD4F8800043F00803637302F0A1FEAB
:103A4C00204602F09EFE204601F0FAF904F13008FF
:103A5C000027256B454500D095B986F31188BFF337
:103A6C006F8FBDE8F0819B07E2D5A0682146FFF778
:103A7C0005FE637B23F0020363730023A360D7E787
:103A8C0005F1180002F0A7FBA8682946FFF7F6FD20
:103A9C006B7BAF6023F002036B73C5F89070284604
:103AAC00FFF744FED5E700BF4C050020240500209D
:103ABC0008B590F90D30002B014606DA0748FFF7E0
:103ACC00DDFD4B7B03F07F034B73054B9868431A6A
:103ADC0058425841BDE80840FFF7E6BD4C050020B0
:103AEC0024050020F8B5054602F0C5FB2C184FF054
:103AFC002003EFF3118783F31188BFF36F8F0D4E03
:103B0C000D4BB068186002F079FAB0680B492A4680
:103B1C00EB17183000F006FEB268537B43F010032D
:103B2C0053733846FDF770FC02F0A5FB201A20EA0F
:103B3C00E070F8BD2405002054050020B35F0000A0
:103B4C002DE9F041064614461D464FF02003EFF3D5
:103B5C00118783F31188BFF36F8F02F05FFA87F33D
:103B6C001188BFF36F8F6B1C08BFB4F1FF3F08D0F7
:103B7C0022462B4606F118000349BDE8F04100F03F
:103B8C00D1BDBDE8F08100BFB35F000010B5074B9D
:103B9C009868074B0C4618601146DDE90223FFF7C5
:103BAC00CFFF2046BDE81040FDF72EBC24050020B9
:103BBC00540500202DE9F04104464FF02003EFF3AB
:103BCC00118883F31188BFF36F8F437BDB064EB2F2
:103BDC002ED1856965BB184F214607F12800FFF7E8
:103BEC004DFDBB6AFA6AA673834218BF1D46002DB1
:103BFC0038BF0025B5B195F90E10B14203DCAA42CD
:103C0C0010D02D68F6E76A68C4E9005214606C6045
:103C1C000120FFF749FD012088F31188BFF36F8F56
:103C2C00BDE8F081C4E90002FB6A1C60FC62EFE7AE
:103C3C00A6730020F0E700BF2405002008B5FFF7AD
:103C4C00B9FF38B1044B9B68DB7B1BB9BDE808405E
:103C5C0002F068B908BD00BF24050020044B002108
:103C6C0003F12802C3E90A220846FFF7C7BC00BFCC
:103C7C002405002038B50D4C069AA368C3F884209F
:103C8C000546FCF725FA0022092101F0E7F8034666
:103C9C0030B102F010F9A368D3F8840001F0C7FE2C
:103CAC00A26895F90E00C2F8843038BD24050020B6
:103CBC00F8B5174E089AB368C3F884200C4607462B
:103CCC00FCF706FA0022092101F0C8F83246054635
:103CDC0088B102F0F0F8B36815E097F90E2063B2E2
:103CEC009A42F6DC38462146FFF7A8FFB36828460F
:103CFC00C3F88450F8BD0E2C02DC14F1100FECDA72
:103D0C0002F0D9F89368D3F8840001F090FE00BF5C
:103D1C0024050020F8B5244C244BA2689A4230D0DC
:103D2C004FF02003EFF3118583F31188BFF36F8FEE
:103D3C00A16804F12800FFF7A1FCA36AA268E16A5C
:103D4C00834208BF0023002B38BF00232BB392F90A
:103D5C000E7093F90E60B74203DB8B421DD01B68CB
:103D6C00F4E75968C2E900310A605A60537B63F08A
:103D7C007F0353730120FFF797FC85F31188BFF382
:103D8C006F8F4FF02003EFF3118083F31188BFF393
:103D9C006F8FBDE8F840FDF737BBC2E90001E36A5D
:103DAC001A60E262E2E700BF2405002080020020D6
:103DBC0010B5064C049AA368C3F88420FFF7AAFF39
:103DCC00A3680020C3F8840010BD00BF24050020A8
:103DDC00D0B50F46013708BFB0F1FF3F064606D1FC
:103DEC000C4B9868FFF7A8FD4FF0FF30D0BD044690
:103DFC0002F061F84EB9FFF78DFF4FF47A7084FB37
:103E0C000034D80B40EA4440F0E73046FFF76AFE36
:103E1C000446F2E72405002010B5064C049AA3686A
:103E2C00C3F88420FFF7D4FFA3680022C3F88420D2
:103E3C0010BD00BF2405002038B50F4C0F4A4FF4BD
:103E4C0000410025C1FB0045204600232946FCF714
:103E5C00BFF9044602F02FF844B9FFF75BFF07489F
:103E6C0084FB0034D80B40EA444038BD2046FFF7B1
:103E7C0039FE0446F3E700BF3F420F0040420F00FB
:103E8C0010B5064C049AA368C3F88420FFF7D4FF3E
:103E9C00A3680022C3F8842010BD00BF24050020B5
:103EAC0070B50E4D069AAB68C3F884200646FCF735
:103EBC000FF90022092100F0D1FF044630B101F0C6
:103ECC00FAFFAB68D3F8840001F0B1FD304602F084
:103EDC000DF9AB682046C3F8844070BD2405002062
:103EEC00014B9868704700BF24050020024B98686E
:103EFC000023C0F88430704724050020EFF30583BD
:103F0C003BB9054B9B68D8897F288CBF00200120CA
:103F1C0070470020704700BF24050020064A08B5F2
:103F2C0093680499C3F88410FFF7E8FF93680022A4
:103F3C00C3F8842008BD00BF24050020F8B5014655
:103F4C0014461D464FF02003EFF3118683F31188BE
:103F5C00BFF36F8F184F8A68B86800F130039A422C
:103F6C001DD088421BD04B7B1A071FD454EA050383
:103F7C001ED0124B3031186002F050F86B1C08BF89
:103F8C00B4F1FF3F06D0B8680D4922462B461830D5
:103F9C0000F0C8FB3046BDE8F840FDF735BA6FF0CD
:103FAC00200086F31188BFF36F8FF8BD0020F8E76F
:103FBC006FF00F00F5E700BF24050020540500202A
:103FCC00B35F0000F8B50B4CA3681646089AC3F80B
:103FDC00842005460F4601F078FF48B93A4633462F
:103FEC002846FFF7ABFFA3680022C3F88420F8BD76
:103FFC000020F8E72405002070B50E4D069AAB683A
:10400C00C3F88420044601F060FF2E4660B9237B80
:10401C00DB0706D501F04FFFAB68D3F8840001F045
:10402C0006FD2046FDF7BEFDB3680020C3F88400F2
:10403C0070BD00BF2405002070B50D461646044621
:10404C00FCF746F80122072100F008FF38B102F016
:10405C0069F8064B9B68D3F8840001F0E8FC324603
:10406C0029462046BDE8704002F066B824050020C1
:10407C0038B5064C069DA368C3F88450FFF7DCFFE7
:10408C00A3680022C3F8842038BD00BF240500209B
:10409C0038B504464FF02003EFF3118583F31188F4
:1040AC00BFF36F8F01F0E5FF50B10022C0F89020F4
:1040BC0001F069FF29460848BDE8384001F01BBFF4
:1040CC00D4E902329A4218BF0133A360022104F1F1
:1040DC00100002F018FAEDE7B412002070B50E4D86
:1040EC00069AAB68C3F884200646FBF7F1FF002262
:1040FC00072100F0B3FE044630B102F013F8AB68B0
:10410C00D3F8840001F093FC3046FFF7C1FFAB6895
:10411C002046C3F8844070BD2405002037B51446F2
:10412C001D464FF02003EFF3118183F31188BFF389
:10413C006F8F836843B1013B836081F31188BFF3B8
:10414C006F8F002003B030BD54EA050306D181F314
:10415C001188BFF36F8F6FF00F00F3E70246CDE9C4
:10416C0000450248FFF712FDECE700BFB412002037
:10417C002DE9F041104DAB681746089AC3F884201E
:10418C0088460646FBF7A4FF0022072100F066FED6
:10419C00044630B101F0C6FFAB68D3F8840001F0DF
:1041AC0046FC3B4642463046FFF7B8FFAB68C3F8C7
:1041BC008440BDE8F08100BF2405002038B50C4CCC
:1041CC00069AA368C3F884200546FBF781FF0022FA
:1041DC00072100F043FE30B101F0A4FFA368D3F82F
:1041EC00840001F024FCA268A860C2F8840038BDE9
:1041FC002405002038B50D4C069AA368C3F884201A
:10420C000546FBF765FF0022072100F027FE034659
:10421C0030B101F087FFA368D3F8840001F007FCEC
:10422C00A268A868C2F8843038BD00BF24050020FD
:10423C00D0B416461F4656EA070102D1D0BCFFF790
:10424C00A9BAD0BC0149183000F06CBAB35F0000B9
:10425C0010B5064C049AA368C3F88420FDF7E6FE5B
:10426C00A3680020C3F8840010BD00BF2405002003
:10427C00034B9B680022C3F884206FF04600704704
:10428C0024050020034B9B680022C3F884206FF0A8
:10429C00460070472405002070B50E4D069AAB6899
:1042AC00C3F884200646FBF713FF0022092100F017
:1042BC00D5FD044630B101F052FFAB68D3F8840051
:1042CC0001F0B5FB3046FFF765FAAB682046C3F842
:1042DC00844070BD240500202DE9F04385B00446D0
:1042EC000E46174699460025DDF8408002F040FA4C
:1042FC00304602F03DFAC4F88060E567C4F884509B
:10430C002046214602F029FA04F13003C4E90C33AB
:10431C00042363730F9B84F80C80C4E90655A373C4
:10432C00E573304601F030FF60B3B7FA87F34FF016
:10433C000045DD40AF4203D9C3F1200301259D4068
:10434C00771901F00CFF3B1FC4E9193608232367CA
:10435C000E9B02930D9B0193083F0C9BE56600930B
:10436C00124D4B463A4631462046FDF71DF90023C7
:10437C00C4E91733AB684BB93846C4F8883005B07C
:10438C00BDE8F083FD1D25F00705D9E7D86F10B106
:10439C00214602F036F918F0080F03D0A868214620
:1043AC0000F034FDAB68D3F88830E5E72405002035
:1043BC002DE9F04F87B00E4617469946DDE913A854
:1043CC000546FBF785FE4FF0FF32092100F046FD54
:1043DC00234C30B101F0C3FEA368D3F8840001F084
:1043EC0026FB3046FBF774FE4FF0FF320B21834661
:1043FC0000F034FD0028EDD1DBF808301B68BB421F
:10440C00E8D318F0040FE5D018F00103E2D10AF15B
:10441C0010021E2ADED8A26892F90E209245D9DB32
:10442C00CDE90483129B0293119B0193109B009383
:10443C00CDF80CA04B463A4631462846FFF74CFFC8
:10444C00DDE91634013408BFB3F1FF3F04D0DDE9D8
:10445C0016232846FFF7ECFE284607B0BDE8F08F80
:10446C00240500202DE9F047194E88B09A46119C7E
:10447C00B3689146129AC3F88420074688460022F6
:10448C001421204601F001FB054630B101F067FE16
:10449C00B368D3F8840001F0CAFAD4E90423CDE957
:1044AC000623E3680493A368039363680293236869
:1044BC000193109B00934A46534641463846FFF7FA
:1044CC0077FFB368C3F8845008B0BDE8F08700BF2D
:1044DC00240500202DE9F04B2E4F2F4E86B03D4683
:1044EC00BE4206F1300412D32C4C2D4FBC4235D3B6
:1044FC00FFF7B0F8284C4FF4004840F2E73600279D
:10450C00AC422DD306B0BDE8F04BFFF7F1B854F830
:10451C00043C059354F8103C049354F8143C039356
:10452C0054F8183C029354F81C3C019354F8203C6A
:10453C00009354E90A2354E90C01FFF7CDFE54F81B
:10454C00303CDE652646CBE7216802F006F963684D
:10455C00985904360028F7D10834C7E70026F6E747
:10456C00616A4B1C13D021EAE171B346BC46C8FB0F
:10457C0001BC4FF47A72002358466146FBF728FEC3
:10458C00D4F8009002460B464846FFF751FE3034F3
:10459C00B6E700BF882C0020882C0020186B000088
:1045AC00186B000010B50C4C049AA368C3F8842057
:1045BC00FBF78EFD0022092100F050FC30B101F018
:1045CC00CEFDA368D3F8840001F031FAA368C3F8D8
:1045DC0084006FF0460010BD2405002070B50E4D10
:1045EC00069AAB68C3F884200646FBF771FD0022DF
:1045FC00092100F033FC044630B101F0B0FDAB688A
:10460C00D3F8840001F013FA06F1180001F0F9FD5B
:10461C00AB68C3F8844070BD2405002070B50E4D06
:10462C00069AAB68C3F884200646FBF751FD0022BE
:10463C00092100F013FC044630B101F090FDAB6889
:10464C00D3F8840001F0F3F906F1180000F0F2F849
:10465C00AB68C3F8844070BD24050020034B1B6875
:10466C000BB9FCF787BE0020704700BF6005002027
:10467C0030B5036868B10A4A5268904209D043B118
:10468C00D3E90421D0E90445121945EB0101C3E932
:10469C000421426813605A600023C0E9003330BD26
:1046AC003C2C00200A4B10B51C689C4208BF00240F
:1046BC00FFF7D4FF44B12369181A064B1B6913B1D9
:1046CC009842A8BF184610BD6FF00040F5E700BF38
:1046DC003C2C002024050020036870B5EBB1104A77
:1046EC001368934216D05168002400253BB9FFF79C
:1046FC00B5FF241A65EBE0752046294670BDD3E959
:10470C000426A41846EB05058342F0D08B42EED06C
:10471C001B68EBE700240025E9E700240025EBE704
:10472C003C2C00202DE9F74F019119464B1C08BF7A
:10473C00B2F1FF3F82466CD0541C6FF0010341F183
:10474C0000054FF0FF3BB3EB04086BEB0509B8F128
:10475C00000F79F100030FDBFFF780FF334AD2E93A
:10476C00001C6FF001035B1A6BEB0C021E1B62EB5F
:10477C000507341A67EBE075019BCAF808304FF057
:10478C002003EFF3118683F31188BFF36F8FFFF7CC
:10479C0065FF012C75F10003254BB8BF01241A6885
:1047AC00B8BF0025241845EBE0759A42CAE90445C8
:1047BC0001D05F6852B95A68CAF804205A68CAF81E
:1047CC000030C2F800A0C3F804A014E0D2E90489B8
:1047DC00DAE904454D4508BF44451DD2B8EB040049
:1047EC0069EB0501C2E904015168CAE90021C1F86D
:1047FC0000A0C2F804A01A689A4206D0924504D1CF
:10480C00FFF750FF0021FCF749FD86F31188BFF339
:10481C006F8F03B0BDE8F08FB4EB080065EB0901B6
:10482C00BA42CAE90401C6D01268C3E7C00300202B
:10483C003C2C002010B54FF02003EFF3118483F3D0
:10484C001188BFF36F8FFFF747FF054AD2E900329B
:10485C00C01842EB010184F31188BFF36F8F10BDB8
:10486C00C00300202DE9F74F0646FFF72FF84FF055
:10487C002003EFF3118483F31188BFF36F8F2D4D59
:10488C00DFF8B4A0DFF8B4B02E605146D5F800C004
:10489C00DBF800006246D3175845CDE90023DAE96E
:1048AC0000890ED068B1D0E90467BB4208BFB4459B
:1048BC001ED2009BB6EB030C019B67EB0306C0E911
:1048CC0004C6009B13EB0802019B4FF0000643EB60
:1048DC000903C1E900232E60FFF7E4FE3146FCF723
:1048EC00DDFC84F31188BFF36F8F03B0BDE8F08F4C
:1048FC0018EB06084FF000024FF0000349EBE67985
:10490C00C0E90423ACEB0606CAE900892E60FFF768
:10491C00AFFE84F31188BFF36F8F836898474FF015
:10492C002003EFF3118483F31188BFF36F8F0249D7
:10493C00ACE700BF60050020C00300203C2C002029
:10494C0010B54FF02003EFF3118483F31188BFF3FC
:10495C006F8FFCF70FFD064BD3E90023121843F1C0
:10496C00000384F31188BFF36F8F1046194610BDF6
:10497C00C0030020F8B5104D089AAB68C3F884202A
:10498C000446FFF7DDFF012207460E4620460821AC
:10499C0001F07BF82A4648B1EFF305830BB9EFF32E
:1049AC0014839368D3F8840001F041F8AA68C4E931
:1049BC000076C2F88400F8BD240500202DE9F043F0
:1049CC0089B01F4601238DF81430294B9B68069340
:1049DC00284B079352EA070316460CBF012300230A
:1049EC0005AA054601F01FFD80464FF02003EFF3AA
:1049FC00118983F31188BFF36F8F9DF8143003F086
:104A0C00FF0463B901464A46284601F06BFC89F362
:104A1C001188BFF36F8F204609B0BDE8F0830023E7
:104A2C008DF8143056EA070306D189F31188BFF3C9
:104A3C006F8F6FF00A04EEE703AACDE900674946D1
:104A4C000D48CDE90322FFF7A1F804464FF02003EF
:104A5C00EFF3118683F31188BFF36F8F3246414613
:104A6C00284601F03FFC86F31188BFF36F8FD2E725
:104A7C00240500207D630000B41200202DE9F04FC6
:104A8C00DFF848A185B091460393DAF80830109A04
:104A9C00C3F884200D1E0746D04680F2848001F0B6
:104AAC0017FC6FF01505D8F8083000222846C3F81B
:104ABC00842005B0BDE8F08F4FF02003EFF3118B8D
:104ACC0083F31188BFF36F8F01220099384600F0F1
:104ADC00DCFF064600285BD001F0FAFB8BF3118853
:104AEC00BFF36F8F204601F0A3FEDAF80830D3F83D
:104AFC00840000F09CFF9AF80E309B0735D501F02E
:104B0C00E7FB6FF015052CE0DAF81000FBF7E0FA84
:104B1C000022062100F0A2F990B101F0D9FBD8F8DF
:104B2C000830E4E7DAF81000FBF7D2FA002207218C
:104B3C00F0E7DAF81000FBF7CBFA00220521E9E7E1
:104B4C0001360AF1140AB542D5DC29464A46039BC4
:104B5C002046FFF733FF009A05462146384600F001
:104B6C00B6FF204601F064FE9DE79AF80D3003F085
:104B7C000F03042BC5D801A252F823F04D4B0000B3
:104B8C00154B0000314B00000F4B00003F4B000059
:104B9C00009A3946204600F09AFF8BF31188BFF338
:104BAC006F8FA246CFE71423A5FB0334CDE9003465
:104BBC00019B002B7FF473AF009800F089F9044639
:104BCC0000287FF479AF6FF00B056CE7240500200B
:104BDC0070B50E4D069AAB68C3F884200646FBF7F9
:104BEC0077FA0122062100F039F9044630B101F0C0
:104BFC006FFBAB68D3F8840000F019FF304601F06E
:104C0C0090FCAB682046C3F8844070BD240500209E
:104C1C0070B50C4616460546FBF75AFA00220621DB
:104C2C0000F01CF938B101F053FB0C4B9B68D3F826
:104C3C00840000F0FCFE01220421204600F025FF38
:104C4C000028F0D101220421304600F01EFF00287C
:104C5C00E9D1AB682360EB68336070BD240500209C
:104C6C0038B5064C069DA368C3F88450FFF7D0FFF7
:104C7C00A3680020C3F8840038BD00BF24050020C1
:104C8C0038B503464FF02002EFF3118582F31188FB
:104C9C00BFF36F8FC160012181600068834206D130
:104CAC0085F31188BFF36F8F0024204638BDD0E9FF
:104CBC00003213605A600023C0E9003301F03DFB61
:104CCC0029460446014801F016F9EEE7B41200201B
:104CDC00F8B50F4D089AAB68C3F884200F4606460A
:104CEC00FBF7F6F90022062100F0B8F8044630B1C3
:104CFC0001F0EEFAAB68D3F8840000F098FE394668
:104D0C003046FFF7BDFFAB68C3F88440F8BD00BF69
:104D1C002405002038B50C4C069AA368C3F88420EF
:104D2C000546FBF7D5F90022062100F097F830B1C3
:104D3C0001F0CEFAA368D3F8840000F078FEA268E4
:104D4C00A860C2F8840038BD2405002073B50E4C51
:104D5C00089AA3680191C3F88420CEB201220421E1
:104D6C00054600F092FE48B101F0E1FB6FF00C003B
:104D7C00A3680022C3F8842002B070BD31462846D7
:104D8C0001F0DFFBF4E700BF240500202DE9F04122
:104D9C000F4C1F46A3689046089AC3F884200E4611
:104DAC0001220421054600F070FE48B101F0BFFB62
:104DBC006FF00C00A3680022C3F88420BDE8F081DA
:104DCC0042463B463146284601F0E8FBF2E700BF7D
:104DDC002405002008B500F053FE024B187000208B
:104DEC0008BD00BFB412002038B5064C064DAC42CD
:104DFC0001D3002038BD626854F8080B002100F084
:104E0C0091FEF4E7186B0000186B000030B585B00C
:104E1C000D46044601F058FC0190284601F054FC64
:104E2C00019B0133CDE9020405D0013003D00348C6
:104E3C0001A9FBF767F905B030BD00BF996600000A
:104E4C0008B501F041FC431C014604D0BDE8084004
:104E5C000148FBF757B908BDD166000038B51546B7
:104E6C00044668B311B183798B4229D1E3799A074F
:104E7C000AD5002D1CD026DAE37913F0010F0CBFF4
:104E8C0000206FF02F001AE0104B986801F01CFC0A
:104E9C00431C14D04209231D00F01F0053F822209C
:104EAC00012303FA00F01042E3D14FF0FF3006E08B
:104EBC00E37913F0010F14BF00206FF0150038BD1B
:104ECC006FF00800FBE70020F9E700BF2405002085
:104EDC0010B5044601F04DF950B9074B9B68D3F857
:104EEC0088303BB121461846BDE8104001F088BC23
:104EFC00024BF7E710BD00BF24050020442C002016
:104F0C00F8B5124D089AAB680746C3F884200846DA
:104F1C000E46FBF7DDF801220921FFF79FFF04463F
:104F2C0030B101F08AFCAB68D3F8840000F07FFD4F
:104F3C00384601F08CFC0028F3D0314601F0DFFB41
:104F4C00AB682046C3F88440F8BD00BF24050020A0
:104F5C0010B50B4C049AA368C3F8842001F077FCBD
:104F6C0030B901F06AFCA368D3F8840000F05FFD4F
:104F7C00A16801F0D8FBA3680020C3F8840010BD21
:104F8C0024050020024B9B680020C3F88400704766
:104F9C002405002038B5064C064DAC4201D3002048
:104FAC0038BDD4E90112204601F05EFC1434F4E75C
:104FBC00882C00209C2C0020EFF3058323B9EFF301
:104FCC00148000F00100704700207047FEE7FEE7F8
:104FDC002DE948410246FFF7EFFF20B11046882625
:104FEC0003DFBDE84881BDE848411046FEF7F0BE3E
:104FFC002DE9F341C7688DF8071004460D46FFF7FD
:10500C00DBFF80B12046DDF8071040F20162442638
:10501C0003DF28B9012303FA05F53B682B433B60FA
:10502C0002B0BDE8F081A3689DF807101B6840F240
:10503C00016220469847ECE72DE9F0418EB0164608
:10504C000546DDE91472FFF7B7FF88B1002405238C
:10505C00CDE90A34CDE90C7228463346CDE9084433
:10506C004FF4007208AD8E2603DF0EB0BDE8F08160
:10507C000523CDE90203CDE90672CDE900000490C9
:10508C0033464FF40072284601F085F8EDE72DE920
:10509C0048410246FFF790FF20B11046942603DFEB
:1050AC00BDE84881BDE84841104601F06AB82DE9D9
:1050BC0050410246FFF780FF20B11046472603DF20
:1050CC00BDE850819368BDE850411B6910461847F4
:1050DC002DE950410246FFF76FFF20B110464926DB
:1050EC0003DFBDE850819368BDE85041DB68104692
:1050FC0018472DE948410246FFF75EFF20B11046E4
:10510C009A2603DFBDE84881BDE848411046FEF70A
:10511C0013BC034640B1426802F00302022A06D0D7
:10512C00032A04D0012A05D06FF0150070471A68C5
:10513C00002AF9D0002098607047426802F0030200
:10514C00022A2DE950410346816012D0032A13D163
:10515C000468002000225A6040B1EFF3058373B954
:10516C00EFF31483DB070AD5792603DF2046BDE86D
:10517C00508100680024EDE700242046EAE7FFF7A1
:10518C007FFDF3E7EFF3058323B9EFF3148000F011
:10519C000100704700207047002070472DE95041F6
:1051AC004168044600F10802FFF7ECFF30B11046ED
:1051BC008C2603DF00236360BDE850811046FBF7AB
:1051CC008FFCF7E70B6801330B604B685A1C0B44E0
:1051DC0010B5202A04464A6008461C7201D1FFF71C
:1051EC00DDFF204610BD0FB407B504A951F8040B20
:1051FC000191FBF783FC03B05DF804EB04B070473E
:10520C00038B13F0070305D10368002B0CBF0020A0
:10521C0003207047022B05D1438B002B14BF0020B9
:10522C0004207047012B05D10368002B0CBF002014
:10523C00052070470020704710B50C4640B139B1BD
:10524C00081DFFF766FF28B9A36833F0030301D0EC
:10525C006FF0150010BD10B44FF02004EFF3118265
:10526C0084F31188BFF36F8F416110BC0121FBF7F0
:10527C008BBC38B50C46054658B151B10B6843B1DF
:10528C004B6833B11C22002100F04CFC2C61002037
:10529C0038BD6FF01500FBE72DE9F04104460D46D3
:1052AC00FFF7CAFF061E36DB4FF02003EFF3118227
:1052BC0083F31188BFF36F8F638B218B4FF6FF70D5
:1052CC00834201F0070734D0022F14D101336383DA
:1052DC003E46012382F31188BFF36F8FDBB10021AF
:1052EC00281DFFF72AFF8046A8B100233A4629461D
:1052FC002046C0470FE08B0701D0062F0ED10023AC
:10530C002B60636893B9C4E900553E4667B9022126
:10531C002046FBF739FC3046BDE8F081052F0CBF69
:10532C006FF022066FF004060023D3E71D60656062
:10533C00EBE76FF00A06F7E7044608B50846114696
:10534C001A46A047EFF3058373B9EFF31483DA071A
:10535C000AD55E2603DFEFF3058343B9EFF314831D
:10536C00DB0704D58D2603DFFEF7BAFDF3E7FCF768
:10537C0019FCF9E7836800EBC101B3F5004F2CBFB2
:10538C0051F8220031F81200704700EBC10180681F
:10539C00B0F5004F2CBF41F8223021F81230704785
:1053AC0008B50122FFF7E6FF400808BD8368B3F596
:1053BC00004F00EBC10108D34B681AB143F0010355
:1053CC004B60704723F00103FAE74B881AB143F0A6
:1053DC0001034B80704723F00103FAE753000122CD
:1053EC00FFF7D3BF80680131B0F5004F2CBF02200E
:1053FC000120081AB0FA80F0C0F11F0070472DE9A7
:10540C00F041164604460F46FFF7CAFF31460546E3
:10541C002046FFF7C5FF05442A4639462046FFF7CC
:10542C00DDFF31462046FFF7BBFF2B46311800222B
:10543C002046BDE8F041FFF7A8BF2DE9F041144626
:10544C0005460E46FFF7ACFFA4EB0608371B0744D6
:10545C00424631462846FFF7C1FF3A4621462846C8
:10546C00FFF7BCFF4346002221462846FFF78DFF7D
:10547C0021462846FFF794FF3B4621180022284678
:10548C00BDE8F041FFF781BF2DE9F041174603223B
:10549C000E460446FFF76EFF8642054607F10408E8
:1054AC000BD1012303FA07F7E36823EA0703E36050
:1054BC00002344F82830BDE8F08131460222204612
:1054CC00FFF758FF2B460646014644F82850204665
:1054DC000322FFF75AFF3346294620460222BDE835
:1054EC00F041FFF752BF38B504460D46FFF758FFA1
:1054FC00A368B3F5004F014601D3012809D020461B
:10550C00FFF770FF294602462046BDE83840FFF7FA
:10551C00BBBF38BD2DE9F04704468846FFF762FF54
:10552C00A16805462046FFF75DFFA84203DA002676
:10553C003046BDE8F08704EB850ADAF81090B9F133
:10554C00000F19D00327DAF8106020463146FFF718
:10555C0027FF404505D32A4631462046FFF794FFE6
:10556C00E6E7032231462046FFF704FF013FCAF865
:10557C00100001D08145E6D1E36801354FF0FF32D0
:10558C00AA401A40D3D092FAA2F2B2FA82F2131DB8
:10559C0054F82360E0E72DE9F04104460D46FFF78F
:1055AC00FFFEA368B3F5004F014601D3012835D0A7
:1055BC002046FFF717FF04EB800216699EB9012302
:1055CC0003FA00F0E3680343E360294615612B46B8
:1055DC0002222046FFF7D9FE032229462046BDE8C9
:1055EC00F041FFF7D2BE022231462046FFF7C2FE41
:1055FC0002220346074629462046FFF7C6FE3346DD
:10560C00032229462046FFF7C0FE032239462B46CB
:10561C002046FFF7BAFE02223146DFE7BDE8F081F3
:10562C00F8B5002950D00568AB68B3F5004F2CBF16
:10563C00082404240C1B641B48BF0734E41000220C
:10564C0021462846FFF7B2FE2146FFF7A9FE261891
:10565C00012231462846FFF78DFEC3070CD4314694
:10566C002846FFF740FF21462846FFF799FE2146C2
:10567C0022182846FFF7C3FE002221462846FFF7D2
:10568C0079FE271A012239462846FFF773FE10F0DF
:10569C00010613D139462846FFF725FF214632462D
:1056AC002846FFF767FE2246211A2846FFF7A7FE79
:1056BC00214632462846FFF75DFE241A214628462D
:1056CC00BDE8F840FFF767BFF8BD70B509B9002019
:1056DC0070BD0568AB68B3F5004F2CBF08220422DF
:1056EC00CC1D1444E40821462846FFF713FF064658
:1056FC000028ECD001462846FFF752FEA04209D9FB
:10570C003444314628462246FFF797FE2146284668
:10571C00FFF741FF284601223146FFF747FEAB68F1
:10572C00B3F5004F2CBF0820042000EBC600284422
:10573C00CEE7B2F5802FF8B52CBF08250425551BF4
:10574C00CC1D0D4424F0070425F00705002200238E
:10575C002D1B0460ED08C4E9002300232946A56035
:10576C00E3602046FFF73EFE86001B36411CF60820
:10577C0004F1100218468B4229DB324620460021E8
:10578C00FFF72CFEAF1B204601220021FFF70EFE77
:10579C003A463146FFF722FE334631462046002278
:1057AC00FFF7F3FD294620460022FFF717FE3B4684
:1057BC00294620460022FFF7E8FD29462046012213
:1057CC00FFF7F4FD3146BDE8F840FFF7E4BE42F8C0
:1057DC00040B0133CFE7EFF3058323B9EFF3148008
:1057EC0000F001007047002070472DE9F04115468C
:1057FC001C46FAF76DFCA8B183790E2B12D1816887
:10580C0081B1FFF7E8FF30B10846224629466C26E5
:10581C0003DFBDE8F0812A4623460846BDE8F04187
:10582C00FDF780BC6FF01500F3E770472DE9474199
:10583C0003468DF80710EFF3058252B9EFF314828B
:10584C00D20706D5DDF80710E52603DF03B0BDE867
:10585C0040819A689DF80710526818469047F5E702
:10586C00EFF3058323B9EFF3148000F001007047C8
:10587C0000207047C268CBB20C2103FB0121086CDD
:10588C0000F0070070474FF02003EFF3118283F311
:10589C001188BFF36F8F036813F0C00301D08B42E4
:1058AC0007D101230360002082F31188BFF36F8FAF
:1058BC0070474FF0FF30F7E710B54FF02003EFF3D0
:1058CC00118283F31188BFF36F8F036803F0070411
:1058DC00012C06D10160002082F31188BFF36F8F79
:1058EC0010BD03F0C0038B4214BF4FF0FF306FF0BC
:1058FC000F00F1E74FF02003EFF3118283F31188CF
:10590C00BFF36F8F036803F0C00343F0020303601F
:10591C0082F31188BFF36F8F7047C06810B4CBB29D
:10592C001C2403FB0400002110BC10472DE9484146
:10593C00FFF796FF20B11046842603DFBDE84881AF
:10594C00BDE848411046FEF7A3BB4FF08042D2F8A9
:10595C001834D2F81814C903F9D503F0030398428C
:10596C00F5D1704738B5CCB20C2305466343C068FB
:10597C00403380211844FFF786FF002805DB696857
:10598C0001EBC40463689847002038BD2DE9F04151
:10599C00CDB24FF00C08C46808FB05F8064608F1B8
:1059AC004000802120441746FFF786FF002809DBC2
:1059BC0044447B68A363BB68E363736853F8353076
:1059CC0098470020BDE8F08170477047FBF7ECBCAE
:1059DC0008B5FFF7FBFF002008BD0021012000F0F7
:1059EC000AB8EFF3058323B9EFF3148000F001003C
:1059FC0070470020704708B5024639B1FFF7F1FF38
:105A0C00FFF7EFFFFFF7EDFFFFF7EBFFBDE80840F7
:105A1C00104600F055B901460068EFF31483DB071C
:105A2C0003D5831E022B28BF0320FFF7E4BF00B56C
:105A3C00044689B000212022684600F073F8E36820
:105A4C00069369460320FFF7D6FF08B5FBF726FE41
:105A5C00BDE80840FCF78CB8EFF3058323B9EFF3EE
:105A6C00148000F00100704700207047EFF30583AD
:105A7C0023B9EFF3148000F0010070470020704749
:105A8C0008B5FCF7A5F9013808BDFCF7A9B9EFF387
:105A9C00058323B9EFF3148000F001007047002058
:105AAC0070470139034611F8012F0AB91A70704773
:105ABC0003F8012BF7E7431E013913F8012F11F8F6
:105ACC00010F824201D1002AF7D1101A7047F0B5AC
