:10000000002C002061180000F5600000911800002D
:1000100091180000911800009118000000000000E5
:10002000000000000000000000000000AD1400000F
:1000300091180000000000003D14000073600000F3
:10004000E5160000E5160000E5160000E5160000C4
:10005000E5160000E5160000E5160000E5160000B4
:10006000E5160000E5160000E5160000E5160000A4
:10007000E5160000E5160000E5160000E516000094
:10008000E5160000E5160000E5160000E516000084
:10009000E5160000E5160000E5160000E516000074
:1000A000E5160000E5160000E5160000E516000064
:1000B000E5160000E5160000E5160000E516000054
:1000C000E5160000E5160000E5160000E516000044
:0C00D000E5160000E5160000E516000033
:1000DC000A4BC0F30722C1B29A5C5B5C1344372B0A
:1000EC0009DC0C2206495A438B188A5890420CBFE3
:1000FC001846002070470020704700BF217900008F
:10010C00DC340020F8B5074C06460F460025236862
:10011C0013B139462046B0470135382D04F10C0493
:10012C00F5D1F8BDDC340020000000000000000018
:10013C0000000000000000000000000000000000B3
:10014C0000000000000000000000000000000000A3
:10015C000000000000000000000000000000000093
:10016C000000000000000000000000000000000083
:10017C000000000000000000000000000000000073
:10018C000000000000000000000000000000000063
:10019C000000000000000000000000000000000053
:1001AC000000000000000000000000000000000043
:1001BC000000000000000000000000000000000033
:1001CC000000000000000000000000000000000023
:1001DC0053B94AB9002908BF00281CBF4FF0FF31A2
:1001EC004FF0FF3000F06EB9ADF1080C6DE904CEA4
:1001FC0000F006F8DDF804E0DDE9022304B07047F6
:10020C002DE9F047089D0E4604468C46002B40F025
:10021C0081808A42174645D9B2FA82F24AB1C2F1BC
:10022C00200106FA02F320FA01F1974041EA030C8F
:10023C0094404FEA174E230CBCFBFEF6B9B20EFBF2
:10024C0016CC43EA0C4306FB01F0984209D9FB1883
:10025C0006F1FF3C80F01581984240F21281023E7B
:10026C003B441B1AA4B2B3FBFEF00EFB103344EA62
:10027C00034400FB01F1A14209D93C1900F1FF3301
:10028C0080F00181A14240F2FE8002383C44641AA5
:10029C0040EA064000211DB1D4400023C5E90043CB
:1002AC00BDE8F08702B9FFDEB2FA82F2002A4FD124
:1002BC00CB1B4FEA174E1FFA87F80121B3FBFEFC4C
:1002CC00260C0EFB1C3346EA034608FB0CF3B34228
:1002DC0007D9BE190CF1FF3002D2B34200F2EB8009
:1002EC008446F61AA3B2B6FBFEF00EFB106643EA88
:1002FC00064408FB00F8A04507D93C1900F1FF3370
:10030C0002D2A04500F2D2801846A4EB080440EAC1
:10031C000C40C0E78B4208D9002D00F0AF800021C3
:10032C00C5E900060846BDE8F087B3FA83F1002959
:10033C0049D1B34202D3824200F2BB80841A66EBED
:10034C00030301209C46002DAAD0C5E9004CA7E769
:10035C00C2F120039740D8409140DE404FEA174E3F
:10036C0008434FEA104CB6FBFEF11FFA87F80EFB60
:10037C0011664CEA064601FB08F3B34204FA02F498
:10038C0009D9BE1901F1FF3C80F08E80B34240F2D6
:10039C008B8002393E44F31A86B2B3FBFEF00EFB9F
:1003AC00103346EA034600FB08F3B34207D9BE19E3
:1003BC0000F1FF3C74D2B34272D902383E44F31AB6
:1003CC0040EA01417AE7C1F1200703FA01F422FA6D
:1003DC0007F31C4320FA07F906FA01F34FEA144C11
:1003EC00FE4049EA03094FEA1943B6FBFCFE1FFA2B
:1003FC0084F80CFB1E6643EA06460EFB08FAB2456F
:10040C0002FA01F200FA01F308D9A6190EF1FF3035
:10041C0048D2B24546D9AEF1020E2644A6EB0A06E6
:10042C001FFA89F9B6FBFCF00CFB106649EA06468C
:10043C0000FB08F8B04507D9A61900F1FF3C2DD2F6
:10044C00B0452BD90238264440EA0E40A6EB0806EC
:10045C00A0FB02894E45C446CE4618D315D075B3C1
:10046C00B3EB0C0266EB0E0606FA07F722FA01F361
:10047C00CE401F43C5E90076002111E729462846E6
:10048C000EE76646EDE6184601E74345E7D2B8EBC2
:10049C00020C69EB04040138A646E0E76046D3E79A
:1004AC0060468CE78646B9E7614674E702383C44FF
:1004BC002BE7084647E7ACF1020C3E4411E729460E
:1004CC00EEE600BF704700BF70B58EB0114B0193C4
:1004DC000723ADF80830104E104D114C00238DF849
:1004EC000A300723CDE9043301AB069333680B9331
:1004FC0003A94FF0FF324FF0FF33284602F0AAFE5B
:10050C00204605F0BFF9002141F69A1005F0BAF823
:10051C00E7E700BF030861E4640400202C0400201A
:10052C0094770000F0B5144D144C91B04FF0FF3699
:10053C004FF0FF37072303AA069305A92B680C93EA
:10054C00CDE90067204602F08FFE07990C4805F0B4
:10055C0099F99DF80E309DF80C1000939DF80D2024
:10056C00DDF80F30074805F08DF9002141F69A109F
:10057C0005F088F8DEE700BF6C0400202C04002096
:10058C00AE770000BB7700002DE9484105F070F80C
:10059C0020B10548272603DFBDE848810248BDE8A5
:1005AC00484102F05FBC00BF1B78000038B5044D19
:1005BC00044C284605F066F9204605F004F9F8E7E6
:1005CC0022780000400D030010B5044C204605F0C5
:1005DC0059F9642005F0F7F8F8E700BF3A78000005
:1005EC002DE9F743644B6548DFF8F491DFF8F481AB
:1005FC006221D970002400250C2200270126042139
:10060C009A7019711A705F719F715E705C4A5D49C6
:10061C00CDE9004505F07AF85B49C9F8000005F012
:10062C00A0F85A4A5A495B48CDE9004505F06EF8E6
:10063C00594B5A49186005F094F8594A59495A4887
:10064C00CDE9004505F062F85849C8F8000005F0FE
:10065C0088F8574A57495848CDE9004505F056F8EF
:10066C00564B5749186005F07CF8564805F0CFFEFC
:10067C00D9F8000005F016F8D8F8000005F012F8CB
:10068C0051495248642205F0C3FF4FF0A043504A31
:10069C00C3F83827C3F83C27C3F84027C3F83427DE
:1006AC000322C3F81827C3F81C774A4A4A4BC3F8ED
:1006BC000463C3F8282502F58072C3F82C2502F5D3
:1006CC00881202F20232C3F81C2502F58072C3F8BC
:1006DC00202503F5C833414AC3F82025A2F58672BC
:1006EC00C3F8242502F58872C3F82825A2F5867272
:1006FC00C3F82C250F22C3F800281E60FFF744FF17
:10070C000446A8B3122104F0DDFFB84230DBFFF73A
:10071C003BFF054660B3112104F0D4FFB84227DB40
:10072C00E3681B68374613F4802F86F001060CBF74
:10073C003B4633464FF4802120469BB105F021F80F
:10074C00EB681B6813F4003F08BF37464FF40031C9
:10075C00284657B105F015F800214FF4004004F07D
:10076C0091FFDDE705F01EF8EAE705F01BF8F3E76B
:10077C0003B0BDE8F08300BF2C0F00204001002027
:10078C00D5040000002C00203F780000B9050000C3
:10079C00002E0020E0010020700400204D780000A5
:1007AC003105000000300020000000205B780000C4
:1007BC00D505000000320020A000002068040020B5
:1007CC006C7800002C040020C80300203C0400209E
:1007DC000C000300010F0200006000401861004093
:1007EC006C040020640400202DE9F04F87B00F4604
:1007FC001946109B9DF844B09DF848A01F4C064626
:10080C001425104698464FEAE37950EA010319D1B2
:10081C00142D139C14BF013530232C4408BF8DF8C4
:10082C001430152C1BD0153C002C1ADC1DF80500BF
:10083C0039460135B047152DF8D1002C19DC07B01D
:10084C00BDE8F08F42464B46FFF7C2FCA25C0DF8A8
:10085C00052084460B4660461946013DD5E7002429
:10086C00E4E7BBF1000FE1D039465046B047013CFC
:10087C00DAE739465046B047013CDEE77D780000A8
:10088C000B6801330B60014B1B68184700340020C8
:10089C00014B1860704700BF003400202DE9F04F69
:1008AC00002687B005468B461C4602F1FF394FF0F7
:1008BC00FF383746002307E06BB9252800F0FC8091
:1008CC0059460493A847049B19F8010F0028F3D14B
:1008DC0007B0BDE8F08F7A280AD8622810D83028E3
:1008EC0052D045D8252800F0E5802D2800F0EA806C
:1008FC0059462520A84799F800005946A847D9E73A
:10090C00A0F16302172AF3D801A151F822F000BF1D
:10091C00B90A0000DD090000FD080000FD08000018
:10092C00FD080000BF090000DD090000FD08000003
:10093C00FD080000BF090000FD080000FD080000D4
:10094C00FD080000410A0000FD080000FD08000041
:10095C00830A0000FD080000DD090000FD0800000E
:10096C00FD08000085090000FD080000BF0900001B
:10097C00392815D95828BBD199F80030702B63D180
:10098C0054F8042B00236AE0B8F1000F0BDA002FA7
:10099C0000F09A80A0F13008002F08BF022793E7DF
:1009AC00B8F1000FF6DB0A2202FB0808A8F13008A8
:1009BC00F2E7682803D1682E06D1482684E76C2814
:1009CC0002D16C2E00F08280002E91D106467BE77E
:1009DC007A2E03D154F8042BD31708E06C2EF9D0DF
:1009EC004C2EF7D1073424F00704F4E802237528C1
:1009FC000FD0002A73F100010BDA59462D20CDE9F6
:100A0C000423A847DDE90423524263EB430308F1B6
:100A1C00FF38F91E18BF0121012F0CBF30202020F8
:100A2C00CDE9020801910A21009128465946FFF7A9
:100A3C00DBFE3FE759463020A84759467820A847A7
:100A4C004FF00808012797E76C2E99D04C2E97D1C0
:100A5C00E31D23F007031C465B6854F8082BF91EB2
:100A6C0018BF0121012F0CBF302020200191CDE9AE
:100A7C0002081021D8E7A2465AF8043B1C4621462E
:100A8C0014F8010B40B9032F22D1CC1AA8EB0404A3
:100A9C00002C06DC54460DE759460493A847049BEA
:100AAC00EDE759462020A847013CF1E754F8040B28
:100ABC00594623E7594621E71E461F464FF0FF389B
:100ACC00012301E70327FFE60127FDE64C26FBE6A1
:100ADC0054460346F8E600BF70B5054E044645186B
:100AEC00AC4200D170BD336814F8010B9847F7E79E
:100AFC000034002030B58BB004460D4604F091FE56
:100B0C0088B128220021684605F05BFB2B460A4879
:100B1C0022466946FFF7C2FE019B13B1684604F0FA
:100B2C008CFE0BB030BD00900B4604482246694643
:100B3C00FFF7B4FEF5E700BF6F5800008D0800000A
:100B4C00F8B50E4D089AAB68C3F88420002206460F
:100B5C000F4605F0E9FA044630B104F062FEAB68CA
:100B6C00D3F8840005F0B2FA30463946FFF7B4FFEB
:100B7C00AB682046C3F88440F8BD00BFEC0E0020E3
:100B8C002DE9F84FB0F8189019F0080804460DD06C
:100B9C0001290CBF49F0100949F02009A0F8189060
:100BAC0082F31188BFF36F8FBDE8F88F09F0070946
:100BBC00022907D1204604F072FE0028F0D001284B
:100BCC00238B50D16769218B002F15DA256821F012
:100BDC000701C4E9008841F0010121830026218B23
:100BEC0001F0070ACA4502D0A368002B5CD10DB9ED
:100BFC00002E74D0002358E001F00703581F012881
:100C0C0020D821F00701062B256889B2C4E9008899
:100C1C000CD1002D2B4638BF00232BB1608B1B68E9
:100C2C0001306083002BF8D141F002012183204672
:100C3C0004F035FE06460028D1D0238B43F0200368
:100C4C002383CBE7042B0CD121F0070189B221833C
:100C5C00204604F024FE05460028BFD041F02001B8
:100C6C0021830025BAE7032809D1216923F0070362
:100C7C000E6843F00603238300252F46AFE70428B4
:100C8C0006D1216923F007034E6843F00403F2E711
:100C9C00052806D1216923F007038E6843F005036C
:100CAC00E9E700252E46E8E7012341F008012183FE
:100CBC0082F31188BFF36F8F03BB002D40D116B1A7
:100CCC0025492046B0474FF02003EFF3118283F300
:100CDC001188BFF36F8F238B23F008032383238B9F
:100CEC00D90631D523F0100323830121B4F81890D1
:100CFC0009F0070900297FF45BAF51E7A1680029CF
:100D0C00DBD00B68D1F804B0002B38BF0023994618
:100D1C0052463B462046D847B9F1000FCDD0D9F802
:100D2C0000304946EEE739460BF104002D6804F01B
:100D3C006BFD814620B13B46524659462046C8477A
:100D4C00AB46002DEFD1BAE713F020011EBF23F004
:100D5C00200323830221C9E701590000F8B50E4C8A
:100D6C00A3681646089AC3F884200F460122042172
:100D7C00054605F0D9F940B105F07CF86FF00C0090
:100D8C00A3680022C3F88420F8BD3A4633462846AF
:100D9C0005F07AF8F4E700BFEC0E00202DE9504185
:100DAC00FFF796F9C0B183790E2B15D182689AB1F1
:100DBC00D3688BB10B4B91689B6899420FD105F0AE
:100DCC0059F828B110466D2603DF0020BDE850818C
:100DDC00104602F087FBF8E76FF01500F6E74FF0CE
:100DEC00FF30F3E7EC0E002038B50C4C069AA368E4
:100DFC000421C3F884200122054605F095F940B181
:100E0C0005F038F86FF00C00A3680022C3F88420BA
:100E1C0038BD2846FFF7C2FFF6E700BFEC0E0020F6
:100E2C000A2838B5064D044603D128680D2105F073
:100E3C004CF82868E1B205F048F8204638BD00BFF0
:100E4C00740400202DE94841EFF305838BB9EFF3CF
:100E5C001483DB070DD50948272603DF084B1860E0
:100E6C00084801F055F80748FFF712FD0020BDE8CF
:100E7C004881024801F0F6FFF0E700BF8E780000D1
:100E8C00740400202D0E00002DE9F0410E4FFA687D
:100E9C00841AA3100D4C5C430546E4B20C2000FBF5
:100EAC0004200E464021084405F03CF8011E05DBE9
:100EBC007B6803EBC40463689847002128463346DB
:100ECC00BDE8F041184700BF20340020B76DDBB6F9
:100EDC002DE9F047DFF85080D8F80C60841BA31084
:100EEC000F4C5C43E4B20C256543814605F1400090
:100EFC000F463044402105F02EF8011E0ADB094A4A
:100F0C007319C3E90E27D8F8043053F83430BDE810
:100F1C00F047184748463B46BDE8F047184700BF26
:100F2C00B76DDBB6C55F000020340020002270B521
:100F3C0001210446104600F0FBFA002000F0E8FA0C
:100F4C004FF08043E6680C4903220125C3F818557D
:100F5C003046C3F8042304F0DBFC00280ADB3564BC
:100F6C00E468054904F11C0004F0D2FC0028A4BF7D
:100F7C00E564002070BD00BFDC7200002DE9F0417B
:100F8C000B4E01460C23F0684B43C418D4E90E57A2
:100F9C0000224033A263184404F0FBFF2DB13A4603
:100FAC0030462B46BDE8F0411847BDE8F08100BF44
:100FBC002034002008B54FF02003EFF3118183F3A8
:100FCC001188BFF36F8F134A136843F0020013F0BC
:100FDC00010310600ED04FF08042D2F80C34D2F8DE
:100FEC000C2413F0010305D00B4BD868403004F0EF
:100FFC00D0FF012381F31188BFF36F8F23B1BDE8BC
:10100C0008400020FFF7BABF4FF0804301221A605E
:10101C0008BD00BFD804002020340020054B00225E
:10102C001A6082B01B680193019B034B01221A606A
:10103C0002B07047040100400C0000400D4ABFF3A1
:10104C005B8F82B052E8003F23F0020142E80010AF
:10105C000028F7D1BFF35B8F13F0010307D1064AC9
:10106C00136013680193019B044B01221A6002B0B8
:10107C00704700BFD804002000010040040000406D
:10108C002DE950410A4C227842B904F038FF50B196
:10109C004FF4A5705D2603DF01232370054B01225D
:1010AC001A60BDE850814FF4A57005F06FFDF3E7B1
:1010BC00330F0020080000402DE97041012389B056
:1010CC000025CDE906530F4B019504AC01AACDE9DF
:1010DC000444CDE9023404F0A8FF002808DB04F036
:1010EC000EFF40B120464FF480412A46872603DF8D
:1010FC0009B0BDE870814FF480420023204603F014
:10110C009FFCF5E7D75F0000184B07B51A68B2B122
:10111C004FF08042D2F80423D00710D500221A6079
:10112C001B680093009B124BDB68186C10F00700D7
:10113C0005D1104B1B68990701D5FFF71FFF0E4B0C
:10114C001A6882B14FF08042D2F8042392070AD574
:10115C0000221A601B680193019B012003B05DF80B
:10116C0004EBFFF70BBF03B05DF804FB000100407C
:10117C0020340020D80400200401004010B511498F
:10118C00BFF35B8F0446012251E8003F41E8002089
:10119C000028F9D1BFF35B8F43B90B49C8680B49E1
:1011AC001C304B60CB608A6004F0C5FB012C06D070
:1011BC00022C06D10120BDE8104004F015BF002020
:1011CC00F9E710BDDC040020203400207804002056
:1011DC00821C084B22F07F42C3F84025D3F804252B
:1011EC00904200D17047D3F80405821C22F07F4254
:1011FC00F2E700BF00100140044B002282B01A60DD
:10120C001B680193019B02B0704700BF4011014065
:10121C0008B5FFF7F1FF074B074AD3F840051368F1
:10122C00C01A20F07F4003441360BDE8084004F06E
:10123C0055B800BF00100140E004002038B5104D37
:10124C000024C5F80845FFF7D7FF0E4B4FF40032CA
:10125C00C3F880214FF48033C5F8043322460121B2
:10126C00112000F065F9112000F052F9064A012313
:10127C00136020462B60FFF781FF204638BD00BF6E
:10128C000010014000E100E0081001402DE9784118
:10129C00304B314C1968D4F80425304D521AB0F14A
:1012AC00FF3F08BF2846160222F07F433BD401388B
:1012BC0020EAE070A842A8BF284601334FF48036DC
:1012CC001844C4F80863A84294BF0D184D19D4F8FB
:1012DC000405D4F84015FFF78FFF091A21F07F4160
:1012EC0020F07F430129C4F84035C4F844630BD186
:1012FC00EFF30583CBB9EFF31483DA0715D50F2081
:10130C005D2603DFFFF778FF154B4FF40032C3F86F
:10131C008021D4F804052B1A23F07F43012B08D12C
:10132C00FFF756FF0FE00020C7E70F2005F02EFC5B
:10133C00E8E725F07F43C4F84035D4F804052D1AAE
:10134C00023D2B02ECD44FF48033C4F80433BDE8D7
:10135C00788100BFE004002000100140FFFF7F00F7
:10136C0000E100E04FF02002EFF3118382F31188CB
:10137C00BFF36F8F064AD2F80405064A1268801A2A
:10138C0020F07F4083F31188BFF36F8F704700BF4D
:10139C0000100140E004002010B5114C114AA2616C
:1013AC000323C4E90433104BE36122664FF48063DA
:1013BC000E4A0F492362626600231022E01DA362CD
:1013CC006362E3622367E3666367A26604F0B8FEB8
:1013DC000849204604F0B4FE2023A37110BD00BFC1
:1013EC00E4040020A5780000440F0020340F0020F6
:1013FC00AE780000B27800000A4A0B49936809687D
:10140C00C3F890100949C3F88C004B6843F0805323
:10141C004B60002383F31188BFF36F8F9368D3F86D
:10142C0090007047EC0E00206073000000ED00E0AF
:10143C0019498A684FF038001044EFF3098C80E8A2
:10144C00F01F202080F31188BFF36F8F134F4FF0E4
:10145C0000664A6A8A603E60D2F88C000023C2F8AB
:10146C008C3080F3118804B5104600F0D5FBBDE834
:10147C000440D2F89400EFF3148323F0010343EA01
:10148C00000383F31488BFF36F8F02F1380090E8E8
:10149C00F01F8CF309887047EC0E002004ED00E07F
:1014AC001EF0040F0CBFEFF30880EFF30980816985
:1014BC0011F8021CEFF31482032908D012F0010F6B
:1014CC0001D10229FFD001B504F0F4FD01BDD0F823
:1014DC0018800D4981614FF4867C664502D3066005
:1014EC0040F20B1609488068D0F8941021F00101E5
:1014FC00C0F89410BFF34F8F22F0010282F31488CE
:10150C00BFF36F8F70470000A9170000EC0E00208E
:10151C0043B2002B08DB012200F01F0002FA00F09E
:10152C005B09024A42F82300704700BF00E100E06B
:10153C0043B2002BA8BF03F1604301F10101B8BF16
:10154C00064B4FEA4111ACBF03F5614300F00F00AD
:10155C00C9B2B4BF195483F80013704714ED00E0FE
:10156C000C4C9846A36883B50546D3F88000174603
:10157C000E4605F09EFCA468D4E91B329B1AC4F8F5
:10158C0098000193A36E00933A4643463146284691
:10159C0000F0C2F8EC0E002030B5017B42F8203C84
:1015AC00039B42F81C3C0E4D049B42F8183C11F076
:1015BC00040F059B0B4942F8143C18BF29464FF009
:1015CC00807342F8043CA2F12004002321F00101B5
:1015DC0042F8081CC0E925338465C0F88C3030BD56
:1015EC006D150000E3590000104B9B6810B50446C4
:1015FC00BBB1D3F8980068B1EFF3148212F001027A
:10160C0005D116340FD1884298BF002010BDD3F8F5
:10161C008000F8E71634F9D19B6E8B4288BF1846D0
:10162C00F4E71846F2E71046F0E700BFEC0E002096
:10163C0008B504460E46154600F0D2FA084B204673
:10164C009C6000F0E9FA284686F30988002163B60D
:10165C0081F31188BFF36F8F0022002304F0BBF9D4
:10166C00EC0E0020014910220A60704710ED00E0DA
:10167C0072B6404080F31188BFF36F8FBFF34F8F6A
:10168C0030BF62B6BFF36F8F704700BF30BFFFF73C
:10169C00FDBF00BF0E4A08B50E4B22F07F029A60C8
:1016AC00BFF34F8FBFF36F8FD3F8882022F47002F3
:1016BC00C3F88820EFF3148323F0040383F3148816
:1016CC0001F032FC01F03AFC00F058FA01F080FC19
:1016DC000000000000ED00E001B572B60B4A106A84
:1016EC0000281EBF0021116204F05FFE62B6EFF30A
:1016FC000580A0F110004FEAC0000549014409C95A
:10170C009847BDE80140034908470000EC0E002053
:10171C00787100006D1B000086461E488068D0F86A
:10172C0098004FF4806C6044EC4680F309880EB549
:10173C002DE901101748806800F06EFABDE8011021
:10174C00DCF80000DCF804C02DE9011062464940C9
:10175C0004F037FDBDE801106044BDE80E4080F395
:10176C000988704603B40B488068D0F8941051F087
:10177C000101EFF3148C5CF0010CC0F89410BFF372
:10178C004F8F8CF31488BFF36F8F03BCDFF808C046
:10179C0060470000EC0E0020E3590000DFF888C021
:1017AC00DCF808C0DCF898C00CF5806CBCF1080CB7
:1017BC00CCF800D0CCF804E08CF3098840F20B1C78
:1017CC00664503D1EC462DE9305000E030B4DFF82B
:1017DC005CC04FEA8606B444DCF800C0E047DDF894
:1017EC000CE0DDF808C08CF3098803B40E4880685F
:1017FC00D0F8941051F00101C0F89410BFF34F8F42
:10180C00EFF3148C5CF0010C8CF31488BFF36F8F26
:10181C0003BC4FF000014FF000024FF00003C44630
:10182C005CF0010C60470000EC0E002064730000BB
:10183C0037B54FF0FF3301930023C55C1DB18B42CC
:10184C0001D00133F9E7184600210191019911608B
:10185C0003B030BD04F0E5FC202080F3118808486B
:10186C004FF40061401880F30988EFF314800221D3
:10187C00084380F31488BFF36F8FFFF70BFF000052
:10188C00701C0020EFF30880EFF30981724601B55C
:10189C0000F0DCF801BD00BF70B52A4C05461646B9
:1018AC0004F029FCA36AD80601D504F024FCA36A31
:1018BC001A0701D504F01FFCA36A9B0730D504F06E
:1018CC001AFC626BA36A180606D504F014FC19B155
:1018DC00A36A23F08003A3621A498B6ADB0701D544
:1018EC0004F009FC8B6A9C0601D504F004FC8B6A9D
:1018FC00D80618D40020134A936A43F0FF0393626E
:10190C00114BAA6923F00103934219D80F4B23F012
:10191C000103934214D90E4BAB610123337070BD9C
:10192C006FF01502D8E74B681B05E3D52946104626
:10193C00FFF75AFE0028DDD080F309880220DAE791
:10194C000023EBE700ED00E0471800004918000009
:10195C005918000008B504F0CEFB144A936A98019C
:10196C0001D504F0C8FB936AD90101D504F0C3FB7F
:10197C00936A1B0301D504F0BEFB0C4A936A58030F
:10198C0001D504F0B8FB936A990301D504F0B3FBBD
:10199C00936ADB0301D504F0AEFB044A936A6FEA49
:1019AC0003436FEA13439362002008BD00ED00E08F
:1019BC0038B5224C054604F09EFBA36AD80401D529
:1019CC0004F099FBA36A1B0501D504F094FBA36AF0
:1019DC0098050CD504F08FFBA36BA36A1B0406D5EA
:1019EC0004F089FB19B1A36A23F40043A3621349E1
:1019FC008B6A5C0501D504F07EFB8B6AD80516D585
:101A0C0004F079FB8B6A43F47F438B620C4BA9691E
:101A1C0023F001038B420ED80A4B23F001038B42B7
:101A2C0009D9094BAB6101231370002038BD8B6AB7
:101A3C009B04E5D4E6E70023F6E700BF00ED00E0E9
:101A4C0047180000491800005918000070B53C4BAD
:101A5C005C688AB00D46C4F30804002686F311882E
:101A6C00BFF36F8F02F07F43B3F17F4F05D102F0CC
:101A7C000C03082B03D104F03EFB354603E01207A0
:101A8C0001D4054601260022E31E8DF80720032B06
:101A9C000CD8DFE803F002484C4504F02CFB284B33
:101AAC008DF80720DC6A14F0020403D004F023FB49
:101ABC0000240EE0DB6A5B000BD504F01CFB214B11
:101ACC001B78F3B10DF1070201212846FFF7E4FE64
:101ADC0004469DF8073093B92022294602A804F049
:101AEC0045FB099B3EB3C3F3080222B96FEA5323AB
:101AFC006FEA4323099302A9204604F0CBFA0AB0FB
:101B0C0070BD114B1B7833B10DF107020121284632
:101B1C00FFF74EFFDCE70D4B1B889BB2002BD8D098
:101B2C00FFF718FFD4E70DF107020021CDE70DF107
:101B3C0007020021EBE723F4FF7323F00103D9E73D
:101B4C0000ED00E028ED00E029ED00E02AED00E0DA
:101B5C00024A536943F010035361704700ED00E0F3
:101B6C00044B9968586A884203D003494FF080525D
:101B7C000A607047EC0E002004ED00E004480023DE
:101B8C002021C2180133272B82F80013F9D170479A
:101B9C0000E100E038B504464FF02003EFF3118567
:101BAC0083F31188BFF36F8F02F0B0FB0A4B9B6875
:101BBC00A3420BD1094B5A68C2F3080212B928464A
:101BCC00FFF71AFC5A6842F080525A602846BDE86A
:101BDC00384004F04FBE00BFEC0E002000ED00E0DA
:101BEC001FB5084B0193084B0293084B039301ABB1
:101BFC000093074A074B0121684600F03DF905B0F8
:101C0C005DF804FB000000200000000000000B0643
:101C1C00000000200000012070B5044694B004F0D0
:101C2C0074FAE16FD1B104F070FA91F8C85004F075
:101C3C006CFA0A4601F1C006002153685BB104F04E
:101C4C0064FA14AB03EB8103013D01F1010143F88C
:101C5C00442CC9B202D00C329642EED104F055FAA3
:101C6C00D4F8983083B1D4E91A03D4F88020034413
:101C7C009B1ACDE90023074B029314AB03EB8103B2
:101C8C00013143F844DCC9B203A800F01BF914B0CD
:101C9C0070BD00BF00000B13034B9B68834201D146
:101CAC00FFF7BABF704700BFEC0E00204FF02003C7
:101CBC00EFF3118283F31188BFF36F8F044B98609D
:101CCC00186982F31188BFF36F8F00F00100704721
:101CDC0090ED00E038B5044604F028FAD1E9005341
:101CEC00202B896812D9B3F1004F11D8013BB3FAFC
:101CFC0083F3C3F11F035B00072C41EA030109D9ED
:101D0C0004F014FA6FF01504204638BD0823F3E7ED
:101D1C003E23F1E704F00AFA25F01F050548254398
:101D2C0045F0100541F001018460C560016104F0CB
:101D3C00FDF9E9E790ED00E0034B05225A60BFF393
:101D4C004F8FBFF36F8F704790ED00E0BFF35F8F45
:101D5C00014B00225A60704790ED00E01549F8B530
:101D6C000C68082C22D8144D04F0E0F90C26FFF76F
:101D7C00EDFF0022944205D1104B1C70FFF7DCFFE5
:101D8C000020F8BD06FB02F34868AA60C718C358C8
:101D9C0023F01F03134343F01003EB60BB6843F0C5
:101DAC0001032B6104F0C2F90132E3E74FF0FF307D
:101DBC00E7E700BFE872000090ED00E0441300205C
:101DCC00024B1878C0F10800704700BF4413002084
:101DDC002DE9F0410029274E01F1FF350446174645
:101DEC0008BF002507214FF001080846FFF75EFFEA
:101DFC00002837D04FF02003EFF3118083F31188C4
:101E0C00BFF36F8FB160F268336980F31188BFF351
:101E1C006F8F601926D222F01F02944222D3C3F393
:101E2C004403013308FA03F3013A1344834219D3F0
:101E3C004FF02003EFF3118283F31188BFF36F8F00
:101E4C00B160336982F31188BFF36F8F190EC3F33E
:101E5C00026367B1033B59425941B1FA81F1490917
:101E6C00494201E00139C0D20846BDE8F08101F0D9
:101E7C000201F2E790ED00E0F8B5114C074620782E
:101E8C000E460025B54211DA57F825104B68ABB158
:101E9C005A1E13420CD11F2B0AD90B681A4207D1B8
:101EAC00C0B2FFF717FF10F1160F06D12070F8BD66
:101EBC0004F03CF96FF01500F8E701300135E1E76B
:101ECC004413002038B5104B054618780C460022F8
:101EDC00A24207DB10F1160F03D00C4A0021072891
:101EEC000DDD38BD55F822104B6833B1C0B2FFF789
:101EFC00F1FE10F1160FF4D001300132E8E79060DA
:101F0C0011610130EBE700BF4413002090ED00E0BD
:101F1C00014B1860704700BF04340020022902D125
:101F2C00024B1B6818474FF0FF30704704340020F9
:101F3C0010B5064C049AA368C3F88420FFF7EEFF93
:101F4C00A3680022C3F8842010BD00BFEC0E002053
:101F5C00022B2DE9F84306460C46154615D1B2B1B5
:101F6C0081B1DFF830901746B0462644D9F80030DE
:101F7C0018F8010B9847013003D04645F6D1013FC4
:101F8C00F2D1EC1B2046BDE8F8830024FAE7144696
:101F9C00F8E700BF043400202DE9F047124F9A46B1
:101FAC00BB6816460A9AC3F88420A6FB0134804607
:101FBC000D46B9462CB92246194604F0B5F804462C
:101FCC0038B104F021F9D9F80830D3F8840004F0C2
:101FDC007DF85346324629464046FFF7B9FFBB68A9
:101FEC00C3F88440BDE8F087EC0E00204FF02003CE
:101FFC00EFF3118283F31188BFF36F8F064901232E
:10200C00C1F840354FF08041C1F8783582F3118822
:10201C00BFF36F8F0020704700E0014020B1034BED
:10202C00800143F001031847704700BFB0720000F5
:10203C0008B5094B1A786AB90121197006200521D7
:10204C00FFF776FA0620FFF763FA044B4FF00042D5
:10205C00C3F80423002008BD451300200060004095
:10206C002B4BF0B546682B481340834240D00DD81B
:10207C00062B15D005D89BB1022B3BD06FF0150069
:10208C0035E0B3F5801FF9D1012309E022488342E2
:10209C0032D0B3F5A00F31D0B3F5800FEED10223BF
:1020AC00D00654BFC2F34015032582F48074970503
:1020BC00C2F34020C4F3002407D512F4006F7768F4
:1020CC001ED001228A40C7F80825327A01F01F0180
:1020DC0041EA421140EA440242EA032301F5E0716D
:1020EC004FF0A04243EA850342F821300020F0BDB6
:1020FC000723D5E70423D3E70523D1E70323CFE751
:10210C00520542BF01228A40C7F80C25DDE700BF0B
:10211C000600F0000600100002004000F7B5C4688D
:10212C004068007A01F01F05B2F5A03F45EA401562
:10213C000AD105F5E0704FF0A04656F82000C7070D
:10214C0007D56FF02200B4E0B2F5005FE06800F054
:10215C00B280E6680120884030436669E060012067
:10216C008840B2F5A03FA2690CBF06438643B3F585
:10217C00C02F0CBF02438243A26122696661B3F592
:10218C00802F0CBF104322EA00005B4A2061D2F87A
:10219C0004030023C0B203F5A27652F82660C6F3FE
:1021AC000426B54240F08C8020FA03F6F60740F185
:1021BC00878001209840514EBFF35B8FC74356E890
:1021CC0000CF0CEA070C46E800CEBEF1000FF6D1AA
:1021DC00BFF35B8F9B0003F1804303F5C043D3F83F
:1021EC00106526F00106C3F81065C2F80803AA00B2
:1021FC0002F1A042E068D2F80037C84023F4403323
:10220C0010F00100C2F8003753D06069C84010F0DC
:10221C00010060D0A369394ACB40DB075FBF23695B
:10222C0023FA01F101F00101C1F1020154BFC9B25D
:10223C0003210023012606FA03F4BFF35B8F52E857
:10224C00000F40EA040742E8007CBCF1000FF6D115
:10225C00BFF35B8FD84010F0010036D19A0002F129
:10226C00804202F5C0424033D2F8106526F447365E
:10227C0026F440769B00C2F810652D029BB2D2F872
:10228C00106505F4F85503F1804303F5C04345EAA6
:10229C0001453543C2F8105518601B680193019B2A
:1022AC00D2F8103543F00103C2F81035124BC3F8C5
:1022BC00044303B0F0BD01268E4020EA06004CE733
:1022CC000133082B7FF467AF91E70133082BB2D1B0
:1022DC006FF01200EDE72369D2F8005723FA01F1F1
:1022EC0001F00101C1F1030125F4403343EA01413E
:1022FC00C2F80017DDE700BF00600040A805002011
:10230C00F7B54E490D68002D61D04D4BDA68D3F806
:10231C0004C0D368D2E90504204323EA0003DCF8A7
:10232C0004001269D0F81045544023EA040401203B
:10233C000026002B35D10B600B680093009B4148A5
:10234C00002301261F46D0F8042306FA03F111429C
:10235C0013D09A0002F1804202F5C242116861B1B9
:10236C0003F5A27150F82110176012680192C1F3A5
:10237C00042106FA01F1019A0C430133082BE2D136
:10238C003CBB65B12E4BD8685E68C168D0E905329C
:10239C00134321EA030101240025002931D103B0A4
:1023AC00F0BD034210D09CF8087006F01F0242EA00
:1023BC004712920002F1A04223EA0003D2F8007700
:1023CC0027F44037C2F8007701364000B1E72C46BD
:1023DC00B5E71B4FFB6859680029D2D00E68002E58
:1023EC0038BF00268A68224002D04B68384698478E
:1023FC00002EC6D03368002B38BF002331461E4652
:10240C00F0E70C4217D0327A05F01F0343EA42136F
:10241C009B00026903F1A043EA40D3F8007702F075
:10242C000102C2F1030227F4403747EA0242C3F823
:10243C00002721EA040101356400AEE77C6100400D
:10244C0050340020006000402DE9F041DFF84C8052
:10245C00D8F808301746089AC3F88420CEB2044640
:10246C00FDF736FE00221B2103F06CF842460546B0
:10247C0030B103F02AFF9368D3F8840003F026FEF2
:10248C00A3681B68002BF4D03A4631462046984787
:10249C00D8F80830C3F88450BDE8F081EC0E002069
:1024AC00F8B5174E089AB368C3F884200D46044655
:1024BC00FDF70EFE00221B2103F044F8324678B1E2
:1024CC0003F003FF9368D3F8840003F0FFFDA368C7
:1024DC0029465B6820469847B368C3F88470F8BDFA
:1024EC00A3685B68002BEBD001220421284603F083
:1024FC001BFE07460028EAD003F0E7FEB368E2E7CC
:10250C00EC0E00202DE9F041DFF84C80D8F80830B3
:10251C001746089AC3F884200E460446FDF7D8FDEA
:10252C0000221B2103F00EF84246054630B103F0A1
:10253C00CCFE9368D3F8840003F0C8FDA3689B68B5
:10254C00002BF4D03A46314620469847D8F808304C
:10255C00C3F88450BDE8F081EC0E0020F8B5114FA3
:10256C00089ABB68C3F884200E460446FDF7B0FDFC
:10257C0000221B2102F0E6FF3A46054630B103F07B
:10258C00A4FE9368D3F8840003F0A0FDA368DB6875
:10259C00002BF4D0314620469847BB68C3F88450D2
:1025AC00F8BD00BFEC0E0020F8B5114F089ABB68BF
:1025BC00C3F884200E460446FDF78AFD00221B2139
:1025CC0002F0C0FF3A46054630B103F07EFE936838
:1025DC00D3F8840003F07AFDA3681B69002BF4D0B8
:1025EC00314620469847BB68C3F88450F8BD00BFFD
:1025FC00EC0E0020F8B5114F089ABB68C3F8842084
:10260C000E460446FDF764FD00221B2102F09AFFE2
:10261C003A46054630B103F058FE9368D3F884006F
:10262C0003F054FDA3685B69002BF4D031462046BF
:10263C009847BB68C3F88450F8BD00BFEC0E00206F
:10264C002DE9F041194DAB681446089AC3F8842063
:10265C005FFA81F80746FDF73BFD00221B2102F0D3
:10266C0071FF30B103F031FEAB68D3F8840003F096
:10267C002DFDBB689E69002EF4D0230408D5FA68A2
:10268C000123126803FA08F3134218BF84F4C02420
:10269C0004F4C02304F4B03241463846B047AB686A
:1026AC000022C3F88420BDE8F08100BFEC0E0020AE
:1026BC0070B5104E069AB368C3F884200446FDF733
:1026CC0007FD00221B2102F03DFF3246054630B1CA
:1026DC0003F0FBFD9368D3F8840003F0F7FCA368C8
:1026EC001B6A002BF4D020469847B368C3F884507B
:1026FC0070BD00BFEC0E0020024BD3F88004C3F871
:10270C00800470470020004030B54B79012B1ED15E
:10271C008B79032B1BD1CA790AB1012A17D10C79F9
:10272C0014B1022C13D10E240B68B3F5164F5FD0E5
:10273C002BD8B3F5165F5DD014D8B3F5966F5BD07C
:10274C0008D8B3F5967F5AD0B3F5167F5AD06FF0F0
:10275C0022004CE0B3F5166F57D0B3F5965FF6D167
:10276C00344B39E0B3F5E14F52D007D8B3F5615F84
:10277C0050D0B3F5964FEAD12F4B2DE047F61225EA
:10278C00AB42E4D14FF4000326E0B3F5613F44D0F3
:10279C0011D8B3F5963F42D008D84DF6C025AB42C0
:1027AC003FD0B3F5614FD2D1244B15E0B3F5E13FE7
:1027BC00CDD1234B10E0B3F5612F35D007D8214D87
:1027CC00AB4233D0B3F5E12FC1D11F4B04E01F4D09
:1027DC00AB42BCD14FF080531D4D2243C5F824357C
:1027EC00C5F86C25C36803C983E80300002030BD1D
:1027FC00184BF1E7184BEFE74FF49E23ECE74FF43F
:10280C00A033E9E74FF41C33E6E74FF41D23E3E76D
:10281C00124BE1E74FF46C13DEE7114BDCE7114B85
:10282C00DAE74FF46503D7E70F4BD5E74FF080633A
:10283C00D2E700BF00B0130000A04E0000F0EB0088
:10284C0000E0D70190D0030000705F0740420F00FA
:10285C000020004000509D000050270000F0750043
:10286C0000B0AF0300903A0100D0BE0E084B1A68BE
:10287C0082B052B1002018601B680193019B054B7C
:10288C00D3F818350B7002B070474FF0FF30FAE7F1
:10289C000821004000200040F7B50E4604F070F906
:1028AC001B4D88BB64240127BFF35B8F55E8003FA9
:1028BC00002B03D145E80072002AF7D1BFF35B8FE0
:1028CC0007D021200021013C01F018FF14F0FF0477
:1028DC00EAD1104C0022226022680192019A0E4A21
:1028EC0001211160C2F814654FF47A76236823B97C
:1028FC00012003F006FD013EF8D1084B01221A60BD
:10290C0000232B6003B0F0BD01232B60E1E700BF77
:10291C00AC0500201C210040082000400C20004089
:10292C0037B54FF0A043174C00224021C4F80025C6
:10293C000825C3F808150321C3F81817C3F8202776
:10294C00C4F814550625C4F80C552025C3F80855B1
:10295C00C3F81417C3F81C270523C4F8083507233C
:10296C00C168C4F81035FFF7CFFE48B90423C4F88A
:10297C000035054B18601B680193019B01232360F4
:10298C0003B030BD002000400821004070B5104E4F
:10299C00069AB368C3F884200446FDF799FB00221D
:1029AC00262102F0CFFD3246054630B103F09FFCE4
:1029BC009368D3F8840003F089FBA3689B68002B11
:1029CC00F4D020469847B368C3F8845070BD00BF5C
:1029DC00EC0E0020F8B5174E089AB368C3F88420A3
:1029EC000D460446FDF774FB0022262102F0AAFDD9
:1029FC00324678B103F07BFC9368D3F8840003F083
:102A0C0065FBA36829461B6820469847B368C3F842
:102A1C008470F8BDA3681B68002BEBD00122114613
:102A2C00284603F081FB07460028EAD003F05FFC40
:102A3C00B368E2E7EC0E0020F8B5114F089ABB68BA
:102A4C00C3F88420CEB20546FDF742FB00222621B6
:102A5C0002F078FD3A46044630B103F048FC936826
:102A6C00D3F8840003F032FBAB685B68002BF4D026
:102A7C00284631469847BB682046C3F88440F8BDC9
:102A8C00EC0E0020F8B51A4E089AB368C3F88420EF
:102A9C000D460446FDF71CFB0022262102F052FDD8
:102AAC003746A8B103F023FCBB68D3F8840003F0CD
:102ABC000DFB294620469847BB680022C3F88420AA
:102ACC00F8BDA3681B69002BF3D16FF02200F3E76C
:102ADC00A3681B69002BE5D001220821284603F0CE
:102AEC0023FB0028EDD003F002FCB368DDE700BF48
:102AFC00EC0E0020F8B51A4E089AB368C3F884207F
:102B0C000D460446FDF7E4FA0022262102F01AFDD8
:102B1C0037460246A8B103F0EAFBBB68D3F8840041
:102B2C0003F0D4FA294620469847BB680022C3F824
:102B3C008420F8BDA368DB68002BF3D16FF0220072
:102B4C00F3E7A3681B69002BE5D00821284603F0A6
:102B5C00EBFA0028EED003F0CAFBB368DEE700BF47
:102B6C00EC0E00200B4B1B685A1C05BF0A4B0B4A82
:102B7C000B4A10680ABF1B781068C0F30310062BB1
:102B8C0005D1033803288CBF00200120704700209A
:102B9C00704700BF30010010E00F00F0E80F00F0AC
:102BAC0034010010074B1B78062B09D1064B1B6810
:102BBC00C3F30313033B032B02D8044AD05C7047C6
:102BCC0000207047E00F00F0E80F00F0D078000014
:102BDC0008B5FFF7C7FF28B17E4B7F4A1B68C3F3CC
:102BEC0004231360FFF7DEFF10B17C4B7C4A1A60A4
:102BFC00FFF7B8FF28B17B4B7B4A1B68C3F342330A
:102C0C001360FFF7CFFF20B1784AD36823F08073AD
:102C1C00D360FFF7A7FF40B14FF080430022C3F809
:102C2C000C21C3F81021C3F83825FFF7BBFF10B1F6
:102C3C006F4B03221A60FFF7B5FF40B16D4B0522B5
:102C4C001A6001229A6700229A603F225A606A4BEE
:102C5C001A68511C0BBF694B694B1A781B6802BF71
:102C6C0008331B68C3F30313062A4DD1033B032B14
:102C7C004AD8644AD35C002B46D04FF08052624B4A
:102C8C00D2F80414C3F82015D2F80814C3F824158C
:102C9C00D2F80C14C3F82815D2F81014C3F82C155C
:102CAC00D2F81414C3F83015D2F81814C3F834152C
:102CBC00D2F81C14C3F84015D2F82014C3F84415EC
:102CCC00D2F82414C3F84815D2F82814C3F84C15BC
:102CDC00D2F82C14C3F85015D2F83014C3F854158C
:102CEC00D2F83414C3F86015D2F83814C3F864154C
:102CFC00D2F83C14C3F86815D2F84014C3F86C151C
:102D0C00D2F84424C3F87025FFF72CFF28B13F4BB1
:102D1C003F4A1B6803F04F031360FFF723FF48B1D2
:102D2C004FF08043D3F80024D20744BF6FF0010268
:102D3C00C3F80024304B1B68062B0CD1304B1B689E
:102D4C00033B032B07D8334AD35C23B1324A1368B5
:102D5C0043F4806313604FF01023D3F80022002A51
:102D6C0003DBD3F80432002B2FDA2C4B0122C3F8EF
:102D7C000425D3F80024002AFBD04FF01022152193
:102D8C00C2F80012D3F80024002AFBD04FF0102315
:102D9C001522C3F80422214B1A46D3F8001400293B
:102DAC00FBD00021C3F80415D2F80034002BFBD063
:102DBC00BFF34F8F1A491B4BCA6802F4E0621343EE
:102DCC00CB60BFF34F8F00BFFDE7174B174A1A605C
:102DDC0008BD00BF240300104035014074C00740FB
:102DEC000DF0ADBA440200103C050040F0ED00E0DF
:102DFC00A00500401056004030010010E00F00F01C
:102E0C0034010010C878000000C0004058020010C7
:102E1C00E40E0040CC7800003C17004000E001407C
:102E2C0000ED00E00400FA05103400200090D003FF
:102E3C00F8B50B4B53F820400130002753F82060B5
:102E4C00A64200D8F8BD656815B1284604F070F8A4
:102E5C0023682846984708B105B1AF600834EFE7FE
:102E6C004C7300000F4B70B50F4C05461E469C4230
:102E7C0004D10D4CB44208D1002410E0A26812B168
:102E8C002268AA420BD01034F1E7A3680BB91034B6
:102E9C00F0E72168284603F05DF90028F7D12046B9
:102EAC0070BD00BF603400202034002010B50B4CE6
:102EBC008CB0A368109AC3F884200146302268466F
:102ECC0004F05EF840B96846FFF7CCFFA368002217
:102EDC00C3F884200CB010BD0020F7E7EC0E0020E6
:102EEC00034B9B680022586EC3F88420704700BFC8
:102EFC00EC0E002008B50B4D4FF02002EFF31183C0
:102F0C0082F31188BFF36F8F03F09AFE0121022820
:102F1C000446D8BF084603F0A3FE2C62FEF7A8FBBC
:102F2C00EAE700BFEC0E00200248034A0021121A07
:102F3C0003F047B9000000204813002009480A4A52
:102F4C000A4908B5121A03F011F9094A09490A4845
:102F5C0003F00CF909480A4A0A49BDE80840121A5C
:102F6C0003F004B900340020A44B0020247A0000A4
:102F7C0000000000247A0000000000200000002067
:102F8C0000000020247A000008B50C4B012202201E
:102F9C001A70FFF74DFF0A4A0A490B4802F072FCFF
:102FAC000320FFF745FF01F0D1FFFDF719FB074A9E
:102FBC00137B23F00103137308BD00BF46130020DD
:102FCC001B790000D4780000F57800002003002065
:102FDC002DE98048DFF8EC90AFB089F30888314DCB
:102FEC00314EDFF8E4A0314F0024E02385F8223085
:102FFC00EC772C766C76AC766B6A43F4E0236B62E0
:10300C00FEF7A6FDFEF72EFB4FF0FF33AB62EB6233
:10301C00274D259440F20113ADF8243006ABAB607C
:10302C002046CDE92044FFF703FF0120FFF700FF06
:10303C004FF0010B01F0A8FA1E4B6E621E4905936E
:10304C004FF480625346CDE9034BCDE90144009423
:10305C00304601F07DFE737B804623F0040330463E
:10306C00737303F044FC0F23CDE902431349144B53
:10307C004FF4A072CDE904B4CDE90044384601F018
:10308C0067FE7B7BEF6023F004037B7305F1180371
:10309C00C5E906332C75C5F80490524641463046B6
:1030AC00FEF7C6FA00ED00E02003002080020020AD
:1030BC00EC0E00201C79000000280020301B0020A2
:1030CC00012F000070240020952F00002DE9F04FF7
:1030DC009946374BD1F824B09B68CB6185B0064636
:1030EC000F469046CBF8141000F110034FF020025D
:1030FC00EFF3118A82F31188BFF36F8F024652F8F7
:10310C00085F954209D158EA09023BD18AF311882C
:10311C00BFF36F8F6FF04F041EE0002D38BF0025FA
:10312C00002DF0D069690393384603F040F9039BF6
:10313C00044610BB284603F0B3FBC5F89040284664
:10314C0003F0D5FB9BF80D20039B12F0010F07D069
:10315C005146184603F083FB204605B0BDE8F08FBE
:10316C004FF0FF304FF0FF31CDE9000122465146C0
:10317C00184601F0A1F90446EEE7F2689542C2D078
:10318C002D68CDE79BF80D20D2070DD54FF0FF32FF
:10319C004FF0FF333146584603F01FFC8AF3118879
:1031AC00BFF36F8F0024D7E7CDE900893246DEE705
:1031BC00EC0E0020436A10B5044673B3436923B187
:1031CC00143003F03DF900236361616A00234A69FE
:1031DC006362636853604B7B13F0010009D0946AFF
:1031EC000E4803F094FCC4B12046BDE8104001F039
:1031FC00E5BB23F00203C1F890004B73084603F0C3
:10320C0076FB4FF02003EFF3118083F31188BFF3AB
:10321C006F8FBDE8104003F02DBB10BD9C34002017
:10322C0070B50A4C0A4E002500230122194620468F
:10323C0003F0D8FC21463046013503F068FC0A2D1A
:10324C0004F16804F0D1002070BD00BF0014002010
:10325C009C34002010B4034CA4684C6210BCFFF7E3
:10326C0035BF00BFEC0E00202B4B2DE9F74F9046DD
:10327C009A680A62DDE90C6781460D464FF0200220
:10328C00EFF3118A82F31188BFF36F8F0468A042A9
:10329C009B4609D156EA07032FD18AF31188BFF355
:1032AC006F8F6FF04F0018E0002C38BF0024002CFB
:1032BC00F0D06069294603F07AF8C0B9204603F0D3
:1032CC00EFFA8AF31188BFF36F8FB8F1000F07D0B4
:1032DC004146284603F0A2F8002003B0BDE8F08F69
:1032EC006B68002BF8D12846FFF764FFF4E7D9F898
:1032FC0004309C42CED02468D9E7DBF8083009F1C1
:10330C0008025D615146CDE9006709F1100001F03A
:10331C00D3F80028E1D1D8E7EC0E002010B5044614
:10332C0003F02EFC50B9074B9B68D3F888303BB1A7
:10333C0021461846BDE8104003F084B8024BF7E76D
:10334C0010BD00BFEC0E00201434002070B50E4DE3
:10335C00069AAB68C3F884200646FCF7B9FE012236
:10336C00032102F0EFF8044630B103F088F8AB68A3
:10337C00D3F8840002F0AAFE304603F09AF8AB684A
:10338C00C3F8844070BD00BFEC0E00202DE9F34162
:10339C00044616461F464FF02003EFF3118883F3C3
:1033AC001188BFF36F8FC368394A6BB1806891681D
:1033BC0088421CD056EA07031BD188F31188BFF34F
:1033CC006F8F6FF00F020EE0916891F90E10216172
:1033DC000133E3609368A36003F051F888F311881C
:1033EC00BFF36F8F0022104602B0BDE8F081216957
:1033FC00EDE791F90E1090F90E309942A8BF1946DD
:10340C0021EAE17103F03BF8A36893F90E3099427D
:10341C0037DA04F1080003F03CF805462246414631
:10342C00CDE900671B4801F047F8024603F027F886
:10343C0003F025F8002AD6D003F021F84FF0200332
:10344C00EFF3118683F31188BFF36F8F2368216923
:10345C00A34207D033B193F90E309942A8BF194655
:10346C0021EAE17103F00BF804F1080003F011F804
:10347C0000B945B10748314603F0F1F96FF00A0283
:10348C00B1E70025CAE786F31188BFF36F8FF5E724
:10349C00EC0E0020471300202DE9F041104DAB68D5
:1034AC001746089AC3F8842088460646FCF710FE97
:1034BC000022032102F046F8044630B102F0DFFF8F
:1034CC00AB68D3F8840002F001FE3B46424630461E
:1034DC00FFF75CFFAB68C3F88440BDE8F08100BF28
:1034EC00EC0E002038B583680446002B3AD0204AF5
:1034FC009268934239D1DA7B013ADA7302F0BFFF5A
:10350C00E368012B05D0013BE36000F087FD002050
:10351C0038BD4FF02003EFF3118583F31188BFF30F
:10352C006F8F216904F1080002F0B3FF204603F00D
:10353C0056FAA060024602F0A2FF6AB192F90E3070
:10354C00236100231046C2F8903003F0D0F90948EB
:10355C00294603F084F9D8E7E26085F31188BFF3BC
:10356C006F8FD2E76FF01500D2E74FF0FF30CFE747
:10357C00EC0E00204713002070B50E4D069AAB6878
:10358C00C3F884200646FCF7A3FD0022032101F0BA
:10359C00D9FF044630B102F072FFAB68D3F8840057
:1035AC0002F094FD3046FFF79DFFAB68C3F88440F2
:1035BC0070BD00BFEC0E002010B50446006C02F08C
:1035CC003FFFE06C08B101F0F9F903482146BDE872
:1035DC00104003F09CBA00BFB43400202DE9F04138
:1035EC0000250C4C0C4F4FF001082E4604F138030B
:1035FC00C4E9053684F80D80E6612146384601356C
:10360C0003F085FA0A2D04F15004EFD10020BDE837
:10361C00F08100BF10180020B4340020F8B50F4D15
:10362C00089AAB68C3F884200F460646FCF750FD99
:10363C004FF0FF32042101F085FF044630B102F057
:10364C0050FFAB68D3F8840002F040FD3946304699
:10365C0002F0F0FFAB68C3F88440F8BDEC0E00201C
:10366C002DE9F04F91B01D461B9BAB4207460E4611
:10367C00904600F2D9801A9B002B00F0D58000F107
:10368C00140B4FF02003EFF3118483F31188BFF375
:10369C006F8FD0E90123DDE91C01CDE902011B99F3
:1036AC000DF1200ACDE90051D31A07A95A4650460C
:1036BC0002F060FF50B984F31188BFF36F8F1A9B2F
:1036CC0018606FF0040011B0BDE8F08F584B9A6889
:1036DC00D37B013BD37384F31188BFF36F8F5046B8
:1036EC0002F0F1FE00248146CDF814A008EB040290
:1036FC002B1BB9F1000F25D1079981B1D1F814908A
:10370C00D9E9000102F0F7FED9F800300344C9F8FA
:10371C000030D9F804300444181AC9F804002A1BE4
:10372C0008EB0401384602F0F5FE0444A54222D110
:10373C001A9B1D6016B13046FFF73EFF00F06EFC81
:10374C000020C0E7D9F814A0DAE9000102F0D3FE9A
:10375C00DAF800300344CAF80030DAF804300444D4
:10376C00181ACAF80400484603F0C1F8059802F08C
:10377C00AAFE8146BAE7DDE91C23134306D01B9B46
:10378C00A34203D813B11A9B1C60D3E708EB0402C5
:10379C002C1BE6B14FF02003EFF3118583F3118856
:1037AC00BFF36F8F224B9968CB7B0133CB733046C1
:1037BC00C6E90E2407F11C014FF0FF324FF0FF3326
:1037CC0003F00BF92946584603F049F8B8E7CDE960
:1037DC000A24DDE91C34234323D0154B9A680AA92B
:1037EC0051614FF02002EFF3118182F31188BFF386
:1037FC006F8F9A68D37B0133D373DDE91C3407F1E7
:10380C001C02CDE90034584600F056FE0B9BED1A15
:10381C001A9B1D601B9B9D4234BF6FF00A00002059
:10382C0051E700F0FBFBF1E76FF015004BE700BF31
:10383C00EC0E00202DE9F04F8FB09946189B934267
:10384C0005468846164600F2F880B9F1000F00F0E4
:10385C00F4804FF02003EFF3118483F31188BFF34E
:10386C006F8FDDE91A23CDE90223189BCDE90063A4
:10387C000DF1180B836800F11C0205A9584602F0E3
:10388C0079FE50B984F31188BFF36F8FC9F800002B
:10389C006FF004000FB0BDE8F08F694B9A68D37BD2
:1038AC00013BD37384F31188BFF36F8F002402277D
:1038BC00A246EA686B68A86829689B1A834228BFED
:1038CC0003460A4408EB0400311B02F014FEAB68FB
:1038DC001B1AAB60EB68044418446B68984208BF31
:1038EC005046012FE86035D1584602F0ECFD0746F2
:1038FC0008B1B44230D3059BABB1B44213D2D3F868
:10390C0014A0311BDAE9002308EB040002F0F3FDEC
:10391C00DAF800300344CAF80030DAF80430044412
:10392C00181ACAF8040097BB059B5BB15F6928465F
:10393C00D7E9001202F0EEFD3B6803443B607B6864
:10394C00181A7860A6423BD100F068FBC9F80060F9
:10395C0000209FE70127ACE7D7F814A0311BDAE968
:10396C00002308EB040002F0C6FDDAF80030034433
:10397C00CAF80030DAF804300444A642A3EB000085
:10398C00CAF80400B7D0384602F03BFEACE7D7F8D3
:10399C0014A02846DAE9001202F0BCFDDAF8003077
:1039AC000344CAF80030DAF80430181ACAF80400D4
:1039BC00384602F026FE06A802F085FD0746B2E75F
:1039CC00DDE91A23134308D0189BA34205D823B171
:1039DC0000F024FBC9F80040BAE708EB0401341BE3
:1039EC000994DDE91A342343089123D0144B9A68C7
:1039FC0008A951614FF02002EFF3118182F3118875
:103A0C00BFF36F8F9A68D37B0133D373DDE91A341C
:103A1C0005F11402CDE90034104600F04DFD099A71
:103A2C00189BB61A9E42C9F8006034BF6FF00A00AA
:103A3C0000202FE700F0F2FAF1E76FF0150029E70C
:103A4C00EC0E00202DE9F047DDE90A890D461646FB
:103A5C00DDF820A007461C46FCF73AFB00220421A7
:103A6C0001F070FD38B102F03CFD104B9B68D3F8AF
:103A7C00840002F02BFB01220421204602F054FBAF
:103A8C000028F0D101223146284602F04DFB0028D7
:103A9C00E9D1CDE90A89CDF820A023463246294642
:103AAC003846BDE8F047FFF7C5BE00BFEC0E00205E
:103ABC002DE9FF47154DDDF834A09946AB689046CB
:103ACC000E9AC3F8842006460F4600220421504665
:103ADC0002F02AFB044630B102F003FDAB68D3F8C8
:103AEC00840002F0F3FADAE90023CDE902230C9BFF
:103AFC00009342464B4639463046FFF7A3FFAB686E
:103B0C00C3F8844004B0BDE8F08700BFEC0E002081
:103B1C002DE9F047DDE90A670D469046DDF820A057
:103B2C0081461C46FCF7D4FA0022042101F00AFD60
:103B3C0038B102F0D6FC104B9B68D3F8840002F02D
:103B4C00C5FA01220421204602F0EEFA02460028B2
:103B5C00EFD14146284602F0E7FA0028E9D1CDE939
:103B6C000A67CDF820A02346424629464846BDE8C0
:103B7C00F04702F078BD00BFEC0E00202DE9FF47A6
:103B8C00154DDDF834A09946AB6890460E9AC3F8F3
:103B9C00842006460F4600220421504602F0C4FA47
:103BAC00044630B102F09DFCAB68D3F8840002F0FF
:103BBC008DFADAE90023CDE902230C9B00934246EF
:103BCC004B4639463046FFF7A3FFAB68C3F8844039
:103BDC0004B0BDE8F08700BFEC0E002010B5044621
:103BEC00FCF776FA0022042101F0ACFC38B102F0AB
:103BFC0078FC054B9B68D3F8840002F067FA2046EA
:103C0C00BDE8104002F039BDEC0E002010B5064C9A
:103C1C00049AA368C3F88420FFF7E0FFA36800228E
:103C2C00C3F8842010BD00BFEC0E002010B5044674
:103C3C00FCF74EFA0022042101F084FC38B102F0AA
:103C4C0050FC054B9B68D3F8840002F03FFA2046E9
:103C5C00BDE8104002F02DBDEC0E002010B5064C56
:103C6C00049AA368C3F88420FFF7E0FFA36800223E
:103C7C00C3F8842010BD00BFEC0E002070B50F4DB2
:103C8C00069AAB68C3F884200646FCF721FA4FF07D
:103C9C00FF32052101F056FC044630B102F027FD3D
:103CAC00AB68D3F8840002F011FA304602F092FDB2
:103CBC00AB682046C3F8844070BD00BFEC0E0020FA
:103CCC0070B50E4D069AAB68C3F884200646FCF717
:103CDC00FFF90022052101F035FC044630B102F059
:103CEC0006FDAB68D3F8840002F0F0F9304602F020
:103CFC007AFDAB682046C3F8844070BDEC0E002002
:103D0C00F8B50F4D089AAB68C3F884200F460646E9
:103D1C00FCF7DEF90022052101F014FC044630B159
:103D2C0002F0E5FCAB68D3F8840002F0CFF9394619
:103D3C00304602F073FDAB68C3F88440F8BD00BF99
:103D4C00EC0E0020F8B50F4D089AAB68C3F8842030
:103D5C000F460646FCF7BCF90022052101F0F2FBE8
:103D6C00044630B102F0C3FCAB68D3F8840002F017
:103D7C00ADF93946304602F056FDAB68C3F88440C5
:103D8C00F8BD00BFEC0E0020F7B516461F464FF0ED
:103D9C002003EFF3118583F31188BFF36F8F046851
:103DAC009CB12368426823F003039442036008BF6C
:103DBC0043600121204602F001FD044685F3118881
:103DCC00BFF36F8F204603B0F0BD56EA0703F5D062
:103DDC0000F10802CDE900672946104600F06CFBA3
:103DEC000028EFD1014B9B685C69EBE7EC0E0020DF
:103DFC002DE9F041104DAB681746089AC3F88420A2
:103E0C0088460646FCF764F90022052101F09AFB6E
:103E1C00044630B102F06BFCAB68D3F8840002F0BE
:103E2C0055F93B4642463046FFF7AEFFAB68C3F848
:103E3C008440BDE8F08100BFEC0E002038B50E4C7C
:103E4C00069AA368C3F884200546FCF741F90022C2
:103E5C00052101F077FB30B102F049FCA368D3F8DF
:103E6C00840002F033F92B68A268C2F88400B3FA1C
:103E7C0083F0400938BD00BFEC0E002070B50E4D2C
:103E8C00069AAB68C3F884200646FCF721F9002299
:103E9C00052101F057FB044630B102F028FCAB6859
:103EAC00D3F8840002F012F90146306802F086FC67
:103EBC00AB68C3F8844070BDEC0E002070B50E4D9D
:103ECC00069AAB68C3F884200646FCF701F9002279
:103EDC00052101F037FB044630B102F008FCAB6859
:103EEC00D3F8840002F0F2F80146706802F066FC28
:103EFC00AB68C3F8844070BDEC0E002010B5084CC4
:103F0C0023685BB1FDF72EFA03462068054A03448B
:103F1C00BDE810401361002102F0A2BE10BD00BF2D
:103F2C00240F0020EC0E0020F8B505460C464FF08F
:103F3C002003EFF3118683F31188BFF36F8F0D4BC2
:103F4C0000224FF4004740F2E73000211A61E7FBF2
:103F5C0005014FF47A720023FCF73AF9064B18600E
:103F6C00064B1C60FFF7CAFF86F31188BFF36F8FF7
:103F7C00F8BD00BFEC0E0020240F0020200F002005
:103F8C004FF02003EFF3118183F31188BFF36F8F90
:103F9C00044B9A68D37B013BD37381F31188BFF335
:103FAC006F8F7047EC0E0020094B03F12802824200
:103FBC0005D19B688B4202D14B7BDB0606D1D1E944
:103FCC00003213605A600023C1E90033704700BF10
:103FDC00EC0E002070B5104C064604F1280002F0DF
:103FEC007CFCA368597B0546880644BF41F0080158
:103FFC00597305B9E5684EB95A7BD20606D1AA6940
:10400C0022B9DA897F2A01D9636270BDAB4201D033
:10401C00FFF774FF6562F8E7EC0E002010B54FF067
:10402C002003EFF3118483F31188BFF36F8F094BD7
:10403C009A68D37B0133D3730020FFF7CBFF84F353
:10404C001188BFF36F8F02F0F3FBBDE8104002F054
:10405C001DBC00BFEC0E002070B4437BDB062AD1E4
:10406C00836943BB154A114651F8284F8C4218BF3F
:10407C002346002BD46A38BF0023B3B190F90E60ED
:10408C0093F90E50AE4203DBA3420ED01B68F4E74B
:10409C005A68C0E9003210605860437B63F07F03BC
:1040AC00437370BC0020FFF795BFC0E90014D36ABE
:1040BC001860D062F1E770BC704700BFEC0E0020B6
:1040CC0010B54FF02002EFF3118482F31188BFF387
:1040DC006F8F427B510704D484F31188BFF36F8F29
:1040EC0010BD22F004024273FFF7B6FF21460248CE
:1040FC00BDE8104002F0B3BB4713002010B54FF0E1
:10410C002002EFF3118482F31188BFF36F8F427B8F
:10411C0022F010024273FFF79FFF21460248BDE8D0
:10412C00104002F09CBB00BF4713002070B50E4D31
:10413C00069AAB68C3F884200646FBF7C9FF002239
:10414C00092101F0FFF9044630B102F071FBAB68B4
:10415C00D3F8840001F0BAFF3046FFF7CFFFAB680D
:10416C002046C3F8844070BDEC0E0020F8B5014623
:10417C004FF02003EFF3118483F31188BFF36F8F9B
:10418C0090F90D30002B02DA1948FFF70DFF194A90
:10419C001046D56A50F8283F834208BF0023002BF5
:1041AC0038BF0023EBB191F90E7093F90E60B74252
:1041BC0003DB9D4215D01B68F4E75868C1E9003059
:1041CC00016059604B7B906863F07F034B73431A1B
:1041DC0058425841FFF7FEFE84F31188BFF36F8FEE
:1041EC00F8BDC1E90005D36A1960D162EAE700BFE6
:1041FC00140F0020EC0E002038B5154A154B14682E
:10420C0001469868A0421C4603D1BDE83840FFF730
:10421C0075BE00251560104A1268B2B1C2897F2A9A
:10422C0013D80E4A90F90E50126895420DDB0C4AC9
:10423C0090420AD0826942B91A698A4202DCFFF7BD
:10424C0095FFE2E7521A1A6138BD00232361FBE7A0
:10425C001C0F0020EC0E0020240F0020200F00204B
:10426C008002002070B50446183002F0C3FC4FF0F9
:10427C002003EFF3118683F31188BFF36F8F94F94A
:10428C000D30002B07DA0F482146FFF78DFE637BBC
:10429C0003F07F0363730C4D637BA86843F010033A
:1042AC006373031B58425841FFF794FE86F3118841
:1042BC00BFF36F8FAB68A34203D1BDE8704002F02F
:1042CC00E5BA70BD140F0020EC0E002070B50E4D39
:1042DC00069AAB68C3F884200646FBF7F9FE002269
:1042EC00092101F02FF9044630B102F0A1FAAB68B4
:1042FC00D3F8840001F0EAFE3046FFF7B3FFAB6859
:10430C002046C3F8844070BDEC0E0020036E2DE9EE
:10431C00F041044603B1984704F1180002F06AFC1E
:10432C004FF02003EFF3118683F31188BFF36F8FE7
:10433C00637BD8062DD1A2695ABB190607D525482F
:10434C002146FFF731FE637B03F07F036373224B3F
:10435C009868021B50425041FFF73CFE637BD4F837
:10436C00800043F00803637302F0EBFD204602F07B
:10437C00E8FD204601F0D8F804F130080027256B41
:10438C00454500D095B986F31188BFF36F8FBDE812
:10439C00F0819B07E2D5A0682146FFF705FE637B01
:1043AC0023F0020363730023A360D7E705F1180021
:1043BC0002F020FCA8682946FFF7F6FD6B7BAF6086
:1043CC0023F002036B73C5F890702846FFF744FE88
:1043DC00D5E700BF140F0020EC0E002008B590F9B3
:1043EC000D30002B014606DA0748FFF7DDFD4B7B4D
:1043FC0003F07F034B73054B9868431A584258419E
:10440C00BDE80840FFF7E6BD140F0020EC0E0020BD
:10441C00F8B5054602F03EFC2C184FF02003EFF3E4
:10442C00118783F31188BFF36F8F0D4E0D4BB0685E
:10443C00186002F097FAB0680B492A46EB1718304F
:10444C0000F0ACFEB268537B43F010035373384654
:10445C00FCF7D2FF02F01EFC201A20EAE070F8BD37
:10446C00EC0E00201C0F00201B6900002DE9F04110
:10447C00064614461D464FF02003EFF3118783F3D5
:10448C001188BFF36F8F02F07DFA87F31188BFF3A9
:10449C006F8F6B1C08BFB4F1FF3F08D022462B4630
:1044AC0006F118000349BDE8F04100F077BEBDE805
:1044BC00F08100BF1B69000010B5074B9868074BD3
:1044CC000C4618601146DDE90223FFF7CFFF2046AA
:1044DC00BDE81040FCF790BFEC0E00201C0F002034
:1044EC002DE9F04104464FF02003EFF3118883F3DC
:1044FC001188BFF36F8F437BDB064EB22ED18569DB
:10450C0065BB184F214607F12800FFF74DFDBB6A2C
:10451C00FA6AA673834218BF1D46002D38BF0025CA
:10452C00B5B195F90E10B14203DCAA4210D02D683A
:10453C00F6E76A68C4E9005214606C600120FFF76A
:10454C0049FD012088F31188BFF36F8FBDE8F0811E
:10455C00C4E90002FB6A1C60FC62EFE7A673002052
:10456C00F0E700BFEC0E002008B5FFF7B9FF38B13B
:10457C00044B9B68DB7B1BB9BDE8084002F086B995
:10458C0008BD00BFEC0E0020044B002103F12802F3
:10459C00C3E90A220846FFF7C7BC00BFEC0E002097
:1045AC0038B50D4C069AA368C3F884200546FBF772
:1045BC008FFD0022092100F0C5FF034630B102F047
:1045CC0037F9A368D3F8840001F080FDA26895F94F
:1045DC000E00C2F8843038BDEC0E0020F8B5174E32
:1045EC00089AB368C3F884200C460746FBF770FDA5
:1045FC000022092100F0A6FF3246054688B102F0E0
:10460C0017F9B36815E097F90E2063B29A42F6DCFD
:10461C0038462146FFF7A8FFB3682846C3F88450F4
:10462C00F8BD0E2C02DC14F1100FECDA02F000F9DC
:10463C009368D3F8840001F049FD00BFEC0E002014
:10464C00F8B5244C244BA2689A4230D04FF020038A
:10465C00EFF3118583F31188BFF36F8FA16804F119
:10466C002800FFF7A1FCA36AA268E16A834208BF95
:10467C000023002B38BF00232BB392F90E7093F953
:10468C000E60B74203DB8B421DD01B68F4E7596800
:10469C00C2E900310A605A60537B63F07F035373A5
:1046AC000120FFF797FC85F31188BFF36F8F4FF054
:1046BC002003EFF3118083F31188BFF36F8FBDE8F4
:1046CC00F840FCF799BEC2E90001E36A1A60E262A5
:1046DC00E2E700BFEC0E00208002002010B5064C73
:1046EC00049AA368C3F88420FFF7AAFFA3680020EC
:1046FC00C3F8840010BD00BFEC0E0020D0B50F46EF
:10470C00013708BFB0F1FF3F064606D10C4B986845
:10471C00FFF7A8FD4FF0FF30D0BD044602F088F83B
:10472C004EB9FFF78DFF4FF47A7084FB0034D80B31
:10473C0040EA4440F0E73046FFF76AFE0446F2E7F1
:10474C00EC0E002010B5064C049AA368C3F8842024
:10475C00FFF7D4FFA3680022C3F8842010BD00BF6C
:10476C00EC0E002038B50F4C0F4A4FF400410025D9
:10477C00C1FB0045204600232946FBF729FD0446D2
:10478C0002F056F844B9FFF75BFF074884FB00348E
:10479C00D80B40EA444038BD2046FFF739FE0446AA
:1047AC00F3E700BF3F420F0040420F0010B5064C2C
:1047BC00049AA368C3F88420FFF7D4FFA3680022EF
:1047CC00C3F8842010BD00BFEC0E002070B50E4D58
:1047DC00069AAB68C3F884200646FBF779FC0022E6
:1047EC00092100F0AFFE044630B102F021F8AB68AD
:1047FC00D3F8840001F06AFC304602F02DF9AB6866
:10480C002046C3F8844070BDEC0E0020014B986824
:10481C00704700BFEC0E0020024B98680023C0F8D4
:10482C0084307047EC0E0020EFF305833BB9054B49
:10483C009B68D8897F288CBF0020012070470020FE
:10484C00704700BFEC0E0020064A08B59368049927
:10485C00C3F88410FFF7E8FF93680022C3F88420A4
:10486C0008BD00BFEC0E0020F8B5014614461D46ED
:10487C004FF02003EFF3118683F31188BFF36F8F92
:10488C00184F8A68B86800F130039A421DD08842EC
:10489C001BD04B7B1A071FD454EA05031ED0124BB6
:1048AC003031186002F06EF86B1C08BFB4F1FF3F9A
:1048BC0006D0B8680D4922462B46183000F06EFC25
:1048CC003046BDE8F840FCF797BD6FF0200086F34A
:1048DC001188BFF36F8FF8BD0020F8E76FF00F0061
:1048EC00F5E700BFEC0E00201C0F00201B69000038
:1048FC00F8B50B4CA3681646089AC3F884200546F5
:10490C000F4601F09FFF48B93A4633462846FFF759
:10491C00ABFFA3680022C3F88420F8BD0020F8E7A1
:10492C00EC0E002070B50E4D069AAB68C3F88420CF
:10493C00044601F087FF2E4660B9237BDB0706D5C2
:10494C0001F076FFAB68D3F8840001F0BFFB204682
:10495C00FDF720F9B3680020C3F8840070BD00BFD8
:10496C00EC0E002070B50D4616460446FBF7B0FB66
:10497C000122072100F0E6FD38B102F089F8064B60
:10498C009B68D3F8840001F0A1FB324629462046EF
:10499C00BDE8704002F086B8EC0E002038B5064C2D
:1049AC00069DA368C3F88450FFF7DCFFA3680022C0
:1049BC00C3F8842038BD00BFEC0E002038B5044687
:1049CC004FF02003EFF3118583F31188BFF36F8F42
:1049DC0002F005F850B10022C0F8902001F087FFDA
:1049EC0029460648BDE8384001F039BFD4E9023207
:1049FC009A4218BF0133A360F2E700BF47130020AF
:104A0C0070B50E4D069AAB68C3F884200646FBF7CA
:104A1C005FFB0022072100F095FD044630B102F047
:104A2C0037F8AB68D3F8840001F050FB3046FFF741
:104A3C00C5FFAB682046C3F8844070BDEC0E002067
:104A4C0037B514461D464FF02003EFF3118183F365
:104A5C001188BFF36F8F836843B1013B836081F38F
:104A6C001188BFF36F8F002003B030BD54EA0503EB
:104A7C0006D181F31188BFF36F8F6FF00F00F3E74E
:104A8C000246CDE900450248FFF716FDECE700BFF2
:104A9C00471300202DE9F041104DAB681746089ADA
:104AAC00C3F8842088460646FBF712FB0022072138
:104ABC0000F048FD044630B101F0EAFFAB68D3F8D2
:104ACC00840001F003FB3B4642463046FFF7B8FF3B
:104ADC00AB68C3F88440BDE8F08100BFEC0E002049
:104AEC0038B50C4C069AA368C3F884200546FBF72E
:104AFC00EFFA0022072100F025FD30B101F0C8FFCC
:104B0C00A368D3F8840001F0E1FAA268A860C2F8A7
:104B1C00840038BDEC0E002038B50D4C069AA36805
:104B2C00C3F884200546FBF7D3FA0022072100F0D6
:104B3C0009FD034630B101F0ABFFA368D3F8840044
:104B4C0001F0C4FAA268A868C2F8843038BD00BF6E
:104B5C00EC0E0020F8B5104C089AA368C3F884201A
:104B6C000D460746FBF7B4FA4FF0FF32082100F070
:104B7C00E9FC064630B101F0A4FFA368D3F8840029
:104B8C0001F0A4FA002DF6D02946384601F0ACFF0E
:104B9C00A368C3F88460F8BDEC0E0020F8B50F4D87
:104BAC00089AAB68C3F884200F460646FBF790FAC8
:104BBC000022082100F0C6FC044630B101F081FF50
:104BCC00AB68D3F8840001F081FA3946304601F025
:104BDC009EFFAB68C3F88440F8BD00BFEC0E00200C
:104BEC00D3B50C4616461F464FF02003EFF3118148
:104BFC0083F31188BFF36F8FD0E9022393420AD954
:104C0C001A1F53F8043CC260236081F31188BFF370
:104C1C006F8F002008E056EA070307D181F3118853
:104C2C00BFF36F8F6FF00F0002B0D0BD0246CDE91D
:104C3C0000670830FFF740FC10F10B0FF4D0024B6B
:104C4C009B685B692360E4E7EC0E00202DE9F843D8
:104C5C00144C9946A36890460A9AC3F884200E46D1
:104C6C000746FBF735FA0022082100F06BFC30B147
:104C7C0001F027FFA368D3F8840001F027FA012282
:104C8C000421304601F050FA05460028F0D14B467D
:104C9C00424631463846FFF7A3FFA368C3F8845059
:104CAC00BDE8F883EC0E0020D0B416461F4656EA39
:104CBC00070102D1D0BCFFF703BAD0BC01491830B0
:104CCC0000F06CBA1B69000010B5064C049AA3687E
:104CDC00C3F88420FDF7A2F9A3680020C3F8840070
:104CEC0010BD00BFEC0E0020034B9B680022C3F8E4
:104CFC0084206FF046007047EC0E0020034B9B683D
:104D0C000022C3F884206FF046007047EC0E0020A0
:104D1C0070B50E4D069AAB68C3F884200646FBF7B7
:104D2C00D7F90022092100F00DFC044630B101F046
:104D3C001DFFAB68D3F8840001F0C8F93046FFF7CB
:104D4C00BFF9AB682046C3F8844070BDEC0E002060
:104D5C002DE9F04385B004460E46174699460025CA
:104D6C00DDF8408002F0E4F8304602F0E1F8C4F8D7
:104D7C008060E567C4F884502046214602F0CDF8E7
:104D8C0004F13003C4E90C33042363730F9B84F8E0
:104D9C000C80C4E90655A373E573304601F0FBFEA5
:104DAC0058B3B7FA87F34FF00045DD40AF4203D953
:104DBC00C3F1200301259D4001F0D8FE0423236795
:104DCC000E9B02932F1F0D9B019337440C9BE566A2
:104DDC000093C4E919764B46124D3A4631462046AB
:104DEC00FCF7DAFB0023C4E91733AB684BB9384640
:104DFC00C4F8883005B0BDE8F083FD1C25F0030530
:104E0C00DAE7D86F10B1214601F0DBFF18F0080F7C
:104E1C0003D0A868214600F06DFBAB68D3F888304E
:104E2C00E5E700BFEC0E00202DE9F04F87B00E46F1
:104E3C0017469946DDE913A80546FBF749F94FF0EB
:104E4C00FF32092100F07EFB234C30B101F08EFEC5
:104E5C00A368D3F8840001F039F93046FBF738F930
:104E6C004FF0FF320B21834600F06CFB0028EDD194
:104E7C00DBF808301B68BB42E8D318F0040FE5D010
:104E8C0018F00103E2D10AF110021E2ADED8A26842
:104E9C0092F90E209245D9DBCDE90483129B029343
:104EAC00119B0193109B0093CDF80CA04B463A46F6
:104EBC0031462846FFF74CFFDDE91634013408BFB4
:104ECC00B3F1FF3F04D0DDE916232846FFF7ECFED3
:104EDC00284607B0BDE8F08FEC0E00202DE9F04716
:104EEC00194E88B09A46119CB3689146129AC3F831
:104EFC0084200746884600221421204601F014F92C
:104F0C00054630B101F032FEB368D3F8840001F0ED
:104F1C00DDF8D4E90423CDE90623E3680493A36800
:104F2C0003936368029323680193109B00934A4692
:104F3C00534641463846FFF777FFB368C3F88450B1
:104F4C0008B0BDE8F08700BFEC0E00202DE9F04B57
:104F5C002E4F2F4E86B03D46BE4206F1300412D382
:104F6C002C4C2D4FBC4235D3FFF70AF8284C4FF48C
:104F7C00004840F2E7360027AC422DD306B0BDE81E
:104F8C00F04BFFF74BB854F8043C059354F8103C25
:104F9C00049354F8143C039354F8183C029354F8BB
:104FAC001C3C019354F8203C009354E90A2354E927
:104FBC000C01FFF7CDFE54F8303CDE652646CBE7FE
:104FCC00216801F0AAFF6368985904360028F7D1CC
:104FDC000834C7E70026F6E7616A4B1C13D021EAB8
:104FEC00E171B346BC46C8FB01BC4FF47A72002396
:104FFC0058466146FBF7ECF8D4F8009002460B4695
:10500C004846FFF751FE3034B6E700BF603400204D
:10501C0060340020B0720000B072000010B50C4C6F
:10502C00049AA368C3F88420FBF752F800220921E4
:10503C0000F088FA30B101F099FDA368D3F8840030
:10504C0001F044F8A368C3F884006FF0460010BD6B
:10505C00EC0E002070B50E4D069AAB68C3F8842098
:10506C000646FBF735F80022092100F06BFA0446DE
:10507C0030B101F07BFDAB68D3F8840001F026F869
:10508C0006F1180001F0CCFDAB68C3F8844070BD8C
:10509C00EC0E002070B50E4D069AAB68C3F8842058
:1050AC000646FBF715F80022092100F04BFA0446DE
:1050BC0030B101F05BFDAB68D3F8840001F006F869
:1050CC0006F1180000F0F2F8AB68C3F8844070BD2C
:1050DC00EC0E0020034B1B680BB9FCF743B9002006
:1050EC00704700BF280F002030B5036868B10A4A2A
:1050FC005268904209D043B1D3E90421D0E9044568
:10510C00121945EB0101C3E90421426813605A608E
:10511C000023C0E9003330BD183400200A4B10B511
:10512C001C689C4208BF0024FFF7D4FF44B12369DC
:10513C00181A064B1B6913B19842A8BF184610BD2C
:10514C006FF00040F5E700BF18340020EC0E002093
:10515C00036870B5EBB1104A1368934216D05168CE
:10516C00002400253BB9FFF7B5FF241A65EBE07569
:10517C002046294670BDD3E90426A41846EB050544
:10518C008342F0D08B42EED01B68EBE70024002565
:10519C00E9E700240025EBE7183400202DE9F74F50
:1051AC00019119464B1C08BFB2F1FF3F82466CD0EF
:1051BC00541C6FF0010341F100054FF0FF3BB3EBC2
:1051CC0004086BEB0509B8F1000F79F100030FDB54
:1051DC00FFF780FF334AD2E9001C6FF001035B1A22
:1051EC006BEB0C021E1B62EB0507341A67EBE075C8
:1051FC00019BCAF808304FF02003EFF3118683F3BC
:10520C001188BFF36F8FFFF765FF012C75F1000359
:10521C00254BB8BF01241A68B8BF0025241845EBEC
:10522C00E0759A42CAE9044501D05F6852B95A68E0
:10523C00CAF804205A68CAF80030C2F800A0C3F8B3
:10524C0004A014E0D2E90489DAE904454D4508BF0D
:10525C0044451DD2B8EB040069EB0501C2E9040119
:10526C005168CAE90021C1F800A0C2F804A01A686C
:10527C009A4206D0924504D1FFF750FF0021FCF76B
:10528C0005F886F31188BFF36F8F03B0BDE8F08F7C
:10529C00B4EB080065EB0901BA42CAE90401C6D0B7
:1052AC001268C3E7C00300201834002010B54FF07B
:1052BC002003EFF3118483F31188BFF36F8FFFF793
:1052CC0047FF054AD2E90032C01842EB010184F3D2
:1052DC001188BFF36F8F10BDC00300202DE9F74F6D
:1052EC000646FEF789FF4FF02003EFF3118483F39A
:1052FC001188BFF36F8F2D4DDFF8B4A0DFF8B4B079
:10530C002E605146D5F800C0DBF800006246D3177A
:10531C005845CDE90023DAE900890ED068B1D0E90F
:10532C000467BB4208BFB4451ED2009BB6EB030C0E
:10533C00019B67EB0306C0E904C6009B13EB080254
:10534C00019B4FF0000643EB0903C1E900232E60DB
:10535C00FFF7E4FE3146FBF799FF84F31188BFF3A6
:10536C006F8F03B0BDE8F08F18EB06084FF000020A
:10537C004FF0000349EBE679C0E90423ACEB0606D9
:10538C00CAE900892E60FFF7AFFE84F31188BFF3E2
:10539C006F8F836898474FF02003EFF3118483F3EA
:1053AC001188BFF36F8F0249ACE700BF280F0020B4
:1053BC00C00300201834002010B54FF02003EFF389
:1053CC00118483F31188BFF36F8FFBF7CBFF064B70
:1053DC00D3E90023121843F1000384F31188BFF3BF
:1053EC006F8F1046194610BDC0030020F8B5104D44
:1053FC00089AAB68C3F884200446FFF7DDFF01224E
:10540C0007460E462046082100F08EFE2A4648B17B
:10541C00EFF305830BB9EFF314839368D3F884008F
:10542C0000F054FEAA68C4E90076C2F88400F8BD06
:10543C00EC0E002073B50E4C089AA3680191C3F8CA
:10544C008420CEB201220421054600F06DFE48B145
:10545C0001F04DFC6FF00C00A3680022C3F884200F
:10546C0002B070BD3146284601F04BFCF4E700BF9A
:10547C00EC0E00202DE9F0410F4C1F46A36890461E
:10548C00089AC3F884200E4601220421054600F038
:10549C004BFE48B101F02BFC6FF00C00A36800220E
:1054AC00C3F88420BDE8F08142463B46314628468D
:1054BC0001F054FCF2E700BFEC0E002008B500F040
:1054CC002EFE024B1870002008BD00BF47130020B1
:1054DC0038B5064C064DAC4201D3002038BD62688D
:1054EC0054F8080B002100F06CFEF4E7B0720000D9
:1054FC00B072000030B585B00D46044601F0C4FC16
:10550C000190284601F0C0FC019B0133CDE9020457
:10551C0005D0013003D0034801A9FAF7F3FD05B01B
:10552C0030BD00BF596E000008B501F0ADFC431C46
:10553C00014604D0BDE808400148FAF7E3BD08BDB8
:10554C00916E000038B51546044668B311B18379E5
:10555C008B4229D1E3799A070AD5002D1CD026DA83
:10556C00E37913F0010F0CBF00206FF02F001AE04D
:10557C00104B986801F088FC431C14D04209231D81
:10558C0000F01F0053F82220012303FA00F0104210
:10559C00E3D14FF0FF3006E0E37913F0010F14BFB5
:1055AC0000206FF0150038BD6FF00800FBE70020FD
:1055BC00F9E700BFEC0E002038B5064C064DAC42A6
:1055CC0001D3002038BDD4E90112204601F0F8FCCB
:1055DC001434F4E76034002074340020F8B5124D14
:1055EC00089AAB680746C3F8842008460E46FAF7BB
:1055FC006FFD01220921FFF7A5FF044630B101F030
:10560C0064FDAB68D3F8840000F060FD384601F00F
:10561C0066FD0028F3D0314601F051FCAB68204602
:10562C00C3F88440F8BD00BFEC0E002010B50B4C45
:10563C00049AA368C3F8842001F051FD30B901F03D
:10564C0044FDA368D3F8840000F040FDA16801F08C
:10565C004AFCA3680020C3F8840010BDEC0E0020A7
:10566C00024B9B680020C3F884007047EC0E0020AE
:10567C00EFF3058323B9EFF3148000F001007047BA
:10568C00002070472DE948410246FFF7F1FF20B199
:10569C001046882603DFBDE84881BDE84841104626
:1056AC00FFF72CB82DE948410246FFF7E1FF20B186
:1056BC0010469A2603DFBDE84881BDE848411046F4
:1056CC00FEF7D0BD2DE9F341C7688DF807100446ED
:1056DC000D46FFF7CDFF80B12046DDF8071040F2F4
:1056EC000162442603DF28B9012303FA05F53B6860
:1056FC002B433B6002B0BDE8F081A3689DF8071016
:10570C001B6840F2016220469847ECE72DE9F04116
:10571C008EB016460546DDE91472FFF7A9FF88B175
:10572C0000240523CDE90A34CDE90C722846334612
:10573C00CDE908444FF4007208AD8E2603DF0EB09D
:10574C00BDE8F0810523CDE90203CDE90672CDE970
:10575C000000049033464FF40072284601F022FA00
:10576C00EDE72DE948410246FFF782FF20B11046D4
:10577C00942603DFBDE84881BDE84841104601F09E
:10578C0007BA2DE950410246FFF772FF20B11046CF
:10579C00492603DFBDE850819368BDE85041DB68C2
:1057AC00104618472DE950410246FFF761FF20B122
:1057BC001046472603DFBDE850819368BDE8504191
:1057CC001B69104618472DE948410246FFF750FF68
:1057DC0020B110465D2603DFBDE84881BDE8484195
:1057EC00104601F0D3B9034658B1426802F00302E7
:1057FC00012A03D0032A04D1026812B10020986058
:10580C0070476FF0150070474268816002F0030228
:10581C00032A4FF0000203460CBF006810465A6082
:10582C007047EFF3058323B9EFF3148000F0010008
:10583C00704700207047002070472DE950414168A7
:10584C00044600F10802FFF7ECFF30B110468C263D
:10585C0003DF00236360BDE850811046FBF73CF981
:10586C00F7E70B6801330B604B685A1C0B4410B5FF
:10587C00202A04464A6008461C7201D1FFF7DDFF5E
:10588C00204610BD0FB407B504A951F8040B0191C3
:10589C00FBF730F903B05DF804EB04B07047038BF1
:1058AC0013F0070305D10368002B0CBF0020032065
:1058BC007047022B05D1438B002B14BF0020042012
:1058CC007047012B05D10368002B0CBF002005206D
:1058DC0070470020704710B50C4640B139B1081D17
:1058EC00FFF781FF28B9A36833F0030301D06FF0F1
:1058FC00150010BD10B44FF02004EFF3118284F3A7
:10590C001188BFF36F8F416110BC0121FBF738B9CF
:10591C0038B50C46054658B151B10B6843B14B68CC
:10592C0033B11C22002100F04CFC2C61002038BD4E
:10593C006FF01500FBE72DE9F04104460D46FFF72B
:10594C00CAFF061E36DB4FF02003EFF3118283F300
:10595C001188BFF36F8F638B218B4FF6FF708342DF
:10596C0001F0070734D0022F14D1013363833E4674
:10597C00012382F31188BFF36F8FDBB10021281D47
:10598C00FFF742FF8046A8B100233A46294620463D
:10599C00C0470FE08B0701D0062F0ED100232B60E0
:1059AC00636893B9C4E900553E4667B902212046A5
:1059BC00FBF7E6F83046BDE8F081052F0CBF6FF021
:1059CC0022066FF004060023D3E71D606560EBE749
:1059DC006FF00A06F7E7044608B5084611461A4662
:1059EC00A047EFF3058373B9EFF31483DA070AD5F5
:1059FC005E2603DFEFF3058343B9EFF31483DB0774
:105A0C0004D58D2603DFFEF701FFF3E7FCF7C2F8A0
:105A1C00F9E7836800EBC101B3F5004F2CBF51F8D7
:105A2C00220031F81200704700EBC1018068B0F51C
:105A3C00004F2CBF41F8223021F81230704708B5C6
:105A4C000122FFF7E6FF400808BD8368B3F5004F5D
:105A5C0000EBC10108D34B681AB143F001034B6052
:105A6C00704723F00103FAE74B881AB143F00103A6
:105A7C004B80704723F00103FAE753000122FFF734
:105A8C00D3BF80680131B0F5004F2CBF022001203C
:105A9C00081AB0FA80F0C0F11F0070472DE9F041F0
:105AAC00164604460F46FFF7CAFF31460546204608
:105ABC00FFF7C5FF05442A4639462046FFF7DDFFB0
:105ACC0031462046FFF7BBFF2B46311800222046FB
