:10000000984A0020615E00005BEC0100915E0000F8
:10001000915E0000915E0000915E00000000000013
:10002000000000000000000000000000055C00006F
:10003000915E000000000000BD5B0000ABDA010033
:10004000215E0000B1770100215E0000215E00000A
:10005000215E0000215E0000215E0000215E0000A4
:10006000215E0000215E0000215E0000215E000094
:10007000215E0000215E0000215E0000215E000084
:10008000215E0000215E0000215E0000215E000074
:10009000215E0000215E0000215E0000215E000064
:1000A000215E0000215E0000215E0000215E000054
:1000B000215E0000215E0000215E0000215E000044
:1000C000215E0000215E0000215E0000215E000034
:0C00D000215E0000215E0000215E0000A7
:0400DC00FFFFFFFF24
:1000E00053B94AB9002908BF00281CBF4FF0FF319F
:1000F0004FF0FF3000F06EB9ADF1080C6DE904CEA1
:1001000000F006F8DDF804E0DDE9022304B07047F2
:100110002DE9F047089D0E4604468C46002B40F022
:1001200081808A42174645D9B2FA82F24AB1C2F1B9
:10013000200106FA02F320FA01F1974041EA030C8C
:1001400094404FEA174E230CBCFBFEF6B9B20EFBEF
:1001500016CC43EA0C4306FB01F0984209D9FB1880
:1001600006F1FF3C80F01581984240F21281023E78
:100170003B441B1AA4B2B3FBFEF00EFB103344EA5F
:10018000034400FB01F1A14209D93C1900F1FF33FE
:1001900080F00181A14240F2FE8002383C44641AA2
:1001A00040EA064000211DB1D4400023C5E90043C8
:1001B000BDE8F08702B9FFDEB2FA82F2002A4FD121
:1001C000CB1B4FEA174E1FFA87F80121B3FBFEFC49
:1001D000260C0EFB1C3346EA034608FB0CF3B34225
:1001E00007D9BE190CF1FF3002D2B34200F2EB8006
:1001F0008446F61AA3B2B6FBFEF00EFB106643EA85
:10020000064408FB00F8A04507D93C1900F1FF336C
:1002100002D2A04500F2D2801846A4EB080440EABE
:100220000C40C0E78B4208D9002D00F0AF800021C0
:10023000C5E900060846BDE8F087B3FA83F1002956
:1002400049D1B34202D3824200F2BB80841A66EBEA
:10025000030301209C46002DAAD0C5E9004CA7E766
:10026000C2F120039740D8409140DE404FEA174E3C
:1002700008434FEA104CB6FBFEF11FFA87F80EFB5D
:1002800011664CEA064601FB08F3B34204FA02F495
:1002900009D9BE1901F1FF3C80F08E80B34240F2D3
:1002A0008B8002393E44F31A86B2B3FBFEF00EFB9C
:1002B000103346EA034600FB08F3B34207D9BE19E0
:1002C00000F1FF3C74D2B34272D902383E44F31AB3
:1002D00040EA01417AE7C1F1200703FA01F422FA6A
:1002E00007F31C4320FA07F906FA01F34FEA144C0E
:1002F000FE4049EA03094FEA1943B6FBFCFE1FFA28
:1003000084F80CFB1E6643EA06460EFB08FAB2456B
:1003100002FA01F200FA01F308D9A6190EF1FF3032
:1003200048D2B24546D9AEF1020E2644A6EB0A06E3
:100330001FFA89F9B6FBFCF00CFB106649EA064689
:1003400000FB08F8B04507D9A61900F1FF3C2DD2F3
:10035000B0452BD90238264440EA0E40A6EB0806E9
:10036000A0FB02894E45C446CE4618D315D075B3BE
:10037000B3EB0C0266EB0E0606FA07F722FA01F35E
:10038000CE401F43C5E90076002111E729462846E3
:100390000EE76646EDE6184601E74345E7D2B8EBBF
:1003A000020C69EB04040138A646E0E76046D3E797
:1003B00060468CE78646B9E7614674E702383C44FC
:1003C0002BE7084647E7ACF1020C3E4411E729460B
:1003D000EEE600BF704700BF70B5444DD5F804315C
:1003E000996811F0010188B01FD103AA40F60340BB
:1003F00007F006FB0446002874D1039B9B681B781A
:1004000083B905F1980318461EF059FEBFF35B8FC0
:1004100000F0050053E8002F43E800010029F9D15E
:10042000BFF35B8F039819F063FE03AA002141F22A
:10043000030007F0E5FA0446002853D1039B2C483B
:100440009968082201311EF0D4FC039819F050FE7F
:10045000214603AA41F2010007F0D2FA044600281F
:1004600040D1039883685A7885F83820D9789A78EB
:1004700042EA01226A871A7985F83920197ADA79ED
:1004800042EA0122AA875A799B7942EA0323EB8741
:1004900019F02EFE214603AA41F2020007F0B0FA3D
:1004A0000446F8B9039B13489968402201311EF0B5
:1004B000A0FC95F86A30039843F0060385F86A308B
:1004C00019F016FE95F844305A061BD40A4B0B4916
:1004D0000B48C91AC908890141F001011CF0C7FC89
:1004E0006FF01204204608B070BD00BF000000206D
:1004F0004000002048000020AC1A02006C1B0200E3
:100500008D470200214603AA42F2030007F078FA61
:1005100004460028E6D1039BB348996808220131BC
:100520001EF067FC039819F0E3FD214603AA42F28E
:10053000020007F065FA04460028D3D1039B9B68AC
:10054000B3F80120A5F8B02091B221B1DA78A7481C
:10055000114620F0EEFE039819F0CAFD95F84460AC
:1005600016F0200600F0198195F864301B0711D5AC
:1005700003AA002142F21C0007F042FA04460028B8
:10058000B0D10398836853F8012F5B68C5E92A232B
:1005900019F0AEFD95F8A0309E0624D502A90DF104
:1005A000060007F0DDFB044600289BD1042142F23F
:1005B000240007F0C9F80646002800F0F580042161
:1005C000083020F0D1FABDF806300380BDF80830BD
:1005D00043802246314642F2240007F011FA0446D5
:1005E00000287FF47FAF95F8A0305C062CD502215F
:1005F00042F22E0007F0A8F80446002800F0D4804C
:100600000221083020F0B0FA6FF07B03037003235F
:1006100043702146002242F22E0007F0F1F9044611
:1006200000287FF45FAF014603AA42F22A0007F0D8
:10063000E7F9044600287FF455AF039883685B7898
:1006400085F8CC3019F054FD082142F2010007F082
:100650007BF80446002800F0A7800821084420F019
:1006600083FA95F8A01011F0400F024640F20223E1
:1006700008BF032388074CBF43F02C0043F00C0055
:100680008B0695F8A13048BF40F0400013F0090FE9
:1006900095F86A3018BF40F4006003F00603CE07F7
:1006A00048BF40F01000062B08BF40F4C070002186
:1006B0001EF044FD2146002242F2010007F0A0F99D
:1006C000044600287FF40EAF95F8443098061ED4F7
:1006D000B5F8B010D9B903AA41F2050007F090F9B6
:1006E000044600287FF4FEAEB5F8B03063B9039B32
:1006F0009B685A78997842EA0122A5F8B0209A8836
:100700003A48114620F015FE039819F0F1FC082133
:1007100040F6014007F018F80446002844D00821AC
:10072000084420F021FA95F8A030D907024650D5A8
:100730002BA1D1E900011EF001FD2146002240F667
:10074000014007F05DF9044600287FF4CBAE014676
:1007500002AA4FF6014007F053F9254E254BF61A31
:10076000F608B601002851D0234846F002011CF0DB
:100770007EFB09F0B5FC044600287FF4B3AE1F49A8
:100780001F4820F059FEEB79002B40F0AC801D484B
:1007900046F003011CF06BFBA4E6022140F66D401D
:1007A00006F0D2FF044610B96FF036049AE6022133
:1007B000083020F0D9F901230370467021463246F3
:1007C00040F66D4007F01CF9044600283FF4CCAE1B
:1007D00088E60D484FF00051ADE700BFAFF3008051
:1007E0009088000200800020A0000020B4000020BB
:1007F0006C1B0200AC1A0200B1470200157D00001C
:10080000180100208548020010880002029B394828
:100810009C68B4F80120032A96BF3749374951F83C
:10082000221046F003031CF043FBB4F80110B4F8A7
:100830000320022946F003032ED1032A2CD8304985
:1008400051F822102F481CF033FB62792E48032AFE
:1008500096BF2E49294951F82210CDE90312A279F9
:100860000592B4F807200692D4F80920079246F0C2
:100870000303052203A91CF050FB029819F038FC71
:1008800002AA00214FF6024007F0BAF8044628B148
:100890001F4846F002016AE71849D3E7029B1D484A
:1008A0009968022201311EF0A4FA029819F020FC86
:1008B00095F889305B077FF55CAF02AA21464FF6B9
:1008C000034007F09DF818B1134846F002014EE7C7
:1008D000029B12489968012211441EF08AFA02987C
:1008E00019F006FC45E704210D481EF0F7FB07F060
:1008F0006DFFF7E5D54702003C230200A14102004D
:1009000004230200EE47020006480200742302009E
:1009100033480200890000205C4802008800002063
:1009200098000020000000002DE9F04FB14C94F831
:10093000D6608FB006F00106002800F0CA81CEBB59
:1009400094F87C7094F8290094F82C204FF0270933
:100950002D2309FB074700F0030019FB0239FF2391
:1009600084F82A3016F078F994F8D600410707F198
:100970007D0704EB090800F1268114F809003146CF
:10098000C0F380100FF064FC06220146054608F112
:1009900002001EF02EFA29460622B81C1EF029FA83
:1009A00014F809305A060AD413F00E0F40F0E38011
:1009B000636A93B10C2630460FB0BDE8F08F062174
:1009C00008F102000EF0C6F8002800F02F8214F89B
:1009D000093013F00E0FEBD0CDE011F017FF824677
:1009E000002800F04A8211F01DFF8346002800F025
:1009F0005D8213F0FFF80546002800F054824FF6A0
:100A0000FF73806FAB8505F11C030B93002800F08A
:100A1000308205F16C0205F168010EF0A7F8B5F817
:100A20006420754995F83DE095F8DC0095F840C0E4
:100A3000C5F830A10A4042F4887295F8261142F0B8
:100A400001020EF03F0E6EF07F0E20F0030021F049
:100A50000301A5F86420002262F3000C4FF01B1381
:100A600085F83DE085F8DC0085F826116348644987
:100A700085F83F204FF0060EC5E913226A866A63A7
:100A80006A65A5F8C820A5F8CC20A5F8E82085F867
:100A9000EA20C5F80021A5F80421A5F81821C5F819
:100AA0002021A5F8242185F82F21AA67EB6585F878
:100AB00040C02866A5F8C4E0C5F81C11A5F87C2044
:100AC00095F872E195F89AC195F87E0095F8521163
:100AD000A5F8502162F3C30C62F3041E21F0070154
:100AE00020F01F00A5F87021A5F89821A5F8A421F1
:100AF00085F89AC185F872E185F8521185F87E0073
:100B000013F0AAFBA5F8D60013F0ACFBD5F8A8317A
:100B10003C49A5F8D8001940C5F8A81113F0A8FB66
:100B200095F8AC1160F3020185F8AC1113F0A6FB47
:100B3000C4E933AB0B9B636295F8AC1195F820C008
:100B4000ED610301002203F0700321F078010B43F3
:100B500062F3000CC5E96E22C5E96C22C5E90522E5
:100B6000C5F8C02185F8AC3185F820C017F03EFAF1
:100B7000002840F0678194F828300121C3F3420334
:100B80000DA88DF834300EF069F9002800F0968039
:100B900014F8093003F00F03022B00F1FF3233D0B9
:100BA000012B00F0538178781030C100002B00F049
:100BB0003F81062B00F07F814FF4DA704FF41B71F8
:100BC00000FB02102BE0C0F3C000324604F1D70155
:100BD00016F01AFAFF2884F82A0002D0304616F0E0
:100BE000DBF84146034816F051F80248394616F042
:100BF0004DF8D5E68C1F002080F8FFFF4801480122
:100C00007F4101000000FFF698F801301033DB004F
:100C100000FB03F000F5AA70642303FB020094F8C4
:100C20002070B14AE4610025312365F30007A0FB81
:100C30000201236084F82070A9A3D3E90023C4E94A
:100C40000555C4E90155FFF74BFAB4F8D480E060CC
:100C50000FF0F8FA0746B8F1000F08D114F8095060
:100C600005F00F05A5F10105B5FA85F56D0994F8B4
:100C70002820E36865F3000212F0010584F82820BB
:100C800000F08580DFF874929849049300200225D3
:100C90000DF1300801930591CDE907980321CDE9C5
:100CA000020006942A4600903B460C950FF018FA75
:100CB000414611F065FE002800F0A580636A002B14
:100CC0003FF478AE12F06EF90C2630460FB0BDE856
:100CD000F08F002E3FF46EAE204611F05FFE84428E
:100CE0000CD0834A8349844840F2CC631BF069FDF1
:100CF000404080F311884FF0030002DF94F8283061
:100D0000D8070DAD0ED502220D9203217B4B009525
:100D1000012200200FF050FA294611F031FE002880
:100D200040F0D38002220321744B009500200D92E5
:100D30000FF042FA294611F023FE002840F09F8070
:100D40006F4811F067FE002840F085806D4811F073
:100D500031FE84420CD0664A6649674840F2EE6331
:100D60001BF02FFD404080F311884FF0030002DF9D
:100D7000636A0BB112F016F994F8D63000266FF3BF
:100D80000003304684F8D6300FB0BDE8F08F5E48DF
:100D90005E4ADFF868E1DFF854C10694A8FB000161
:100DA0004FF0910909FB081103F24718C2F80080BF
:100DB0004FF00209049309920DF1300848A3D3E9DA
:100DC00000234FF6FF7ACDE907E80295CDF8309081
:100DD000CDF814C0CDF80CA0FFF782F94A46CDE952
:100DE00000503B46284603210FF024F9414611F0FC
:100DF000C7FD00287FF462AF94F8D63043F00103BA
:100E000084F8D630D7E5424905914AF2D8320092AB
:100E1000CDE90798CDE90300CDE9010006943B46F2
:100E2000012203210C950FF05BF9DFE71226C2E5E2
:100E300098F801001030C00000F54D73194400F51A
:100E40009A70BDE612F0AEF80326B4E54FF4F270E6
:100E50004FF47F71B4E6264A2E49274840F2EB63EF
:100E60001BF0AFFC404080F311884FF0030002DF1D
:100E70006CE705F17000A867CBE507269BE52148E4
:100E800011F08CFD84423FF495AD40F2E563184AC1
:100E9000184919481BF095FC404080F311884FF029
:100EA000030002DF86E5584611F0C2FC504611F0FF
:100EB000B3FC07267FE598F801301033DB0003F51B
:100EC0004D70014403F59A707AE60E4811F066FD04
:100ED00084423FF46FAD40F2D763D8E7AFF30080B0
:100EE0008D49FD1A0700000000CA9A3B192D010028
:100EF000FC290200EC2A0200782602007529010074
:100F0000A81F00208C1F0020002AE7846C200020EE
:100F1000212F0100002902002DE9F04F0446808DA9
:100F20004FF6FF7398428BB00E46154600F089804D
:100F300094F8E92094F8E80082420ED0801A00F07C
:100F4000030002281BD094F82D2194F82C319A42EA
:100F500030D100200BB0BDE8F08F94F852C11CF0E6
:100F60000108F0D194F8051194F804318B4200F097
:100F70009083901E012384F8E90084F8EA3094F805
:100F8000983194F899219A4206D094F89A2102F067
:100F90000601042900F0C18394F8EA707B1E052B3A
:100FA00000F26983DFE813F0700000037C0267033E
:100FB0002A03DE0130480DF083FD58B394F82C313C
:100FC00084F82D310379022243F003034271037147
:100FD000C271D4F8B03194F82E2102722BB394F878
:100FE0005221910721D494F8AB21D2071DD4D4F813
:100FF000BC21934204BF1A68C4F8BC21D4F8B421C0
:10100000B2B91A68026018600368C4E96D000BB9D0
:10101000C4F8C001B4F8CC0000289AD1B4F8C630A6
:10102000012B1CD9A4F8CC3093E7D4F8B421E2B159
:10103000D4F8B8311A6802601860C4F8B8010368BF
:10104000E5E70E4A0E490F4840F2F3231BF0B9FBC7
:10105000404080F311884FF0030002DF68E701335E
:10106000A4F8CC300BB0BDE8F08F0360C4E96C008D
:10107000C4F8B801CBE700BFD0220020082B020043
:10108000702C020078260200A94F3B68002B00F06C
:10109000F384B4F83680628E94F806319044A84404
:1010A00013F003031FFA88F840F09083B4F8EC9033
:1010B000A8EB090210041FFA82FB3FF544AF94F835
:1010C000701194F8712194F8040184F805018A42A2
:1010D00094F8E80084F8E90009D094F8722102F04D
:1010E0000702052A04BF84F87111A4F8CC303B68CC
:1010F0009C4204BF00233B60D4F80071002F00F035
:1011000077853868002800F07385B4F80831E28DDF
:101110004168C4F800119342B4F80A11B4F80CC144
:1011200000F0B686A28DFA804FF00C0E0022FB83F1
:101130003984A7F822C087F804E03A77394611F0DD
:101140007DFB11F085FB2368002B09DAD4E901123D
:1011500023F000438A422CBFB61876182360F61A93
:10116000E38DB4F8087113FB0BF39BB2B3FBF7F1FB
:1011700017FB01F292B293421FFA81FA80F02685A2
:10118000D31A6C4840F2E24202FB03F3A3FB0001D6
:1011900065A3D3E90023FEF7A3FF20F07F400644B8
:1011A000638EA9EB08081D4494F93D30D044A8444F
:1011B00040F2E249002BA4F8328009FB07F7C0F2A5
:1011C00027855D4A5D495E4840F624131BF0F9FA15
:1011D000404080F311884FF0030002DF4FF0000819
:1011E000BA46B4F80C21B4F80A11564B5648218679
:1011F00042F2107C0CFB02723B443844B3FBF7F321
:1012000001F1060C013AB2FBF7F2B0FBF7F798B226
:10121000A4F8C6206045B4F80821A4F8D200A4F8C8
:10122000CA70E28502DD401A063880B294F80631B1
:10123000A4F8CE00590744BF0023A4F8C830022107
:10124000012018F0D3FC00220221074601200DF0F6
:10125000DBFC3E494FF4E47220460DF067FCC21CF3
:101260005FFA82F93A4B00944A46012100200EF0C1
:10127000A3FF30F002030CD02F4A3649304840F625
:1012800053131BF09EFA404080F311884FF0030087
:1012900002DF284BAAFB03AB504623A3D3E900236C
:1012A0005946FEF71DFF2C4AE368049320F07F4562
:1012B000A5FB0223072000FB0533BAEB02006BEB12
:1012C0000301DFF898E0DFF898C0089406944FF423
:1012D0007A7200240023CDF81CE0CDF814C00394EA
:1012E000FEF7FEFE3346CDE90150CDF800802046E2
:1012F0004A4601210EF0F4FE30F002030CD00E4AF3
:1013000014490F4840F66D131BF05BFA404080F320
:1013100011884FF0030002DF002F40F0D2856FF0FC
:10132000470017E6AFF300808D49FD1A0700000063
:101330005422002000CA9A3B082B0200E826020033
:10134000782602007FC3C901FF5962028C20002069
:10135000C5370100E82B02008D49FD1A6D370100E9
:10136000F1650100628EE38E94F8EC1013441D4485
:10137000CA07ADB28C4600F19782B4F8EE30ED1A90
:1013800028043FF5E0AD94F8643094F8658094F853
:10139000E820B4F8627084F8E92011F01C0F03F023
:1013A000070908F0070840F09585B4F8606011F06F
:1013B000E00F08D094F865204B0963F3020284F82B
:1013C00065204FF4A47794F8AC3194F86420D4F8F5
:1013D0000051C3F3C00363F3C30284F86420002DFB
:1013E00000F08D852868002800F0898594F8643025
:1013F00094F865204168C4F800111CF0020FC3F393
:101400000201C2F3020E03F0070302F0070202D149
:10141000994500F04B87A38DEB801022002369775C
:1014200085F81EE02A712B77294611F007FAD4F8C7
:101430000051002D00F0D4852868002800F0D085E8
:10144000B4F860304268C4F80021B3420AD3B3F55F
:10145000A47F07D8B4F86230BB4203D3B3F5A47FAE
:1014600040F23887A4F86060A4F862702B7FA28DE8
:10147000EA8043F003030221092229712B776A775E
:10148000B4F85E30B4F85C202B841523AA84EB7783
:1014900029466F84EE8411F0D1F911F0D9F952E5A3
:1014A00094F8EC3013F0030500F08B8294F93D3092
:1014B000002BBFF648AD012D7FF445ADBF480DF0C0
:1014C000FFFA054600283FF43EAD03790D2243F0B4
:1014D0000303042700F1080603714271C7710C2150
:1014E000304616F083FB3146082204F1F6001DF069
:1014F00080FC3A4605F1100104F19C001DF079FCD6
:10150000D4F8B031002B00F0AD8694F85221970743
:1015100000F1A88694F8AB21D60700F1A386D4F891
:10152000BC21934204BF1A68C4F8BC21D4F8B4218A
:10153000002A01F0F980D4F8B8311A682A601D60D9
:10154000C4F8B8512B68002B01F0848011F0A4F985
:10155000054600283FF4F7AC2B7FA28DEA8043F0CC
:1015600003030226172103222B776977EA7704F217
:10157000551108222E7105F120001DF03AFC94F857
:10158000533185F8283094F8543185F8293028688B
:10159000294611F053F911F05BF994F8EC3066F339
:1015A000010384F8EC30CEE4E38E618E94F8EC20F5
:1015B0000B441D44D207ADB200F1D181B4F8F23032
:1015C000ED1A2B043FF5BFAC94F8E83084F8E9300D
:1015D00004F13805052204F1ED0128461DF009FC4F
:1015E000284605210DF03AFC94F83D30012260F3C5
:1015F000050384F83D3084F8C421A4E46F480DF05D
:101600005FFA00283FF49FAC94F8E83084F8E930A2
:10161000012302794371D4F8B03142F00302122160
:101620000271C171002B00F0C68294F85221950717
:1016300000F1C18294F8AB21D10700F1BC82D4F84B
:10164000BC21934204BF1A68C4F8BC21D4F8B42169
:10165000002A01F01780D4F8B8311A6802601860C7
:10166000C4F8B8010368002B00F0CA84B4F8CA308B
:10167000A4F8CC3067E4524A5249534840F27933D7
:101680001BF09FF8404080F311884FF0030002DF09
:1016900059E494F8193194F81871BB4254D194F874
:1016A000253194F82471BB4200F00483DB1BD8077A
:1016B0007FF549AC94F82631D90740F104879807A3
:1016C00040F1F28611F0E8F80146002870D094F855
:1016D000243184F82531037FA28DC28043F00303B7
:1016E0000B77022006220C2308714A77CB77B4F8D7
:1016F000282194F82701B4F82A31A1F8233081F881
:101700002000A1F82120086811F098F811F0A0F845
:1017100094F8E80094F8E92010E402F007010629A3
:1017200001F23B8101A050F821F000BF0D1B000029
:10173000990F0000990F0000990F00007F1A000018
:101740007F1A0000990F0000DB1BD9077FF5FBAB68
:1017500094F8DC1011F0010700F0E38311F09CF81D
:10176000074628B394F8183184F81931037FA28D05
:10177000C28043F003030922022041463B773871BF
:101780007A77FA7707F1200008221DF05DFBD4F884
:10179000203187F82030C3F307221B0C87F8212063
:1017A00087F822303946086811F048F811F050F8EF
:1017B00094F8E80094F8E920FFF7C0BBD02200209D
:1017C000082B0200E826020078260200012011F012
:1017D00045F8064600283FF4B6ABCA480DF070F94C
:1017E000054600283FF4AFAB11F056F8238E32685F
:1017F00094F806014344063399B2D4F8003153609B
:101800002A79C4F800616FF301000C2384F8060103
:10181000A4F8EC1042F003026B71D4F81031D4F844
:10182000B001B94E2A710022EA71A6FB032394F895
:101830001461B4F808212E72C3F38F23B4F80A613F
:10184000A5F80B20B4F80C21A5F80F20A5F80D6021
:10185000A5F81110A5F80930002800F0458394F888
:1018600052319F0700F1408394F8AB31DE0700F15D
:101870003B83D4F8BC31984204BF0368C4F8BC3140
:10188000D4F8B431002B00F01B87D4F8B8311A68B3
:101890002A601D60C4F8B851286800287FF453AB53
:1018A000C4F8C051FFF74FBB022010F0D7FF074626
:1018B00000283FF448AB93480DF002F90646002893
:1018C0003FF441AB94F8EC306FF30003C3F38200B4
:1018D000C3F3421250EA020884F8EC30DBB240F065
:1018E000C58594F8E820A4F8EE809B0784F8E920E9
:1018F00000F17886434641460522727186F80880D9
:1019000032797372D4F8B031718142F00302182138
:101910003271F171002B4AD094F85221970746D4C6
:1019200094F8AB21D50742D4D4F8BC21934204BF2C
:101930001A68C4F8BC21D4F8B421002A00F0B58696
:10194000D4F8B8311A6832601E60C4F8B8613368E0
:10195000002B7FF4F8AAC4F8C061FFF7F4BA694815
:101960000DF0AEF8064600283FF4EDAA238E02796A
:1019700094F8EC101D44AB1DA4F8F2306FF3000195
:10198000012342F00302082084F8EC1032717071D8
:10199000F371052204F1ED0130181DF02AFAD4F894
:1019A000B031B4F8F220A6F80D20002BB4D1D4F851
:1019B000B421002AC4D13360C4E96C66C4F8B861AC
:1019C000C6E750480DF07CF8064600283FF4BBAA55
:1019D00094F93D30002B00F1040880F2D88394F88C
:1019E0007E30190700F1BC8594F8ED50002D00F011
:1019F0007A84037994F8DC2043F00303D20703715F
:101A000040F1DC85D4F81C315B0740F1D785112209
:101A100003234572C27103727771D4F8B03100228A
:101A200084F8ED20002B00F0A88494F85221900750
:101A300000F1A38494F8AB21D10700F19E84D4F87F
:101A4000BC21934204BF1A68C4F8BC21D4F8B42165
:101A5000002A00F0A586D4F8B8311A6832601E60FA
:101A6000C4F8B8613368002B00F0FC8494F8E830C7
:101A700084F8E930FFF767BA3C60FFF70ABB02F071
:101A80000702B4F89CC1B4F8A011B4F89E91B4F860
:101A9000A281A4F85EC0042AA4F8621000F08D842C
:101AA00094F89A31062262F3020384F89A31D4F84A
:101AB0000071002F00F06D843868002800F0698400
:101AC0003B7F4268B4F82CE0C4F8002143F00303E4
:101AD00002223B774FF0090A1523A7F806E0A7F882
:101AE00020C079843A71FB773946A7F82490A7F88B
:101AF000268087F81DA010F0A1FE10F0A9FEFFF7C8
:101B00004BBA00BFD02200205917B7D1D8480CF0EB
:101B1000D7FF00283FF440AA94F89A31B4F89E7198
:101B2000B4F8A221A4F8D6700121A4F8D82061F35A
:101B30000203092284F89A3142710279D4F8B03153
:101B4000878142F003024FF0140CC172C173002769
:101B500002711B21482280F807C04772017282720D
:101B60008273002B00F0088394F85221910700F152
:101B7000038394F8AB21D20700F1FE82D4F8BC2194
:101B8000934204BF1A68C4F8BC21D4F8B421002AD7
:101B900000F0C285D4F8B8311A6802601860C4F841
:101BA000B8010368002B00F00F85B4F8CA30A4F820
:101BB000CC30FFF7F1B9D4F8B421002A7FF44BAD53
:101BC0000360C4E96C00C4F8B8014CE507FB1133AD
:101BD00040F2E242A7489BB202FB03F3A3FB0001E1
:101BE000A1A3D3E90023FEF77BFA361AFFF7D8BA90
:101BF000A14AA249A24840F6AF031AF0E2FD4040D4
:101C000080F311884FF0030002DF3868FFF77DBAD8
:101C1000E26C636C974D03FB1B23E36416F0B2FE8A
:101C2000804694F8DC00C0F3820016F0ADFE08EBAD
:101C3000000307FB03F39348E26C94F8141103F5D7
:101C4000742303F23F23A0FB03034FEA934B0BFBE8
:101C50000AF07B080244963B9A4228BF1A4609FBC9
:101C600001FC4FF0000EC4E91232C4F854C07EA348
:101C7000D3E90023C4F8E4E0C4F844B0A0FB0501B4
:101C8000FEF72EFAD4F8103184467F48A0FB0330CB
:101C9000800A09FB00F074A3D3E90023A0FB05012F
:101CA000A6EB0C06FEF71CFAA7EB0B0A20F07F4808
:101CB000FFF797BA94F8717194F870319F4200F071
:101CC000A381724F3B68002B00F0AD849C427FF4EF
:101CD0003AA994F8723103F00703052B00F25786F6
:101CE0000FF2040E5EF823F0D51D0000531D000016
:101CF000011D00003D0F00003D0F00003D0F0000E2
:101D00001CF0020F7FF41FA910F0C6FD0146002849
:101D10003FF44EAD037F94F87221032060F302027A
:101D2000034384F87221A08D0B77022718230F71CB
:101D30004B77B4F87421B4F87631C880B4F87801E0
:101D40000A84B4F87A214B840F238884CA84CB7721
:101D500029E594F87381B8F1000F40F0F78494F905
:101D60003D30002BC0F27C8594F8723194F87C01F0
:101D7000C4F81081052262F30203012284F8723153
:101D800084F81421002800F0F085B4F87431B3FB16
:101D9000F0F3134413FB00F39BB294F8722194F810
:101DA0000601A4F80831C2F3C0039B0020F007022B
:101DB00043F002031343B4F87801B4F87A2184F8AD
:101DC0000631013984F80511A4F80A01A4F80C21A0
:101DD000FFF7B9B82648B4F83680B4F832900CF062
:101DE0006FFE014600283FF4E3AC94F872010A79D3
:101DF0004FF0040C6CF3020042F003024FF0180C99
:101E000084F8720108EB09030A7181F805C0B4F87F
:101E100074C1B4F87601B4F87821A1F808C02B4455
:101E2000B4F87AC148818A810F200022A1F81130CC
:101E30004FF0FF33C8714B758B75CB750B764B76B6
:101E40008B76CB760B774B778B77A1F80EC00A7425
:101E5000CA740A75204611F07BFBB4F8CA303C60A6
:101E6000A4F8CC30A4E400BF8D49FD1A070000009F
:101E7000D022002000CA9A3B082B02008C2C0200C2
:101E80007826020083DE1B435917B7D15422002065
:101E9000228E8A427FF446A940F2E24202FB03FA14
:101EA00042F21072B4F8C6E002FB0CA2013AB2FB97
:101EB000FAF292B296457FF435A903233B71FFF7FE
:101EC0003DB90122104602210CF09EFE6FF0470042
:101ED000FFF740B8C1F3820262F3020384F8643072
:101EE0004FF4A476FFF763BAD4F8B431002B7FF433
:101EF000CCAC2860C4E96C55C4F8B851CDE4D44AE0
:101F0000D449D54840F628631AF05BFC404080F382
:101F100011884FF0030002DF286894F8ECC0FFF747
:101F200065BACE480CF0CCFD804600283FF440ACAA
:101F300094F81931CA4AC4F81C21013B092284F8DB
:101F40001931427194F93D200379002AACBF08226F
:101F50000E2243F00303C271082203713946104474
:101F60001CF072FFD4F81C3188F80830C3F3072244
:101F70001B0C88F8092088F80A30D4F8B031002BFF
:101F800000F07C8194F85221920700F1778194F857
:101F9000AB21D70700F17281D4F8BC21934204BF72
:101FA0001A68C4F8BC21D4F8B421002A00F0EE83EA
:101FB000D4F8B8311A68C8F80020C3F80080C4F813
:101FC000B881D8F80030002B00F04883B4F8CA304C
:101FD00094F8E80094F8E920A4F8CC30FEF7AEBFFE
:101FE0009B4A9C499C4840F654631AF0EAFB4040E7
:101FF00080F311884FF0030002DF2868FFF720BA52
:10200000C4F8C001FFF732BB94F8987194F8993185
:10201000BB4200F0DD8194F89A3103F007010629F4
:1020200000F2B8840FF2040C5CF821F0D320000019
:102030003D0F00003D0F00003D0F00004920000053
:10204000492000003D0F0000B4F89C21A4F85E2058
:1020500003F00702B4F8A011B4F89E91B4F8A2817D
:10206000A4F86210042A00F06783062262F30203D8
:1020700084F89A31D4F80071002F00F03E8338685C
:10208000002800F03A833B7F4268B4F82CC0C4F8C3
:10209000002143F003033B77022209237B773A7147
:1020A000B4F86220B4F85E10398415237A84A7F856
:1020B00006C0FB773946A7F82490A7F8268010F0D1
:1020C000BDFB10F0C5FB94F8E80094F8E920FEF79A
:1020D00035BF62480CF0F4FC034600283FF468ABBF
:1020E00094F89A21B4F89E71B4F8A211A4F8D670AD
:1020F0000120A4F8D81060F30202092184F89A2183
:1021000059711979D4F8B0219F8141F003014FF042
:10211000140CD872D873002719711B20482183F83A
:1021200007C05F72187299729973002A00F0DA8200
:1021300094F85211890700F1D58294F8AB11CF07BA
:1021400000F1D082D4F8BC118A4204BF1168C4F8EF
:10215000BC11D4F8B411002900F00B84D4F8B821D4
:10216000116819601360C4F8B8311A68002A7FF446
:102170002DAFC4F8C03129E7D4F8B421002A7FF488
:1021800009AD0360C4E96C00C4F8B8010AE504F1C4
:102190007F073B462A4604F1EE0104F25D1017F07A
:1021A000D3F83946102204F1A0001CF022FE0822C8
:1021B00004F1980104F1B9001CF01BFE94F897009B
:1021C00094F8B82094F87E3084F88F5043F00803D8
:1021D00065F3000042F0010284F8970084F87E3035
:1021E00084F8905084F8915084F8925084F8935079
:1021F00084F8945084F8955084F89650C4F8B05000
:102200004146C4F8B45084F8B820204611F0AAFB27
:10221000D4F8B031002B3DD094F85221950739D431
:1022200094F8AB21D00735D4D4F8BC21934204BF35
:102230001A68C4F8BC21D4F8B421002A7FF40BAC8E
:102240001A6832601E603368C4E96D660BE400BF33
:10225000082B02008C2C020078260200D0220020DD
:102260007F410100D4F8B421002A7FF464A92B60D7
:10227000C4E96C55C4F8B851FFF765B9D4F8B42176
:10228000002A7FF495AEC8F80030C4E96C88C4F821
:10229000B88198E6D4F8B421002A7FF4DCAB33602F
:1022A000C4E96C66C4F8B861FFF7DDBB90457FF404
:1022B000B2A803232B71294610F0C0FAD4F80051BC
:1022C000002D00F074822868002800F070824368B6
:1022D000C4F8003103232B71294610F0AFFA10F037
:1022E000B7FAFEF730BE04F17F073B462A4604F1F9
:1022F000EE0104F25D1017F027F83946102204F1C0
:10230000A0001CF076FD082204F1980104F1B90048
:102310001CF06FFD94F8972094F8B81094F87E3074
:1023200084F88F5042F0010265F3000143F0080386
:10233000012084F8972084F8B81084F87E3084F85F
:10234000905084F8915084F8925084F8935084F817
:10235000945084F8955084F89650C4F8B050C4F85E
:10236000B45032797071D4F8B03142F003020521D3
:102370003271F171002B7FF458ABD4F8B421002AEC
:102380007FF469AB3360C4E96C66C4F8B861FFF7E9
:1023900069BBCF4ACF49D04840F6F8431AF011FA4A
:1023A000404080F311884FF0030002DF3868B4F832
:1023B0005EC0B4F86210FFF783BBB4F8A421002A12
:1023C00040F04F8184F89931A4F8CC20FFF76FBB1F
:1023D00094F8A83194F8A91199423EF4B4AD94F858
:1023E000AA1101F00300032800F0F08100287EF418
:1023F000AAADBA480CF064FB014600283FF4D8A906
:1024000094F8AA3194F8AC2194F8AB71012060F3F0
:102410000103C3F3820060F30202C3F3421060F3CE
:102420000612C7F34007087984F8AA3167F3C3029C
:1024300084F8AC21C3F3820C40F00300C3F34213D1
:10244000162203274B720871CA7181F808C04F71B8
:102450000022204611F07CF8B4F8CA30A4F8CC3041
:10246000FFF7A6B9C4F8C061FFF700BB238E1D4477
:10247000AB1DA4F8EE3010F00FFA3B68D4F8002141
:102480005A60C4F8007110F007FA0368D4F800210C
:102490005A6094F8EC30B4F8EE10C4F80001C3F3BD
:1024A00082085B09FFF728BA40F61733884A8C493F
:1024B00089481AF086F9404080F311884FF00300F4
:1024C00002DFFFF775B985480CF0FAFA00283FF4EF
:1024D0006FA994F8252194F82631013A84F8252132
:1024E000027943F00103062184F8263142F0030209
:1024F0004171D4F8B03102710B216FF00E020C273C
:102500000172427205214FF0FF32C7718172C272AF
:102510000273002B00F0BE8094F85221920700F164
:10252000B98094F8AB21D70700F1B480D4F8BC216E
:10253000934204BF1A68C4F8BC21D4F8B421002A1D
:1025400000F00D82D4F8B8311A6802601860C4F83F
:10255000B8010368002B7FF439ADC4F8C00135E53C
:102560004146204611F0FEF9D4F8B03183B394F817
:10257000522192072CD494F8AB21D70728D4D4F851
:10258000BC21934204BF1A68C4F8BC21D4F8B4211A
:10259000002A00F05F81D4F8B8311A6832601E60FA
:1025A000C4F8B8613368002B00F0878094F852318A
:1025B00023F0030384F85231FFF758BA0D23357224
:1025C000F3710227FFF728BAC4F8C001FFF7EDBA8C
:1025D000D4F8B421002ADED13360C4E96C66C4F8B3
:1025E000B861DFE710F058F91023A28D87F81C803E
:1025F0003B7194F864303868FA80C3F302037B7748
:1026000094F86530C3F30203BB77394610F016F92E
:1026100010F01EF994F8EC30B4F8EE10C3F3820811
:102620005B09FFF769B994F8723103F00703052BD2
:1026300000F2AD8101A252F823F000BFD51D0000C9
:10264000531D0000011D0000470F0000470F000050
:10265000470F0000C4F8C051FEF778BFC4F8C0812E
:10266000B4E494F89A01B4F8A671A4F89E2100236A
:1026700063F3020084F89A01A4F8A431A4F8A271CB
:10268000FFF715BA1A68026018600368C4E96D00A4
:10269000FEF7E9BFD4F8B421002A7FF453AF0360FA
:1026A000C4E96C00C4F8B80153E71A6832601E60D0
:1026B0003368C4E96D66FFF74BB9C4F8C06175E7CC
:1026C00003682B6005602868C4E96D55FFF7E5B81D
:1026D000082B02008C2C020078260200D022002059
:1026E000E8260200D4F8B41100297FF437AD1A604F
:1026F000C4E96C33C4F8B83137E5AF4AAF49B048E4
:1027000040F6F8431AF05DF8404080F311884FF02E
:10271000030002DF3868B6E41A68026018600368D4
:10272000C4E96D00FFF73EBA1A682A601D602B6885
:10273000C4E96D55FEF707BFB4F8A421002A40F0A4
:10274000D98084F89971A4F8CC2093E49D480CF0CA
:10275000B7F9014600283FF42BA8037943F003039F
:102760000B71112003220F23C8714A710B7294F868
:1027700073314B720022204610F0EAFE94F870315B
:1027800084F8713100233B60FFF712B81A68C8F86B
:102790000020C3F80080D8F80030C4E96D8812E446
:1027A0001A6832601E60C4E96D66FFF75BB9824A41
:1027B0008249834840F637631AF003F8404080F3BB
:1027C00011884FF0030002DF286880E5080784F8CD
:1027D000A931C1F3820340F1A48094F8AA31022107
:1027E00061F3840384F8AA3194F8AA315F064FEAB2
:1027F000531140F18E80022161F3471384F8AA310E
:1028000094F8AA1194F864C094F8650094F8AB3178
:10281000C1F382070CF0070C00F00700C3F380033C
:10282000BC4508BF00275B00B0EB511F43F001031C
:102830004FEA511108BF002143EA4113023A43EA2B
:102840008703062184F8E92084F8EC3084F8EA1044
:10285000FEF7A2BB1A6832601E60C4E96D66A1E68D
:1028600058480CF02DF9014600283EF4A1AF037939
:10287000182243F0030303714271B4F87421B4F8D1
:102880007631B4F878010A81B4F87A214B811023AB
:102890008881CA81CB7194F87C310B74B4F87E3195
:1028A000B4F88001B4F88221A1F81130B4F8843171
:1028B000A1F81300B4F88601A1F81520B4F8882116
:1028C000A1F81730B4F88A31A1F81D30A1F8190029
:1028D000A1F81B202046424610F03AFE94F87031D1
:1028E00094F8E80094F8E920C7F8008084F8713182
:1028F000FEF724BB002161F30203A4F89E21B4F883
:10290000A62184F89A31A4F8A411A4F8A221FFF713
:10291000B1BBC8070FD5012161F3471384F8AA3171
:102920006EE7D90710D594F8AA31012161F3840329
:1029300084F8AA3158E711F0040118BF042161F3AB
:10294000471384F8AA315BE713F0040318D094F816
:10295000AA31042161F3840384F8AA3144E71A6898
:1029600002601860C4E96D00F3E5B4F87631FFF752
:1029700014BA116819601360C4E96D33FFF7F5BB31
:1029800094F8AA1163F3840184F8AA112CE740F6A5
:1029900024438BE54FF4526388E5074A0A49084807
:1029A0004FF4526319F00DFF404080F311884FF04F
:1029B000030002DFFEF7F0BA082B02008C2C0200A5
:1029C00078260200D0220020E82602000000000045
:1029D0002DE9F04FD2F800C01D4653F80C6BDCF81F
:1029E000009095B0174600228646CCF8082018467D
:1029F0000C4603222E3105F1080ACDF828E005F136
:102A00001C081CF0F6F904F12A01042250461CF0BF
:102A1000F0F904F13A01052240461CF0EAF940467B
:102A200005210CF01BFA95F8213000F03F0060F30F
:102A30000503012885F821300AD994F83F3003F0C6
:102A40001F02053AC3F304010B2A85F8221002D9AC
:102A500015B0BDE8F08FB4F83480A5F8128094F872
:102A6000362094F8370096F8DC1042EA00225B0921
:102A700063F38401AA82638E86F8DC10ADF83030EF
:102A800015F080FF034696F8DC000B93C0F382003C
:102A900015F07AFF0B9BDFF828C394F83110AA8A4F
:102AA00040F2E24B0BFB08F8184408FB00F000F57D
:102AB000742000F23F20ACFB00C04FEA580C800CA1
:102AC0000BFB01F1ACF1960CA862C5F82CC0E963D0
:102AD000218FB14BADF8361042F2107C0CFB018116
:102AE000AE48434402F1060C0139B3FBF8F3B1FBE5
:102AF000F8F1A6F8C61099B261454044A6F8D21084
:102B0000B0FBF8F0A6F8CA0002DD891A063989B2CE
:102B1000A6F8CE100422514606F1E0001CF069F937
:102B2000237F04F11E0A5146C3F38013062212A824
:102B30008DF840301CF05DF9237F4FF48072A28342
:102B400099F82A0097F812B0C3F340128DF83C2090
:102B50000B9214F041FD0146062204F12B000029DE
:102B600040F0ED801CF070F904F12503BBF1FF0F7C
:102B70000E9304F11F0300F0EB801A4651465846AD
:102B800013F0A2FFA27F0E980232A27712A90622AA
:102B90001CF02FF996F8DC30698AAA8AA286C3F362
:102BA000820384F83830BDF83630E38661863046DB
:102BB00011F02CF821462882E0807C680A980FF0FA
:102BC0003DFE2B8AE3800F2323710B9B2068002B93
:102BD00000F0BA8095F809E02B7A95F80BC0A97A35
:102BE00095F8212041EA0C2143EA0E234B4042F0A4
:102BF000400201216B8485F82120217721460FF0C6
:102C00001DFE0FF025FE95F84900012100F0070098
:102C100015F04CF9624A4FF0000A8346312300F266
:102C20005240A0FB02013360C6E901AA58A3D3E9D0
:102C30000023FDF755FAFC68BDF83020AD6A20F09E
:102C40007F4040F2E24303FB023302215246F06030
:102C5000A4F5AE7401201C440BF0D6FF484610F0DA
:102C60002BFB821C4F4BCDF80090D2B25046012175
:102C70000DF0A2FA0128A8EB0508A4EB0B047FD005
:102C800099F82830DB0773D4304610F0BFFFDFF827
:102C900010B1A8FB0B893EA3D3E9002305464946A2
:102CA0004046FDF71DFA404A069620F07F4AAAFBEF
:102CB0000223072101FB0A3340F23B11BF68089150
:102CC0003A4907913A490591B8EB020069EB0301D3
:102CD000F368049300264FF47A7200230396FDF7FD
:102CE000FFF92BA3D3E900238446A4FB0B01CDE914
:102CF00001ACFDF7F5F9033520F07F40EDB2313F2F
:102D00003B4600902A46304601210DF0E9F930F0AB
:102D100002030CD0274A284928484FF49E7319F023
:102D200050FD404080F311884FF0030002DF012284
:102D3000104602210BF068FF15B0BDE8F08F04F1DA
:102D400024011CF056F80FE79DF83C30237755E737
:102D50000E981193062200211CF076F89DF8403061
:102D6000A377119B12A9184606221CF042F811E71E
:102D7000002301220093184611460DF01DFA83E747
:102D80000FF024FE81453FF47BAF13F00DFC77E795
:102D90008D49FD1A070000007FC3C901FF59620277
:102DA00000CA9A3BD56501008D49FD1A796501007D
:102DB000F1650100402D0200E82B02007826020098
:102DC00083DE1B43000000002DE9F041D0E90BC772
:102DD000D0F828800CEB07043034A0450E46154689
:102DE00018D81B4F18A3D3E90023ACFB0701FDF74C
:102DF00077F9A4EB080420F07F40306012A3D3E9F8
:102E00000023A4FB0701FDF76BF920F07F40286049
:102E1000BDE8F0810E4C0CA3D3E90023A8FB04010C
:102E2000FDF75EF920F07F4307F130003360A0FB2F
:102E3000040105A3D3E90023FDF752F920F07F40F8
:102E40002860BDE8F08100BF8D49FD1A0700000031
:102E500000CA9A3B000000002DE9F84F04461DF01F
:102E6000C3FF257B064615B10DF0ECF905460FF2C0
:102E70006809D9E90089DFF868B04FF0000A606896
:102E800018F0BCF8A3689B1BA360636833446360BD
:102E9000237B0AF1010A4BB9A368002BEFD1A0688C
:102EA000003818BF01204042BDE8F88F0DF0CAF984
:102EB00029460DF0C9F9B0FBFAF7074460694246AC
:102EC0004B46A0FB0B01FDF70BF920F07F4087423A
:102ED000E2D9E4E7AFF300808D49FD1A0700000056
:102EE00000CA9A3B000000002DE9F04F8FB0D0F8E7
:102EF0000490DFF8E4B00DF1370106460DF136001D
:102F00000FF012FD9DF837309DF836A00A930DF0B2
:102F100099F9D9F81040A4FB0B4529A3D3E9002364
:102F20000027804629462046FDF7DAF8CDE90777E5
:102F3000254B059306960B90D9F8140020A3D3E9EE
:102F40000023A0FB0B01FDF7CBF80B9B23F07F497F
:102F50001E4B20F07F40A9FB03BC072303FB09CCD9
:102F6000CDE90370B4EB0B0065EB0C014FF47A7202
:102F70000023FDF7B5F80A9A0097CDE90190434682
:102F8000032150460DF0ACF830F0020415D1104A80
:102F90001048002318F0FCFE68B19DF837209DF81A
:102FA00036000094234603210DF006F96FF03B0034
:102FB0000FB0BDE8F08FB068FAE76FF04700F7E7B1
:102FC0008D49FD1A070000001DA701008D49FD1A5B
:102FD000447B0B00102A002000CA9A3B000000002E
:102FE0002DE9F047057B044615B10DF02BF9054698
:102FF0000FF28009D9E90089DFF880A00126A368D3
:10300000032B07D81A4AD2F80034DB07FBD500207F
:10301000BDE8F08723686068196818F00FF86368E6
:1030200004336360236804332360A368043BA36014
:10303000237B0136002BE2D00DF004F929460DF078
:1030400003F9B0FBF6F70744606942464B46A0FB24
:103050000A01FDF745F820F07F408742CFD9044AA6
:10306000D2F80034D907FBD54FF0FF30D0E700BFCE
:1030700000E001408D49FD1A0700000000CA9A3B9C
:103080008B1E59425941014B19707047E32A0020A9
:1030900008B50649064B0748002A08BF194619F02B
:1030A00090FB054B00221A7008BD00BFB834020027
:1030B000BD340200C5340200E22A0020014819F0A4
:1030C00080BB00BFD434020011B1034819F079BBB2
:1030D000024819F076BB00BFF2340200123502003C
:1030E00070B503788AB004460E4607AD032B20D88E
:1030F000DFE803F002191B1D114928461BF02AFEC8
:1031000063780493A3780393E3780293237901937C
:10311000637900930B4AA37905951E21304619F077
:103120005DFB0AB070BD0849E7E70849E5E70849D3
:10313000E3E7084A0A21284619F050FBE0E700BF00
:103140001D3502003F350200243502002B350200F8
:10315000353502000D54020010B588B00C461CF045
:10316000DDF96946FFF7BCFF03482246694619F0BE
:1031700028FB08B010BD00BF6235020000B589B061
:103180001CF0CCF96946FFF7ABFF0348694619F01C
:1031900018FB09B05DF804FB783502002DE9F04119
:1031A000002088B005F08AFB064630B101462F4862
:1031B00019F007FB08B0BDE8F0812D4D2D4819F03E
:1031C00000FB00F087F81AF0E8FA0FCD03AC0FC44B
:1031D0002B682360284900963346032203A81CF07D
:1031E000B3F8014600283DD0244819F0EAFA2448F3
:1031F000244C254D06F0DCFA244806F049FF26460B
:1032000000214FF4004018F077FD00F081F823789A
:103210000133DBB2A02B08BF5A232370307801F0B2
:1032200079F901F019F9013810F0FF0008BF6420A6
:1032300001F018F92B78002BE2D0154F38780028D0
:10324000DED11449144B4B60144B4FF00108C1E917
:103250000237A1F8108009F05DFA0028D0D187F874
:103260000080CDE70E4819F0ACFAC0E78F350200B8
:10327000201C0200AF350200E81C0200C635020027
:1032800004020020C1070020E32A0020E001002002
:10329000E22A002048130020281D0200913000007F
:1032A000EC35020038B50C46BDF81000E5681C4648
:1032B000C3180A2B114608DC224628441BF099FD4E
:1032C000034B01221A70204638BD6FF00604FAE75E
:1032D000EE2A002013B50D4C40F2DF7302220DF1EF
:1032E00006012046ADF806301BF083FD0523A370D0
:1032F0001E23E3700C22A37101232271E3712D229E
:10330000002362712372637202B010BDE42A0020B0
:1033100010B50C4B1A7886B08AB1002421461822C9
:1033200068461C701BF090FD074B0193074B0293FE
:1033300069460A232046ADF80C3009F06FF906B053
:1033400010BD00BFEE2A0020181E0200E42A002053
:1033500030B50A4C0A44914200D130BD11F8013B0E
:1033600058400309E35C83EA0013DDB2C3F303139F
:10337000E05C80EA0510C0B2EDE700BF4136020014
:103380002DE9F04F87B00F461946109B9DF844B0C9
:103390009DF848A01F4C06461425104698464FEA53
:1033A000E37950EA010319D1142D139C14BF0135A0
:1033B00030232C4408BF8DF81430152C1BD0153C3D
:1033C000002C1ADC1DF8050039460135B047152DD3
:1033D000F8D1002C19DC07B0BDE8F08F42464B460F
:1033E000FCF77EFEA25C0DF8052084460B46604685
:1033F0001946013DD5E70024E4E7BBF1000FE1D019
:1034000039465046B047013CDAE739465046B047A6
:10341000013CDEE7513602000B6801330B60014BC3
:103420001B68184740020020014B1860704700BF1E
:10343000400200202DE9F04F002687B005468B465C
:103440001C4602F1FF394FF0FF383746002307E0F2
:103450006BB9252800F0FC8059460493A847049BCB
:1034600019F8010F0028F3D107B0BDE8F08F7A28D2
:103470000AD8622810D8302852D045D8252800F024
:10348000E5802D2800F0EA8059462520A84799F8C4
:1034900000005946A847D9E7A0F16302172AF3D8DC
:1034A00001A151F822F000BF453600006935000047
:1034B0008934000089340000893400004B35000055
:1034C0006935000089340000893400004B35000064
:1034D000893400008934000089340000CD350000B3
:1034E00089340000893400000F3600008934000060
:1034F000693500008934000089340000113500006E
:10350000893400004B350000392815D95828BBD123
:1035100099F80030702B63D154F8042B00236AE033
:10352000B8F1000F0BDA002F00F09A80A0F13008FC
:10353000002F08BF022793E7B8F1000FF6DB0A223D
:1035400002FB0808A8F13008F2E7682803D1682ECA
:1035500006D1482684E76C2802D16C2E00F08280C8
:10356000002E91D106467BE77A2E03D154F8042B26
:10357000D31708E06C2EF9D04C2EF7D1073424F085
:103580000704F4E8022375280FD0002A73F1000124
:103590000BDA59462D20CDE90423A847DDE90423A1
:1035A000524263EB430308F1FF38F91E18BF0121B3
:1035B000012F0CBF30202020CDE9020801910A2103
:1035C000009128465946FFF7DBFE3FE75946302079
:1035D000A84759467820A8474FF00808012797E7E1
:1035E0006C2E99D04C2E97D1E31D23F007031C4677
:1035F0005B6854F8082BF91E18BF0121012F0CBF7E
:10360000302020200191CDE902081021D8E7A24600
:103610005AF8043B1C46214614F8010B40B9032F0D
:1036200022D1CC1AA8EB0404002C06DC54460DE78A
:1036300059460493A847049BEDE759462020A84724
:10364000013CF1E754F8040B594623E7594621E7BA
:103650001E461F464FF0FF38012301E70327FFE610
:103660000127FDE64C26FBE654460346F8E600BF7C
:1036700007B50B46002102460191034801A9FFF757
:10368000D9FE03B05DF804FB1934000030B585B0F5
:10369000CDE90101044600250548039501A9FFF77E
:1036A000C9FEDDE902309842B8BF255405B030BDEF
:1036B0009DC701002DE9F84FB0F8189019F00808DF
:1036C00004460DD001290CBF49F0100949F020092A
:1036D000A0F8189082F31188BFF36F8FBDE8F88FC0
:1036E00009F00709022907D1204619F084F80028BB
:1036F000F0D00128238B50D16769218B002F15DA78
:10370000256821F00701C4E9008841F00101218307
:103710000026218B01F0070ACA4502D0A368002BBE
:103720005CD10DB9002E74D0002358E001F00703DE
:10373000581F012820D821F00701062B256889B2DF
:10374000C4E900880CD1002D2B4638BF00232BB1D3
:10375000608B1B6801306083002BF8D141F00201BF
:103760002183204619F047F806460028D1D0238B44
:1037700043F020032383CBE7042B0CD121F0070176
:1037800089B22183204619F036F805460028BFD0BB
:1037900041F0200121830025BAE7032809D12169DE
:1037A00023F007030E6843F00603238300252F460A
:1037B000AFE7042806D1216923F007034E6843F0E0
:1037C0000403F2E7052806D1216923F007038E6878
:1037D00043F00503E9E700252E46E8E7012341F021
:1037E0000801218382F31188BFF36F8F03BB002D83
:1037F00040D116B125492046B0474FF02003EFF3E2
:10380000118283F31188BFF36F8F238B23F008039A
:103810002383238BD90631D523F010032383012181
:10382000B4F8189009F0070900297FF45BAF51E75D
:10383000A1680029DBD00B68D1F804B0002B38BF99
:103840000023994652463B462046D847B9F1000F1F
:10385000CDD0D9F800304946EEE739460BF10400E7
:103860002D6818F080FF814620B13B4652465946EC
:103870002046C847AB46002DEFD1BAE713F0200130
:103880001EBF23F0200323830221C9E74DC8010096
:1038900030B51049104889B000221DF059FE0F4D77
:1038A0000F4900220023CDE9062300240E23CDE991
:1038B0000334CDE901440B4B00944FF44072284689
:1038C00018F0D8FA084928461DF04BFD204609B0EB
:1038D00030BD00BFED380000E80A0020200B0020BA
:1038E00070320020053D000062360200014818F0E9
:1038F00029BA00BF5809002008B500F065FA094848
:1039000019F072FA04232822074908481DF004FB25
:10391000074B084A1A604FF40040BDE8084000F029
:1039200097BC00BF6C130020D85B002074130020EC
:103930004402002027CE0100F8B50F4BBFF35B8F88
:10394000002553E8007F43E80052002AF9D1BFF375
:103950005B8F0A4C0A4E361B3611B54200DBF8BDB0
:1039600063685B792BB12368DB6813B13946204665
:10397000984701351034F0E764130020F41B02006F
:10398000141C0200064BBFF35B8F53E8002F01327B
:1039900043E800210029F8D1BFF35B8F704700BFD7
:1039A00064130020044A054B9B1AB1EBD30F34BFBC
:1039B00052F8310000207047AC1A0200F41B0200DC
:1039C000094B4268C31A1B11013310B513714368C8
:1039D000064C196001225A71227812B9044818F075
:1039E000B1F90123237010BDF41B0200EF2A00205F
:1039F0005809002070B5114BBFF35B8F53E8005F8F
:103A00006A1C43E800210029F8D1BFF35B8F2DB970
:103A10000B4C0C4E361B3611B54200DB70BD237BC0
:103A200043B123685B6903B1984704220021204613
:103A3000FFF7C6FF01351034EEE700BF6813002022
:103A4000F41B0200141C0200164B984237B50446C2
:103A500002D3154B984220D314480022002301A919
:103A600017F0D2FC0546D8B90122019BBFF35B8F4A
:103A700053E8001F43E800200028F9D1BFF35B8F13
:103A8000019821461F2204301BF06EF9019C7E2311
:103A900084F8233084F824500434204603B030BD29
:103AA000034CFAE72C180200A458020074130020FB
:103AB0006A36020048B1054B984205D3A0339842BC
:103AC0002CBF00200120704700207047D85B0020E9
:103AD0002DE9F04F4C4B1B7885B0044603B960B319
:103AE0004FF02003EFF3118683F31188BFF36F8F3C
:103AF000464819F089F9054686F31188BFF36F8FA0
:103B000078B1BFF35B8F424B53E8002F013A43E893
:103B100000210029F8D1BFF35B8F94B1284619F03A
:103B20008AFA24B93B4B1B680BB1FFF705FF3748F6
:103B300019F068F9041E18BF0124204605B0BDE83D
:103B4000F08F354B1B78CBB92B7ADB0716D419F0E5
:103B500085FA8046284619F04CFA0146404619F08D
:103B600066F92E4F2E4BDFF8D4B0DB1BDB08039336
:103B70002C4BDB1B06464FEAD30A36B92A4E2B4F95
:103B8000BF1B3F114FF000083AE0B6FA86F1C1F1D1
:103B90001F094946284619F02FFA254B984201463D
:103BA00002D3244B98421AD30846FFF783FF0246FC
:103BB000A8B9214B994212D06B8903989909B0EBAF
:103BC000931F4FEA8A1343F0010388BF57F831204F
:103BD000ADF8003049464346584619F082F90121B4
:103BE00001FA09F126EA0106C7E773685B7923B198
:103BF000336829461B683046984708F1010810369B
:103C0000B845F2DB8AE700BFEF2A00206C130020E2
:103C10006013002064130020F02A0020AC1A020078
:103C2000F41B0200BC1B0200F41B0200141C020067
:103C30002C180200A45802006A36020084360200E2
:103C4000294B73B51B68418104469847274DE060B6
:103C5000BFF35B8F55E8003F013345E80032002A8F
:103C6000F8D1BFF35B8F4FF02003EFF3118683F39E
:103C70001188BFF36F8F1E48214619F0B9F886F3FB
:103C80001188BFF36F8F1B4B1B7883B14FF020035C
:103C9000EFF3118483F31188BFF36F8F0020FFF7D8
:103CA00017FF84F31188BFF36F8F02B070BD124A03
:103CB0002B681268002AF8D0012B0AD100220023B9
:103CC000CDE900230D484FF40042002318F036FBE5
:103CD000EBE70A2BE9D109481DF046FC084802B081
:103CE000BDE8704018F02EB8440200206013002098
:103CF0006C130020F02A002090130020E80A002016
:103D00005809002010B5FFF775FE18F015F80C4B98
:103D1000186030B10B4B1B68092B02DD0A4818F004
:103D200011F8094C0020FFF7D3FE0028FAD14FF01C
:103D3000FF324FF0FF33204618F02AF8F2E700BFB9
:103D4000901300206013002058090020F8B50E4F92
:103D50003D7875B90D4C0E4EFFF74CFE361B3611F3
:103D6000B54207DB0020FFF7B3FE0028FAD101239C
:103D70003B70F8BD63685B791BB1236820461B6903
:103D8000984701351034EBE7F02A0020F41B0200BD
:103D9000141C020007B504380190BFF35B8F50E894
:103DA000003F5A1E40E800210029F8D1BFF35B8F85
:103DB000012B03D1034801A917F058FB03B05DF8AC
:103DC00004FB00BF741300202023024902481A4656
:103DD0001DF0A2B8785C00209413002037B50023B2
:103DE000094D01930120FFF773FE0446FFF7CAFD5A
:103DF0000022002301A9284617F006FB08B1002C79
:103E0000F0D1019803B030BD9413002007B5002312
:103E1000019307480022002301A917F0F5FA10B119
:103E2000FFF7DCFF0190019803B05DF804FB00BFD1
:103E300094130020F0B5037A457A85B02D090190DE
:103E4000D8071CD4DDB1002426460198314619F06C
:103E5000D3F80746FFF72EFE70B134B9019B29460F
:103E6000186918F0E4FF044648B124FA06F3D907AC
:103E700002D53846FFF78EFF0136AE42E5D3019BEF
:103E80001A7A920704D55B69084C0393039B2BB9FC
:103E9000064801A917F0EAFA05B0F0BD1D6803A9AC
:103EA000204617F0E3FA0395F0E700BF94130020D3
:103EB0000EB403B503AB014653F8042B0448019339
:103EC000FFF7B8FA002002B05DF804EB03B07047CA
:103ED00005D401002DE9F04F85B011F002049046A1
:103EE0009DF8387006461A4601F0010901F00805F0
:103EF00007D011F0440F37D13249FFF7D9FF0146FF
:103F00000C46B9F1000F0AD02F4B304953F8272047
:103F10002F4B3046002A08BF1A46FFF7C9FF3DB1B4
:103F20002C4B2D4953F827203046FFF7C1FF05469B
:103F3000B8F1000F43D0012303FA07F7274B17F01E
:103F4000100F274F18BF1F46BDF840109DF83C00CA
:103F5000FFF728FD394602463046FFF7A9FF2844FF
:103F6000204405B0BDE8F08F1E4B19680029C7D06A
:103F70001D4B4FF4616E1B68B2FBF3F34FF47A7C78
:103F8000B3FBF1F4B4FBFEF20EFB124E01FB143452
:103F90000CFB04F44FF03C0AB4FBF1FB01FB1B44A7
:103FA0000CFB04F4BEFBFAF3B4FBF1F1CDE901B173
:103FB0000AFB13E100910D49FFF77AFF9FE7084FD5
:103FC000C2E700BFD5360200541E0200254702009A
:103FD000C7360200681E0200FA360200D13602001F
:103FE000CC360200B0130020B4130020DE360200ED
:103FF00038B50C46E107054603D5084A0849FFF7DE
:1040000057FFE20608D4A30628464CBF05490649D7
:10401000BDE83840FFF74CBF38BD00BFC7360200CF
:104020002547020001370200003702002DE9F04762
:104030001D46089B1746DA0604460E4605D4990627
:104040004CBF2A492A49FFF733FFDFF8AC904FF005
:104050000008A8452ADBDFF8A480DFF8A490DFF889
:1040600098A00025BD422FD2725D49462046FFF739
:104070001FFF0135102D20D11E49DFF87C80DFF8AD
:1040800084902046FFF714FF0025AF4228D9725DC7
:10409000A2F120035F2B28BF2E2249462046FFF7BE
:1040A00007FF0135102D14D1BDE8F08749462046A1
:1040B000FFF7FEFE08F10108CBE76A07D2D15146AF
:1040C0002046FFF7F5FECDE741462046FFF7F0FE1C
:1040D000CFE76B07D9D141462046FFF7E9FED4E789
:1040E00041462046FFF7E4FEDBE700BF0137020050
:1040F000003702000D3702000B37020009370200BB
:10410000033702000F3702002DE9F0478B7A13F0D6
:10411000070817468AB00A7A05460E4620D0498914
:10412000C3F3C2038909D243CDE900830291F36846
:1041300002F001023946FFF7CDFE8146347AE443AE
:1041400014F001040ED02946304618F0F1FFB8F102
:10415000000F2BD0424639462846FFF749FF25E09D
:10416000C146EBE7B8F1000F26D12746EB6806936E
:1041700006AA3B46A968304618F0C6FF069A6B6847
:104180001A603AB1AB68134413F8014CA4F10A0366
:104190005C425C41284619F028F9069B1F44002B1D
:1041A000E4D11CB113492846FFF782FE284619F0D6
:1041B0001CF90AB0BDE8F087304618F04FFF0E49F1
:1041C00002462846FFF774FE4FF0100A05AA234660
:1041D00006A93046CDF814A018F096FF059A002ADB
:1041E000B8D04B46009706A92846FFF71FFF059B4E
:1041F0001C44EBE7123702002547020073B5D0E9F3
:1042000000435D680F4A42F20F738B4228BF0B4692
:104210006846052118F0E2FA2B4606460A49204670
:104220000B2218F078FF2B4632466946204618F0DC
:1042300072FF06492B461B22204618F06CFF02B085
:1042400070BD00BF04510200503702003437020035
:10425000084A10B50123084C13600021A04204D87D
:1042600001B11360054B186010BD40085B000121CF
:10427000F4E700BFB413002040420F00B013002049
:10428000014819F0B2B800BF941E02000148FFF7C0
:10429000B5BF00BF941E020008B5034816F0F6FE35
:1042A000024B586008BD00BF5C370200C0130020FD
:1042B00010B508460C4618F08FFE054821460F221F
:1042C000FFF722FF2046BDE8104018F0B4BE00BF43
:1042D000941E0200014B01221A707047022B00202D
:1042E000024B034801221A7019F07FB8032B0020FB
:1042F000BC1E02000148FFF781BF00BFBC1E0200C8
:1043000010B508460C4618F067FE054821460F22F6
:10431000FFF7FAFE2046BDE8104018F08CBE00BF43
:10432000BC1E0200054B1B781BB141F288301DF00A
:1043300016B8A420002117F0DFBC00BF032B00201B
:104340002DE9F84FDFF89090DFF890B007460E4661
:104350000424CA4699F8003033B94FF0FF324FF0C9
:10436000FF33584617F0ACF832463946002001F0CA
:1043700023FA9AF80030804613B9584617F018F916
:10438000144DB8F1000F18D001232B709AF80030AB
:1043900033B93046BDE8F88F5CB92C704FF0FF346C
:1043A000002001F055FA0028F3D02B78002BF3D130
:1043B000EFE7013CFFF7B6FFF2E72B7813B1013CC2
:1043C00004D12C702B78002BC4D1E2E7FFF7AAFFB1
:1043D000F8E700BF022B0020032B00201809002063
:1043E0001FB507240294044C0194BDF818400094B2
:1043F0001BF0F9FE04B010BD45080020074B084A29
:104400000848D21AD208084B9201012914BF01466C
:10441000194642F00302054818F036BDAC1A0200F6
:10442000AC1A0200AE370200A6370200B73702000E
:1044300010B5084C86B024788DF8174001240294FA
:104440000DF117040194BDF8204000941BF0CBFE41
:1044500006B010BD4C080020014B1878704700BF13
:104460004C08002000B589B064288DF8070019D8E1
:104470000E4B18221870002102A81AF0E5FC0C4B14
:1044800003930DF10703049302A901230020ADF863
:10449000143008F0C3F810F1390F08BF002009B03C
:1044A0005DF804FB6FF01500F9E700BF4C08002031
:1044B0006C1F0200024B01221A700020704700BFDF
:1044C000062B00201FB501240294044C0194BDF872
:1044D000184000941BF087FE04B010BD062B00208E
:1044E000074B084A0848D21AD208084B9201012902
:1044F00014BF0146194642F00302054818F0C4BC37
:10450000AC1A0200B41B0200AE370200A63702004C
:10451000D037020010B50D4C86B00623607018220B
:104520000021684623701AF08FFC094B6946CDE9DB
:10453000013400200223ADF80C3008F06FF810F1C0
:10454000390F08BF002006B010BD00BF042B0020AB
:10455000BC1F02002DE9F7430E4680460821C06AC1
:1045600019F00CF83468124B241A0746346004EA38
:1045700003059946AC4203D8002003B0BDE8F083A0
:1045800008236A462146404618F086FF0028F4D1E9
:10459000684618F0DEFF40B9BDF80230BDF80420CF
:1045A000346005EA090513441D44E41BE2E700BF3B
:1045B0000000FFFF2DE9F04F054695B0C06A0821C5
:1045C00018F0DCFF6B681B0C1B04804603A9E8890C
:1045D000039318F0DDFF039BA98906AE1944A1EBF4
:1045E0000801082332462846049118F055FF041E9E
:1045F000C0F29980EB6A1A790023F15C914240F095
:1046000081800133082BF8D10399284618F0CBFF9D
:10461000044688E0049BBDF81A201B0C1B041344BD
:104620000493DFF80CB1DDF810A008AA04A928460D
:1046300018F0E1FF0446002875D108A818F089FF9A
:10464000002836D16B6805930AAA05A92846059E5D
:1046500018F0D1FF0446002865D1BDF82820BDF828
:1046600020309A4228D06A68059B9A42ECD1564580
:104670001FD1BDF82430E3B1BDF822300AEA0B07A0
:104680001F4408A8AB68ADF8223018F06EFFEB6A43
:10469000BDF824901E68764206F020030193B9F11C
:1046A000000F0FD108A9284619F03DF8044600284C
:1046B00039D1C245B7D1A7E70AA818F04AFF0028A8
:1046C000D1D1D4E7019B4B4528BF4B460CAA3946B4
:1046D00028461E4618F0E0FE044620BB36B1A96805
:1046E00033460CAA284618F0D6FF0446E86A31463D
:1046F00018F044FFAA680244AA60A4B9A9EB06090D
:104700003744CCE70498A0EB0808304618F021FFA6
:1047100000283FF47FAF04A92846FFF71BFF04469B
:1047200000283FF47EAF204615B0BDE8F08F00BFF3
:104730000000FFFF2DE9F047044686B00D4600F16A
:10474000140630461CF003FC284616F09FFCA062BD
:1047500078B99F4B9F49A048C91AC908890141F0FF
:10476000010118F084FB6FF00505284606B0BDE88E
:10477000F08783681B699847E06260B99549944B5C
:104780009648C91AC908890141F0010118F06FFB68
:104790006FF01505E9E7A06A83681B69984703680D
:1047A000013B1F2B08D98B49894B8D48C91AC90871
:1047B000890141F00101E9E7A06A216803AA1CF020
:1047C000D3FA40B18349824B8648C91AC908890186
:1047D00041F00101DAE7A3892BB1049AB3FBF2F5AA
:1047E00002FB153545B17B49794B7F48C91AC90889
:1047F000890141F00101C9E7E389012B08D8754916
:10480000734B7A48C91AC908890141F00101BDE713
:10481000E36A009593F804904FF0FF324FF0FF33B6
:10482000304616F04DFEE06A082118F0A7FE2F462C
:104830008046E3891FFA85FA53456DD8E389BB4268
:1048400000F0A9809A450CD1009908234A46A1EBB3
:104850000801204618F058FE18B9E089694618F09A
:1048600097FE009B624FA3EB08023B406260A3608F
:10487000D4E9011399420FD3082301AA204618F066
:104880000BFE054620BB01AB13F8012B914540F010
:1048900085800135082DF7D1D4E901318B4207D944
:1048A0005B1A4A46204618F02FFE051E10DB56D133
:1048B00063684F4FE0893B406946009318F068FEFB
:1048C000A38900994A46204618F01EFE051E4CDAC0
:1048D000304616F06DFE002D7FF447AF01232374A0
:1048E0003C4E3B4BA289E1894248F61AF608B601D4
:1048F00046F00306334618F0DBFA61683E4833465B
:104900008AB2090C18F0D4FAA1683C488AB233463E
:10491000090C18F0CDFA28E7A1892B04A1EB0801B6
:1049200013FA81F14A4608232046009118F0ECFD65
:1049300070B1E089694618F02BFE01370099082311
:104940004A462046BFB218F0DFFD00283FF476AF9C
:1049500001356EE7002D36D06FF01C05B8E7E26A2E
:10496000A36812681344A36096E7B1D0616820463B
:1049700018F019FE05460028AAD16368A0893B40BB
:104980000344A3EB480060603840A0602046FFF776
:1049900011FE05469CE76FF0200599E701A818F085
:1049A000D8FD626878B9009BBDF80600BDF80850D4
:1049B0003B400344A360E06A294618F0DFFD03444E
:1049C0009342A360C6D0A2EB0802626050E700BF2A
:1049D000AC1A0200AC1B0200FD37020019380200BD
:1049E0003B38020058380200703802008438020058
:1049F0000000FFFFA7380200BE380200D0380200D6
:104A00002DE9F04F1E46037C89B004468946904646
:104A10007BB9694B69496A48C91AC908890141F0DB
:104A2000010118F024FA6FF00C05284609B0BDE822
:104A3000F08FC36A0821184618F0A0FD314682465F
:104A4000184618F09BFDA3890AEB4A029B1AB34251
:104A50000746C0F0AB801EB1B8F1000F00F0A68091
:104A60006368039304AA03A92046DDF80CB018F08C
:104A7000C2FD05460028D8D1BDF810304B4505D001
:104A80006268039B9A42EDD1DEB9CEE704A818F024
:104A900060FD0028F4D1BDF8143086B1B34210D1C6
:104AA000BDF812004FEA1B41090401443346424657
:104AB000204618F0FFFC002803DC0546B5E7002B74
:104AC000B3D0002F3FD104F1140A4FF0FF324FF062
:104AD000FF335046DFF8ECB016F0F2FC0022E38919
:104AE0009A4260D0D4E90131781883422ED3FF2353
:104AF00006A8ADF81890ADF81A10ADF81C608DF846
:104B00001E3018F032FD36B1A168334642462046C9
:104B100018F0C1FD0546E06A314618F02FFDA36884
:104B20000344A360002D44D106A9204618F0FBFDE4
:104B3000054600283DD133460193504616F038FD16
:104B4000019B1D4671E75744BFB2BCE7E06A019282
:104B5000082118F013FD4FF6FF71ADF81810002171
:104B6000ADF81C101918ADF81A10A18903EA0B034F
:104B70000B44181A606006A818F0F7FC06A9204636
:104B800018F0D1FDE089211D18F002FD636803EAE9
:104B90000B03A3602046FFF70DFD03460028CBD191
:104BA000019A01329BE76FF01B03C5E76FF0150513
:104BB0003BE72B46C0E700BFAC1A0200AC1B02006B
:104BC000E93702000000FFFF2DE9FF471E46037C86
:104BD000BDF8309004460F46904673B92B4B2C49D4
:104BE0002C48C91AC908890141F0010118F03FF9A0
:104BF0006FF00C0004B0BDE8F087C06A082118F01F
:104C0000BDFCA389A3EB4003B3423BD3636801938C
:104C10004FF0000A02AA01A92046019D18F0EBFC02
:104C20000028E7D1BDF80830BB4207D102A818F030
:104C300090FC18B90AF1010A1FFA8AFA6268019B0E
:104C40009A4218D0CA45E5D9BDF80C30BBB1CA4567
:104C500015D3BDF80A102D0CB3424FEA054528BF05
:104C6000334642462944204618F016FC0028C1D19C
:104C7000BDF80C00BEE7BDF80830BB42E4D06FF0D1
:104C80000100B7E76FF01500B4E700BFAC1A0200EF
:104C9000AC1B0200E9370200094B30B51D68094B17
:104CA00002461C6800239D4201DC002030BD190132
:104CB00004EB0310615C9142F8D00133F3E700BFCD
:104CC00098200200B0020020084B1B6810B50C466B
:104CD0002BB1FFF7E1FF28B12060002010BD6FF07D
:104CE0000C00FBE76FF00100F8E700BFB002002006
:104CF00030B589B00C4615460190FFF7CDFFB8B12D
:104D00004368029383682268C068CDE903350023B5
:104D1000CDE90623059316F0B9F960B1074901AA58
:104D20001CF026F8079808B9059B236009B030BD30
:104D30006FF01500FAE76FF01200F7E75FD7010098
:104D4000104B2DE9F0411C6805460E461746ACB1E4
:104D50004FF0FF324FF0FF330B4816F0B1FB6368A2
:104D60003246D3F8088029463B462046C0470446D1
:104D7000054816F01DFC2046BDE8F0816FF00104E7
:104D8000F9E700BFE81300202C090020002303608E
:104D9000044B5A6812B9C3E90000704710605860AC
:104DA000704700BFE0130020014B1860704700BF40
:104DB000E813002030B585B000230546CDE9023365
:104DC00001904FF0FF330E484FF0FF3216F078FBA2
:104DD0000C4B1C68002C38BF00243CB16368204693
:104DE0001B6801A998472468002CF6D1284600F0DA
:104DF000D7F80446024816F0DBFB204605B030BD6C
:104E00002C090020E01300201FB5CDE90101039219
:104E10004FF0FF330C484FF0FF3216F051FB0B4BB5
:104E20001C68002C38BF00243CB1636820461B6816
:104E300001A998472468002CF6D1034816F0B8FB66
:104E4000002004B010BD00BF2C090020E01300209A
:104E5000024B0022C3E90022704700BFE01300208C
:104E6000024B0022C3E90022FFF7F2BFEC1300203F
:104E70002DE9F34107460E4609B100230B601E4C95
:104E8000DFF87C800025444508D31C4B1C680CB11E
:104E9000143CC4B9284602B0BDE8F081216801AADB
:104EA000384618F081FC60B125B90EB1019B336022
:104EB000254606E029682068002218F075FC0028C5
:104EC000F3D11434DFE7216801AA384618F06CFCEE
:104ED00060B125B90EB1019B3360254606E0296813
:104EE0002068002218F060FC0028F3D114F1140FA0
:104EF000D0D06469CBE700BF481A0200EC13002051
:104F0000AC1A02002DE9F04385B00546DDF830808B
:104F100003900C4616461F46B8F1000F18D0D8F87B
:104F2000001081B103AA18F03FFC60B9002007E02F
:104F3000D8F80830009303983B4632462146C847CC
:104F400005B0BDE8F083D8F80490B9F1000FEFD1B7
:104F500003A92846FFF78CFF0028E7D0D0F8088087
:104F6000039832463B462146C04706460028DDD01E
:104F7000084B094C2846E41AE408FEF765FDA40135
:104F800044F00104014623460448324617F090FFDE
:104F9000CCE700BFAC1A0200E41B0200FB380200A1
:104FA000F8B51A4C1A4F06460025BC4206D3194BD9
:104FB0001C680CB1143C9CB92846F8BD1EB9E368C6
:104FC0004BB91434F1E720680022314618F0ECFBAD
:104FD0000028F4D1F5E79847002D08BF0546F0E713
:104FE00036B9E36863B914F1140FE5D06469E0E7FA
:104FF00020680022314618F0D7FB0028F1D1F2E7F3
:105000009847002D08BF0546EDE700BF481A02008B
:10501000AC1A0200EC13002010B5064C23783BB903
:10502000FFF71EFF00F064F808B90123237010BDDC
:105030000020FCE7072B00202DE9F047048FDFF864
:10504000ACA0013498B080468946A4B200F10806AD
:10505000651EADB2B5F5004F45D04A2305AA2946D5
:10506000304618F075FB04F57F543F34A4B2074670
:10507000214601230DF10B02304618F069FB002F89
:10508000014603DC002803DC2C46E1E7002816DC9F
:10509000B8F83830AB4209D142466B1E22F8383F8F
:1050A0004FF4004102233046FFF7AAFC2946304660
:1050B00018F04AFB2146304618F046FBE4E718ABEF
:1050C0001F44002307F84C3C5246CDF8009003AB38
:1050D00005A80396ADF81040FFF714FF0028D3D0C1
:1050E00018B0BDE8F0870020FAE700BF1BD8010028
:1050F0007FB50123694604200193FFF7E5FD0446CF
:10510000002836D102AA01A90420FFF7F1FD10F111
:10511000130F04462DD038B10C3405D0404080F335
:1051200011884FF0040002DF0399B1F5803F23D2CC
:10513000009A002395681846084485429CB203D320
:105140000133082BF8D11C460D4D5368AB6028463F
:10515000D368EC82A982EB6318F0F4FB044640B9F3
:10516000084E6E602846FFF711FE28466E60FFF776
:105170001BFE204604B070BD6FF02404F9E700BFA9
:10518000F4130020B402002010B50748074C15F0B6
:105190007DFF074B1860204601F090F92046FEF78E
:1051A00043F9002010BD00BF5C370200B55100007C
:1051B000341400200A2838B5074D044604D1286865
:1051C00083680D215B68984728688368E1B25B6853
:1051D0009847204638BD00BF341400202DE9F04127
:1051E0000E4F0446F868231A9A100D4B5343DBB256
:1051F0000C255D4305F140030E461844402118F08C
:10520000C6FB011E04DB7B682B445B6898470021CA
:1052100020463346BDE8F041184700BF5008002043
:10522000B76DDBB62DE9F041DFF84C80104DD8F8B2
:105230000C40031B9B105D43EBB20C255D430746FE
:1052400005F140000E462044402118F0B9FB011E34
:1052500009DB084B2C44C4E90E36D8F804305B59FE
:10526000BDE8F041184738463346BDE8F0411847DD
:10527000B76DDBB623DA0100500800200022F8B534
:1052800001210446104600F0FFFC002000F0CAFC9B
:105290004FF08043E7680C4903220025C3F81855F6
:1052A0003846C3F8042317F0DFFA00280BDB012689
:1052B0003E64E468044904F11C0017F0D5FA0028A4
:1052C000A4BFE6642846F8BDC82002002DE9F041DD
:1052D0000B4E01460C23F0684B43C418D4E90E571B
:1052E00000224033A263184418F088FB2DB13A46DF
:1052F00030462B46BDE8F0411847BDE8F08100BFBD
:105300005008002008B54FF02003EFF3118183F31C
:105310001188BFF36F8F134A136843F0020013F034
:10532000010310600ED04FF08042D2F80C34D2F856
:105330000C2413F0010305D00B4BD868403018F053
:105340005DFB012381F31188BFF36F8F23B1BDE8AB
:1053500008400020FFF7BABF4FF0804301221A60D7
:1053600008BD00BF981400205008002010B5064C5E
:1053700023782BB94FF4A5701BF0F1FF01232370A4
:10538000024B01221A6010BD082B002008000040CB
:10539000054B00221A6082B01B680193019B034BEE
:1053A00001221A6002B07047040100400C00004066
:1053B0000D4ABFF35B8F82B052E8003F23F0020139
:1053C00042E800100028F7D1BFF35B8F13F0010310
:1053D00007D1064A136013680193019B044B012215
:1053E0001A6002B0704700BF98140020000100400E
:1053F0000400004010B58AB000230122CDE9063236
:10540000019308AA0A4BCDE9082204AC01AACDE910
:105410000444CDE9023418F02FFB002805DB4FF4DB
:1054200080420023204616F0B3FC0AB010BD00BF36
:1054300035DA0100184B07B51A68B2B14FF0804257
:10544000D2F80423D00710D500221A601B680093FD
:10545000009B124BDB68186C10F0070005D1104B55
:105460001B68990701D5FFF731FF0E4B1A6882B10F
:105470004FF08042D2F8042392070AD500221A6026
:105480001B680193019B012003B05DF804EBFFF75B
:105490001DBF03B05DF804FB000100405008002070
:1054A0009814002004010040034AD268C3B21C20B3
:1054B00003FB0020704700BF50080020094BBFF3DA
:1054C0005B8F53E8002F42F0010143E800100028F1
:1054D000F7D1BFF35B8F93075EBF4FF0804301228C
:1054E0001A607047981400200D4ABFF35B8F82B09A
:1054F00052E8003F23F0010142E800100028F7D1F4
:10550000BFF35B8F13F0020307D1064A13601368E1
:105510000193019B044B01221A6002B0704700BF47
:1055200098140020000100400400004010B50F490D
:10553000BFF35B8F0446012251E8003F41E80020A1
:105540000028F9D1BFF35B8F43B90949C8680949FD
:105550001C304B60CB608A6017F099F9013C012C3C
:1055600003D8BDE8104018F068BA10BD9C140020A4
:105570005008002038140020821C084B22F07F4283
:10558000C3F84025D3F80425904200D17047D3F8E2
:105590000405821C22F07F42F2E700BF00100140A8
:1055A000044B002282B01A601B680193019B02B079
:1055B000704700BF4011014008B5FFF7F1FF074BEE
:1055C000074AD3F840051368C01A20F07F4003440F
:1055D0001360BDE8084016F003BE00BF0010014094
:1055E000A014002038B5104D0024C5F80845FFF779
:1055F000D7FF0E4B4FF40032C3F880214FF48033B5
:10560000C5F8043322460121112000F03DFB112092
:1056100000F008FB064A0123136020462B60FFF7C9
:1056200085FF204638BD00BF0010014000E100E0CA
:105630000810014070B52A4B2A4C1968D4F804258B
:10564000294D521AB0F1FF3F08BF284622F07F4390
:10565000120234D4013820EAE070A842A8BF2846DC
:1056600001334FF480361844C4F80863A84294BF4D
:105670000D184D19D4F80405D4F84015FFF790FF24
:10568000091A21F07F4120F07F430129C4F84035F9
:10569000C4F8446304D10F201BF061FEFFF780FFC4
:1056A000124B4FF40032C3F88021D4F804052B1AB2
:1056B00023F07F43012B04D1FFF75EFF0BE00020B6
:1056C000CEE725F07F43C4F84035D4F804052D1A01
:1056D000023D2B02F0D44FF48033C4F8043370BD84
:1056E000A014002000100140FFFF7F0000E100E057
:1056F0004FF02002EFF3118382F31188BFF36F8F15
:10570000064AD2F80405064A1268801A20F07F4043
:1057100083F31188BFF36F8F704700BF0010014003
:10572000A01400204FF02003EFF3118283F31188BF
:10573000BFF36F8F0649074B0868D3F8043582F32F
:105740001188BFF36F8F1B1A23F07F4318447047F3
:10575000A01400200010014010B5114C114AA261A4
:105760000323C4E90433104BE36122664FF48063E2
:105770000E4A0F492362626600231022E01DA362D5
:105780006362E3622367E3666367A26619F0E2FA85
:105790000849204619F0DEFA2023A37110BD00BF8E
:1057A000A414002050390200192B0020092B0020DE
:1057B000593902005D3902002DE9F84F234F4FF0AF
:1057C000180B14460BFB00720646936A556AAB42EF
:1057D000884634D8D2F820A0AAEB050909F1FF3297
:1057E000944211D84FF0180906FB09933B44224616
:1057F00058684146284419F0FCFA09FB06762C4407
:1058000074620120BDE8F88F13449C421BD800FB52
:105810000BBBBB444A46DBF804002C44284419F077
:10582000E8FAB4EB0A0406D0DBF80400224608EBE1
:10583000090119F0DEFA182000FB0676E0E7013BCB
:105840005B1BA342CED20020DCE700BFA4140020E3
:10585000034B182202FB00339A6A586A801A704779
:10586000A4140020014B1868704700BFC402002038
:10587000F0B5082289B00C46064618F0E1FACB6A6A
:1058800003930B6B04934B6B05938B6B0693CB6B62
:105890000793002708236A4669466846CDE90177E1
:1058A000009718F0CFF9082305466A46314630467E
:1058B00018F0C8F9236B0393636B0493A36B0593F0
:1058C000E36B0544CDE906376A4608236946684616
:1058D00018F0B8F93146054408236A46304618F0F6
:1058E000B1F9236A0093636A0193A36A0293A36BDD
:1058F0000693E36B0793054408236A463046CDE9D7
:105900000477039718F09EF9636A0093A36AA26B69
:105910000193E36A02930492636BE26B0393CDE914
:105920000523236A0793054408236A46304618F086
:1059300089F9E36A0093236B0193636B0293236AF3
:105940000693A36A0793054408236A463046CDE9C7
:105950000477039718F0AAFA236B0093636B019303
:10596000A36B0293E36B0393636A0693E36A079363
:105970002D1A08236A463046CDE9047718F096FAC6
:10598000636B0093A36B0193E36B0293236A03930E
:10599000636A0493A36ACDE90537236B07932D1A35
:1059A00008236A46304618F081FAA36B0093E36B34
:1059B000CDE90137636A0393A36A0493E36ACDE9EF
:1059C0000537636B07932D1A08236A46304618F093
:1059D0006DFA2D1A10D40D4C35B9082231462046E7
:1059E00018F03AFA01280FD00823224631463046F3
:1059F00018F05CFA2D1AEFE7044A082331463046C6
:105A000018F020F92D18F8D409B0F0BDD820020004
:105A1000F0B5264E07460C460FCE8DB001AD0FC532
:105A20000FCE0FC596E8070085E807003846002F1F
:105A300038D0002C38D0381F2146024610344B781D
:105A40000D781B0443EA0563CD782B438D78043130
:105A500043EA05238C4242F8043FF0D1144C042160
:105A60008A07036916D1C3F30742A55C1A0EA25C2C
:105A700042EA0562C3F30725DBB2655DE35C42EAF7
:105A8000054242EA03220CAD21F003032B4453F8F4
:105A90002C3C534050F8042F013153402C29036112
:105AA000DED101200DB0F0BD2046FBE7341C020022
:105AB000643902002DE9F043154689B006460028F6
:105AC00058D0002959D0002A59D010230A466846D8
:105AD000194617F0F3FF294668462A4C18F0F8FEDD
