:020000040800F2
:10000000C8070020650F0008F52A0008910F0008B6
:10001000910F0008910F0008910F000800000000E8
:10002000000000000000000000000000F10D0008CA
:10003000910F000800000000A90D0008F50B000852
:100040003D0F00083D0F00083D0F00083D0F000860
:100050003D0F00083D0F00083D0F00083D0F000850
:100060003D0F00083D0F00083D0F00083D0F000840
:100070003D0F00083D0F00083D0F00083D0F000830
:100080003D0F00083D0F00083D0F00083D0F000820
:100090003D0F00083D0F00083D0F00083D0F000810
:1000A0003D0F00083D0F00083D0F00083D0F000800
:1000B0003D0F00083D0F00083D0F00083D0F0008F0
:1000C0003D0F00083D0F00083D0F00083D0F0008E0
:1000D0003D0F00083D0F00083D0F00083D0F0008D0
:1000E0003D0F00083D0F00083D0F00083D0F0008C0
:1000F0003D0F00083D0F00083D0F00083D0F0008B0
:100100003D0F00083D0F00083D0F00083D0F00089F
:100110003D0F00083D0F00083D0F00083D0F00088F
:100120003D0F00083D0F00083D0F00083D0F00087F
:100130003D0F00083D0F00083D0F00083D0F00086F
:100140003D0F00083D0F00083D0F00083D0F00085F
:100150003D0F00083D0F00083D0F00083D0F00084F
:100160003D0F00083D0F00083D0F00083D0F00083F
:100170003D0F00083D0F00083D0F00083D0F00082F
:080180003D0F00083D0F0008CF
:1001880053B94AB9002908BF00281CBF4FF0FF31F6
:100198004FF0FF3000F06EB9ADF1080C6DE904CEF8
:1001A80000F006F8DDF804E0DDE9022304B070474A
:1001B8002DE9F047089D0E4604468C46002B40F07A
:1001C80081808A42174645D9B2FA82F24AB1C2F111
:1001D800200106FA02F320FA01F1974041EA030CE4
:1001E80094404FEA174E230CBCFBFEF6B9B20EFB47
:1001F80016CC43EA0C4306FB01F0984209D9FB18D8
:1002080006F1FF3C80F01581984240F21281023ECF
:100218003B441B1AA4B2B3FBFEF00EFB103344EAB6
:10022800034400FB01F1A14209D93C1900F1FF3355
:1002380080F00181A14240F2FE8002383C44641AF9
:1002480040EA064000211DB1D4400023C5E900431F
:10025800BDE8F08702B9FFDEB2FA82F2002A4FD178
:10026800CB1B4FEA174E1FFA87F80121B3FBFEFCA0
:10027800260C0EFB1C3346EA034608FB0CF3B3427C
:1002880007D9BE190CF1FF3002D2B34200F2EB805D
:100298008446F61AA3B2B6FBFEF00EFB106643EADC
:1002A800064408FB00F8A04507D93C1900F1FF33C4
:1002B80002D2A04500F2D2801846A4EB080440EA16
:1002C8000C40C0E78B4208D9002D00F0AF80002118
:1002D800C5E900060846BDE8F087B3FA83F10029AE
:1002E80049D1B34202D3824200F2BB80841A66EB42
:1002F800030301209C46002DAAD0C5E9004CA7E7BE
:10030800C2F120039740D8409140DE404FEA174E93
:1003180008434FEA104CB6FBFEF11FFA87F80EFBB4
:1003280011664CEA064601FB08F3B34204FA02F4EC
:1003380009D9BE1901F1FF3C80F08E80B34240F22A
:100348008B8002393E44F31A86B2B3FBFEF00EFBF3
:10035800103346EA034600FB08F3B34207D9BE1937
:1003680000F1FF3C74D2B34272D902383E44F31A0A
:1003780040EA01417AE7C1F1200703FA01F422FAC1
:1003880007F31C4320FA07F906FA01F34FEA144C65
:10039800FE4049EA03094FEA1943B6FBFCFE1FFA7F
:1003A80084F80CFB1E6643EA06460EFB08FAB245C3
:1003B80002FA01F200FA01F308D9A6190EF1FF308A
:1003C80048D2B24546D9AEF1020E2644A6EB0A063B
:1003D8001FFA89F9B6FBFCF00CFB106649EA0646E1
:1003E80000FB08F8B04507D9A61900F1FF3C2DD24B
:1003F800B0452BD90238264440EA0E40A6EB080641
:10040800A0FB02894E45C446CE4618D315D075B315
:10041800B3EB0C0266EB0E0606FA07F722FA01F3B5
:10042800CE401F43C5E90076002111E7294628463A
:100438000EE76646EDE6184601E74345E7D2B8EB16
:10044800020C69EB04040138A646E0E76046D3E7EE
:1004580060468CE78646B9E7614674E702383C4453
:100468002BE7084647E7ACF1020C3E4411E7294662
:10047800EEE600BF704700BFF8B5194801F012FC5E
:10048800044640B3C56883684FF4D0521B680D21F9
:10049800984700281ED12B6823F400532B60114F76
:1004A8000125E3681B6885F0010613F4005F18BF97
:1004B800F5B28DB1A368DB684FF400512046984728
:1004C800384602F09BF9F5B2002142F2107001F0B3
:1004D80091FFE6E7E3DAF8BDA3681B69ECE700BF24
:1004E800B2360008B83600082DE9F04F87B00F463D
:1004F8001946109B9DF844B09DF848A01F4C06462D
:100508001425104698464FEAE37950EA010319D1B9
:10051800142D139C14BF013530232C4408BF8DF8CB
:100528001430152C1BD0153C002C1ADC1DF80500C6
:1005380039460135B047152DF8D1002C19DC07B024
:10054800BDE8F08F42464B46FFF71AFEA25C0DF855
:10055800052084460B4660461946013DD5E7002430
:10056800E4E7BBF1000FE1D039465046B047013C03
:10057800DAE739465046B047013CDEE7C4360008A2
:100588000B6801330B60014B1B6818470000002003
:10059800014B1860704700BF000000202DE9F04FA4
:1005A800002687B005468B461C4602F1FF394FF0FE
:1005B800FF383746002307E06BB9252800F0FC8098
:1005C80059460493A847049B19F8010F0028F3D152
:1005D80007B0BDE8F08F7A280AD8622810D83028EA
:1005E80052D045D8252800F0E5802D2800F0EA8073
:1005F80059462520A84799F800005946A847D9E741
:10060800A0F16302172AF3D801A151F822F000BF24
:10061800B5070008D9060008F9050008F90500081B
:10062800F9050008BB060008D9060008F905000806
:10063800F9050008BB060008F9050008F9050008D7
:10064800F90500083D070008F9050008F905000844
:100658007F070008F9050008D9060008F905000811
:10066800F905000881060008F9050008BB0600081E
:10067800392815D95828BBD199F80030702B63D187
:1006880054F8042B00236AE0B8F1000F0BDA002FAE
:1006980000F09A80A0F13008002F08BF022793E7E6
:1006A800B8F1000FF6DB0A2202FB0808A8F13008AF
:1006B800F2E7682803D1682E06D1482684E76C281B
:1006C80002D16C2E00F08280002E91D106467BE785
:1006D8007A2E03D154F8042BD31708E06C2EF9D0E6
:1006E8004C2EF7D1073424F00704F4E802237528C8
:1006F8000FD0002A73F100010BDA59462D20CDE9FD
:100708000423A847DDE90423524263EB430308F1BD
:10071800FF38F91E18BF0121012F0CBF30202020FF
:10072800CDE9020801910A21009128465946FFF7B0
:10073800DBFE3FE759463020A84759467820A847AE
:100748004FF00808012797E76C2E99D04C2E97D1C7
:10075800E31D23F007031C465B6854F8082BF91EB9
:1007680018BF0121012F0CBF302020200191CDE9B5
:1007780002081021D8E7A2465AF8043B1C46214635
:1007880014F8010B40B9032F22D1CC1AA8EB0404AA
:10079800002C06DC54460DE759460493A847049BF1
:1007A800EDE759462020A847013CF1E754F8040B2F
:1007B800594623E7594621E71E461F464FF0FF38A2
:1007C800012301E70327FFE60127FDE64C26FBE6A8
:1007D80054460346F8E600BF07B50B46002102461B
:1007E8000191034801A9FFF7D9FE03B05DF804FBA6
:1007F800890500084FF01002EFF3118382F3118886
:10080800BFF36F8F83F31188BFF36F8F024B034AD7
:100818001A600020704700BF2C0000200024F4005C
:1008280010B50748074C01F03DFA074B1860204601
:1008380000F068FD2046FFF7ABFE002010BD00BFAA
:10084800D536000855080008480200200A2838B59F
:10085800074D044604D1286883680D215B689847D2
:1008680028688368E1B25B689847204638BD00BFB6
:10087800480200202DE9F843D6680D4F04460D467E
:100888004FF0010806F10409AC4201DBBDE8F8832A
:100898007A6908FA04F333EA020207D17B6156F851
:1008A80034301BB159F83410204698470134EBE72F
:1008B800003C0140044A0123116883400B43136044
:1008C800024B185600F0A0BA003C0140E736000879
:1008D8001F2807DC044901220B6802FA00F023EA0A
:1008E80000000860704700BF003C014003290FD892
:1008F800DFE801F0020F1723154B0122996802FA6D
:1009080000F021EA00019960DA6822EA0000D86064
:100918007047012303FA00F00D4B9A6802439A606E
:10092800F2E7012303FA00F0094BDA680243DA60C0
:100938009A6822EA000098607047012303FA00F0E1
:10094800034B9A6802439A60DA681043DFE700BFF6
:10095800003C01400346074830B5C46854F83300EA
:1009680004EBC30518B944F833106A6030BD6FF062
:100978000F00FBE748000020044BDA6802EBC001D7
:10098800002342F830304B60704700BF4800002019
:100998000B6884B0032B2DD8DFE803F0020E182271
:1009A800164A4B68116B19431163126B134000937D
:1009B800009B002004B07047104A4B68516B1943E4
:1009C8005163526B13400193019BF2E70B4A4B684A
:1009D800116C19431164126C13400293029BE8E7EF
:1009E800064A4B68516C19435164526C1340039387
:1009F800039BDEE76FF02200DCE700BF003802400F
:100A08000B68032B20D8DFE803F0020A1118104AFC
:100A18004968136B23EA01031363002070470C4AEB
:100A28004968536B23EA01035363F6E7084A4968A8
:100A3800136C23EA01031364EFE7054A4968536C12
:100A480023EA01035364E8E76FF02200704700BF10
:100A5800003802400968084B02291B6805D005D9EF
:100A6800032906D06FF0220070479B08136000200E
:100A780070475B08FAE700BF2C00002030B5002162
:100A880087B04FF4A053CDE900134FF4004302930D
:100A980000F038F803A802F016F8184B1A68900707
:100AA80006D41A6842F001021A601A689207FCD547
:100AB800124CA36823F00303A360A36823F0F00398
:100AC800A360A56815F00C05FBD123680C4823F03A
:100AD80080732360636823F0706343F0E0636360AE
:100AE80003AA6B46294601F07DF8236823F0010329
:100AF800236001F0F0FF284607B030BD00380240FF
:100B080000127A00064B1A6C42F080521A641B6C71
:100B180082B003F080530193019B02B0704700BF7D
:100B28000038024073B5044606090D46104612B94E
:100B3800114801F0B7F800230093104B53F8263002
:100B48000193013302D16FF0040012E08368694613
:100B58001B6898470028F6D12011800200F18040D8
:100B680005F00F032A4604F00F0100F5003002F0EB
:100B780087F802B070BD00BFFE360008CC3400080C
:100B8800F8B504460D46094801F08CF800260746DA
:100B9800AE4204F1080400D1F8BD54F8041C14F85E
:100BA800080C3A46FFF7BEFF0136F1E7FE360008AB
:100BB8000B4B9A68196898680A4B11F4803F10B576
:100BC800094901D1824205D21A680C6822441A6088
:100BD800034A12681B680A681344181A10BD00BF3C
:100BE80010E000E0100300200C03002008B5FFF718
:100BF800DFFF0C4B0C4A186811680844106000228B
:100C08001A600A4A116844F2A013401AB0FBF3F0C4
:100C180003FB0013136001F055FDBDE8084000F028
:100C280085BA00BF10030020080300200403002039
:100C3800094B102283F82320084B44F29F121A60B4
:100C4800074B00201860074B5A6098601A6842F0FA
:100C580007021A60704700BF00ED00E00C03002097
:100C68001003002010E000E070B52B4D044651B190
:100C7800431C0ED1294A136823F0010313604FF077
:100C88007F432B6070BD40F2E533B0F1FF3F08BFF2
:100C98001C464FF01003EFF3118683F31188BFF35E
:100CA8006F8FFFF785FF1E4B1A68104418601D4BA5
:100CB80000221A601C4B1B68C21A0DD540F21A4359
:100CC8002B602B68154A013B53600023936086F321
:100CD8001188BFF36F8FD5E7013C24EAE47440F232
:100CE800E5318C4202F58342A8BF0C46181A44F23B
:100CF800A0111F3201FB042440F21A43B4FBF1F4A3
:100D080001FB04049C4204D9084B9C42D8D82C60AF
:100D1800D7E71C46FBE700BF0C03002010E000E00B
:100D28000803002010030020040300202094FF0083
:100D380010B54FF01003EFF3118483F31188BFF35C
:100D48006F8FFFF735FF074B074A1B6812689B1A1E
:100D5800034484F31188BFF36F8F44F2A010B3FBF0
:100D6800F0F010BD0803002004030020094A0A49D6
:100D780093680968D967094998674B6843F08053B5
:100D88004B60002383F31188BFF36F8F9368D86F8C
:100D9800704700BF84030020A836000800ED00E07B
:100DA8000F498A684FF038001044EFF3098C80E847
:100DB800F01F102080F31188BFF36F8F094F4FF099
:100DC80000660A6A8A603E60906F0023936780F32A
:100DD800118802F1380090E8F01F8CF309887047F9
:100DE8008403002004ED00E01EF0040F0CBFEFF3B5
:100DF8000880EFF30980816911F8021C0229FFD0ED
:100E080001B501F06FFE01BD43B2002B08DB0122E2
:100E180000F01F0002FA00F05B09024A42F82300C2
:100E2800704700BF00E100E043B2002BA8BF03F108
:100E3800604301F10101B8BF064B4FEA0111ACBF95
:100E480003F5614300F00F00C9B2B4BF195483F829
:100E58000013704714ED00E042F8203C009B42F874
:100E68001C3C0A49019B42F8183C029B42F8143C7E
:100E780021F001014FF0807342F8043C42F8081C4D
:100E88000023203A82658367704700BF1F28000847
:100E980008B506460D46144600F088F9074B9E60D3
:100EA800204685F30988002163B681F31188BFF3D2
:100EB8006F8F0022002301F0AEFC00BF84030020E6
:100EC800014910220A60704710ED00E072B64040F8
:100ED80080F31188BFF36F8FBFF34F8F30BF62B6B7
:100EE800BFF36F8F704700BF30BFFFF7FDBF00BF74
:100EF8000E4A08B50E4B22F07F029A60BFF34F8F5F
:100F0800BFF36F8FD3F8882022F47002C3F88820CB
:100F1800EFF3148323F0040383F3148800F0E6FE50
:100F280000F0FCFE00F010F900F042FF000000089D
:100F380000ED00E001B5EFF30580A0F110004FEAE5
:100F4800C0000449014409C99847BDE80140024965
:100F5800084700003432000835110008102080F3DB
:100F6800118808484FF40061401880F30988EFF3AE
:100F780014800221084380F31488BFF36F8FFFF7B2
:100F8800B7FF000008090020EFF30880EFF309819C
:100F9800724601B500F04EF801BD00BF0C4B9A6ACD
:100FA8009A6A9A6A920708D55A6B9A6A120604D501
:100FB80018B19A6A22F080029A62054B9A6A9A6A74
:100FC8009A6A9A6A002042F0FF029A620870704793
:100FD80000ED00E00D4B9A6A9A6A9A6A920508D564
:100FE8009A6B9A6A120404D518B19A6A22F40042DC
:100FF8009A62064B9A6A9A6AD20558BF9A6A9A6A9E
:10100800002042F47F429A620870704700ED00E0C9
:10101800074B9A6A9A6A9A6A9A6A9A6A9A6A9A6A5A
:101028006FEA02426FEA12429A620020704700BFDC
:1010380000ED00E070B5364B5B688AB00E46C3F32E
:101048000803002585F31188BFF36F8F02F07F41F5
:10105800B1F17F4F11D102F00C0108290DD0110711
:1010680001D4064601250022033B8DF80720032BF7
:1010780047D8DFE803F0043E423B2E46F3E7244B13
:10108800DA6A92073DD4DC6A14F0804408D0283329
:101098001B78EBB10DF107010120FFF77FFF044634
:1010A8009DF8073093B92022314602A801F031FD9E
:1010B800099B45B3C3F3080222B96FEA53236FEAC9
:1010C8004323099302A9204601F00AFD0AB070BD26
:1010D800104B1B782BB10DF107010120FFF77AFFA8
:1010E800DDE70D4B188884B2002CD9D0FFF790FFAC
:1010F800D5E70DF107010020CFE70DF1070100202A
:10110800ECE70024CCE723F4FF7323F00103D8E7CE
:1011180000ED00E029ED00E02AED00E0024A536905
:1011280043F010035361704700ED00E0044B9968E9
:10113800186A884203D003494FF080520A6070470A
:101148008403002004ED00E0044800231021C218A5
:101158000133522B82F80013F9D1704700E100E007
:1011680038B504464FF01003EFF3118583F3118867
:10117800BFF36F8F01F040F80A4B9B68A3420BD175
:10118800094B5A68C2F3080212B92846FFF7EEFD68
:101198005A6842F080525A602846BDE8384001F04B
:1011A80024BF00BF8403002000ED00E01FB5084BFA
:1011B8000193084B0293084B039301AB0093074A32
:1011C800074B0121684600F093F805B05DF804FB71
:1011D800000000200000000000000B0600000020B6
:1011E80000000220DFF884C0F0B50646002710464C
:1011F8008F4200DBF0BD56F827E0DEF8044094B3D8
:1012080043B1651E2C4219D11F2C17D9DEF80020D6
:10121800154213D1202CC2B2DEF80050DEF80800C7
:101228000FD9B4F1004F0ED8013CB4FA84F4C4F1DC
:101238001F046400072A44EA000406D96FF0150069
:10124800D8E70824F6E73E24F4E725F01F05154300
:1012580045F0100544F00104CCF80820501CCCF8E7
:101268000C50CCF810400137C2E700BF90ED00E009
:10127800034B05225A60BFF34F8FBFF36F8F704740
:1012880090ED00E0BFF35F8F014B00225A6070477A
:1012980090ED00E013490868082810B51ED8FFF73C
:1012A800F1FF114C49680022904201F10C0105D16F
:1012B8000E4B1870FFF7DCFF002010BDA26051F83C
:1012C8000C3C23F01F03134343F01003E36051F871
:1012D800043C43F0010323610132E5E74FF0FF309E
:1012E800EBE700BFF834000890ED00E0C0030020F1
:1012F80010B5034C01232278FFF774FF207010BD4E
:10130800C0030020014B1860704700BF1800002080
:1013180008B503480521FFF733FC002008BD00BFCE
:1013280018350008B2F5005F2DE9F34147680C460F
:101338001E4623D101F0030304339A000F23934080
:1013480043EA9103DAB23749023251F82220190CE4
:1013580002EA134391FAA1F2B2FA82F2D340BA68D0
:101368009A4209D12046FFF7B3FA2046FFF704FB5B
:1013780000212046FFF7BAFA002544E0B2F5804F75
:1013880049D0024628492046FFF7E4FA05460028D6
:1013980044D1BF68254800F085FC2549034603C9A8
:1013A8006A4682E8030099681846D1F80080114619
:1013B800C04704F0030104318B000F21994041EA32
:1013C8009401CAB2920002F1804202F59C320B0CE1
:1013D800906893FAA3F3B3FA83F320EA11419F408C
:1013E8000F43B6F5802F976011D0B6F5C02F10D0F7
:1013F800B6F5003F14BF002102212046FFF776FA18
:101408002046FFF757FA284602B0BDE8F0810121CF
:10141800F3E70321F1E76FF02205F4E76FF00F051A
:10142800F1E700BF00380140BD2B0008FE36000878
:10143800C434000810B54468064800F033FC8368DB
:1014480004F10C011B689847002818BF6FF00400CE
:1014580010BD00BFFE3600082DE9F043013903290D
:10146800466889B01446984600F28F80934200F28D
:101478008C803068B0F1804F06D0474B984203D03B
:10148800B2F5803F00F28480444B53F821702CB9A8
:10149800016A21EA07010162002026E0036A9DF83B
:1014A800405007EA030237EA030305F0010505D1B6
:1014B800012A4FEA450542D100224EE0684601F074
:1014C80058FD4FF001096023CDE9003905FA09F507
:1014D80000233068CDF80C806A4639460495069397
:1014E80000F0ECF920B16FF0040009B0BDE8F0831A
:1014F800012F32680DD0042F19D0102F19D0402F8A
:1015080019D0B7F5807F18D0B7F5806F0CBF0520CC
:101518000620234B195C234B1832185C8D5808237E
:1015280083402B438B503368013CDC62B4E7484668
:10153800EFE70220EDE70320EBE70420E9E7042AC0
:101548001BD0102A1BD0402A1BD0B2F5807F1AD09E
:10155800B2F5806F0CBF05220622134F036ABF5CE9
:101568000222BA4023EA0203BD401D430F4B056225
:1015780053F8213041469847D5E70122EDE702228A
:10158800EBE70322E9E70422E7E76FF01500ACE791
:101598006FF02200A9E700BF000C004018360008D1
:1015A80056370008643700085D37000840360008E1
:1015B80070B5C568446886B01F4800F073FB83683F
:1015C80004F108061B683146984700282EDB1A48A4
:1015D80000F068FB836801AADB6831469847002859
:1015E80024DB019B5B002B6001A801F0B9FC636858
:1015F800ADF8043000238DF814302068049301A955
:10160800CDE9023300F0F6F890B923680B4A93420B
:1016180003D002F58062934203D15A6C42F400422F
:101628005A641A6842F001021A60002006B070BDC0
:101638006FF00400FAE700BFFE3600080000014022
:101648002DE9F8430A794368C6681C68012A0D46E3
:1016580075D0022A0CBF4FF48061002195F80580EF
:1016680095F80690EF79B8F1020F96BF374B4FF413
:10167800005E33F818E0B9F1040F0CBF4FF4805343
:101688000023033A012F14BF4FF0000C4FF4407CA5
:10169800012A57D918F0FD0F54D0B9F1020F51D9CA
:1016A80087B12B4A94420BD0A2F54C42944207D002
:1016B80002F58062944203D002F54C42944241D133
:1016C800012F3FD1E26822F40052E260E26802F49E
:1016D800C0628A421FBFE76827F4C0670F43E7600C
:1016E800226902F4405296451FBF216921F44051F6
:1016F80041EA0E012161E268296802F480529342AE
:101708001FBFE26822F480521A43E260636903F45F
:1017180040739C451FBF636923F4407343EA0C037D
:1017280063613368994203D001F0F6FB2B6833609C
:10173800E36843F40053E3600020BDE8F8834FF406
:10174800C0618BE76FF02200F7E700BFAC360008F6
:10175800001001402DE9F041D0F80480C7684546E3
:10176800064655F8084B224800F09CFA83687860D2
:1017780029461B6898470546002836D1E36823F4B4
:101788000053E360E36843F00C03E360D8F81430D7
:10179800022B25D0012B15BF02464FF4805201467B
:1017A8004FF4C061E3680A4323F4B0531343E36082
:1017B800236923F44053236198F810302BB17368E0
:1017C8001A68536943F4407353613968304601F02D
:1017D800A3FBE36843F40053E3602846BDE8F081C7
:1017E8004FF480524FF48061DCE76FF00405F4E7B2
:1017F800FE3600082F4A0368904212D0B0F1804F9D
:101808000FD0A2F57C4290420BD002F58062904244
:1018180007D002F58062904203D002F578429042E8
:1018280019D14A6823F070031343224A904229D001
:10183800B0F1804F26D0A2F57C42904222D002F52A
:10184800806290421ED002F5806290421AD002F562
:101858007842904216D0184A904213D002F580621E
:1018680090420FD002F5806290420BD0A2F59832D8
:10187800904207D002F58062904203D002F5806260
:10188800904203D1CA6823F44073134303608B6802
:10189800C3620B888362074B984203D003F58063C9
:1018A800984201D10B7C0363436943F00103436110
:1018B800002070470000014000400140B1F5807FE2
:1018C80030B500F09B8005D801292DD010295FD0B4
:1018D800012030BDB1F5805FFAD1036A156823F4A1
:1018E80080530362036A4468C16921F4E64141EA0E
:1018F8000521156923F4005343EA0533556823F499
:10190800805343EA0533584DA84203D005F5806556
:10191800A84204D1956924F4804444EA8514D26825
:101928004460C161026430E0036A156823F0010372
:101938000362036A4168846924F073042C431569BF
:1019480023F002032B43556823F001032B43464D34
:10195800A84203D005F58065A84212D1556923F045
:10196800080343EA8503956823F0040343EA8503E3
:10197800956921F480712943D56921F4007141EA00
:101988004501D26841608461426303620020A0E798
:10199800036A156823F010030362036A41688469C7
:1019A80024F4E64444EA0524156923F0200343EAB5
:1019B8000513556823F0100343EA05132A4DA8427E
:1019C80003D005F58065A84213D1556923F080033B
:1019D80043EA8513956823F0400343EA8513956924
:1019E80021F4806141EA8501D56921F4006141EA69
:1019F800C501D268416084618263C6E7036A1568DD
:101A080023F480730362036A4168C46924F0730491
:101A18002C43156923F4007343EA0523556823F41E
:101A2800807343EA0523104DA84203D005F580656D
:101A3800A84213D1556923F4006343EA85239568C6
:101A480023F4806343EA8523956921F4805141EAB0
:101A58000511D56921F4005141EA4511D268416068
:101A6800C461C26391E700BF00000140054B1A68DA
:101A78001B6802F0007203F00063134314BF0120D7
:101A88000020704700380240002843D0284B1B68CC
:101A980013F4804312D0274B274A98423ED8274B4D
:101AA800984242D8904237D8254B984226D80023EE
:101AB800244A904202D9012B38BF01231C4A1268DC
:101AC80052040ED4204A90421AD91B4A002B08BF50
:101AD8000423904202D81A4A904215D8194A9042D3
:101AE80012D81A490A6822F00F021A430A600868D5
:101AF80000F00F00C01A18BF012070470223DDE76D
:101B08000F4A9042EAD91BB1012B38BF0123E8E7FD
:101B18000223E6E7012070470323C9E70523904223
:101B2800C6D8074A9042C3D9C5E70423F7E700BFE0
:101B38000070004080D1F008804A5D05000E27073C
:101B48000087930380C3C901001BB700003C024013
:101B58000B68214AC3F3031370B5D35C1F4E20FAF8
:101B680003F43368A3420D4627D31D4B1A6842F08D
:101B780080721A601A689201FCD59A68296822F066
:101B8800F0020A439A609A6822F0030242F00202C5
:101B98009A60134B9A6802F00C02082AFAD19A68E4
:101BA800696822F4E0520A439A609A68A96822F4A4
:101BB80060420A439A60002004E02046FFF764FF71
:101BC8000028D2D03368A34202D92046FFF75CFF31
:101BD80000B9346070BD00BF723700082C000020C7
:101BE800003802402DE9F0410D460446904619465A
:101BF800FFF73CFF002838D1D8F80060D8F8047007
:101C0800D8F8083006F03F00B4FBF0F4C7F308003A
:101C18004443180C01304000B4FBF0F0144C226827
:101C280092030FD42268012D0CBF42F4802222F4C3
:101C380080222260226842F4803222600C4C2268A2
:101C48009203FCD50A4C0B4A65682A4042EA87127F
:101C5800324342F480026260626822F440321A43DE
:101C68006260BDE8F041FFF773BF0120BDE8F08175
:101C7800003802400080BFFFF8B5094B53F82040F8
:101C88000130002753F82060A64200D8F8BDD4E9F7
:101C980000352846984708B105B1AF600834F3E726
:101CA800943600080F4B70B50F4C05461E469C42F3
:101CB80004D10D4CB44208D1002410E0A26812B13E
:101CC8002268AA420BD01034F1E7A3680BB910348C
:101CD800F0E72168284600F010FF0028F7D12046D9
:101CE80070BD00BF280100203800002008B5074853
:101CF800074A0021121A00F037FF0648064ABDE8D5
:101D08000840121A002100F02FBF00BF4001002038
:101D1800C4030020000000100000001009480A4A0F
:101D28000A4908B5121A00F0F4FE094A09490A4896
:101D380000F0EFFE09480A4A0A49BDE80840121AAD
:101D480000F0E7BE000000203C010020D03700086A
:101D580000000000D037000800000020000000103C
:101D6800000000100C39000808B50C4B01220220B5
:101D78001A70FFF781FF0A4A0A490B4800F03EFD36
:101D88000320FFF779FF00F08BFBFEF775FB074A8E
:101D9800137B23F00103137308BD00BFC1030020A8
:101DA800C937000882370008A3370008C00100209F
:101DB8002DE98048DFF8F490A7B089F30888334DFF
:101DC800334E6B69DFF8E8A0324F43F40073002408
:101DD8006B61F02385F82230EC772C766C76AC7644
:101DE8006B6A43F4E0236B62FFF798F9FFF768F832
:101DF8004FF0FF33AB62EB62274D40F20113ADF8B1
:101E0800243006ABAB602046CDE92044FFF734FF11
:101E18000120FFF731FF4FF0010B00F091FA1F4B43
:101E28002E621F4905934FF480625346CDE9034B58
:101E3800CDE901440094304600F002FB737B8046F4
:101E480023F004033046737301F0EFF80F23CDE954
:101E580002431449144B4FF4A072CDE904B4CDE900
:101E68000044384600F0ECFA7B7BEF6023F0040373
:101E78007B7305F11803C5E906332C75C5F8049082
:101E8800524641463046FFF703F800BF00ED00E038
:101E9800C00100204001002084030020CA37000848
:101EA800C8030020C807002051310008081100208D
:101EB800711D000810B5084C23685BB1FEF738FFA8
:101EC80003462068054A0344BDE810401361002119
:101ED80001F01CB910BD00BFB80300208403002026
:101EE80010B54FF01003EFF3118483F31188BFF39B
:101EF8006F8F084B00221A610A235843064B18605B
:101F0800064B1960FFF7D6FF84F31188BFF36F8F74
:101F180010BD00BF84030020B8030020B4030020D4
:101F28004FF01003EFF3118183F31188BFF36F8F24
:101F3800044B9A68D37B013BD37381F31188BFF3B9
:101F48006F8F704784030020094B03F124028242FB
:101F580005D19B688B4202D14B7BDB0606D1D1E9C8
:101F6800003213605A600023C1E90033704700BF94
:101F78008403002070B5104C064604F1240001F0DB
:101F88004AF8A368597B0546880644BF41F0080112
:101F9800597305B9E5684EB95A7BD20606D1AA69C4
:101FA80022B9DA897F2A01D9236270BDAB4201D0F8
:101FB800FFF780FF2562F8E78403002010B54FF093
:101FC8001003EFF3118483F31188BFF36F8F084B6D
:101FD8009A68D37B0133D3730020FFF7CBFF84F3D8
:101FE8001188BFF36F8FBDE8104001F00AB800BF39
:101FF8008403002070B4437BDB062AD1836943BB8A
:10200800154A114651F8244F8C4218BF2346002B1D
:10201800946A38BF0023B3B190F90E6093F90E505B
:10202800AE4203DBA3420ED01B68F4E75A68C0E94E
:10203800003210605860437B63F07F03437370BCC9
:102048000020FFF797BFC0E90014936A18609062F8
:10205800F1E770BC704700BF8403002010B54FF053
:102068001002EFF3118482F31188BFF36F8F427B64
:10207800510704D484F31188BFF36F8F10BD22F089
:1020880004024273FFF7B6FF21460248BDE810403C
:1020980000F0A0BFC2030020F8B501464FF01003BE
:1020A800EFF3118483F31188BFF36F8F90F90D302C
:1020B800002B02DA1948FFF747FF194A1046956ABC
:1020C80050F8243F834208BF0023002B38BF002369
:1020D800EBB191F90E7093F90E60B74203DB9D42A4
:1020E80015D01B68F4E75868C1E9003001605960F1
:1020F8004B7B906863F07F034B73431A58425841F7
:10210800FFF738FF84F31188BFF36F8FF8BDC1E97B
:102118000005936A19609162EAE700BFA8030020EE
:102128008403002038B5154A154B14680146986891
:10213800A0421C4603D1BDE83840FFF7BBBE0025CE
:102148001560104A1268B2B1C2897F2A13D80E4AA4
:1021580090F90E50126895420DDB0C4A90420AD055
:10216800826942B91A698A4202DCFFF795FFE2E701
:10217800521A1A6138BD00232361FBE7B00300201F
:1021880084030020B8030020B4030020400100208D
:1021980070B50446183000F093FF4FF01003EFF3CA
:1021A800118683F31188BFF36F8F94F90D30002BDC
:1021B80007DA0F482146FFF7C7FE637B03F07F036A
:1021C80063730C4D637BA86843F010036373031BB0
:1021D80058425841FFF7CEFE86F31188BFF36F8F40
:1021E800AB68A34203D1BDE8704000F00ABF70BDE0
:1021F800A803002084030020036E2DE9F041044663
:1022080003B1984704F1180000F05AFF4FF010038B
:10221800EFF3118683F31188BFF36F8F637BD806C2
:1022280023D1A2690ABB190607D51F482146FFF723
:102238008BFE637B03F07F0363731C4B9868021B60
:1022480050425041FFF796FE637B43F008036373E7
:1022580004F130080027256B454500D095B986F371
:102268001188BFF36F8FBDE8F0819B07ECD5A0689C
:102278002146FFF769FE637B23F0020363730023A3
:10228800A360E1E705F1180000F01AFFA8682946E5
:10229800FFF75AFE6B7BAF6023F002036B73EF67A7
:1022A8002846FFF7A7FED6E7A803002084030020EE
:1022B80008B590F90D30002B014606DA0748FFF7FC
:1022C80043FE4B7B03F07F034B73054B9868431A1F
:1022D80058425841BDE80840FFF74CBEA80300200B
:1022E80084030020F8B5054600F02AFF2C184FF0AB
:1022F8001003EFF3118783F31188BFF36F8F0D4E2F
:102308000D4BB068186000F0CBFEB0680B492A4648
:10231800EB17183000F04EF9B268537B43F0100306
:1023280053733846FEF722FD00F00AFF201A20EA10
:10233800E070F8BD84030020B0030020533000088B
:10234800044B002103F12402C3E909220846FFF7E0
:10235800C7BD00BF84030020F8B5244C244BA268F5
:102368009A4230D04FF01003EFF3118583F31188B0
:10237800BFF36F8FA16804F12400FFF7E5FD636ADE
:10238800A268A16A834208BF0023002B38BF00233C
:102398002BB392F90E7093F90E60B74203DB8B42B0
:1023A8001DD01B68F4E75968C2E900310A605A6019
:1023B800537B63F07F0353730120FFF7DBFD85F345
:1023C8001188BFF36F8F4FF01003EFF3118083F381
:1023D8001188BFF36F8FBDE8F840FEF7C7BCC2E9AC
:1023E8000001A36A1A60A262E2E700BF840300202A
:1023F800400100200B46013308BFB0F1FF3F10B584
:1024080006D10B4B9868FFF7C3FE4FF0FF3010BDA5
:10241800044640B9FFF7A0FF0A2200232046E1172F
:10242800FDF7AEFEF3E7FFF75DFF0446F4E700BFF4
:1024380084030020014B9868704700BF8403002084
:102448002DE9FF4100F13005C0E90C550E9D0573DB
:1024580004254573D61D0D9D85730C9A002526F01D
:102468000706C0E90655C0E91A16C5730567029242
:102478000B9A019201EB06080A9A0092424604461A
:10248800FEF7EAFC054B9B68C4E9175503B15B6F7F
:102498006367404604B0BDE8F08100BF84030020B4
:1024A800F0B5224F224D87B03E46BD4205F13004BB
:1024B8000BD3FFF735FD1E4C1E4F0A25B44221D31E
:1024C80007B0BDE8F040FFF779BD54F8043C059328
:1024D80054F8103C049354F8143C039354F8183CF3
:1024E800029354F81C3C019354F8203C009354E99F
:1024F8000A2354E90C01FFF7A3FF54F8303CDD65CB
:102508002546D2E7626A531C09D022EAE27282FBAE
:10251800052352EA0301206803D1FFF79FFD3034F9
:10252800CCE73946183000F045F8F8E728010020D4
:102538002801002053300008034B1B680BB9FEF735
:10254800F7BB0020704700BFBC03002030B503680C
:1025580068B10A4A5268904209D043B1D3E90421CC
:10256800D0E90445121945EB0101C3E90421426889
:1025780013605A600023C0E9003330BD30000020EA
:102588000A4B10B51C689C4208BF0024FFF7D4FF13
:1025980044B12369181A064B1B6913B19842A8BFA6
:1025A800184610BD6FF00040F5E700BF300000206E
:1025B800840300202DE9F74F019119464B1C08BFF1
:1025C800B2F1FF3F82466CD0541C6FF0010341F119
:1025D80000054FF0FF3BB3EB04086BEB0509B8F1BE
:1025E800000F79F100030FDBFFF7A6FF334AD2E9AA
:1025F800001C6FF001035B1A6BEB0C021E1B62EBF5
:102608000507341A67EBE075019BCAF808304FF0EC
:102618001003EFF3118683F31188BFF36F8FFFF771
:102628008BFF012C75F10003254BB8BF01241A68F4
:10263800B8BF0025241845EBE0759A42CAE904455D
:1026480001D05F6852B95A68CAF804205A68CAF8B3
:102658000030C2F800A0C3F804A014E0D2E904894D
:10266800DAE904454D4508BF44451DD2B8EB0400DE
:1026780069EB0501C2E904015168CAE90021C1F802
:1026880000A0C2F804A01A689A4206D0924504D164
:10269800FFF776FF0021FEF7E7FA86F31188BFF30C
:1026A8006F8F03B0BDE8F08FB4EB080065EB09014C
:1026B800BA42CAE90401C6D01268C3E74002002042
:1026C800300000202DE9F74F0646FFF72BFD4FF0AD
:1026D8001003EFF3118483F31188BFF36F8F2D4D2F
:1026E800DFF8B4A0DFF8B4B02E605146D5F800C0CA
:1026F800DBF800006246D3175845CDE90023DAE934
:1027080000890ED068B1D0E90467BB4208BFB44560
:102718001ED2009BB6EB030C019B67EB0306C0E9D6
:1027280004C6009B13EB0802019B4FF0000643EB25
:102738000903C1E900232E60FFF722FF3146FEF7A7
:1027480093FA84F31188BFF36F8F03B0BDE8F08F5D
:1027580018EB06084FF000024FF0000349EBE6794A
:10276800C0E90423ACEB0606CAE900892E60FFF72E
:10277800EDFE84F31188BFF36F8F836898474FF09D
:102788001003EFF3118483F31188BFF36F8F0249AD
:10279800ACE700BFBC03002040020020300000204E
:1027A80010B54FF01003EFF3118483F31188BFF3D2
:1027B8006F8FFEF7BDFA064BD3E90023121843F1D9
:1027C800000384F31188BFF36F8F1046194610BDBC
:1027D8004002002038B5064C064DAC4201D300201B
:1027E80038BDD4E90112204600F0C2FC1434F4E7E5
:1027F8002801002028010020002070470FB407B5E9
:1028080004A951F8040B0191FDF7E6FF03B05DF848
:1028180004EB04B07047044608B5084611461A464A
:10282800A047FFF707FEFEF79BFC836800EBC1019A
:10283800B3F5004F2CBF51F8220031F81200704751
:1028480000EBC1018068B0F5004F2CBF41F8223081
:1028580021F81230704708B50122FFF7E6FF40085B
:1028680008BD8368B3F5004F00EBC10108D34B687E
:102878001AB143F001034B60704723F00103FAE7F4
:102888004B881AB143F001034B80704723F00103D2
:10289800FAE753000122FFF7D3BF80680131B0F592
:1028A800004F2CBF02200120081AB0FA80F0C0F1B6
:1028B8001F0070472DE9F04104460D46FFF7CBFF96
:1028C800A368B3F5004F014601D3012835D020464F
:1028D800FFF7E3FF04EB800216699EB9012303FAB0
:1028E80000F0E3680343E360294615612B460222A2
:1028F8002046FFF7A5FF032229462046BDE8F04100
:10290800FFF79EBF022231462046FFF78EFF0222C4
:102918000346074629462046FFF792FF334603221F
:1029280029462046FFF78CFF032239462B462046CE
:10293800FFF786FF02223146DFE7BDE8F081B2F5F6
:10294800802FF8B52CBF08250425551BCC1D0D4438
:1029580024F0070425F00705002200232D1B04603E
:10296800ED08C4E9002300232946A560E36020465A
:10297800FFF793FF86001B36411CF60804F110028E
:1029880018468B4229DB324620460021FFF781FF9B
:10299800AF1B204601220021FFF763FF3A4631466C
:1029A800FFF777FF3346314620460022FFF748FFFE
:1029B800294620460022FFF76CFF3B462946204661
:1029C8000022FFF73DFF294620460122FFF749FF75
:1029D8003146BDE8F840FFF76DBF42F8040B0133FC
:1029E800CFE77047024601210020FDF743BF0246AA
:1029F80002210120FDF73EBF024603210220FDF718
:102A080039BF024604210320FDF734BF02460521E1
:102A18000420FDF72FBF02460A210520FDF72ABF33
:102A2800024610210A20FDF725BF02461121102079
:102A3800FDF720BF024613211220FDF71BBF0246F7
:102A480016211520FDF716BF024617211620FDF79F
:102A580011BF002208B511460620FEF7E5F900224D
:102A680011460720FEF7E0F9002211460820FEF77C
:102A7800DBF9002211460920FEF7D6F9002211469B
:102A88000A20FEF7D1F9002211461720FEF7CCF9EB
:102A9800002211462820FEF7C7F90022114601201E
:102AA800FEF7C2F9002211462A20FEF7BDF90022DE
:102AB80011460220FEF7B8F9002211460320FEF75E
:102AC800B3F9002008BD4FF4A8730822C0E9002319
:102AD80000238360704770470021012000F000B890
:102AE80000F05DBA0146006800F059BA08B5FEF773
:102AF800FBF9BDE80840FEF719BB431E013913F87E
:102B0800012F11F8010F824201D1002AF7D1101AC2
:102B18007047F0B581EA0004A50703460BD0013BD6
:102B28000A4491421BD1F0BD002AFCD011F8014B98
:102B380003F8014B013A9C07F6D122F003041D1F4C
:102B480096080F19B94205D16FF0030505FB062257
:102B58002344E4E751F804CB45F804CFF2E711F831
:102B6800014B03F8014FDCE770B5C9B203469C0777
:102B780011D141EA012422F0030644EA04451E4427
:102B88009408B3420DD16FF0030505FB04221A44E3
:102B9800934209D170BD002AFCD003F8011B013A09
:102BA800E5E743F8045BECE703F8011BF0E74FF0B7
:102BB800FF307047CB6870B50E46596899B10C68FC
:102BC8000125002C38BF002485408A682A4002D09D
:102BD8004B683046984734B12368002B38BF002330
:102BE80021461C46F1E770BD43685B681B690B60B2
:102BF8000020704743685B68586942400A40424079
:102C08005A610020704743685B68002099617047EB
:102C180043685B68090499610020704743685A68F3
:102C280053694B40536100207047C368586830B5FA
:102C380058B10024814213D108685CB99C68586077
:102C4800A14200D198600020086072B9002030BD10
:102C58002846EFE720609868814208BF9C60F2E749
:102C680005680446002DF3D13AB15A680A6098689D
:102C780059600028EAD19960E9E76FF01500E6E7A6
:102C8800F0B501248C4094FAA4F7B7FA87F7D0F886
:102C980000C07F004FF0030E0EFA07F72CEA070C6E
:102CA80094FAA4F7B7FA87F7C2F301157F0002F088
:102CB8003006BD4045EA0C05202E056015D10729D0
:102CC80048DC94FAA4F5076A0DB1B5FA85F60F2524
:102CD800B60005FA06F694FAA4F5B5FA85F5AD003E
:102CE80027EA0606AB40334303624568C2F3801304
:102CF80003FA01F125EA04031943416094FAA4F1A7
:102D0800B1FA81F185680326490006FA01F125EA3E
:102D1800010594FAA4F1B1FA81F1C2F3C113490093
:102D28008B402B43836094FAA4F3B3FA83F3C1680E
:102D380094FAA4F45B00B4FA84F4C2F3412206FACC
:102D480003F3640021EA030302FA04F41C43C46099
:102D58000020F0BD250A476A95FAA5FCBCF1000FD2
:102D680001D0BCFA8CF6B6004FF00F0C95FAA5F519
:102D7800B5FA85F50CFA06F6AD0027EA0606AB406B
:102D880033434362B1E738B513469A0545680C46A4
:102D980018D599070FD55A072ED55022D9060CD524
:102DA80042F4007219051DD45B0514D50121A14018
:102DB800FFF72EFF0FE01022F0E79906F2D542F454
:102DC8008062EFE7D90512D5DA0612D413F0200293
:102DD80018BF4FF48062686800232146FFF750FF50
:102DE800002038BD69680123A3408B61F3E73022D6
:102DF800F1E74FF40072EEE76FF02200F1E741636C
:102E0800704781637047C16370470164704710B5AC
:102E18004368C4685968236800200131B3FBF1F3A3
:102E2800C2E9003010BD82B003680193019B43687A
:102E38000193019B02B07047C3681B680B6043682D
:102E48001A68D36803F4C063B3F5806F23D0A3F581
:102E5800C060434243410B71136903F44053B3F517
:102E6800805F1AD0B3F5405F19D0002B14BF03233D
:102E780001234B71D36813F4805F14BF0423032329
:102E88008B71536903F44073A3F540725342534165
:102E9800CB71002070470223DDE70023E9E7022316
:102EA800E7E708B54368186803681A0701D5FFF70C
:102EB800BAFF03689B0643BF43680B7000204FF0BE
:102EC800FF3008BD43681B681A681206FCD56FF00E
:102ED80040021A605960704708B54368186802686C
:102EE8000368DB070368C2F3C00248BF42F002026E
:102EF800990748BF42F00402D30701D5FFF793FFB3
:102F0800910701D5FFF78FFF530701D5FFF78BFF17
:102F1800FFF789FF104608BDC36837B50D464168FD
:102F2800586851F8084B836801AADB68984700285D
:102F380014DB01981921AA00AB0FA0FB0101FDF7D2
:102F48001FF96422B0FBF2F102FB11031B013233BB
:102F5800B3FBF2F303EB01139BB2A36003B030BDE4
:102F680000234FF0FF32C0E902230380436003745B
:102F780070470023C0E90033C0E90233C0E90433D5
:102F8800C0E9063370474FF01002EFF3118382F364
:102F98001188BFF36F8FFEE708B5FFF7F4FFF8B5A8
:102FA80005460E464FF01003EFF3118783F311889F
:102FB800BFF36F8FFFF73EFA314604462846FFF706
:102FC800EBFF87F31188BFF36F8F2046BDE8F84009
:102FD800FEF7C6B821B9EFF3058008B9FDF7C6BEFC
:102FE80081F31188BFF36F8F7047034620B9EFF361
:102FF80005820AB9FDF7BABE83F31188BFF36F8F54
:1030080070474FF01003EFF3118083F31188BFF37B
:103018006F8FFFF7EABF03460068834203D000289A
:1030280038BF002070470020704710B54FF01003DC
:10303800EFF3118483F31188BFF36F8FFEF7DAFF84
:1030480084F31188BFF36F8F10BD38B550F8103C6A
:103058000446A0F11801C3B14FF01003EFF3118536
:1030680083F31188BFF36F8F50F8100CFEF76CFFD5
:1030780014F80B3C23F0020304F80B3C002344F83B
:10308800103C85F31188BFF36F8F14F80B3C23F0C5
:10309800140304F80B3C0846BDE83840FFF7C5BFE9
:1030A80010B54FF01003EFF3118483F31188BFF3C9
:1030B8006F8FFFF7FDF884F31188BFF36F8F10BD92
:1030C80010B54FF01002EFF3118482F31188BFF3AB
:1030D8006F8F03683BB1FFF739FA002084F311883A
:1030E800BFF36F8F10BD6FF01500F7E710B54FF005
:1030F8001003EFF3118483F31188BFF36F8FFFF789
:103108003FFA84F31188BFF36F8F10BD70B5044682
:103118000D464FF01003EFF3118683F31188BFF3C8
:103128006F8FFFF72DFA012805DDA04203DD294640
:103138002046FDF799FD86F31188BFF36F8F70BDA8
:1031480008B5FFF72DFB08BD08B54FF01002EFF3E7
:10315800118382F31188BFF36F8FFFF7C7FF012137
:103168000228D8BF0846FFF7D1FFFDF7AFFEECE70E
:1031780010B400F10C04C0E9034410BCFFF7DFBB36
:0231880070478E
:02318A00FFFF45
:08318C002CD0FF7F01000000C0
:10319400FD07000800000000850A00083800002030
:1031A4001913000800000000DD27000800000000DB
:1031B4009D120008000000005B2A0008480000205F
:1031C4005D170008580000205D1700086800002003
:1031D4002908000800000000390C000878000020CD
:1031E4003D140008880000203D14000898000020C9
:1031F4003D140008A80000203D140008B800002079
:103204003D140008C80000203D140008D800002028
:103214003D140008E80000203D140008F8000020D8
:103224003D14000808010020B91500081801002009
:1032340000000000E12A000848000020332A0008AA
:1032440048000020472A000848000020512A0008AE
:1032540000000000E12A000800000000E12A000844
:1032640048000020ED29000848000020F729000844
:1032740048000020012A0008480000200B2A00080A
:1032840048000020152A000800000000E12A000878
:1032940000000000E12A000800000000E12A000804
:1032A40000000000E12A000800000000E12A0008F4
:1032B40000000000E12A000800000000E12A0008E4
:1032C40000000000E12A000800000000E12A0008D4
:1032D40000000000E12A000800000000E12A0008C4
:1032E40000000000E12A0008480000201F2A00080E
:1032F40000000000E12A000800000000E12A0008A4
:1033040000000000E12A000800000000E12A000893
:1033140000000000E12A000800000000E12A000883
:1033240000000000E12A000800000000E12A000873
:1033340000000000E12A000800000000E12A000863
:1033440000000000E12A000800000000E12A000853
:1033540000000000E12A000800000000E12A000843
:1033640000000000E12A000800000000E12A000833
:1033740048000020292A000800000000E12A000873
:10338400480000203D2A000800000000E12A00084F
:1033940000000000E12A000800000000E12A000803
:1033A40000000000E12A000800000000E12A0008F3
:1033B40000000000E12A000800000000E12A0008E3
:1033C40000000000E12A000800000000E12A0008D3
:1033D40000000000E12A000800000000E12A0008C3
:1033E40000000000E12A000800000000E12A0008B3
:1033F40000000000E12A000800000000E12A0008A3
:1034040000000000E12A000800000000E12A000892
:1034140000000000E12A000800000000E12A000882
:1034240000000000E12A000800000000E12A000872
:1034340000000000E12A000800000000E12A000862
:1034440000000000E12A000800000000E12A000852
:1034540000000000E12A000800000000E12A000842
:1034640000000000E12A000800000000E12A000832
:1034740000000000E12A000800000000E12A000822
:1034840000000000E12A000800000000E12A000812
:1034940000000000E12A000800000000E12A000802
:1034A40000000000E12A000800000000E12A0008F2
:1034B40000000000E12A000800000000E12A0008E2
:1034C40003000000004000000100000002000000B2
:1034D40004000000080000001000000020000000AC
:1034E400400000008000000000010000FFFFFFFF1B
:1034F400FFFFFFFF02000000003500080000000885
:1035040011370008260002070000002019370008C0
:1035140020000B1116000000270200001700000015
:103524002700000002000000270200000300000042
:10353400270000000000000021020000FFFF00003F
:103544000000024000000000000000000100000034
:10355400FFFF000000040240010000000000000022
:1035640002000000FFFF000000080240020000000B
:103574000000000004000000FFFF0000000C0240F7
:10358400030000000000000008000000FFFF00002E
:1035940000100240040000000000000010000000C1
:1035A400FFFF0000001402400500000000000000BE
:1035B40020000000FFFF0000001802400600000089
:1035C4000000000040000000FFFF0000001C02405B
:1035D400070000000000000080000000FFFF000062
:1035E400002002400800000000000000000100006C
:1035F4008F2D0008F12B0008FD2B00080F2C00086C
:10360400192C0008252C00082D130008332C000861
:103614000000000001000000100000000001000094
:103624000010000000000040000000000200000044
:103634000100000061140008172E0008072E00087E
:103644000B2E00080F2E0008132E00080010014056
:103654000000000003000000100000000000000053
:1036640000000000004400400000000002000000D0
:10367400000002000000000000000000AB2E000863
:10368400CD2E0008E12E000849160008412E00083E
:1036940094310008DC310008E431000834320008B9
:1036A40034320008F5FFFFFF0010000000304750DF
:1036B400494F440068656C6C6F20776F726C6400CE
:1036C4003031323334353637383961626364656694
:1036D40000554152545F320073746D33322D657856
:1036E400746900060708090A1717171717282828E6
:1036F40028282801FF2AFFFF020373746D33322D3B
:103704006363007379735F636C6F636B00464C4152
:1037140053485F30005352414D5F30004750494F8A
:1037240049004750494F48004750494F47004750C8
:10373400494F46004750494F45004750494F4300C1
:103744004750494F42004750494F410050574D5F41
:1037540032000000000004040400020406080A0CFD
:1037640000000800000008554152545F3100000079
:1037740000000000000001020304060708097A653E
:10378400706879722D76322E332E302D31353232E7
:103794002D67653930383733663239306532002A5F
:1037A4002A2A20426F6F74696E67205A657068799F
:1037B40072204F53206275696C6420257320257331
:0C37C400202A2A2A0A006D61696E0000AC
:1037D0000128000899090008090A000800000000F3
:1037E0005D0A000800000000B72B000800C20100BD
:1037F0000000000000C20100000000000024F400EE
:08380000300000203000002020
:10380800FE36000800000000040000200000000050
:10381800DC36000800000000000000004C02002018
:10382800D5360008683600088036000824000020D5
:103838006B37000850360008803600081C0000204E
:10384800073700080000000000000000000000002A
:1038580020370008E0350008F4350008740300201C
:1038680026370008CC350008F43500086803002026
:103878002C370008B8350008F43500085C03002030
:1038880032370008A4350008F4350008500300203A
:103898003837000890350008F43500084403002044
:1038A800B23600087C350008F435000838030020DB
:1038B8003E37000868350008F43500082C0300205E
:1038C8004437000854350008F43500082003002068
:1038D8004A37000840350008F43500081403002072
:1038E80050370008283600083836000880030020C2
:1038F800280100202801002000000000000000002E
:043908000F000000AC
:0400000508000F657B
:00000001FF
